{
  "_format": "hh-sol-artifact-1",
  "contractName": "MockHyperlendPool",
  "sourceName": "contracts/mocks/MockHyperlendPool.sol",
  "abi": [
    {
      "inputs": [
        {
          "internalType": "address",
          "name": "_usdt0",
          "type": "address"
        },
        {
          "internalType": "address",
          "name": "_whype",
          "type": "address"
        }
      ],
      "stateMutability": "nonpayable",
      "type": "constructor"
    },
    {
      "inputs": [
        {
          "internalType": "address",
          "name": "asset",
          "type": "address"
        },
        {
          "internalType": "uint256",
          "name": "amount",
          "type": "uint256"
        },
        {
          "internalType": "uint256",
          "name": "",
          "type": "uint256"
        },
        {
          "internalType": "uint16",
          "name": "",
          "type": "uint16"
        },
        {
          "internalType": "address",
          "name": "onBehalfOf",
          "type": "address"
        }
      ],
      "name": "borrow",
      "outputs": [],
      "stateMutability": "nonpayable",
      "type": "function"
    },
    {
      "inputs": [
        {
          "internalType": "address",
          "name": "",
          "type": "address"
        }
      ],
      "name": "getUserAccountData",
      "outputs": [
        {
          "internalType": "uint256",
          "name": "totalCollateralBase",
          "type": "uint256"
        },
        {
          "internalType": "uint256",
          "name": "totalDebtBase",
          "type": "uint256"
        },
        {
          "internalType": "uint256",
          "name": "availableBorrowsBase",
          "type": "uint256"
        },
        {
          "internalType": "uint256",
          "name": "currentLiquidationThreshold",
          "type": "uint256"
        },
        {
          "internalType": "uint256",
          "name": "ltv",
          "type": "uint256"
        },
        {
          "internalType": "uint256",
          "name": "healthFactor",
          "type": "uint256"
        }
      ],
      "stateMutability": "pure",
      "type": "function"
    },
    {
      "inputs": [
        {
          "internalType": "address",
          "name": "asset",
          "type": "address"
        },
        {
          "internalType": "uint256",
          "name": "amount",
          "type": "uint256"
        },
        {
          "internalType": "uint256",
          "name": "",
          "type": "uint256"
        },
        {
          "internalType": "address",
          "name": "",
          "type": "address"
        }
      ],
      "name": "repay",
      "outputs": [
        {
          "internalType": "uint256",
          "name": "",
          "type": "uint256"
        }
      ],
      "stateMutability": "nonpayable",
      "type": "function"
    },
    {
      "inputs": [
        {
          "internalType": "address",
          "name": "asset",
          "type": "address"
        },
        {
          "internalType": "uint256",
          "name": "amount",
          "type": "uint256"
        },
        {
          "internalType": "address",
          "name": "",
          "type": "address"
        },
        {
          "internalType": "uint16",
          "name": "",
          "type": "uint16"
        }
      ],
      "name": "supply",
      "outputs": [],
      "stateMutability": "nonpayable",
      "type": "function"
    },
    {
      "inputs": [],
      "name": "usdt0",
      "outputs": [
        {
          "internalType": "address",
          "name": "",
          "type": "address"
        }
      ],
      "stateMutability": "view",
      "type": "function"
    },
    {
      "inputs": [],
      "name": "whype",
      "outputs": [
        {
          "internalType": "address",
          "name": "",
          "type": "address"
        }
      ],
      "stateMutability": "view",
      "type": "function"
    },
    {
      "inputs": [
        {
          "internalType": "address",
          "name": "asset",
          "type": "address"
        },
        {
          "internalType": "uint256",
          "name": "amount",
          "type": "uint256"
        },
        {
          "internalType": "address",
          "name": "to",
          "type": "address"
        }
      ],
      "name": "withdraw",
      "outputs": [
        {
          "internalType": "uint256",
          "name": "",
          "type": "uint256"
        }
      ],
      "stateMutability": "nonpayable",
      "type": "function"
    }
  ],
  "bytecode": "0x608060405234801561001057600080fd5b5060405161060438038061060483398101604081905261002f9161007c565b600080546001600160a01b039384166001600160a01b031991821617909155600180549290931691161790556100af565b80516001600160a01b038116811461007757600080fd5b919050565b6000806040838503121561008f57600080fd5b61009883610060565b91506100a660208401610060565b90509250929050565b610546806100be6000396000f3fe608060405234801561001057600080fd5b506004361061007d5760003560e01c806369328dec1161005b57806369328dec146100e8578063a415bcad146100fb578063a9d3c87f1461010e578063bf92857c1461012157600080fd5b806346e2531214610082578063573ade81146100b2578063617ba037146100d3575b600080fd5b600154610095906001600160a01b031681565b6040516001600160a01b0390911681526020015b60405180910390f35b6100c56100c036600461039f565b610186565b6040519081526020016100a9565b6100e66100e13660046103f7565b61020a565b005b6100c56100f6366004610439565b610288565b6100e6610109366004610475565b610308565b600054610095906001600160a01b031681565b61015961012f3660046104cc565b64e8d4a5100064746a5288006445d964b800612134611f40671bc16d674ec8000091939550919395565b604080519687526020870195909552938501929092526060840152608083015260a082015260c0016100a9565b6040516323b872dd60e01b8152336004820152306024820152604481018490526000906001600160a01b038616906323b872dd906064016020604051808303816000875af11580156101dc573d6000803e3d6000fd5b505050506040513d601f19601f8201168201806040525081019061020091906104ee565b5092949350505050565b6040516323b872dd60e01b8152336004820152306024820152604481018490526001600160a01b038516906323b872dd906064016020604051808303816000875af115801561025d573d6000803e3d6000fd5b505050506040513d601f19601f8201168201806040525081019061028191906104ee565b5050505050565b60405163a9059cbb60e01b81526001600160a01b038281166004830152602482018490526000919085169063a9059cbb906044016020604051808303816000875af11580156102db573d6000803e3d6000fd5b505050506040513d601f19601f820116820180604052508101906102ff91906104ee565b50919392505050565b60405163a9059cbb60e01b81526001600160a01b0382811660048301526024820186905286169063a9059cbb906044016020604051808303816000875af1158015610357573d6000803e3d6000fd5b505050506040513d601f19601f8201168201806040525081019061037b91906104ee565b505050505050565b80356001600160a01b038116811461039a57600080fd5b919050565b600080600080608085870312156103b557600080fd5b6103be85610383565b935060208501359250604085013591506103da60608601610383565b905092959194509250565b803561ffff8116811461039a57600080fd5b6000806000806080858703121561040d57600080fd5b61041685610383565b93506020850135925061042b60408601610383565b91506103da606086016103e5565b60008060006060848603121561044e57600080fd5b61045784610383565b92506020840135915061046c60408501610383565b90509250925092565b600080600080600060a0868803121561048d57600080fd5b61049686610383565b945060208601359350604086013592506104b2606087016103e5565b91506104c060808701610383565b90509295509295909350565b6000602082840312156104de57600080fd5b6104e782610383565b9392505050565b60006020828403121561050057600080fd5b815180151581146104e757600080fdfea26469706673582212204f638974358eda708dc2dce2052cba2604030bcd0cab506460234dcdf19c231f64736f6c63430008140033",
  "linkReferences": {},
  "deployedLinkReferences": {}
}