{"contracts/HyperSwap.sol":{"HyperSwap":{"abi":[{"inputs":[{"internalType":"address","name":"_hyperswapRouter","type":"address"}],"stateMutability":"nonpayable","type":"constructor"},{"anonymous":false,"inputs":[],"name":"Paused","type":"event"},{"anonymous":false,"inputs":[{"indexed":true,"internalType":"address","name":"oldRouter","type":"address"},{"indexed":true,"internalType":"address","name":"newRouter","type":"address"}],"name":"RouterUpdated","type":"event"},{"anonymous":false,"inputs":[{"indexed":false,"internalType":"uint256","name":"oldSlippage","type":"uint256"},{"indexed":false,"internalType":"uint256","name":"newSlippage","type":"uint256"}],"name":"SlippageUpdated","type":"event"},{"anonymous":false,"inputs":[{"indexed":true,"internalType":"address","name":"user","type":"address"},{"indexed":true,"internalType":"address","name":"tokenIn","type":"address"},{"indexed":true,"internalType":"address","name":"tokenOut","type":"address"},{"indexed":false,"internalType":"uint256","name":"amountIn","type":"uint256"},{"indexed":false,"internalType":"uint256","name":"amountOut","type":"uint256"}],"name":"Swapped","type":"event"},{"anonymous":false,"inputs":[],"name":"Unpaused","type":"event"},{"inputs":[],"name":"HYPERSWAP_ROUTER","outputs":[{"internalType":"address","name":"","type":"address"}],"stateMutability":"view","type":"function"},{"inputs":[],"name":"UBTC","outputs":[{"internalType":"address","name":"","type":"address"}],"stateMutability":"view","type":"function"},{"inputs":[],"name":"UETH","outputs":[{"internalType":"address","name":"","type":"address"}],"stateMutability":"view","type":"function"},{"inputs":[],"name":"USDC","outputs":[{"internalType":"address","name":"","type":"address"}],"stateMutability":"view","type":"function"},{"inputs":[],"name":"USDH","outputs":[{"internalType":"address","name":"","type":"address"}],"stateMutability":"view","type":"function"},{"inputs":[],"name":"USDHL","outputs":[{"internalType":"address","name":"","type":"address"}],"stateMutability":"view","type":"function"},{"inputs":[],"name":"USDT0","outputs":[{"internalType":"address","name":"","type":"address"}],"stateMutability":"view","type":"function"},{"inputs":[],"name":"USDe","outputs":[{"internalType":"address","name":"","type":"address"}],"stateMutability":"view","type":"function"},{"inputs":[],"name":"USOL","outputs":[{"internalType":"address","name":"","type":"address"}],"stateMutability":"view","type":"function"},{"inputs":[],"name":"USR","outputs":[{"internalType":"address","name":"","type":"address"}],"stateMutability":"view","type":"function"},{"inputs":[],"name":"WHYPE","outputs":[{"internalType":"address","name":"","type":"address"}],"stateMutability":"view","type":"function"},{"inputs":[{"components":[{"internalType":"address","name":"tokenIn","type":"address"},{"internalType":"address","name":"tokenOut","type":"address"},{"internalType":"uint256","name":"amountIn","type":"uint256"},{"internalType":"uint256","name":"minAmountOut","type":"uint256"},{"internalType":"address[]","name":"customPath","type":"address[]"}],"internalType":"struct HyperSwap.SwapConfig[]","name":"swaps","type":"tuple[]"}],"name":"batchSwap","outputs":[{"internalType":"uint256[]","name":"amountsOut","type":"uint256[]"}],"stateMutability":"nonpayable","type":"function"},{"inputs":[],"name":"beHYPE","outputs":[{"internalType":"address","name":"","type":"address"}],"stateMutability":"view","type":"function"},{"inputs":[],"name":"defaultSlippageBps","outputs":[{"internalType":"uint256","name":"","type":"uint256"}],"stateMutability":"view","type":"function"},{"inputs":[{"internalType":"address","name":"token","type":"address"},{"internalType":"uint256","name":"amount","type":"uint256"}],"name":"emergencyWithdraw","outputs":[],"stateMutability":"nonpayable","type":"function"},{"inputs":[{"internalType":"address","name":"tokenIn","type":"address"},{"internalType":"address","name":"tokenOut","type":"address"},{"internalType":"uint256","name":"amountIn","type":"uint256"}],"name":"getQuote","outputs":[{"internalType":"uint256","name":"amountOut","type":"uint256"},{"internalType":"uint256","name":"minAmountOut","type":"uint256"}],"stateMutability":"view","type":"function"},{"inputs":[{"internalType":"uint256","name":"amountIn","type":"uint256"},{"internalType":"address[]","name":"path","type":"address[]"}],"name":"getQuoteWithPath","outputs":[{"internalType":"uint256","name":"amountOut","type":"uint256"},{"internalType":"uint256","name":"minAmountOut","type":"uint256"}],"stateMutability":"view","type":"function"},{"inputs":[],"name":"getSupportedTokens","outputs":[{"internalType":"address[]","name":"","type":"address[]"}],"stateMutability":"pure","type":"function"},{"inputs":[{"internalType":"uint256","name":"index","type":"uint256"}],"name":"getTokenInfo","outputs":[{"internalType":"address","name":"tokenAddress","type":"address"},{"internalType":"string","name":"name","type":"string"}],"stateMutability":"pure","type":"function"},{"inputs":[],"name":"hyperswapRouter","outputs":[{"internalType":"address","name":"","type":"address"}],"stateMutability":"view","type":"function"},{"inputs":[{"internalType":"address","name":"token","type":"address"}],"name":"isStablecoin","outputs":[{"internalType":"bool","name":"","type":"bool"}],"stateMutability":"pure","type":"function"},{"inputs":[],"name":"owner","outputs":[{"internalType":"address","name":"","type":"address"}],"stateMutability":"view","type":"function"},{"inputs":[],"name":"pause","outputs":[],"stateMutability":"nonpayable","type":"function"},{"inputs":[],"name":"paused","outputs":[{"internalType":"bool","name":"","type":"bool"}],"stateMutability":"view","type":"function"},{"inputs":[],"name":"sUSDe","outputs":[{"internalType":"address","name":"","type":"address"}],"stateMutability":"view","type":"function"},{"inputs":[{"internalType":"address","name":"newRouter","type":"address"}],"name":"setRouter","outputs":[],"stateMutability":"nonpayable","type":"function"},{"inputs":[{"internalType":"uint256","name":"newSlippage","type":"uint256"}],"name":"setSlippage","outputs":[],"stateMutability":"nonpayable","type":"function"},{"inputs":[{"internalType":"address","name":"tokenIn","type":"address"},{"internalType":"address","name":"tokenOut","type":"address"},{"internalType":"uint256","name":"amountIn","type":"uint256"},{"internalType":"uint256","name":"minAmountOut","type":"uint256"},{"internalType":"bool","name":"useCustomPath","type":"bool"},{"internalType":"address[]","name":"customPath","type":"address[]"}],"name":"swap","outputs":[{"internalType":"uint256","name":"amountOut","type":"uint256"}],"stateMutability":"nonpayable","type":"function"},{"inputs":[{"internalType":"address","name":"tokenOut","type":"address"},{"internalType":"uint256","name":"minAmountOut","type":"uint256"}],"name":"swapHYPEForToken","outputs":[{"internalType":"uint256","name":"amountOut","type":"uint256"}],"stateMutability":"payable","type":"function"},{"inputs":[{"internalType":"address","name":"stableIn","type":"address"},{"internalType":"address","name":"stableOut","type":"address"},{"internalType":"uint256","name":"amountIn","type":"uint256"}],"name":"swapStables","outputs":[{"internalType":"uint256","name":"amountOut","type":"uint256"}],"stateMutability":"nonpayable","type":"function"},{"inputs":[{"internalType":"address","name":"tokenIn","type":"address"},{"internalType":"uint256","name":"amountIn","type":"uint256"},{"internalType":"uint256","name":"minAmountOut","type":"uint256"}],"name":"swapTokenForHYPE","outputs":[{"internalType":"uint256","name":"amountOut","type":"uint256"}],"stateMutability":"nonpayable","type":"function"},{"inputs":[{"internalType":"address","name":"newOwner","type":"address"}],"name":"transferOwnership","outputs":[],"stateMutability":"nonpayable","type":"function"},{"inputs":[],"name":"unpause","outputs":[],"stateMutability":"nonpayable","type":"function"},{"inputs":[],"name":"wstHYPE","outputs":[{"internalType":"address","name":"","type":"address"}],"stateMutability":"view","type":"function"},{"stateMutability":"payable","type":"receive"}],"evm":{"bytecode":{"linkReferences":{},"object":"608060405260326002553480156200001657600080fd5b5060405162003148380380620031488339810160408190526200003991620000a9565b600080546001600160a01b031916331790556001600160a01b0381166200008657600180546001600160a01b03191673b4a9c4e6ea8e2191d2fa5b380452a634fb21240a179055620000a2565b600180546001600160a01b0319166001600160a01b0383161790555b50620000db565b600060208284031215620000bc57600080fd5b81516001600160a01b0381168114620000d457600080fd5b9392505050565b61305d80620000eb6000396000f3fe6080604052600436106101fd5760003560e01c80638c57a5c71161010d578063c0d78655116100a0578063defc2d791161006f578063defc2d791461063d578063e0d05d3914610665578063f0fa55a91461068d578063f2fde38b146106ad578063f61c8512146106cd57600080fd5b8063c0d78655146105b3578063c515ee23146105d3578063d1609502146105f3578063d3c7c2c71461061b57600080fd5b806395ccea67116100dc57806395ccea671461054257806395de8f3114610562578063966676211461058a578063a35ea8c2146105a057600080fd5b80638c57a5c7146104ac5780638c7a63ae146104d45780638d502a49146105025780638da5cb5b1461052257600080fd5b80634d5243af1161019057806371f39cd51161015f57806371f39cd5146103f757806382d2dcfb1461041f5780638456cb591461044757806386d4c4231461045c57806389a302711461048457600080fd5b80634d5243af1461036557806359f613a41461038d5780635a2207c1146103b55780635c975abb146103dd57600080fd5b806334debc88116101cc57806334debc88146102b95780633f4ba83a146102f15780634a67dad0146103085780634d1a7dee1461033d57600080fd5b80631a650cc71461020957806323e72fcd1461023e57806328766ed91461026c57806333d2b91a1461029957600080fd5b3661020457005b600080fd5b34801561021557600080fd5b50610229610224366004612892565b6106f5565b60405190151581526020015b60405180910390f35b34801561024a57600080fd5b5061025e6102593660046128b4565b610807565b604051908152602001610235565b34801561027857600080fd5b5061028c61028736600461293c565b610b10565b604051610235919061297e565b3480156102a557600080fd5b5061025e6102b43660046129c2565b610ec8565b3480156102c557600080fd5b506001546102d9906001600160a01b031681565b6040516001600160a01b039091168152602001610235565b3480156102fd57600080fd5b506103066111b8565b005b34801561031457600080fd5b506103286103233660046129f5565b611217565b60408051928352602083019190915201610235565b34801561034957600080fd5b506102d973b8ce59fc3717ada4c02eadf9682a9e934f625ebb81565b34801561037157600080fd5b506102d973068f321fa8fb9f0d135f290ef6a3e2813e1c8a2981565b34801561039957600080fd5b506102d973555555555555555555555555555555555555555581565b3480156103c157600080fd5b506102d973111111a1a0667d36bd57c0a9f569b9805711111181565b3480156103e957600080fd5b506003546102299060ff1681565b34801561040357600080fd5b506102d97394e8396e0869c9f2200760af0621afd240e1cf3881565b34801561042b57600080fd5b506102d973be6727b535545c67d5caa73dea54865b92cf790781565b34801561045357600080fd5b506103066112f2565b34801561046857600080fd5b506102d9739fdbda0a5e284c32744d2f17ee5c74b28499346381565b34801561049057600080fd5b506102d973b88339cb7199b77e23db6e890353e22632ba630f81565b3480156104b857600080fd5b506102d973b50a96253abdf803d85efcdce07ad8becbc52bd581565b3480156104e057600080fd5b506104f46104ef366004612a41565b611354565b604051610235929190612a5a565b34801561050e57600080fd5b5061025e61051d366004612ac9565b611ae4565b34801561052e57600080fd5b506000546102d9906001600160a01b031681565b34801561054e57600080fd5b5061030661055d366004612b54565b611e6d565b34801561056e57600080fd5b506102d973b4a9c4e6ea8e2191d2fa5b380452a634fb21240a81565b34801561059657600080fd5b5061025e60025481565b61025e6105ae366004612b54565b611f5a565b3480156105bf57600080fd5b506103066105ce366004612892565b61215d565b3480156105df57600080fd5b506103286105ee3660046128b4565b612220565b3480156105ff57600080fd5b506102d9735d3a1ff2b6bab83b63cd9ad0787074081a52ef3481565b34801561062757600080fd5b5061063061236a565b6040516102359190612bc2565b34801561064957600080fd5b506102d9730ad339d66bf4aed5ce31c64bc37b3244b6394a7781565b34801561067157600080fd5b506102d973211cc4dd073734da055fbf44a2b4667d5e5fe5d281565b34801561069957600080fd5b506103066106a8366004612a41565b612738565b3480156106b957600080fd5b506103066106c8366004612892565b6127e2565b3480156106d957600080fd5b506102d973d8fc8f0b03eba61f64d08b0bef69d80916e5dda981565b60006001600160a01b03821673b8ce59fc3717ada4c02eadf9682a9e934f625ebb148061073e57506001600160a01b03821673b88339cb7199b77e23db6e890353e22632ba630f145b8061076557506001600160a01b03821673111111a1a0667d36bd57c0a9f569b98057111111145b8061078c57506001600160a01b038216730ad339d66bf4aed5ce31c64bc37b3244b6394a77145b806107b357506001600160a01b03821673211cc4dd073734da055fbf44a2b4667d5e5fe5d2145b806107da57506001600160a01b038216735d3a1ff2b6bab83b63cd9ad0787074081a52ef34145b8061080157506001600160a01b03821673b50a96253abdf803d85efcdce07ad8becbc52bd5145b92915050565b60035460009060ff16156108365760405162461bcd60e51b815260040161082d90612bd5565b60405180910390fd5b61083f846106f5565b801561084f575061084f836106f5565b61088d5760405162461bcd60e51b815260206004820152600f60248201526e4e6f7420737461626c65636f696e7360881b604482015260640161082d565b600061271061089e84612706612c0b565b6108a89190612c22565b6040516323b872dd60e01b81529091506001600160a01b038616906323b872dd906108db90339030908890600401612c44565b6020604051808303816000875af11580156108fa573d6000803e3d6000fd5b505050506040513d601f19601f8201168201806040525081019061091e9190612c68565b5060015460405163095ea7b360e01b81526001600160a01b039182166004820152602481018590529086169063095ea7b3906044016020604051808303816000875af1158015610972573d6000803e3d6000fd5b505050506040513d601f19601f820116820180604052508101906109969190612c68565b5060408051600280825260608201835260009260208301908036833701905050905085816000815181106109cc576109cc612c9b565b60200260200101906001600160a01b031690816001600160a01b0316815250508481600181518110610a0057610a00612c9b565b6001600160a01b039283166020918202929092010152600154600091166338ed173986858533610a324261012c612cb1565b6040518663ffffffff1660e01b8152600401610a52959493929190612cc4565b6000604051808303816000875af1158015610a71573d6000803e3d6000fd5b505050506040513d6000823e601f3d908101601f19168201604052610a999190810190612d7e565b905080600181518110610aae57610aae612c9b565b60200260200101519350856001600160a01b0316876001600160a01b0316336001600160a01b03166000805160206130088339815191528888604051610afe929190918252602082015260400190565b60405180910390a45050509392505050565b60035460609060ff1615610b365760405162461bcd60e51b815260040161082d90612bd5565b8167ffffffffffffffff811115610b4f57610b4f612c85565b604051908082528060200260200182016040528015610b78578160200160208202803683370190505b50905060005b82811015610ec1576000848483818110610b9a57610b9a612c9b565b9050602002810190610bac9190612e14565b610bb590612e34565b805160408083015190516323b872dd60e01b81529293506001600160a01b03909116916323b872dd91610bee9133913091600401612c44565b6020604051808303816000875af1158015610c0d573d6000803e3d6000fd5b505050506040513d601f19601f82011682018060405250810190610c319190612c68565b508051600154604080840151905163095ea7b360e01b81526001600160a01b039283166004820152602481019190915291169063095ea7b3906044016020604051808303816000875af1158015610c8c573d6000803e3d6000fd5b505050506040513d601f19601f82011682018060405250810190610cb09190612c68565b506060600282608001515110610ccb57506080810151610d5c565b6040805160028082526060820183529091602083019080368337019050509050816000015181600081518110610d0357610d03612c9b565b60200260200101906001600160a01b031690816001600160a01b031681525050816020015181600181518110610d3b57610d3b612c9b565b60200260200101906001600160a01b031690816001600160a01b0316815250505b600154604083015160608401516000926001600160a01b0316916338ed1739918533610d8a4261012c612cb1565b6040518663ffffffff1660e01b8152600401610daa959493929190612cc4565b6000604051808303816000875af1158015610dc9573d6000803e3d6000fd5b505050506040513d6000823e601f3d908101601f19168201604052610df19190810190612d7e565b90508060018251610e029190612f0b565b81518110610e1257610e12612c9b565b6020026020010151858581518110610e2c57610e2c612c9b565b60200260200101818152505082602001516001600160a01b031683600001516001600160a01b0316336001600160a01b03166000805160206130088339815191528660400151898981518110610e8457610e84612c9b565b6020026020010151604051610ea3929190918252602082015260400190565b60405180910390a45050508080610eb990612f1e565b915050610b7e565b5092915050565b60035460009060ff1615610eee5760405162461bcd60e51b815260040161082d90612bd5565b60008311610f2c5760405162461bcd60e51b815260206004820152600b60248201526a16995c9bc8185b5bdd5b9d60aa1b604482015260640161082d565b6040516323b872dd60e01b81526001600160a01b038516906323b872dd90610f5c90339030908890600401612c44565b6020604051808303816000875af1158015610f7b573d6000803e3d6000fd5b505050506040513d601f19601f82011682018060405250810190610f9f9190612c68565b5060015460405163095ea7b360e01b81526001600160a01b039182166004820152602481018590529085169063095ea7b3906044016020604051808303816000875af1158015610ff3573d6000803e3d6000fd5b505050506040513d601f19601f820116820180604052508101906110179190612c68565b50604080516002808252606082018352600092602083019080368337019050509050848160008151811061104d5761104d612c9b565b60200260200101906001600160a01b031690816001600160a01b0316815250507355555555555555555555555555555555555555558160018151811061109557611095612c9b565b6001600160a01b039283166020918202929092010152600154600091166318cbafe5868685336110c74261012c612cb1565b6040518663ffffffff1660e01b81526004016110e7959493929190612cc4565b6000604051808303816000875af1158015611106573d6000803e3d6000fd5b505050506040513d6000823e601f3d908101601f1916820160405261112e9190810190612d7e565b90508060018151811061114357611143612c9b565b602002602001015192507355555555555555555555555555555555555555556001600160a01b0316866001600160a01b0316336001600160a01b031660008051602061300883398151915288876040516111a7929190918252602082015260400190565b60405180910390a450509392505050565b6000546001600160a01b031633146111e25760405162461bcd60e51b815260040161082d90612f37565b6003805460ff191690556040517fa45f47fdea8a1efdd9029a5691c7f759c32b7c698632b563573e155625d1693390600090a1565b60015460405163d06ca61f60e01b8152600091829182916001600160a01b03169063d06ca61f9061125090899089908990600401612f5b565b600060405180830381865afa15801561126d573d6000803e3d6000fd5b505050506040513d6000823e601f3d908101601f191682016040526112959190810190612d7e565b905080600182516112a69190612f0b565b815181106112b6576112b6612c9b565b602002602001015192506127106002546127106112d39190612f0b565b6112dd9085612c0b565b6112e79190612c22565b915050935093915050565b6000546001600160a01b0316331461131c5760405162461bcd60e51b815260040161082d90612f37565b6003805460ff191660011790556040517f9e87fac88ff661f02d44f95383c817fece4bce600a3dab7a54406878b965e75290600090a1565b60408051600d8082526101c082019092526000916060918391602082016101a080368337505060408051600d8082526101c082019092529293506000929150602082015b6060815260200190600190039081611398579050509050735555555555555555555555555555555555555555826000815181106113d7576113d7612c9b565b60200260200101906001600160a01b031690816001600160a01b0316815250506040518060400160405280600c81526020016b57726170706564204859504560a01b8152508160008151811061142f5761142f612c9b565b602002602001018190525073b8ce59fc3717ada4c02eadf9682a9e934f625ebb8260018151811061146257611462612c9b565b60200260200101906001600160a01b031690816001600160a01b03168152505060405180604001604052806005815260200164055534454360dc1b815250816001815181106114b3576114b3612c9b565b602002602001018190525073b88339cb7199b77e23db6e890353e22632ba630f826002815181106114e6576114e6612c9b565b60200260200101906001600160a01b031690816001600160a01b031681525050604051806040016040528060048152602001635553444360e01b8152508160028151811061153657611536612c9b565b602002602001018190525073111111a1a0667d36bd57c0a9f569b980571111118260038151811061156957611569612c9b565b60200260200101906001600160a01b031690816001600160a01b031681525050604051806040016040528060048152602001630aaa688960e31b815250816003815181106115b9576115b9612c9b565b6020026020010181905250730ad339d66bf4aed5ce31c64bc37b3244b6394a77826004815181106115ec576115ec612c9b565b60200260200101906001600160a01b031690816001600160a01b031681525050604051806040016040528060038152602001622aa9a960e91b8152508160048151811061163b5761163b612c9b565b602002602001018190525073211cc4dd073734da055fbf44a2b4667d5e5fe5d28260058151811061166e5761166e612c9b565b60200260200101906001600160a01b031690816001600160a01b03168152505060405180604001604052806005815260200164735553446560d81b815250816005815181106116bf576116bf612c9b565b6020026020010181905250735d3a1ff2b6bab83b63cd9ad0787074081a52ef34826006815181106116f2576116f2612c9b565b60200260200101906001600160a01b031690816001600160a01b031681525050604051806040016040528060048152602001635553446560e01b8152508160068151811061174257611742612c9b565b6020026020010181905250739fdbda0a5e284c32744d2f17ee5c74b2849934638260078151811061177557611775612c9b565b60200260200101906001600160a01b031690816001600160a01b031681525050604051806040016040528060048152602001635542544360e01b815250816007815181106117c5576117c5612c9b565b60200260200101819052507394e8396e0869c9f2200760af0621afd240e1cf38826008815181106117f8576117f8612c9b565b60200260200101906001600160a01b031690816001600160a01b031681525050604051806040016040528060078152602001667773744859504560c81b8152508160088151811061184b5761184b612c9b565b602002602001018190525073be6727b535545c67d5caa73dea54865b92cf79078260098151811061187e5761187e612c9b565b60200260200101906001600160a01b031690816001600160a01b031681525050604051806040016040528060048152602001630aa8aa8960e31b815250816009815181106118ce576118ce612c9b565b602002602001018190525073d8fc8f0b03eba61f64d08b0bef69d80916e5dda982600a8151811061190157611901612c9b565b60200260200101906001600160a01b031690816001600160a01b0316815250506040518060400160405280600681526020016562654859504560d01b81525081600a8151811061195357611953612c9b565b602002602001018190525073b50a96253abdf803d85efcdce07ad8becbc52bd582600b8151811061198657611986612c9b565b60200260200101906001600160a01b031690816001600160a01b031681525050604051806040016040528060058152602001641554d1121360da1b81525081600b815181106119d7576119d7612c9b565b602002602001018190525073068f321fa8fb9f0d135f290ef6a3e2813e1c8a2982600c81518110611a0a57611a0a612c9b565b60200260200101906001600160a01b031690816001600160a01b031681525050604051806040016040528060048152602001631554d3d360e21b81525081600c81518110611a5a57611a5a612c9b565b6020026020010181905250600d8510611aa55760405162461bcd60e51b815260206004820152600d60248201526c092dcecc2d8d2c840d2dcc8caf609b1b604482015260640161082d565b818581518110611ab757611ab7612c9b565b6020026020010151818681518110611ad157611ad1612c9b565b6020026020010151935093505050915091565b60035460009060ff1615611b0a5760405162461bcd60e51b815260040161082d90612bd5565b60008611611b485760405162461bcd60e51b815260206004820152600b60248201526a16995c9bc8185b5bdd5b9d60aa1b604482015260640161082d565b866001600160a01b0316886001600160a01b031603611b965760405162461bcd60e51b815260206004820152600a60248201526929b0b6b2903a37b5b2b760b11b604482015260640161082d565b6040516323b872dd60e01b81526001600160a01b038916906323b872dd90611bc690339030908b90600401612c44565b6020604051808303816000875af1158015611be5573d6000803e3d6000fd5b505050506040513d601f19601f82011682018060405250810190611c099190612c68565b5060015460405163095ea7b360e01b81526001600160a01b039182166004820152602481018890529089169063095ea7b3906044016020604051808303816000875af1158015611c5d573d6000803e3d6000fd5b505050506040513d601f19601f82011682018060405250810190611c819190612c68565b506060848015611c92575060028310155b15611cd357838380806020026020016040519081016040528093929190818152602001838360200280828437600092019190915250929350611d5c92505050565b60408051600280825260608201835290916020830190803683370190505090508881600081518110611d0757611d07612c9b565b60200260200101906001600160a01b031690816001600160a01b0316815250508781600181518110611d3b57611d3b612c9b565b60200260200101906001600160a01b031690816001600160a01b0316815250505b6001546000906001600160a01b03166338ed173989898533611d804261012c612cb1565b6040518663ffffffff1660e01b8152600401611da0959493929190612cc4565b6000604051808303816000875af1158015611dbf573d6000803e3d6000fd5b505050506040513d6000823e601f3d908101601f19168201604052611de79190810190612d7e565b90508060018251611df89190612f0b565b81518110611e0857611e08612c9b565b60200260200101519250886001600160a01b03168a6001600160a01b0316336001600160a01b03166000805160206130088339815191528b87604051611e58929190918252602082015260400190565b60405180910390a45050979650505050505050565b6000546001600160a01b03163314611e975760405162461bcd60e51b815260040161082d90612f37565b6001600160a01b038216611ee357600080546040516001600160a01b039091169183156108fc02918491818181858888f19350505050158015611ede573d6000803e3d6000fd5b505050565b60005460405163a9059cbb60e01b81526001600160a01b039182166004820152602481018390529083169063a9059cbb906044016020604051808303816000875af1158015611f36573d6000803e3d6000fd5b505050506040513d601f19601f82011682018060405250810190611ede9190612c68565b60035460009060ff1615611f805760405162461bcd60e51b815260040161082d90612bd5565b60003411611fbf5760405162461bcd60e51b815260206004820152600c60248201526b139bc812165411481cd95b9d60a21b604482015260640161082d565b6040805160028082526060820183526000926020830190803683370190505090507355555555555555555555555555555555555555558160008151811061200857612008612c9b565b60200260200101906001600160a01b031690816001600160a01b031681525050838160018151811061203c5761203c612c9b565b6001600160a01b03928316602091820292909201015260015460009116637ff36ab53486853361206e4261012c612cb1565b6040518663ffffffff1660e01b815260040161208d9493929190612fb1565b60006040518083038185885af11580156120ab573d6000803e3d6000fd5b50505050506040513d6000823e601f3d908101601f191682016040526120d49190810190612d7e565b9050806001815181106120e9576120e9612c9b565b60200260200101519250846001600160a01b03167355555555555555555555555555555555555555556001600160a01b0316336001600160a01b0316600080516020613008833981519152348760405161214d929190918252602082015260400190565b60405180910390a4505092915050565b6000546001600160a01b031633146121875760405162461bcd60e51b815260040161082d90612f37565b6001600160a01b0381166121ce5760405162461bcd60e51b815260206004820152600e60248201526d24b73b30b634b2103937baba32b960911b604482015260640161082d565b600180546001600160a01b038381166001600160a01b0319831681179093556040519116919082907f02dc5c233404867c793b749c6d644beb2277536d18a7e7974d3f238e4c6f168490600090a35050565b604080516002808252606082018352600092839283929091602083019080368337019050509050858160008151811061225b5761225b612c9b565b60200260200101906001600160a01b031690816001600160a01b031681525050848160018151811061228f5761228f612c9b565b6001600160a01b03928316602091820292909201015260015460405163d06ca61f60e01b8152600092919091169063d06ca61f906122d39088908690600401612fe6565b600060405180830381865afa1580156122f0573d6000803e3d6000fd5b505050506040513d6000823e601f3d908101601f191682016040526123189190810190612d7e565b90508060018151811061232d5761232d612c9b565b6020026020010151935061271060025461271061234a9190612f0b565b6123549086612c0b565b61235e9190612c22565b92505050935093915050565b60408051600d8082526101c0820190925260609160009190602082016101a080368337019050509050735555555555555555555555555555555555555555816000815181106123bb576123bb612c9b565b60200260200101906001600160a01b031690816001600160a01b03168152505073b8ce59fc3717ada4c02eadf9682a9e934f625ebb8160018151811061240357612403612c9b565b60200260200101906001600160a01b031690816001600160a01b03168152505073b88339cb7199b77e23db6e890353e22632ba630f8160028151811061244b5761244b612c9b565b60200260200101906001600160a01b031690816001600160a01b03168152505073111111a1a0667d36bd57c0a9f569b980571111118160038151811061249357612493612c9b565b60200260200101906001600160a01b031690816001600160a01b031681525050730ad339d66bf4aed5ce31c64bc37b3244b6394a77816004815181106124db576124db612c9b565b60200260200101906001600160a01b031690816001600160a01b03168152505073211cc4dd073734da055fbf44a2b4667d5e5fe5d28160058151811061252357612523612c9b565b60200260200101906001600160a01b031690816001600160a01b031681525050735d3a1ff2b6bab83b63cd9ad0787074081a52ef348160068151811061256b5761256b612c9b565b60200260200101906001600160a01b031690816001600160a01b031681525050739fdbda0a5e284c32744d2f17ee5c74b284993463816007815181106125b3576125b3612c9b565b60200260200101906001600160a01b031690816001600160a01b0316815250507394e8396e0869c9f2200760af0621afd240e1cf38816008815181106125fb576125fb612c9b565b60200260200101906001600160a01b031690816001600160a01b03168152505073be6727b535545c67d5caa73dea54865b92cf79078160098151811061264357612643612c9b565b60200260200101906001600160a01b031690816001600160a01b03168152505073d8fc8f0b03eba61f64d08b0bef69d80916e5dda981600a8151811061268b5761268b612c9b565b60200260200101906001600160a01b031690816001600160a01b03168152505073b50a96253abdf803d85efcdce07ad8becbc52bd581600b815181106126d3576126d3612c9b565b60200260200101906001600160a01b031690816001600160a01b03168152505073068f321fa8fb9f0d135f290ef6a3e2813e1c8a2981600c8151811061271b5761271b612c9b565b6001600160a01b0390921660209283029190910190910152919050565b6000546001600160a01b031633146127625760405162461bcd60e51b815260040161082d90612f37565b6101f481111561279d5760405162461bcd60e51b81526020600482015260066024820152654d617820352560d01b604482015260640161082d565b600280549082905560408051828152602081018490527f07af09e2b23ebab5dd29fa2271d6ca4795031f308caf26ca605f4a719ffeed61910160405180910390a15050565b6000546001600160a01b0316331461280c5760405162461bcd60e51b815260040161082d90612f37565b6001600160a01b0381166128545760405162461bcd60e51b815260206004820152600f60248201526e496e76616c6964206164647265737360881b604482015260640161082d565b600080546001600160a01b0319166001600160a01b0392909216919091179055565b80356001600160a01b038116811461288d57600080fd5b919050565b6000602082840312156128a457600080fd5b6128ad82612876565b9392505050565b6000806000606084860312156128c957600080fd5b6128d284612876565b92506128e060208501612876565b9150604084013590509250925092565b60008083601f84011261290257600080fd5b50813567ffffffffffffffff81111561291a57600080fd5b6020830191508360208260051b850101111561293557600080fd5b9250929050565b6000806020838503121561294f57600080fd5b823567ffffffffffffffff81111561296657600080fd5b612972858286016128f0565b90969095509350505050565b6020808252825182820181905260009190848201906040850190845b818110156129b65783518352928401929184019160010161299a565b50909695505050505050565b6000806000606084860312156129d757600080fd5b6129e084612876565b95602085013595506040909401359392505050565b600080600060408486031215612a0a57600080fd5b83359250602084013567ffffffffffffffff811115612a2857600080fd5b612a34868287016128f0565b9497909650939450505050565b600060208284031215612a5357600080fd5b5035919050565b60018060a01b038316815260006020604081840152835180604085015260005b81811015612a9657858101830151858201606001528201612a7a565b506000606082860101526060601f19601f830116850101925050509392505050565b8015158114612ac657600080fd5b50565b600080600080600080600060c0888a031215612ae457600080fd5b612aed88612876565b9650612afb60208901612876565b955060408801359450606088013593506080880135612b1981612ab8565b925060a088013567ffffffffffffffff811115612b3557600080fd5b612b418a828b016128f0565b989b979a50959850939692959293505050565b60008060408385031215612b6757600080fd5b612b7083612876565b946020939093013593505050565b600081518084526020808501945080840160005b83811015612bb75781516001600160a01b031687529582019590820190600101612b92565b509495945050505050565b6020815260006128ad6020830184612b7e565b60208082526006908201526514185d5cd95960d21b604082015260600190565b634e487b7160e01b600052601160045260246000fd5b808202811582820484141761080157610801612bf5565b600082612c3f57634e487b7160e01b600052601260045260246000fd5b500490565b6001600160a01b039384168152919092166020820152604081019190915260600190565b600060208284031215612c7a57600080fd5b81516128ad81612ab8565b634e487b7160e01b600052604160045260246000fd5b634e487b7160e01b600052603260045260246000fd5b8082018082111561080157610801612bf5565b85815284602082015260a060408201526000612ce360a0830186612b7e565b6001600160a01b0394909416606083015250608001529392505050565b60405160a0810167ffffffffffffffff81118282101715612d2357612d23612c85565b60405290565b604051601f8201601f1916810167ffffffffffffffff81118282101715612d5257612d52612c85565b604052919050565b600067ffffffffffffffff821115612d7457612d74612c85565b5060051b60200190565b60006020808385031215612d9157600080fd5b825167ffffffffffffffff811115612da857600080fd5b8301601f81018513612db957600080fd5b8051612dcc612dc782612d5a565b612d29565b81815260059190911b82018301908381019087831115612deb57600080fd5b928401925b82841015612e0957835182529284019290840190612df0565b979650505050505050565b60008235609e19833603018112612e2a57600080fd5b9190910192915050565b600060a08236031215612e4657600080fd5b612e4e612d00565b612e5783612876565b81526020612e66818501612876565b818301526040840135604083015260608401356060830152608084013567ffffffffffffffff811115612e9857600080fd5b840136601f820112612ea957600080fd5b8035612eb7612dc782612d5a565b81815260059190911b82018301908381019036831115612ed657600080fd5b928401925b82841015612efb57612eec84612876565b82529284019290840190612edb565b6080860152509295945050505050565b8181038181111561080157610801612bf5565b600060018201612f3057612f30612bf5565b5060010190565b6020808252600a908201526927b7363c9037bbb732b960b11b604082015260600190565b83815260406020808301829052908201839052600090849060608401835b86811015612fa5576001600160a01b03612f9285612876565b1682529282019290820190600101612f79565b50979650505050505050565b848152608060208201526000612fca6080830186612b7e565b6001600160a01b03949094166040830152506060015292915050565b828152604060208201526000612fff6040830184612b7e565b94935050505056fe6782190c91d4a7e8ad2a867deed6ec0a970cab8ff137ae2bd4abd92b3810f4d3a2646970667358221220b600db715e78a9ab0e8c4bf7f6b0e819e182ddc8221e4bf6850619478c89086864736f6c63430008140033","opcodes":"PUSH1 0x80 PUSH1 0x40 MSTORE PUSH1 0x32 PUSH1 0x2 SSTORE CALLVALUE DUP1 ISZERO PUSH3 0x16 JUMPI PUSH1 0x0 DUP1 REVERT JUMPDEST POP PUSH1 0x40 MLOAD PUSH3 0x3148 CODESIZE SUB DUP1 PUSH3 0x3148 DUP4 CODECOPY DUP2 ADD PUSH1 0x40 DUP2 SWAP1 MSTORE PUSH3 0x39 SWAP2 PUSH3 0xA9 JUMP JUMPDEST PUSH1 0x0 DUP1 SLOAD PUSH1 0x1 PUSH1 0x1 PUSH1 0xA0 SHL SUB NOT AND CALLER OR SWAP1 SSTORE PUSH1 0x1 PUSH1 0x1 PUSH1 0xA0 SHL SUB DUP2 AND PUSH3 0x86 JUMPI PUSH1 0x1 DUP1 SLOAD PUSH1 0x1 PUSH1 0x1 PUSH1 0xA0 SHL SUB NOT AND PUSH20 0xB4A9C4E6EA8E2191D2FA5B380452A634FB21240A OR SWAP1 SSTORE PUSH3 0xA2 JUMP JUMPDEST PUSH1 0x1 DUP1 SLOAD PUSH1 0x1 PUSH1 0x1 PUSH1 0xA0 SHL SUB NOT AND PUSH1 0x1 PUSH1 0x1 PUSH1 0xA0 SHL SUB DUP4 AND OR SWAP1 SSTORE JUMPDEST POP PUSH3 0xDB JUMP JUMPDEST PUSH1 0x0 PUSH1 0x20 DUP3 DUP5 SUB SLT ISZERO PUSH3 0xBC JUMPI PUSH1 0x0 DUP1 REVERT JUMPDEST DUP2 MLOAD PUSH1 0x1 PUSH1 0x1 PUSH1 0xA0 SHL SUB DUP2 AND DUP2 EQ PUSH3 0xD4 JUMPI PUSH1 0x0 DUP1 REVERT JUMPDEST SWAP4 SWAP3 POP POP POP JUMP JUMPDEST PUSH2 0x305D DUP1 PUSH3 0xEB PUSH1 0x0 CODECOPY PUSH1 0x0 RETURN INVALID PUSH1 0x80 PUSH1 0x40 MSTORE PUSH1 0x4 CALLDATASIZE LT PUSH2 0x1FD JUMPI PUSH1 0x0 CALLDATALOAD PUSH1 0xE0 SHR DUP1 PUSH4 0x8C57A5C7 GT PUSH2 0x10D JUMPI DUP1 PUSH4 0xC0D78655 GT PUSH2 0xA0 JUMPI DUP1 PUSH4 0xDEFC2D79 GT PUSH2 0x6F JUMPI DUP1 PUSH4 0xDEFC2D79 EQ PUSH2 0x63D JUMPI DUP1 PUSH4 0xE0D05D39 EQ PUSH2 0x665 JUMPI DUP1 PUSH4 0xF0FA55A9 EQ PUSH2 0x68D JUMPI DUP1 PUSH4 0xF2FDE38B EQ PUSH2 0x6AD JUMPI DUP1 PUSH4 0xF61C8512 EQ PUSH2 0x6CD JUMPI PUSH1 0x0 DUP1 REVERT JUMPDEST DUP1 PUSH4 0xC0D78655 EQ PUSH2 0x5B3 JUMPI DUP1 PUSH4 0xC515EE23 EQ PUSH2 0x5D3 JUMPI DUP1 PUSH4 0xD1609502 EQ PUSH2 0x5F3 JUMPI DUP1 PUSH4 0xD3C7C2C7 EQ PUSH2 0x61B JUMPI PUSH1 0x0 DUP1 REVERT JUMPDEST DUP1 PUSH4 0x95CCEA67 GT PUSH2 0xDC JUMPI DUP1 PUSH4 0x95CCEA67 EQ PUSH2 0x542 JUMPI DUP1 PUSH4 0x95DE8F31 EQ PUSH2 0x562 JUMPI DUP1 PUSH4 0x96667621 EQ PUSH2 0x58A JUMPI DUP1 PUSH4 0xA35EA8C2 EQ PUSH2 0x5A0 JUMPI PUSH1 0x0 DUP1 REVERT JUMPDEST DUP1 PUSH4 0x8C57A5C7 EQ PUSH2 0x4AC JUMPI DUP1 PUSH4 0x8C7A63AE EQ PUSH2 0x4D4 JUMPI DUP1 PUSH4 0x8D502A49 EQ PUSH2 0x502 JUMPI DUP1 PUSH4 0x8DA5CB5B EQ PUSH2 0x522 JUMPI PUSH1 0x0 DUP1 REVERT JUMPDEST DUP1 PUSH4 0x4D5243AF GT PUSH2 0x190 JUMPI DUP1 PUSH4 0x71F39CD5 GT PUSH2 0x15F JUMPI DUP1 PUSH4 0x71F39CD5 EQ PUSH2 0x3F7 JUMPI DUP1 PUSH4 0x82D2DCFB EQ PUSH2 0x41F JUMPI DUP1 PUSH4 0x8456CB59 EQ PUSH2 0x447 JUMPI DUP1 PUSH4 0x86D4C423 EQ PUSH2 0x45C JUMPI DUP1 PUSH4 0x89A30271 EQ PUSH2 0x484 JUMPI PUSH1 0x0 DUP1 REVERT JUMPDEST DUP1 PUSH4 0x4D5243AF EQ PUSH2 0x365 JUMPI DUP1 PUSH4 0x59F613A4 EQ PUSH2 0x38D JUMPI DUP1 PUSH4 0x5A2207C1 EQ PUSH2 0x3B5 JUMPI DUP1 PUSH4 0x5C975ABB EQ PUSH2 0x3DD JUMPI PUSH1 0x0 DUP1 REVERT JUMPDEST DUP1 PUSH4 0x34DEBC88 GT PUSH2 0x1CC JUMPI DUP1 PUSH4 0x34DEBC88 EQ PUSH2 0x2B9 JUMPI DUP1 PUSH4 0x3F4BA83A EQ PUSH2 0x2F1 JUMPI DUP1 PUSH4 0x4A67DAD0 EQ PUSH2 0x308 JUMPI DUP1 PUSH4 0x4D1A7DEE EQ PUSH2 0x33D JUMPI PUSH1 0x0 DUP1 REVERT JUMPDEST DUP1 PUSH4 0x1A650CC7 EQ PUSH2 0x209 JUMPI DUP1 PUSH4 0x23E72FCD EQ PUSH2 0x23E JUMPI DUP1 PUSH4 0x28766ED9 EQ PUSH2 0x26C JUMPI DUP1 PUSH4 0x33D2B91A EQ PUSH2 0x299 JUMPI PUSH1 0x0 DUP1 REVERT JUMPDEST CALLDATASIZE PUSH2 0x204 JUMPI STOP JUMPDEST PUSH1 0x0 DUP1 REVERT JUMPDEST CALLVALUE DUP1 ISZERO PUSH2 0x215 JUMPI PUSH1 0x0 DUP1 REVERT JUMPDEST POP PUSH2 0x229 PUSH2 0x224 CALLDATASIZE PUSH1 0x4 PUSH2 0x2892 JUMP JUMPDEST PUSH2 0x6F5 JUMP JUMPDEST PUSH1 0x40 MLOAD SWAP1 ISZERO ISZERO DUP2 MSTORE PUSH1 0x20 ADD JUMPDEST PUSH1 0x40 MLOAD DUP1 SWAP2 SUB SWAP1 RETURN JUMPDEST CALLVALUE DUP1 ISZERO PUSH2 0x24A JUMPI PUSH1 0x0 DUP1 REVERT JUMPDEST POP PUSH2 0x25E PUSH2 0x259 CALLDATASIZE PUSH1 0x4 PUSH2 0x28B4 JUMP JUMPDEST PUSH2 0x807 JUMP JUMPDEST PUSH1 0x40 MLOAD SWAP1 DUP2 MSTORE PUSH1 0x20 ADD PUSH2 0x235 JUMP JUMPDEST CALLVALUE DUP1 ISZERO PUSH2 0x278 JUMPI PUSH1 0x0 DUP1 REVERT JUMPDEST POP PUSH2 0x28C PUSH2 0x287 CALLDATASIZE PUSH1 0x4 PUSH2 0x293C JUMP JUMPDEST PUSH2 0xB10 JUMP JUMPDEST PUSH1 0x40 MLOAD PUSH2 0x235 SWAP2 SWAP1 PUSH2 0x297E JUMP JUMPDEST CALLVALUE DUP1 ISZERO PUSH2 0x2A5 JUMPI PUSH1 0x0 DUP1 REVERT JUMPDEST POP PUSH2 0x25E PUSH2 0x2B4 CALLDATASIZE PUSH1 0x4 PUSH2 0x29C2 JUMP JUMPDEST PUSH2 0xEC8 JUMP JUMPDEST CALLVALUE DUP1 ISZERO PUSH2 0x2C5 JUMPI PUSH1 0x0 DUP1 REVERT JUMPDEST POP PUSH1 0x1 SLOAD PUSH2 0x2D9 SWAP1 PUSH1 0x1 PUSH1 0x1 PUSH1 0xA0 SHL SUB AND DUP2 JUMP JUMPDEST PUSH1 0x40 MLOAD PUSH1 0x1 PUSH1 0x1 PUSH1 0xA0 SHL SUB SWAP1 SWAP2 AND DUP2 MSTORE PUSH1 0x20 ADD PUSH2 0x235 JUMP JUMPDEST CALLVALUE DUP1 ISZERO PUSH2 0x2FD JUMPI PUSH1 0x0 DUP1 REVERT JUMPDEST POP PUSH2 0x306 PUSH2 0x11B8 JUMP JUMPDEST STOP JUMPDEST CALLVALUE DUP1 ISZERO PUSH2 0x314 JUMPI PUSH1 0x0 DUP1 REVERT JUMPDEST POP PUSH2 0x328 PUSH2 0x323 CALLDATASIZE PUSH1 0x4 PUSH2 0x29F5 JUMP JUMPDEST PUSH2 0x1217 JUMP JUMPDEST PUSH1 0x40 DUP1 MLOAD SWAP3 DUP4 MSTORE PUSH1 0x20 DUP4 ADD SWAP2 SWAP1 SWAP2 MSTORE ADD PUSH2 0x235 JUMP JUMPDEST CALLVALUE DUP1 ISZERO PUSH2 0x349 JUMPI PUSH1 0x0 DUP1 REVERT JUMPDEST POP PUSH2 0x2D9 PUSH20 0xB8CE59FC3717ADA4C02EADF9682A9E934F625EBB DUP2 JUMP JUMPDEST CALLVALUE DUP1 ISZERO PUSH2 0x371 JUMPI PUSH1 0x0 DUP1 REVERT JUMPDEST POP PUSH2 0x2D9 PUSH20 0x68F321FA8FB9F0D135F290EF6A3E2813E1C8A29 DUP2 JUMP JUMPDEST CALLVALUE DUP1 ISZERO PUSH2 0x399 JUMPI PUSH1 0x0 DUP1 REVERT JUMPDEST POP PUSH2 0x2D9 PUSH20 0x5555555555555555555555555555555555555555 DUP2 JUMP JUMPDEST CALLVALUE DUP1 ISZERO PUSH2 0x3C1 JUMPI PUSH1 0x0 DUP1 REVERT JUMPDEST POP PUSH2 0x2D9 PUSH20 0x111111A1A0667D36BD57C0A9F569B98057111111 DUP2 JUMP JUMPDEST CALLVALUE DUP1 ISZERO PUSH2 0x3E9 JUMPI PUSH1 0x0 DUP1 REVERT JUMPDEST POP PUSH1 0x3 SLOAD PUSH2 0x229 SWAP1 PUSH1 0xFF AND DUP2 JUMP JUMPDEST CALLVALUE DUP1 ISZERO PUSH2 0x403 JUMPI PUSH1 0x0 DUP1 REVERT JUMPDEST POP PUSH2 0x2D9 PUSH20 0x94E8396E0869C9F2200760AF0621AFD240E1CF38 DUP2 JUMP JUMPDEST CALLVALUE DUP1 ISZERO PUSH2 0x42B JUMPI PUSH1 0x0 DUP1 REVERT JUMPDEST POP PUSH2 0x2D9 PUSH20 0xBE6727B535545C67D5CAA73DEA54865B92CF7907 DUP2 JUMP JUMPDEST CALLVALUE DUP1 ISZERO PUSH2 0x453 JUMPI PUSH1 0x0 DUP1 REVERT JUMPDEST POP PUSH2 0x306 PUSH2 0x12F2 JUMP JUMPDEST CALLVALUE DUP1 ISZERO PUSH2 0x468 JUMPI PUSH1 0x0 DUP1 REVERT JUMPDEST POP PUSH2 0x2D9 PUSH20 0x9FDBDA0A5E284C32744D2F17EE5C74B284993463 DUP2 JUMP JUMPDEST CALLVALUE DUP1 ISZERO PUSH2 0x490 JUMPI PUSH1 0x0 DUP1 REVERT JUMPDEST POP PUSH2 0x2D9 PUSH20 0xB88339CB7199B77E23DB6E890353E22632BA630F DUP2 JUMP JUMPDEST CALLVALUE DUP1 ISZERO PUSH2 0x4B8 JUMPI PUSH1 0x0 DUP1 REVERT JUMPDEST POP PUSH2 0x2D9 PUSH20 0xB50A96253ABDF803D85EFCDCE07AD8BECBC52BD5 DUP2 JUMP JUMPDEST CALLVALUE DUP1 ISZERO PUSH2 0x4E0 JUMPI PUSH1 0x0 DUP1 REVERT JUMPDEST POP PUSH2 0x4F4 PUSH2 0x4EF CALLDATASIZE PUSH1 0x4 PUSH2 0x2A41 JUMP JUMPDEST PUSH2 0x1354 JUMP JUMPDEST PUSH1 0x40 MLOAD PUSH2 0x235 SWAP3 SWAP2 SWAP1 PUSH2 0x2A5A JUMP JUMPDEST CALLVALUE DUP1 ISZERO PUSH2 0x50E JUMPI PUSH1 0x0 DUP1 REVERT JUMPDEST POP PUSH2 0x25E PUSH2 0x51D CALLDATASIZE PUSH1 0x4 PUSH2 0x2AC9 JUMP JUMPDEST PUSH2 0x1AE4 JUMP JUMPDEST CALLVALUE DUP1 ISZERO PUSH2 0x52E JUMPI PUSH1 0x0 DUP1 REVERT JUMPDEST POP PUSH1 0x0 SLOAD PUSH2 0x2D9 SWAP1 PUSH1 0x1 PUSH1 0x1 PUSH1 0xA0 SHL SUB AND DUP2 JUMP JUMPDEST CALLVALUE DUP1 ISZERO PUSH2 0x54E JUMPI PUSH1 0x0 DUP1 REVERT JUMPDEST POP PUSH2 0x306 PUSH2 0x55D CALLDATASIZE PUSH1 0x4 PUSH2 0x2B54 JUMP JUMPDEST PUSH2 0x1E6D JUMP JUMPDEST CALLVALUE DUP1 ISZERO PUSH2 0x56E JUMPI PUSH1 0x0 DUP1 REVERT JUMPDEST POP PUSH2 0x2D9 PUSH20 0xB4A9C4E6EA8E2191D2FA5B380452A634FB21240A DUP2 JUMP JUMPDEST CALLVALUE DUP1 ISZERO PUSH2 0x596 JUMPI PUSH1 0x0 DUP1 REVERT JUMPDEST POP PUSH2 0x25E PUSH1 0x2 SLOAD DUP2 JUMP JUMPDEST PUSH2 0x25E PUSH2 0x5AE CALLDATASIZE PUSH1 0x4 PUSH2 0x2B54 JUMP JUMPDEST PUSH2 0x1F5A JUMP JUMPDEST CALLVALUE DUP1 ISZERO PUSH2 0x5BF JUMPI PUSH1 0x0 DUP1 REVERT JUMPDEST POP PUSH2 0x306 PUSH2 0x5CE CALLDATASIZE PUSH1 0x4 PUSH2 0x2892 JUMP JUMPDEST PUSH2 0x215D JUMP JUMPDEST CALLVALUE DUP1 ISZERO PUSH2 0x5DF JUMPI PUSH1 0x0 DUP1 REVERT JUMPDEST POP PUSH2 0x328 PUSH2 0x5EE CALLDATASIZE PUSH1 0x4 PUSH2 0x28B4 JUMP JUMPDEST PUSH2 0x2220 JUMP JUMPDEST CALLVALUE DUP1 ISZERO PUSH2 0x5FF JUMPI PUSH1 0x0 DUP1 REVERT JUMPDEST POP PUSH2 0x2D9 PUSH20 0x5D3A1FF2B6BAB83B63CD9AD0787074081A52EF34 DUP2 JUMP JUMPDEST CALLVALUE DUP1 ISZERO PUSH2 0x627 JUMPI PUSH1 0x0 DUP1 REVERT JUMPDEST POP PUSH2 0x630 PUSH2 0x236A JUMP JUMPDEST PUSH1 0x40 MLOAD PUSH2 0x235 SWAP2 SWAP1 PUSH2 0x2BC2 JUMP JUMPDEST CALLVALUE DUP1 ISZERO PUSH2 0x649 JUMPI PUSH1 0x0 DUP1 REVERT JUMPDEST POP PUSH2 0x2D9 PUSH20 0xAD339D66BF4AED5CE31C64BC37B3244B6394A77 DUP2 JUMP JUMPDEST CALLVALUE DUP1 ISZERO PUSH2 0x671 JUMPI PUSH1 0x0 DUP1 REVERT JUMPDEST POP PUSH2 0x2D9 PUSH20 0x211CC4DD073734DA055FBF44A2B4667D5E5FE5D2 DUP2 JUMP JUMPDEST CALLVALUE DUP1 ISZERO PUSH2 0x699 JUMPI PUSH1 0x0 DUP1 REVERT JUMPDEST POP PUSH2 0x306 PUSH2 0x6A8 CALLDATASIZE PUSH1 0x4 PUSH2 0x2A41 JUMP JUMPDEST PUSH2 0x2738 JUMP JUMPDEST CALLVALUE DUP1 ISZERO PUSH2 0x6B9 JUMPI PUSH1 0x0 DUP1 REVERT JUMPDEST POP PUSH2 0x306 PUSH2 0x6C8 CALLDATASIZE PUSH1 0x4 PUSH2 0x2892 JUMP JUMPDEST PUSH2 0x27E2 JUMP JUMPDEST CALLVALUE DUP1 ISZERO PUSH2 0x6D9 JUMPI PUSH1 0x0 DUP1 REVERT JUMPDEST POP PUSH2 0x2D9 PUSH20 0xD8FC8F0B03EBA61F64D08B0BEF69D80916E5DDA9 DUP2 JUMP JUMPDEST PUSH1 0x0 PUSH1 0x1 PUSH1 0x1 PUSH1 0xA0 SHL SUB DUP3 AND PUSH20 0xB8CE59FC3717ADA4C02EADF9682A9E934F625EBB EQ DUP1 PUSH2 0x73E JUMPI POP PUSH1 0x1 PUSH1 0x1 PUSH1 0xA0 SHL SUB DUP3 AND PUSH20 0xB88339CB7199B77E23DB6E890353E22632BA630F EQ JUMPDEST DUP1 PUSH2 0x765 JUMPI POP PUSH1 0x1 PUSH1 0x1 PUSH1 0xA0 SHL SUB DUP3 AND PUSH20 0x111111A1A0667D36BD57C0A9F569B98057111111 EQ JUMPDEST DUP1 PUSH2 0x78C JUMPI POP PUSH1 0x1 PUSH1 0x1 PUSH1 0xA0 SHL SUB DUP3 AND PUSH20 0xAD339D66BF4AED5CE31C64BC37B3244B6394A77 EQ JUMPDEST DUP1 PUSH2 0x7B3 JUMPI POP PUSH1 0x1 PUSH1 0x1 PUSH1 0xA0 SHL SUB DUP3 AND PUSH20 0x211CC4DD073734DA055FBF44A2B4667D5E5FE5D2 EQ JUMPDEST DUP1 PUSH2 0x7DA JUMPI POP PUSH1 0x1 PUSH1 0x1 PUSH1 0xA0 SHL SUB DUP3 AND PUSH20 0x5D3A1FF2B6BAB83B63CD9AD0787074081A52EF34 EQ JUMPDEST DUP1 PUSH2 0x801 JUMPI POP PUSH1 0x1 PUSH1 0x1 PUSH1 0xA0 SHL SUB DUP3 AND PUSH20 0xB50A96253ABDF803D85EFCDCE07AD8BECBC52BD5 EQ JUMPDEST SWAP3 SWAP2 POP POP JUMP JUMPDEST PUSH1 0x3 SLOAD PUSH1 0x0 SWAP1 PUSH1 0xFF AND ISZERO PUSH2 0x836 JUMPI PUSH1 0x40 MLOAD PUSH3 0x461BCD PUSH1 0xE5 SHL DUP2 MSTORE PUSH1 0x4 ADD PUSH2 0x82D SWAP1 PUSH2 0x2BD5 JUMP JUMPDEST PUSH1 0x40 MLOAD DUP1 SWAP2 SUB SWAP1 REVERT JUMPDEST PUSH2 0x83F DUP5 PUSH2 0x6F5 JUMP JUMPDEST DUP1 ISZERO PUSH2 0x84F JUMPI POP PUSH2 0x84F DUP4 PUSH2 0x6F5 JUMP JUMPDEST PUSH2 0x88D JUMPI PUSH1 0x40 MLOAD PUSH3 0x461BCD PUSH1 0xE5 SHL DUP2 MSTORE PUSH1 0x20 PUSH1 0x4 DUP3 ADD MSTORE PUSH1 0xF PUSH1 0x24 DUP3 ADD MSTORE PUSH15 0x4E6F7420737461626C65636F696E73 PUSH1 0x88 SHL PUSH1 0x44 DUP3 ADD MSTORE PUSH1 0x64 ADD PUSH2 0x82D JUMP JUMPDEST PUSH1 0x0 PUSH2 0x2710 PUSH2 0x89E DUP5 PUSH2 0x2706 PUSH2 0x2C0B JUMP JUMPDEST PUSH2 0x8A8 SWAP2 SWAP1 PUSH2 0x2C22 JUMP JUMPDEST PUSH1 0x40 MLOAD PUSH4 0x23B872DD PUSH1 0xE0 SHL DUP2 MSTORE SWAP1 SWAP2 POP PUSH1 0x1 PUSH1 0x1 PUSH1 0xA0 SHL SUB DUP7 AND SWAP1 PUSH4 0x23B872DD SWAP1 PUSH2 0x8DB SWAP1 CALLER SWAP1 ADDRESS SWAP1 DUP9 SWAP1 PUSH1 0x4 ADD PUSH2 0x2C44 JUMP JUMPDEST PUSH1 0x20 PUSH1 0x40 MLOAD DUP1 DUP4 SUB DUP2 PUSH1 0x0 DUP8 GAS CALL ISZERO DUP1 ISZERO PUSH2 0x8FA JUMPI RETURNDATASIZE PUSH1 0x0 DUP1 RETURNDATACOPY RETURNDATASIZE PUSH1 0x0 REVERT JUMPDEST POP POP POP POP PUSH1 0x40 MLOAD RETURNDATASIZE PUSH1 0x1F NOT PUSH1 0x1F DUP3 ADD AND DUP3 ADD DUP1 PUSH1 0x40 MSTORE POP DUP2 ADD SWAP1 PUSH2 0x91E SWAP2 SWAP1 PUSH2 0x2C68 JUMP JUMPDEST POP PUSH1 0x1 SLOAD PUSH1 0x40 MLOAD PUSH4 0x95EA7B3 PUSH1 0xE0 SHL DUP2 MSTORE PUSH1 0x1 PUSH1 0x1 PUSH1 0xA0 SHL SUB SWAP2 DUP3 AND PUSH1 0x4 DUP3 ADD MSTORE PUSH1 0x24 DUP2 ADD DUP6 SWAP1 MSTORE SWAP1 DUP7 AND SWAP1 PUSH4 0x95EA7B3 SWAP1 PUSH1 0x44 ADD PUSH1 0x20 PUSH1 0x40 MLOAD DUP1 DUP4 SUB DUP2 PUSH1 0x0 DUP8 GAS CALL ISZERO DUP1 ISZERO PUSH2 0x972 JUMPI RETURNDATASIZE PUSH1 0x0 DUP1 RETURNDATACOPY RETURNDATASIZE PUSH1 0x0 REVERT JUMPDEST POP POP POP POP PUSH1 0x40 MLOAD RETURNDATASIZE PUSH1 0x1F NOT PUSH1 0x1F DUP3 ADD AND DUP3 ADD DUP1 PUSH1 0x40 MSTORE POP DUP2 ADD SWAP1 PUSH2 0x996 SWAP2 SWAP1 PUSH2 0x2C68 JUMP JUMPDEST POP PUSH1 0x40 DUP1 MLOAD PUSH1 0x2 DUP1 DUP3 MSTORE PUSH1 0x60 DUP3 ADD DUP4 MSTORE PUSH1 0x0 SWAP3 PUSH1 0x20 DUP4 ADD SWAP1 DUP1 CALLDATASIZE DUP4 CALLDATACOPY ADD SWAP1 POP POP SWAP1 POP DUP6 DUP2 PUSH1 0x0 DUP2 MLOAD DUP2 LT PUSH2 0x9CC JUMPI PUSH2 0x9CC PUSH2 0x2C9B JUMP JUMPDEST PUSH1 0x20 MUL PUSH1 0x20 ADD ADD SWAP1 PUSH1 0x1 PUSH1 0x1 PUSH1 0xA0 SHL SUB AND SWAP1 DUP2 PUSH1 0x1 PUSH1 0x1 PUSH1 0xA0 SHL SUB AND DUP2 MSTORE POP POP DUP5 DUP2 PUSH1 0x1 DUP2 MLOAD DUP2 LT PUSH2 0xA00 JUMPI PUSH2 0xA00 PUSH2 0x2C9B JUMP JUMPDEST PUSH1 0x1 PUSH1 0x1 PUSH1 0xA0 SHL SUB SWAP3 DUP4 AND PUSH1 0x20 SWAP2 DUP3 MUL SWAP3 SWAP1 SWAP3 ADD ADD MSTORE PUSH1 0x1 SLOAD PUSH1 0x0 SWAP2 AND PUSH4 0x38ED1739 DUP7 DUP6 DUP6 CALLER PUSH2 0xA32 TIMESTAMP PUSH2 0x12C PUSH2 0x2CB1 JUMP JUMPDEST PUSH1 0x40 MLOAD DUP7 PUSH4 0xFFFFFFFF AND PUSH1 0xE0 SHL DUP2 MSTORE PUSH1 0x4 ADD PUSH2 0xA52 SWAP6 SWAP5 SWAP4 SWAP3 SWAP2 SWAP1 PUSH2 0x2CC4 JUMP JUMPDEST PUSH1 0x0 PUSH1 0x40 MLOAD DUP1 DUP4 SUB DUP2 PUSH1 0x0 DUP8 GAS CALL ISZERO DUP1 ISZERO PUSH2 0xA71 JUMPI RETURNDATASIZE PUSH1 0x0 DUP1 RETURNDATACOPY RETURNDATASIZE PUSH1 0x0 REVERT JUMPDEST POP POP POP POP PUSH1 0x40 MLOAD RETURNDATASIZE PUSH1 0x0 DUP3 RETURNDATACOPY PUSH1 0x1F RETURNDATASIZE SWAP1 DUP2 ADD PUSH1 0x1F NOT AND DUP3 ADD PUSH1 0x40 MSTORE PUSH2 0xA99 SWAP2 SWAP1 DUP2 ADD SWAP1 PUSH2 0x2D7E JUMP JUMPDEST SWAP1 POP DUP1 PUSH1 0x1 DUP2 MLOAD DUP2 LT PUSH2 0xAAE JUMPI PUSH2 0xAAE PUSH2 0x2C9B JUMP JUMPDEST PUSH1 0x20 MUL PUSH1 0x20 ADD ADD MLOAD SWAP4 POP DUP6 PUSH1 0x1 PUSH1 0x1 PUSH1 0xA0 SHL SUB AND DUP8 PUSH1 0x1 PUSH1 0x1 PUSH1 0xA0 SHL SUB AND CALLER PUSH1 0x1 PUSH1 0x1 PUSH1 0xA0 SHL SUB AND PUSH1 0x0 DUP1 MLOAD PUSH1 0x20 PUSH2 0x3008 DUP4 CODECOPY DUP2 MLOAD SWAP2 MSTORE DUP9 DUP9 PUSH1 0x40 MLOAD PUSH2 0xAFE SWAP3 SWAP2 SWAP1 SWAP2 DUP3 MSTORE PUSH1 0x20 DUP3 ADD MSTORE PUSH1 0x40 ADD SWAP1 JUMP JUMPDEST PUSH1 0x40 MLOAD DUP1 SWAP2 SUB SWAP1 LOG4 POP POP POP SWAP4 SWAP3 POP POP POP JUMP JUMPDEST PUSH1 0x3 SLOAD PUSH1 0x60 SWAP1 PUSH1 0xFF AND ISZERO PUSH2 0xB36 JUMPI PUSH1 0x40 MLOAD PUSH3 0x461BCD PUSH1 0xE5 SHL DUP2 MSTORE PUSH1 0x4 ADD PUSH2 0x82D SWAP1 PUSH2 0x2BD5 JUMP JUMPDEST DUP2 PUSH8 0xFFFFFFFFFFFFFFFF DUP2 GT ISZERO PUSH2 0xB4F JUMPI PUSH2 0xB4F PUSH2 0x2C85 JUMP JUMPDEST PUSH1 0x40 MLOAD SWAP1 DUP1 DUP3 MSTORE DUP1 PUSH1 0x20 MUL PUSH1 0x20 ADD DUP3 ADD PUSH1 0x40 MSTORE DUP1 ISZERO PUSH2 0xB78 JUMPI DUP2 PUSH1 0x20 ADD PUSH1 0x20 DUP3 MUL DUP1 CALLDATASIZE DUP4 CALLDATACOPY ADD SWAP1 POP JUMPDEST POP SWAP1 POP PUSH1 0x0 JUMPDEST DUP3 DUP2 LT ISZERO PUSH2 0xEC1 JUMPI PUSH1 0x0 DUP5 DUP5 DUP4 DUP2 DUP2 LT PUSH2 0xB9A JUMPI PUSH2 0xB9A PUSH2 0x2C9B JUMP JUMPDEST SWAP1 POP PUSH1 0x20 MUL DUP2 ADD SWAP1 PUSH2 0xBAC SWAP2 SWAP1 PUSH2 0x2E14 JUMP JUMPDEST PUSH2 0xBB5 SWAP1 PUSH2 0x2E34 JUMP JUMPDEST DUP1 MLOAD PUSH1 0x40 DUP1 DUP4 ADD MLOAD SWAP1 MLOAD PUSH4 0x23B872DD PUSH1 0xE0 SHL DUP2 MSTORE SWAP3 SWAP4 POP PUSH1 0x1 PUSH1 0x1 PUSH1 0xA0 SHL SUB SWAP1 SWAP2 AND SWAP2 PUSH4 0x23B872DD SWAP2 PUSH2 0xBEE SWAP2 CALLER SWAP2 ADDRESS SWAP2 PUSH1 0x4 ADD PUSH2 0x2C44 JUMP JUMPDEST PUSH1 0x20 PUSH1 0x40 MLOAD DUP1 DUP4 SUB DUP2 PUSH1 0x0 DUP8 GAS CALL ISZERO DUP1 ISZERO PUSH2 0xC0D JUMPI RETURNDATASIZE PUSH1 0x0 DUP1 RETURNDATACOPY RETURNDATASIZE PUSH1 0x0 REVERT JUMPDEST POP POP POP POP PUSH1 0x40 MLOAD RETURNDATASIZE PUSH1 0x1F NOT PUSH1 0x1F DUP3 ADD AND DUP3 ADD DUP1 PUSH1 0x40 MSTORE POP DUP2 ADD SWAP1 PUSH2 0xC31 SWAP2 SWAP1 PUSH2 0x2C68 JUMP JUMPDEST POP DUP1 MLOAD PUSH1 0x1 SLOAD PUSH1 0x40 DUP1 DUP5 ADD MLOAD SWAP1 MLOAD PUSH4 0x95EA7B3 PUSH1 0xE0 SHL DUP2 MSTORE PUSH1 0x1 PUSH1 0x1 PUSH1 0xA0 SHL SUB SWAP3 DUP4 AND PUSH1 0x4 DUP3 ADD MSTORE PUSH1 0x24 DUP2 ADD SWAP2 SWAP1 SWAP2 MSTORE SWAP2 AND SWAP1 PUSH4 0x95EA7B3 SWAP1 PUSH1 0x44 ADD PUSH1 0x20 PUSH1 0x40 MLOAD DUP1 DUP4 SUB DUP2 PUSH1 0x0 DUP8 GAS CALL ISZERO DUP1 ISZERO PUSH2 0xC8C JUMPI RETURNDATASIZE PUSH1 0x0 DUP1 RETURNDATACOPY RETURNDATASIZE PUSH1 0x0 REVERT JUMPDEST POP POP POP POP PUSH1 0x40 MLOAD RETURNDATASIZE PUSH1 0x1F NOT PUSH1 0x1F DUP3 ADD AND DUP3 ADD DUP1 PUSH1 0x40 MSTORE POP DUP2 ADD SWAP1 PUSH2 0xCB0 SWAP2 SWAP1 PUSH2 0x2C68 JUMP JUMPDEST POP PUSH1 0x60 PUSH1 0x2 DUP3 PUSH1 0x80 ADD MLOAD MLOAD LT PUSH2 0xCCB JUMPI POP PUSH1 0x80 DUP2 ADD MLOAD PUSH2 0xD5C JUMP JUMPDEST PUSH1 0x40 DUP1 MLOAD PUSH1 0x2 DUP1 DUP3 MSTORE PUSH1 0x60 DUP3 ADD DUP4 MSTORE SWAP1 SWAP2 PUSH1 0x20 DUP4 ADD SWAP1 DUP1 CALLDATASIZE DUP4 CALLDATACOPY ADD SWAP1 POP POP SWAP1 POP DUP2 PUSH1 0x0 ADD MLOAD DUP2 PUSH1 0x0 DUP2 MLOAD DUP2 LT PUSH2 0xD03 JUMPI PUSH2 0xD03 PUSH2 0x2C9B JUMP JUMPDEST PUSH1 0x20 MUL PUSH1 0x20 ADD ADD SWAP1 PUSH1 0x1 PUSH1 0x1 PUSH1 0xA0 SHL SUB AND SWAP1 DUP2 PUSH1 0x1 PUSH1 0x1 PUSH1 0xA0 SHL SUB AND DUP2 MSTORE POP POP DUP2 PUSH1 0x20 ADD MLOAD DUP2 PUSH1 0x1 DUP2 MLOAD DUP2 LT PUSH2 0xD3B JUMPI PUSH2 0xD3B PUSH2 0x2C9B JUMP JUMPDEST PUSH1 0x20 MUL PUSH1 0x20 ADD ADD SWAP1 PUSH1 0x1 PUSH1 0x1 PUSH1 0xA0 SHL SUB AND SWAP1 DUP2 PUSH1 0x1 PUSH1 0x1 PUSH1 0xA0 SHL SUB AND DUP2 MSTORE POP POP JUMPDEST PUSH1 0x1 SLOAD PUSH1 0x40 DUP4 ADD MLOAD PUSH1 0x60 DUP5 ADD MLOAD PUSH1 0x0 SWAP3 PUSH1 0x1 PUSH1 0x1 PUSH1 0xA0 SHL SUB AND SWAP2 PUSH4 0x38ED1739 SWAP2 DUP6 CALLER PUSH2 0xD8A TIMESTAMP PUSH2 0x12C PUSH2 0x2CB1 JUMP JUMPDEST PUSH1 0x40 MLOAD DUP7 PUSH4 0xFFFFFFFF AND PUSH1 0xE0 SHL DUP2 MSTORE PUSH1 0x4 ADD PUSH2 0xDAA SWAP6 SWAP5 SWAP4 SWAP3 SWAP2 SWAP1 PUSH2 0x2CC4 JUMP JUMPDEST PUSH1 0x0 PUSH1 0x40 MLOAD DUP1 DUP4 SUB DUP2 PUSH1 0x0 DUP8 GAS CALL ISZERO DUP1 ISZERO PUSH2 0xDC9 JUMPI RETURNDATASIZE PUSH1 0x0 DUP1 RETURNDATACOPY RETURNDATASIZE PUSH1 0x0 REVERT JUMPDEST POP POP POP POP PUSH1 0x40 MLOAD RETURNDATASIZE PUSH1 0x0 DUP3 RETURNDATACOPY PUSH1 0x1F RETURNDATASIZE SWAP1 DUP2 ADD PUSH1 0x1F NOT AND DUP3 ADD PUSH1 0x40 MSTORE PUSH2 0xDF1 SWAP2 SWAP1 DUP2 ADD SWAP1 PUSH2 0x2D7E JUMP JUMPDEST SWAP1 POP DUP1 PUSH1 0x1 DUP3 MLOAD PUSH2 0xE02 SWAP2 SWAP1 PUSH2 0x2F0B JUMP JUMPDEST DUP2 MLOAD DUP2 LT PUSH2 0xE12 JUMPI PUSH2 0xE12 PUSH2 0x2C9B JUMP JUMPDEST PUSH1 0x20 MUL PUSH1 0x20 ADD ADD MLOAD DUP6 DUP6 DUP2 MLOAD DUP2 LT PUSH2 0xE2C JUMPI PUSH2 0xE2C PUSH2 0x2C9B JUMP JUMPDEST PUSH1 0x20 MUL PUSH1 0x20 ADD ADD DUP2 DUP2 MSTORE POP POP DUP3 PUSH1 0x20 ADD MLOAD PUSH1 0x1 PUSH1 0x1 PUSH1 0xA0 SHL SUB AND DUP4 PUSH1 0x0 ADD MLOAD PUSH1 0x1 PUSH1 0x1 PUSH1 0xA0 SHL SUB AND CALLER PUSH1 0x1 PUSH1 0x1 PUSH1 0xA0 SHL SUB AND PUSH1 0x0 DUP1 MLOAD PUSH1 0x20 PUSH2 0x3008 DUP4 CODECOPY DUP2 MLOAD SWAP2 MSTORE DUP7 PUSH1 0x40 ADD MLOAD DUP10 DUP10 DUP2 MLOAD DUP2 LT PUSH2 0xE84 JUMPI PUSH2 0xE84 PUSH2 0x2C9B JUMP JUMPDEST PUSH1 0x20 MUL PUSH1 0x20 ADD ADD MLOAD PUSH1 0x40 MLOAD PUSH2 0xEA3 SWAP3 SWAP2 SWAP1 SWAP2 DUP3 MSTORE PUSH1 0x20 DUP3 ADD MSTORE PUSH1 0x40 ADD SWAP1 JUMP JUMPDEST PUSH1 0x40 MLOAD DUP1 SWAP2 SUB SWAP1 LOG4 POP POP POP DUP1 DUP1 PUSH2 0xEB9 SWAP1 PUSH2 0x2F1E JUMP JUMPDEST SWAP2 POP POP PUSH2 0xB7E JUMP JUMPDEST POP SWAP3 SWAP2 POP POP JUMP JUMPDEST PUSH1 0x3 SLOAD PUSH1 0x0 SWAP1 PUSH1 0xFF AND ISZERO PUSH2 0xEEE JUMPI PUSH1 0x40 MLOAD PUSH3 0x461BCD PUSH1 0xE5 SHL DUP2 MSTORE PUSH1 0x4 ADD PUSH2 0x82D SWAP1 PUSH2 0x2BD5 JUMP JUMPDEST PUSH1 0x0 DUP4 GT PUSH2 0xF2C JUMPI PUSH1 0x40 MLOAD PUSH3 0x461BCD PUSH1 0xE5 SHL DUP2 MSTORE PUSH1 0x20 PUSH1 0x4 DUP3 ADD MSTORE PUSH1 0xB PUSH1 0x24 DUP3 ADD MSTORE PUSH11 0x16995C9BC8185B5BDD5B9D PUSH1 0xAA SHL PUSH1 0x44 DUP3 ADD MSTORE PUSH1 0x64 ADD PUSH2 0x82D JUMP JUMPDEST PUSH1 0x40 MLOAD PUSH4 0x23B872DD PUSH1 0xE0 SHL DUP2 MSTORE PUSH1 0x1 PUSH1 0x1 PUSH1 0xA0 SHL SUB DUP6 AND SWAP1 PUSH4 0x23B872DD SWAP1 PUSH2 0xF5C SWAP1 CALLER SWAP1 ADDRESS SWAP1 DUP9 SWAP1 PUSH1 0x4 ADD PUSH2 0x2C44 JUMP JUMPDEST PUSH1 0x20 PUSH1 0x40 MLOAD DUP1 DUP4 SUB DUP2 PUSH1 0x0 DUP8 GAS CALL ISZERO DUP1 ISZERO PUSH2 0xF7B JUMPI RETURNDATASIZE PUSH1 0x0 DUP1 RETURNDATACOPY RETURNDATASIZE PUSH1 0x0 REVERT JUMPDEST POP POP POP POP PUSH1 0x40 MLOAD RETURNDATASIZE PUSH1 0x1F NOT PUSH1 0x1F DUP3 ADD AND DUP3 ADD DUP1 PUSH1 0x40 MSTORE POP DUP2 ADD SWAP1 PUSH2 0xF9F SWAP2 SWAP1 PUSH2 0x2C68 JUMP JUMPDEST POP PUSH1 0x1 SLOAD PUSH1 0x40 MLOAD PUSH4 0x95EA7B3 PUSH1 0xE0 SHL DUP2 MSTORE PUSH1 0x1 PUSH1 0x1 PUSH1 0xA0 SHL SUB SWAP2 DUP3 AND PUSH1 0x4 DUP3 ADD MSTORE PUSH1 0x24 DUP2 ADD DUP6 SWAP1 MSTORE SWAP1 DUP6 AND SWAP1 PUSH4 0x95EA7B3 SWAP1 PUSH1 0x44 ADD PUSH1 0x20 PUSH1 0x40 MLOAD DUP1 DUP4 SUB DUP2 PUSH1 0x0 DUP8 GAS CALL ISZERO DUP1 ISZERO PUSH2 0xFF3 JUMPI RETURNDATASIZE PUSH1 0x0 DUP1 RETURNDATACOPY RETURNDATASIZE PUSH1 0x0 REVERT JUMPDEST POP POP POP POP PUSH1 0x40 MLOAD RETURNDATASIZE PUSH1 0x1F NOT PUSH1 0x1F DUP3 ADD AND DUP3 ADD DUP1 PUSH1 0x40 MSTORE POP DUP2 ADD SWAP1 PUSH2 0x1017 SWAP2 SWAP1 PUSH2 0x2C68 JUMP JUMPDEST POP PUSH1 0x40 DUP1 MLOAD PUSH1 0x2 DUP1 DUP3 MSTORE PUSH1 0x60 DUP3 ADD DUP4 MSTORE PUSH1 0x0 SWAP3 PUSH1 0x20 DUP4 ADD SWAP1 DUP1 CALLDATASIZE DUP4 CALLDATACOPY ADD SWAP1 POP POP SWAP1 POP DUP5 DUP2 PUSH1 0x0 DUP2 MLOAD DUP2 LT PUSH2 0x104D JUMPI PUSH2 0x104D PUSH2 0x2C9B JUMP JUMPDEST PUSH1 0x20 MUL PUSH1 0x20 ADD ADD SWAP1 PUSH1 0x1 PUSH1 0x1 PUSH1 0xA0 SHL SUB AND SWAP1 DUP2 PUSH1 0x1 PUSH1 0x1 PUSH1 0xA0 SHL SUB AND DUP2 MSTORE POP POP PUSH20 0x5555555555555555555555555555555555555555 DUP2 PUSH1 0x1 DUP2 MLOAD DUP2 LT PUSH2 0x1095 JUMPI PUSH2 0x1095 PUSH2 0x2C9B JUMP JUMPDEST PUSH1 0x1 PUSH1 0x1 PUSH1 0xA0 SHL SUB SWAP3 DUP4 AND PUSH1 0x20 SWAP2 DUP3 MUL SWAP3 SWAP1 SWAP3 ADD ADD MSTORE PUSH1 0x1 SLOAD PUSH1 0x0 SWAP2 AND PUSH4 0x18CBAFE5 DUP7 DUP7 DUP6 CALLER PUSH2 0x10C7 TIMESTAMP PUSH2 0x12C PUSH2 0x2CB1 JUMP JUMPDEST PUSH1 0x40 MLOAD DUP7 PUSH4 0xFFFFFFFF AND PUSH1 0xE0 SHL DUP2 MSTORE PUSH1 0x4 ADD PUSH2 0x10E7 SWAP6 SWAP5 SWAP4 SWAP3 SWAP2 SWAP1 PUSH2 0x2CC4 JUMP JUMPDEST PUSH1 0x0 PUSH1 0x40 MLOAD DUP1 DUP4 SUB DUP2 PUSH1 0x0 DUP8 GAS CALL ISZERO DUP1 ISZERO PUSH2 0x1106 JUMPI RETURNDATASIZE PUSH1 0x0 DUP1 RETURNDATACOPY RETURNDATASIZE PUSH1 0x0 REVERT JUMPDEST POP POP POP POP PUSH1 0x40 MLOAD RETURNDATASIZE PUSH1 0x0 DUP3 RETURNDATACOPY PUSH1 0x1F RETURNDATASIZE SWAP1 DUP2 ADD PUSH1 0x1F NOT AND DUP3 ADD PUSH1 0x40 MSTORE PUSH2 0x112E SWAP2 SWAP1 DUP2 ADD SWAP1 PUSH2 0x2D7E JUMP JUMPDEST SWAP1 POP DUP1 PUSH1 0x1 DUP2 MLOAD DUP2 LT PUSH2 0x1143 JUMPI PUSH2 0x1143 PUSH2 0x2C9B JUMP JUMPDEST PUSH1 0x20 MUL PUSH1 0x20 ADD ADD MLOAD SWAP3 POP PUSH20 0x5555555555555555555555555555555555555555 PUSH1 0x1 PUSH1 0x1 PUSH1 0xA0 SHL SUB AND DUP7 PUSH1 0x1 PUSH1 0x1 PUSH1 0xA0 SHL SUB AND CALLER PUSH1 0x1 PUSH1 0x1 PUSH1 0xA0 SHL SUB AND PUSH1 0x0 DUP1 MLOAD PUSH1 0x20 PUSH2 0x3008 DUP4 CODECOPY DUP2 MLOAD SWAP2 MSTORE DUP9 DUP8 PUSH1 0x40 MLOAD PUSH2 0x11A7 SWAP3 SWAP2 SWAP1 SWAP2 DUP3 MSTORE PUSH1 0x20 DUP3 ADD MSTORE PUSH1 0x40 ADD SWAP1 JUMP JUMPDEST PUSH1 0x40 MLOAD DUP1 SWAP2 SUB SWAP1 LOG4 POP POP SWAP4 SWAP3 POP POP POP JUMP JUMPDEST PUSH1 0x0 SLOAD PUSH1 0x1 PUSH1 0x1 PUSH1 0xA0 SHL SUB AND CALLER EQ PUSH2 0x11E2 JUMPI PUSH1 0x40 MLOAD PUSH3 0x461BCD PUSH1 0xE5 SHL DUP2 MSTORE PUSH1 0x4 ADD PUSH2 0x82D SWAP1 PUSH2 0x2F37 JUMP JUMPDEST PUSH1 0x3 DUP1 SLOAD PUSH1 0xFF NOT AND SWAP1 SSTORE PUSH1 0x40 MLOAD PUSH32 0xA45F47FDEA8A1EFDD9029A5691C7F759C32B7C698632B563573E155625D16933 SWAP1 PUSH1 0x0 SWAP1 LOG1 JUMP JUMPDEST PUSH1 0x1 SLOAD PUSH1 0x40 MLOAD PUSH4 0xD06CA61F PUSH1 0xE0 SHL DUP2 MSTORE PUSH1 0x0 SWAP2 DUP3 SWAP2 DUP3 SWAP2 PUSH1 0x1 PUSH1 0x1 PUSH1 0xA0 SHL SUB AND SWAP1 PUSH4 0xD06CA61F SWAP1 PUSH2 0x1250 SWAP1 DUP10 SWAP1 DUP10 SWAP1 DUP10 SWAP1 PUSH1 0x4 ADD PUSH2 0x2F5B JUMP JUMPDEST PUSH1 0x0 PUSH1 0x40 MLOAD DUP1 DUP4 SUB DUP2 DUP7 GAS STATICCALL ISZERO DUP1 ISZERO PUSH2 0x126D JUMPI RETURNDATASIZE PUSH1 0x0 DUP1 RETURNDATACOPY RETURNDATASIZE PUSH1 0x0 REVERT JUMPDEST POP POP POP POP PUSH1 0x40 MLOAD RETURNDATASIZE PUSH1 0x0 DUP3 RETURNDATACOPY PUSH1 0x1F RETURNDATASIZE SWAP1 DUP2 ADD PUSH1 0x1F NOT AND DUP3 ADD PUSH1 0x40 MSTORE PUSH2 0x1295 SWAP2 SWAP1 DUP2 ADD SWAP1 PUSH2 0x2D7E JUMP JUMPDEST SWAP1 POP DUP1 PUSH1 0x1 DUP3 MLOAD PUSH2 0x12A6 SWAP2 SWAP1 PUSH2 0x2F0B JUMP JUMPDEST DUP2 MLOAD DUP2 LT PUSH2 0x12B6 JUMPI PUSH2 0x12B6 PUSH2 0x2C9B JUMP JUMPDEST PUSH1 0x20 MUL PUSH1 0x20 ADD ADD MLOAD SWAP3 POP PUSH2 0x2710 PUSH1 0x2 SLOAD PUSH2 0x2710 PUSH2 0x12D3 SWAP2 SWAP1 PUSH2 0x2F0B JUMP JUMPDEST PUSH2 0x12DD SWAP1 DUP6 PUSH2 0x2C0B JUMP JUMPDEST PUSH2 0x12E7 SWAP2 SWAP1 PUSH2 0x2C22 JUMP JUMPDEST SWAP2 POP POP SWAP4 POP SWAP4 SWAP2 POP POP JUMP JUMPDEST PUSH1 0x0 SLOAD PUSH1 0x1 PUSH1 0x1 PUSH1 0xA0 SHL SUB AND CALLER EQ PUSH2 0x131C JUMPI PUSH1 0x40 MLOAD PUSH3 0x461BCD PUSH1 0xE5 SHL DUP2 MSTORE PUSH1 0x4 ADD PUSH2 0x82D SWAP1 PUSH2 0x2F37 JUMP JUMPDEST PUSH1 0x3 DUP1 SLOAD PUSH1 0xFF NOT AND PUSH1 0x1 OR SWAP1 SSTORE PUSH1 0x40 MLOAD PUSH32 0x9E87FAC88FF661F02D44F95383C817FECE4BCE600A3DAB7A54406878B965E752 SWAP1 PUSH1 0x0 SWAP1 LOG1 JUMP JUMPDEST PUSH1 0x40 DUP1 MLOAD PUSH1 0xD DUP1 DUP3 MSTORE PUSH2 0x1C0 DUP3 ADD SWAP1 SWAP3 MSTORE PUSH1 0x0 SWAP2 PUSH1 0x60 SWAP2 DUP4 SWAP2 PUSH1 0x20 DUP3 ADD PUSH2 0x1A0 DUP1 CALLDATASIZE DUP4 CALLDATACOPY POP POP PUSH1 0x40 DUP1 MLOAD PUSH1 0xD DUP1 DUP3 MSTORE PUSH2 0x1C0 DUP3 ADD SWAP1 SWAP3 MSTORE SWAP3 SWAP4 POP PUSH1 0x0 SWAP3 SWAP2 POP PUSH1 0x20 DUP3 ADD JUMPDEST PUSH1 0x60 DUP2 MSTORE PUSH1 0x20 ADD SWAP1 PUSH1 0x1 SWAP1 SUB SWAP1 DUP2 PUSH2 0x1398 JUMPI SWAP1 POP POP SWAP1 POP PUSH20 0x5555555555555555555555555555555555555555 DUP3 PUSH1 0x0 DUP2 MLOAD DUP2 LT PUSH2 0x13D7 JUMPI PUSH2 0x13D7 PUSH2 0x2C9B JUMP JUMPDEST PUSH1 0x20 MUL PUSH1 0x20 ADD ADD SWAP1 PUSH1 0x1 PUSH1 0x1 PUSH1 0xA0 SHL SUB AND SWAP1 DUP2 PUSH1 0x1 PUSH1 0x1 PUSH1 0xA0 SHL SUB AND DUP2 MSTORE POP POP PUSH1 0x40 MLOAD DUP1 PUSH1 0x40 ADD PUSH1 0x40 MSTORE DUP1 PUSH1 0xC DUP2 MSTORE PUSH1 0x20 ADD PUSH12 0x577261707065642048595045 PUSH1 0xA0 SHL DUP2 MSTORE POP DUP2 PUSH1 0x0 DUP2 MLOAD DUP2 LT PUSH2 0x142F JUMPI PUSH2 0x142F PUSH2 0x2C9B JUMP JUMPDEST PUSH1 0x20 MUL PUSH1 0x20 ADD ADD DUP2 SWAP1 MSTORE POP PUSH20 0xB8CE59FC3717ADA4C02EADF9682A9E934F625EBB DUP3 PUSH1 0x1 DUP2 MLOAD DUP2 LT PUSH2 0x1462 JUMPI PUSH2 0x1462 PUSH2 0x2C9B JUMP JUMPDEST PUSH1 0x20 MUL PUSH1 0x20 ADD ADD SWAP1 PUSH1 0x1 PUSH1 0x1 PUSH1 0xA0 SHL SUB AND SWAP1 DUP2 PUSH1 0x1 PUSH1 0x1 PUSH1 0xA0 SHL SUB AND DUP2 MSTORE POP POP PUSH1 0x40 MLOAD DUP1 PUSH1 0x40 ADD PUSH1 0x40 MSTORE DUP1 PUSH1 0x5 DUP2 MSTORE PUSH1 0x20 ADD PUSH5 0x555344543 PUSH1 0xDC SHL DUP2 MSTORE POP DUP2 PUSH1 0x1 DUP2 MLOAD DUP2 LT PUSH2 0x14B3 JUMPI PUSH2 0x14B3 PUSH2 0x2C9B JUMP JUMPDEST PUSH1 0x20 MUL PUSH1 0x20 ADD ADD DUP2 SWAP1 MSTORE POP PUSH20 0xB88339CB7199B77E23DB6E890353E22632BA630F DUP3 PUSH1 0x2 DUP2 MLOAD DUP2 LT PUSH2 0x14E6 JUMPI PUSH2 0x14E6 PUSH2 0x2C9B JUMP JUMPDEST PUSH1 0x20 MUL PUSH1 0x20 ADD ADD SWAP1 PUSH1 0x1 PUSH1 0x1 PUSH1 0xA0 SHL SUB AND SWAP1 DUP2 PUSH1 0x1 PUSH1 0x1 PUSH1 0xA0 SHL SUB AND DUP2 MSTORE POP POP PUSH1 0x40 MLOAD DUP1 PUSH1 0x40 ADD PUSH1 0x40 MSTORE DUP1 PUSH1 0x4 DUP2 MSTORE PUSH1 0x20 ADD PUSH4 0x55534443 PUSH1 0xE0 SHL DUP2 MSTORE POP DUP2 PUSH1 0x2 DUP2 MLOAD DUP2 LT PUSH2 0x1536 JUMPI PUSH2 0x1536 PUSH2 0x2C9B JUMP JUMPDEST PUSH1 0x20 MUL PUSH1 0x20 ADD ADD DUP2 SWAP1 MSTORE POP PUSH20 0x111111A1A0667D36BD57C0A9F569B98057111111 DUP3 PUSH1 0x3 DUP2 MLOAD DUP2 LT PUSH2 0x1569 JUMPI PUSH2 0x1569 PUSH2 0x2C9B JUMP JUMPDEST PUSH1 0x20 MUL PUSH1 0x20 ADD ADD SWAP1 PUSH1 0x1 PUSH1 0x1 PUSH1 0xA0 SHL SUB AND SWAP1 DUP2 PUSH1 0x1 PUSH1 0x1 PUSH1 0xA0 SHL SUB AND DUP2 MSTORE POP POP PUSH1 0x40 MLOAD DUP1 PUSH1 0x40 ADD PUSH1 0x40 MSTORE DUP1 PUSH1 0x4 DUP2 MSTORE PUSH1 0x20 ADD PUSH4 0xAAA6889 PUSH1 0xE3 SHL DUP2 MSTORE POP DUP2 PUSH1 0x3 DUP2 MLOAD DUP2 LT PUSH2 0x15B9 JUMPI PUSH2 0x15B9 PUSH2 0x2C9B JUMP JUMPDEST PUSH1 0x20 MUL PUSH1 0x20 ADD ADD DUP2 SWAP1 MSTORE POP PUSH20 0xAD339D66BF4AED5CE31C64BC37B3244B6394A77 DUP3 PUSH1 0x4 DUP2 MLOAD DUP2 LT PUSH2 0x15EC JUMPI PUSH2 0x15EC PUSH2 0x2C9B JUMP JUMPDEST PUSH1 0x20 MUL PUSH1 0x20 ADD ADD SWAP1 PUSH1 0x1 PUSH1 0x1 PUSH1 0xA0 SHL SUB AND SWAP1 DUP2 PUSH1 0x1 PUSH1 0x1 PUSH1 0xA0 SHL SUB AND DUP2 MSTORE POP POP PUSH1 0x40 MLOAD DUP1 PUSH1 0x40 ADD PUSH1 0x40 MSTORE DUP1 PUSH1 0x3 DUP2 MSTORE PUSH1 0x20 ADD PUSH3 0x2AA9A9 PUSH1 0xE9 SHL DUP2 MSTORE POP DUP2 PUSH1 0x4 DUP2 MLOAD DUP2 LT PUSH2 0x163B JUMPI PUSH2 0x163B PUSH2 0x2C9B JUMP JUMPDEST PUSH1 0x20 MUL PUSH1 0x20 ADD ADD DUP2 SWAP1 MSTORE POP PUSH20 0x211CC4DD073734DA055FBF44A2B4667D5E5FE5D2 DUP3 PUSH1 0x5 DUP2 MLOAD DUP2 LT PUSH2 0x166E JUMPI PUSH2 0x166E PUSH2 0x2C9B JUMP JUMPDEST PUSH1 0x20 MUL PUSH1 0x20 ADD ADD SWAP1 PUSH1 0x1 PUSH1 0x1 PUSH1 0xA0 SHL SUB AND SWAP1 DUP2 PUSH1 0x1 PUSH1 0x1 PUSH1 0xA0 SHL SUB AND DUP2 MSTORE POP POP PUSH1 0x40 MLOAD DUP1 PUSH1 0x40 ADD PUSH1 0x40 MSTORE DUP1 PUSH1 0x5 DUP2 MSTORE PUSH1 0x20 ADD PUSH5 0x7355534465 PUSH1 0xD8 SHL DUP2 MSTORE POP DUP2 PUSH1 0x5 DUP2 MLOAD DUP2 LT PUSH2 0x16BF JUMPI PUSH2 0x16BF PUSH2 0x2C9B JUMP JUMPDEST PUSH1 0x20 MUL PUSH1 0x20 ADD ADD DUP2 SWAP1 MSTORE POP PUSH20 0x5D3A1FF2B6BAB83B63CD9AD0787074081A52EF34 DUP3 PUSH1 0x6 DUP2 MLOAD DUP2 LT PUSH2 0x16F2 JUMPI PUSH2 0x16F2 PUSH2 0x2C9B JUMP JUMPDEST PUSH1 0x20 MUL PUSH1 0x20 ADD ADD SWAP1 PUSH1 0x1 PUSH1 0x1 PUSH1 0xA0 SHL SUB AND SWAP1 DUP2 PUSH1 0x1 PUSH1 0x1 PUSH1 0xA0 SHL SUB AND DUP2 MSTORE POP POP PUSH1 0x40 MLOAD DUP1 PUSH1 0x40 ADD PUSH1 0x40 MSTORE DUP1 PUSH1 0x4 DUP2 MSTORE PUSH1 0x20 ADD PUSH4 0x55534465 PUSH1 0xE0 SHL DUP2 MSTORE POP DUP2 PUSH1 0x6 DUP2 MLOAD DUP2 LT PUSH2 0x1742 JUMPI PUSH2 0x1742 PUSH2 0x2C9B JUMP JUMPDEST PUSH1 0x20 MUL PUSH1 0x20 ADD ADD DUP2 SWAP1 MSTORE POP PUSH20 0x9FDBDA0A5E284C32744D2F17EE5C74B284993463 DUP3 PUSH1 0x7 DUP2 MLOAD DUP2 LT PUSH2 0x1775 JUMPI PUSH2 0x1775 PUSH2 0x2C9B JUMP JUMPDEST PUSH1 0x20 MUL PUSH1 0x20 ADD ADD SWAP1 PUSH1 0x1 PUSH1 0x1 PUSH1 0xA0 SHL SUB AND SWAP1 DUP2 PUSH1 0x1 PUSH1 0x1 PUSH1 0xA0 SHL SUB AND DUP2 MSTORE POP POP PUSH1 0x40 MLOAD DUP1 PUSH1 0x40 ADD PUSH1 0x40 MSTORE DUP1 PUSH1 0x4 DUP2 MSTORE PUSH1 0x20 ADD PUSH4 0x55425443 PUSH1 0xE0 SHL DUP2 MSTORE POP DUP2 PUSH1 0x7 DUP2 MLOAD DUP2 LT PUSH2 0x17C5 JUMPI PUSH2 0x17C5 PUSH2 0x2C9B JUMP JUMPDEST PUSH1 0x20 MUL PUSH1 0x20 ADD ADD DUP2 SWAP1 MSTORE POP PUSH20 0x94E8396E0869C9F2200760AF0621AFD240E1CF38 DUP3 PUSH1 0x8 DUP2 MLOAD DUP2 LT PUSH2 0x17F8 JUMPI PUSH2 0x17F8 PUSH2 0x2C9B JUMP JUMPDEST PUSH1 0x20 MUL PUSH1 0x20 ADD ADD SWAP1 PUSH1 0x1 PUSH1 0x1 PUSH1 0xA0 SHL SUB AND SWAP1 DUP2 PUSH1 0x1 PUSH1 0x1 PUSH1 0xA0 SHL SUB AND DUP2 MSTORE POP POP PUSH1 0x40 MLOAD DUP1 PUSH1 0x40 ADD PUSH1 0x40 MSTORE DUP1 PUSH1 0x7 DUP2 MSTORE PUSH1 0x20 ADD PUSH7 0x77737448595045 PUSH1 0xC8 SHL DUP2 MSTORE POP DUP2 PUSH1 0x8 DUP2 MLOAD DUP2 LT PUSH2 0x184B JUMPI PUSH2 0x184B PUSH2 0x2C9B JUMP JUMPDEST PUSH1 0x20 MUL PUSH1 0x20 ADD ADD DUP2 SWAP1 MSTORE POP PUSH20 0xBE6727B535545C67D5CAA73DEA54865B92CF7907 DUP3 PUSH1 0x9 DUP2 MLOAD DUP2 LT PUSH2 0x187E JUMPI PUSH2 0x187E PUSH2 0x2C9B JUMP JUMPDEST PUSH1 0x20 MUL PUSH1 0x20 ADD ADD SWAP1 PUSH1 0x1 PUSH1 0x1 PUSH1 0xA0 SHL SUB AND SWAP1 DUP2 PUSH1 0x1 PUSH1 0x1 PUSH1 0xA0 SHL SUB AND DUP2 MSTORE POP POP PUSH1 0x40 MLOAD DUP1 PUSH1 0x40 ADD PUSH1 0x40 MSTORE DUP1 PUSH1 0x4 DUP2 MSTORE PUSH1 0x20 ADD PUSH4 0xAA8AA89 PUSH1 0xE3 SHL DUP2 MSTORE POP DUP2 PUSH1 0x9 DUP2 MLOAD DUP2 LT PUSH2 0x18CE JUMPI PUSH2 0x18CE PUSH2 0x2C9B JUMP JUMPDEST PUSH1 0x20 MUL PUSH1 0x20 ADD ADD DUP2 SWAP1 MSTORE POP PUSH20 0xD8FC8F0B03EBA61F64D08B0BEF69D80916E5DDA9 DUP3 PUSH1 0xA DUP2 MLOAD DUP2 LT PUSH2 0x1901 JUMPI PUSH2 0x1901 PUSH2 0x2C9B JUMP JUMPDEST PUSH1 0x20 MUL PUSH1 0x20 ADD ADD SWAP1 PUSH1 0x1 PUSH1 0x1 PUSH1 0xA0 SHL SUB AND SWAP1 DUP2 PUSH1 0x1 PUSH1 0x1 PUSH1 0xA0 SHL SUB AND DUP2 MSTORE POP POP PUSH1 0x40 MLOAD DUP1 PUSH1 0x40 ADD PUSH1 0x40 MSTORE DUP1 PUSH1 0x6 DUP2 MSTORE PUSH1 0x20 ADD PUSH6 0x626548595045 PUSH1 0xD0 SHL DUP2 MSTORE POP DUP2 PUSH1 0xA DUP2 MLOAD DUP2 LT PUSH2 0x1953 JUMPI PUSH2 0x1953 PUSH2 0x2C9B JUMP JUMPDEST PUSH1 0x20 MUL PUSH1 0x20 ADD ADD DUP2 SWAP1 MSTORE POP PUSH20 0xB50A96253ABDF803D85EFCDCE07AD8BECBC52BD5 DUP3 PUSH1 0xB DUP2 MLOAD DUP2 LT PUSH2 0x1986 JUMPI PUSH2 0x1986 PUSH2 0x2C9B JUMP JUMPDEST PUSH1 0x20 MUL PUSH1 0x20 ADD ADD SWAP1 PUSH1 0x1 PUSH1 0x1 PUSH1 0xA0 SHL SUB AND SWAP1 DUP2 PUSH1 0x1 PUSH1 0x1 PUSH1 0xA0 SHL SUB AND DUP2 MSTORE POP POP PUSH1 0x40 MLOAD DUP1 PUSH1 0x40 ADD PUSH1 0x40 MSTORE DUP1 PUSH1 0x5 DUP2 MSTORE PUSH1 0x20 ADD PUSH5 0x1554D11213 PUSH1 0xDA SHL DUP2 MSTORE POP DUP2 PUSH1 0xB DUP2 MLOAD DUP2 LT PUSH2 0x19D7 JUMPI PUSH2 0x19D7 PUSH2 0x2C9B JUMP JUMPDEST PUSH1 0x20 MUL PUSH1 0x20 ADD ADD DUP2 SWAP1 MSTORE POP PUSH20 0x68F321FA8FB9F0D135F290EF6A3E2813E1C8A29 DUP3 PUSH1 0xC DUP2 MLOAD DUP2 LT PUSH2 0x1A0A JUMPI PUSH2 0x1A0A PUSH2 0x2C9B JUMP JUMPDEST PUSH1 0x20 MUL PUSH1 0x20 ADD ADD SWAP1 PUSH1 0x1 PUSH1 0x1 PUSH1 0xA0 SHL SUB AND SWAP1 DUP2 PUSH1 0x1 PUSH1 0x1 PUSH1 0xA0 SHL SUB AND DUP2 MSTORE POP POP PUSH1 0x40 MLOAD DUP1 PUSH1 0x40 ADD PUSH1 0x40 MSTORE DUP1 PUSH1 0x4 DUP2 MSTORE PUSH1 0x20 ADD PUSH4 0x1554D3D3 PUSH1 0xE2 SHL DUP2 MSTORE POP DUP2 PUSH1 0xC DUP2 MLOAD DUP2 LT PUSH2 0x1A5A JUMPI PUSH2 0x1A5A PUSH2 0x2C9B JUMP JUMPDEST PUSH1 0x20 MUL PUSH1 0x20 ADD ADD DUP2 SWAP1 MSTORE POP PUSH1 0xD DUP6 LT PUSH2 0x1AA5 JUMPI PUSH1 0x40 MLOAD PUSH3 0x461BCD PUSH1 0xE5 SHL DUP2 MSTORE PUSH1 0x20 PUSH1 0x4 DUP3 ADD MSTORE PUSH1 0xD PUSH1 0x24 DUP3 ADD MSTORE PUSH13 0x92DCECC2D8D2C840D2DCC8CAF PUSH1 0x9B SHL PUSH1 0x44 DUP3 ADD MSTORE PUSH1 0x64 ADD PUSH2 0x82D JUMP JUMPDEST DUP2 DUP6 DUP2 MLOAD DUP2 LT PUSH2 0x1AB7 JUMPI PUSH2 0x1AB7 PUSH2 0x2C9B JUMP JUMPDEST PUSH1 0x20 MUL PUSH1 0x20 ADD ADD MLOAD DUP2 DUP7 DUP2 MLOAD DUP2 LT PUSH2 0x1AD1 JUMPI PUSH2 0x1AD1 PUSH2 0x2C9B JUMP JUMPDEST PUSH1 0x20 MUL PUSH1 0x20 ADD ADD MLOAD SWAP4 POP SWAP4 POP POP POP SWAP2 POP SWAP2 JUMP JUMPDEST PUSH1 0x3 SLOAD PUSH1 0x0 SWAP1 PUSH1 0xFF AND ISZERO PUSH2 0x1B0A JUMPI PUSH1 0x40 MLOAD PUSH3 0x461BCD PUSH1 0xE5 SHL DUP2 MSTORE PUSH1 0x4 ADD PUSH2 0x82D SWAP1 PUSH2 0x2BD5 JUMP JUMPDEST PUSH1 0x0 DUP7 GT PUSH2 0x1B48 JUMPI PUSH1 0x40 MLOAD PUSH3 0x461BCD PUSH1 0xE5 SHL DUP2 MSTORE PUSH1 0x20 PUSH1 0x4 DUP3 ADD MSTORE PUSH1 0xB PUSH1 0x24 DUP3 ADD MSTORE PUSH11 0x16995C9BC8185B5BDD5B9D PUSH1 0xAA SHL PUSH1 0x44 DUP3 ADD MSTORE PUSH1 0x64 ADD PUSH2 0x82D JUMP JUMPDEST DUP7 PUSH1 0x1 PUSH1 0x1 PUSH1 0xA0 SHL SUB AND DUP9 PUSH1 0x1 PUSH1 0x1 PUSH1 0xA0 SHL SUB AND SUB PUSH2 0x1B96 JUMPI PUSH1 0x40 MLOAD PUSH3 0x461BCD PUSH1 0xE5 SHL DUP2 MSTORE PUSH1 0x20 PUSH1 0x4 DUP3 ADD MSTORE PUSH1 0xA PUSH1 0x24 DUP3 ADD MSTORE PUSH10 0x29B0B6B2903A37B5B2B7 PUSH1 0xB1 SHL PUSH1 0x44 DUP3 ADD MSTORE PUSH1 0x64 ADD PUSH2 0x82D JUMP JUMPDEST PUSH1 0x40 MLOAD PUSH4 0x23B872DD PUSH1 0xE0 SHL DUP2 MSTORE PUSH1 0x1 PUSH1 0x1 PUSH1 0xA0 SHL SUB DUP10 AND SWAP1 PUSH4 0x23B872DD SWAP1 PUSH2 0x1BC6 SWAP1 CALLER SWAP1 ADDRESS SWAP1 DUP12 SWAP1 PUSH1 0x4 ADD PUSH2 0x2C44 JUMP JUMPDEST PUSH1 0x20 PUSH1 0x40 MLOAD DUP1 DUP4 SUB DUP2 PUSH1 0x0 DUP8 GAS CALL ISZERO DUP1 ISZERO PUSH2 0x1BE5 JUMPI RETURNDATASIZE PUSH1 0x0 DUP1 RETURNDATACOPY RETURNDATASIZE PUSH1 0x0 REVERT JUMPDEST POP POP POP POP PUSH1 0x40 MLOAD RETURNDATASIZE PUSH1 0x1F NOT PUSH1 0x1F DUP3 ADD AND DUP3 ADD DUP1 PUSH1 0x40 MSTORE POP DUP2 ADD SWAP1 PUSH2 0x1C09 SWAP2 SWAP1 PUSH2 0x2C68 JUMP JUMPDEST POP PUSH1 0x1 SLOAD PUSH1 0x40 MLOAD PUSH4 0x95EA7B3 PUSH1 0xE0 SHL DUP2 MSTORE PUSH1 0x1 PUSH1 0x1 PUSH1 0xA0 SHL SUB SWAP2 DUP3 AND PUSH1 0x4 DUP3 ADD MSTORE PUSH1 0x24 DUP2 ADD DUP9 SWAP1 MSTORE SWAP1 DUP10 AND SWAP1 PUSH4 0x95EA7B3 SWAP1 PUSH1 0x44 ADD PUSH1 0x20 PUSH1 0x40 MLOAD DUP1 DUP4 SUB DUP2 PUSH1 0x0 DUP8 GAS CALL ISZERO DUP1 ISZERO PUSH2 0x1C5D JUMPI RETURNDATASIZE PUSH1 0x0 DUP1 RETURNDATACOPY RETURNDATASIZE PUSH1 0x0 REVERT JUMPDEST POP POP POP POP PUSH1 0x40 MLOAD RETURNDATASIZE PUSH1 0x1F NOT PUSH1 0x1F DUP3 ADD AND DUP3 ADD DUP1 PUSH1 0x40 MSTORE POP DUP2 ADD SWAP1 PUSH2 0x1C81 SWAP2 SWAP1 PUSH2 0x2C68 JUMP JUMPDEST POP PUSH1 0x60 DUP5 DUP1 ISZERO PUSH2 0x1C92 JUMPI POP PUSH1 0x2 DUP4 LT ISZERO JUMPDEST ISZERO PUSH2 0x1CD3 JUMPI DUP4 DUP4 DUP1 DUP1 PUSH1 0x20 MUL PUSH1 0x20 ADD PUSH1 0x40 MLOAD SWAP1 DUP2 ADD PUSH1 0x40 MSTORE DUP1 SWAP4 SWAP3 SWAP2 SWAP1 DUP2 DUP2 MSTORE PUSH1 0x20 ADD DUP4 DUP4 PUSH1 0x20 MUL DUP1 DUP3 DUP5 CALLDATACOPY PUSH1 0x0 SWAP3 ADD SWAP2 SWAP1 SWAP2 MSTORE POP SWAP3 SWAP4 POP PUSH2 0x1D5C SWAP3 POP POP POP JUMP JUMPDEST PUSH1 0x40 DUP1 MLOAD PUSH1 0x2 DUP1 DUP3 MSTORE PUSH1 0x60 DUP3 ADD DUP4 MSTORE SWAP1 SWAP2 PUSH1 0x20 DUP4 ADD SWAP1 DUP1 CALLDATASIZE DUP4 CALLDATACOPY ADD SWAP1 POP POP SWAP1 POP DUP9 DUP2 PUSH1 0x0 DUP2 MLOAD DUP2 LT PUSH2 0x1D07 JUMPI PUSH2 0x1D07 PUSH2 0x2C9B JUMP JUMPDEST PUSH1 0x20 MUL PUSH1 0x20 ADD ADD SWAP1 PUSH1 0x1 PUSH1 0x1 PUSH1 0xA0 SHL SUB AND SWAP1 DUP2 PUSH1 0x1 PUSH1 0x1 PUSH1 0xA0 SHL SUB AND DUP2 MSTORE POP POP DUP8 DUP2 PUSH1 0x1 DUP2 MLOAD DUP2 LT PUSH2 0x1D3B JUMPI PUSH2 0x1D3B PUSH2 0x2C9B JUMP JUMPDEST PUSH1 0x20 MUL PUSH1 0x20 ADD ADD SWAP1 PUSH1 0x1 PUSH1 0x1 PUSH1 0xA0 SHL SUB AND SWAP1 DUP2 PUSH1 0x1 PUSH1 0x1 PUSH1 0xA0 SHL SUB AND DUP2 MSTORE POP POP JUMPDEST PUSH1 0x1 SLOAD PUSH1 0x0 SWAP1 PUSH1 0x1 PUSH1 0x1 PUSH1 0xA0 SHL SUB AND PUSH4 0x38ED1739 DUP10 DUP10 DUP6 CALLER PUSH2 0x1D80 TIMESTAMP PUSH2 0x12C PUSH2 0x2CB1 JUMP JUMPDEST PUSH1 0x40 MLOAD DUP7 PUSH4 0xFFFFFFFF AND PUSH1 0xE0 SHL DUP2 MSTORE PUSH1 0x4 ADD PUSH2 0x1DA0 SWAP6 SWAP5 SWAP4 SWAP3 SWAP2 SWAP1 PUSH2 0x2CC4 JUMP JUMPDEST PUSH1 0x0 PUSH1 0x40 MLOAD DUP1 DUP4 SUB DUP2 PUSH1 0x0 DUP8 GAS CALL ISZERO DUP1 ISZERO PUSH2 0x1DBF JUMPI RETURNDATASIZE PUSH1 0x0 DUP1 RETURNDATACOPY RETURNDATASIZE PUSH1 0x0 REVERT JUMPDEST POP POP POP POP PUSH1 0x40 MLOAD RETURNDATASIZE PUSH1 0x0 DUP3 RETURNDATACOPY PUSH1 0x1F RETURNDATASIZE SWAP1 DUP2 ADD PUSH1 0x1F NOT AND DUP3 ADD PUSH1 0x40 MSTORE PUSH2 0x1DE7 SWAP2 SWAP1 DUP2 ADD SWAP1 PUSH2 0x2D7E JUMP JUMPDEST SWAP1 POP DUP1 PUSH1 0x1 DUP3 MLOAD PUSH2 0x1DF8 SWAP2 SWAP1 PUSH2 0x2F0B JUMP JUMPDEST DUP2 MLOAD DUP2 LT PUSH2 0x1E08 JUMPI PUSH2 0x1E08 PUSH2 0x2C9B JUMP JUMPDEST PUSH1 0x20 MUL PUSH1 0x20 ADD ADD MLOAD SWAP3 POP DUP9 PUSH1 0x1 PUSH1 0x1 PUSH1 0xA0 SHL SUB AND DUP11 PUSH1 0x1 PUSH1 0x1 PUSH1 0xA0 SHL SUB AND CALLER PUSH1 0x1 PUSH1 0x1 PUSH1 0xA0 SHL SUB AND PUSH1 0x0 DUP1 MLOAD PUSH1 0x20 PUSH2 0x3008 DUP4 CODECOPY DUP2 MLOAD SWAP2 MSTORE DUP12 DUP8 PUSH1 0x40 MLOAD PUSH2 0x1E58 SWAP3 SWAP2 SWAP1 SWAP2 DUP3 MSTORE PUSH1 0x20 DUP3 ADD MSTORE PUSH1 0x40 ADD SWAP1 JUMP JUMPDEST PUSH1 0x40 MLOAD DUP1 SWAP2 SUB SWAP1 LOG4 POP POP SWAP8 SWAP7 POP POP POP POP POP POP POP JUMP JUMPDEST PUSH1 0x0 SLOAD PUSH1 0x1 PUSH1 0x1 PUSH1 0xA0 SHL SUB AND CALLER EQ PUSH2 0x1E97 JUMPI PUSH1 0x40 MLOAD PUSH3 0x461BCD PUSH1 0xE5 SHL DUP2 MSTORE PUSH1 0x4 ADD PUSH2 0x82D SWAP1 PUSH2 0x2F37 JUMP JUMPDEST PUSH1 0x1 PUSH1 0x1 PUSH1 0xA0 SHL SUB DUP3 AND PUSH2 0x1EE3 JUMPI PUSH1 0x0 DUP1 SLOAD PUSH1 0x40 MLOAD PUSH1 0x1 PUSH1 0x1 PUSH1 0xA0 SHL SUB SWAP1 SWAP2 AND SWAP2 DUP4 ISZERO PUSH2 0x8FC MUL SWAP2 DUP5 SWAP2 DUP2 DUP2 DUP2 DUP6 DUP9 DUP9 CALL SWAP4 POP POP POP POP ISZERO DUP1 ISZERO PUSH2 0x1EDE JUMPI RETURNDATASIZE PUSH1 0x0 DUP1 RETURNDATACOPY RETURNDATASIZE PUSH1 0x0 REVERT JUMPDEST POP POP POP JUMP JUMPDEST PUSH1 0x0 SLOAD PUSH1 0x40 MLOAD PUSH4 0xA9059CBB PUSH1 0xE0 SHL DUP2 MSTORE PUSH1 0x1 PUSH1 0x1 PUSH1 0xA0 SHL SUB SWAP2 DUP3 AND PUSH1 0x4 DUP3 ADD MSTORE PUSH1 0x24 DUP2 ADD DUP4 SWAP1 MSTORE SWAP1 DUP4 AND SWAP1 PUSH4 0xA9059CBB SWAP1 PUSH1 0x44 ADD PUSH1 0x20 PUSH1 0x40 MLOAD DUP1 DUP4 SUB DUP2 PUSH1 0x0 DUP8 GAS CALL ISZERO DUP1 ISZERO PUSH2 0x1F36 JUMPI RETURNDATASIZE PUSH1 0x0 DUP1 RETURNDATACOPY RETURNDATASIZE PUSH1 0x0 REVERT JUMPDEST POP POP POP POP PUSH1 0x40 MLOAD RETURNDATASIZE PUSH1 0x1F NOT PUSH1 0x1F DUP3 ADD AND DUP3 ADD DUP1 PUSH1 0x40 MSTORE POP DUP2 ADD SWAP1 PUSH2 0x1EDE SWAP2 SWAP1 PUSH2 0x2C68 JUMP JUMPDEST PUSH1 0x3 SLOAD PUSH1 0x0 SWAP1 PUSH1 0xFF AND ISZERO PUSH2 0x1F80 JUMPI PUSH1 0x40 MLOAD PUSH3 0x461BCD PUSH1 0xE5 SHL DUP2 MSTORE PUSH1 0x4 ADD PUSH2 0x82D SWAP1 PUSH2 0x2BD5 JUMP JUMPDEST PUSH1 0x0 CALLVALUE GT PUSH2 0x1FBF JUMPI PUSH1 0x40 MLOAD PUSH3 0x461BCD PUSH1 0xE5 SHL DUP2 MSTORE PUSH1 0x20 PUSH1 0x4 DUP3 ADD MSTORE PUSH1 0xC PUSH1 0x24 DUP3 ADD MSTORE PUSH12 0x139BC812165411481CD95B9D PUSH1 0xA2 SHL PUSH1 0x44 DUP3 ADD MSTORE PUSH1 0x64 ADD PUSH2 0x82D JUMP JUMPDEST PUSH1 0x40 DUP1 MLOAD PUSH1 0x2 DUP1 DUP3 MSTORE PUSH1 0x60 DUP3 ADD DUP4 MSTORE PUSH1 0x0 SWAP3 PUSH1 0x20 DUP4 ADD SWAP1 DUP1 CALLDATASIZE DUP4 CALLDATACOPY ADD SWAP1 POP POP SWAP1 POP PUSH20 0x5555555555555555555555555555555555555555 DUP2 PUSH1 0x0 DUP2 MLOAD DUP2 LT PUSH2 0x2008 JUMPI PUSH2 0x2008 PUSH2 0x2C9B JUMP JUMPDEST PUSH1 0x20 MUL PUSH1 0x20 ADD ADD SWAP1 PUSH1 0x1 PUSH1 0x1 PUSH1 0xA0 SHL SUB AND SWAP1 DUP2 PUSH1 0x1 PUSH1 0x1 PUSH1 0xA0 SHL SUB AND DUP2 MSTORE POP POP DUP4 DUP2 PUSH1 0x1 DUP2 MLOAD DUP2 LT PUSH2 0x203C JUMPI PUSH2 0x203C PUSH2 0x2C9B JUMP JUMPDEST PUSH1 0x1 PUSH1 0x1 PUSH1 0xA0 SHL SUB SWAP3 DUP4 AND PUSH1 0x20 SWAP2 DUP3 MUL SWAP3 SWAP1 SWAP3 ADD ADD MSTORE PUSH1 0x1 SLOAD PUSH1 0x0 SWAP2 AND PUSH4 0x7FF36AB5 CALLVALUE DUP7 DUP6 CALLER PUSH2 0x206E TIMESTAMP PUSH2 0x12C PUSH2 0x2CB1 JUMP JUMPDEST PUSH1 0x40 MLOAD DUP7 PUSH4 0xFFFFFFFF AND PUSH1 0xE0 SHL DUP2 MSTORE PUSH1 0x4 ADD PUSH2 0x208D SWAP5 SWAP4 SWAP3 SWAP2 SWAP1 PUSH2 0x2FB1 JUMP JUMPDEST PUSH1 0x0 PUSH1 0x40 MLOAD DUP1 DUP4 SUB DUP2 DUP6 DUP9 GAS CALL ISZERO DUP1 ISZERO PUSH2 0x20AB JUMPI RETURNDATASIZE PUSH1 0x0 DUP1 RETURNDATACOPY RETURNDATASIZE PUSH1 0x0 REVERT JUMPDEST POP POP POP POP POP PUSH1 0x40 MLOAD RETURNDATASIZE PUSH1 0x0 DUP3 RETURNDATACOPY PUSH1 0x1F RETURNDATASIZE SWAP1 DUP2 ADD PUSH1 0x1F NOT AND DUP3 ADD PUSH1 0x40 MSTORE PUSH2 0x20D4 SWAP2 SWAP1 DUP2 ADD SWAP1 PUSH2 0x2D7E JUMP JUMPDEST SWAP1 POP DUP1 PUSH1 0x1 DUP2 MLOAD DUP2 LT PUSH2 0x20E9 JUMPI PUSH2 0x20E9 PUSH2 0x2C9B JUMP JUMPDEST PUSH1 0x20 MUL PUSH1 0x20 ADD ADD MLOAD SWAP3 POP DUP5 PUSH1 0x1 PUSH1 0x1 PUSH1 0xA0 SHL SUB AND PUSH20 0x5555555555555555555555555555555555555555 PUSH1 0x1 PUSH1 0x1 PUSH1 0xA0 SHL SUB AND CALLER PUSH1 0x1 PUSH1 0x1 PUSH1 0xA0 SHL SUB AND PUSH1 0x0 DUP1 MLOAD PUSH1 0x20 PUSH2 0x3008 DUP4 CODECOPY DUP2 MLOAD SWAP2 MSTORE CALLVALUE DUP8 PUSH1 0x40 MLOAD PUSH2 0x214D SWAP3 SWAP2 SWAP1 SWAP2 DUP3 MSTORE PUSH1 0x20 DUP3 ADD MSTORE PUSH1 0x40 ADD SWAP1 JUMP JUMPDEST PUSH1 0x40 MLOAD DUP1 SWAP2 SUB SWAP1 LOG4 POP POP SWAP3 SWAP2 POP POP JUMP JUMPDEST PUSH1 0x0 SLOAD PUSH1 0x1 PUSH1 0x1 PUSH1 0xA0 SHL SUB AND CALLER EQ PUSH2 0x2187 JUMPI PUSH1 0x40 MLOAD PUSH3 0x461BCD PUSH1 0xE5 SHL DUP2 MSTORE PUSH1 0x4 ADD PUSH2 0x82D SWAP1 PUSH2 0x2F37 JUMP JUMPDEST PUSH1 0x1 PUSH1 0x1 PUSH1 0xA0 SHL SUB DUP2 AND PUSH2 0x21CE JUMPI PUSH1 0x40 MLOAD PUSH3 0x461BCD PUSH1 0xE5 SHL DUP2 MSTORE PUSH1 0x20 PUSH1 0x4 DUP3 ADD MSTORE PUSH1 0xE PUSH1 0x24 DUP3 ADD MSTORE PUSH14 0x24B73B30B634B2103937BABA32B9 PUSH1 0x91 SHL PUSH1 0x44 DUP3 ADD MSTORE PUSH1 0x64 ADD PUSH2 0x82D JUMP JUMPDEST PUSH1 0x1 DUP1 SLOAD PUSH1 0x1 PUSH1 0x1 PUSH1 0xA0 SHL SUB DUP4 DUP2 AND PUSH1 0x1 PUSH1 0x1 PUSH1 0xA0 SHL SUB NOT DUP4 AND DUP2 OR SWAP1 SWAP4 SSTORE PUSH1 0x40 MLOAD SWAP2 AND SWAP2 SWAP1 DUP3 SWAP1 PUSH32 0x2DC5C233404867C793B749C6D644BEB2277536D18A7E7974D3F238E4C6F1684 SWAP1 PUSH1 0x0 SWAP1 LOG3 POP POP JUMP JUMPDEST PUSH1 0x40 DUP1 MLOAD PUSH1 0x2 DUP1 DUP3 MSTORE PUSH1 0x60 DUP3 ADD DUP4 MSTORE PUSH1 0x0 SWAP3 DUP4 SWAP3 DUP4 SWAP3 SWAP1 SWAP2 PUSH1 0x20 DUP4 ADD SWAP1 DUP1 CALLDATASIZE DUP4 CALLDATACOPY ADD SWAP1 POP POP SWAP1 POP DUP6 DUP2 PUSH1 0x0 DUP2 MLOAD DUP2 LT PUSH2 0x225B JUMPI PUSH2 0x225B PUSH2 0x2C9B JUMP JUMPDEST PUSH1 0x20 MUL PUSH1 0x20 ADD ADD SWAP1 PUSH1 0x1 PUSH1 0x1 PUSH1 0xA0 SHL SUB AND SWAP1 DUP2 PUSH1 0x1 PUSH1 0x1 PUSH1 0xA0 SHL SUB AND DUP2 MSTORE POP POP DUP5 DUP2 PUSH1 0x1 DUP2 MLOAD DUP2 LT PUSH2 0x228F JUMPI PUSH2 0x228F PUSH2 0x2C9B JUMP JUMPDEST PUSH1 0x1 PUSH1 0x1 PUSH1 0xA0 SHL SUB SWAP3 DUP4 AND PUSH1 0x20 SWAP2 DUP3 MUL SWAP3 SWAP1 SWAP3 ADD ADD MSTORE PUSH1 0x1 SLOAD PUSH1 0x40 MLOAD PUSH4 0xD06CA61F PUSH1 0xE0 SHL DUP2 MSTORE PUSH1 0x0 SWAP3 SWAP2 SWAP1 SWAP2 AND SWAP1 PUSH4 0xD06CA61F SWAP1 PUSH2 0x22D3 SWAP1 DUP9 SWAP1 DUP7 SWAP1 PUSH1 0x4 ADD PUSH2 0x2FE6 JUMP JUMPDEST PUSH1 0x0 PUSH1 0x40 MLOAD DUP1 DUP4 SUB DUP2 DUP7 GAS STATICCALL ISZERO DUP1 ISZERO PUSH2 0x22F0 JUMPI RETURNDATASIZE PUSH1 0x0 DUP1 RETURNDATACOPY RETURNDATASIZE PUSH1 0x0 REVERT JUMPDEST POP POP POP POP PUSH1 0x40 MLOAD RETURNDATASIZE PUSH1 0x0 DUP3 RETURNDATACOPY PUSH1 0x1F RETURNDATASIZE SWAP1 DUP2 ADD PUSH1 0x1F NOT AND DUP3 ADD PUSH1 0x40 MSTORE PUSH2 0x2318 SWAP2 SWAP1 DUP2 ADD SWAP1 PUSH2 0x2D7E JUMP JUMPDEST SWAP1 POP DUP1 PUSH1 0x1 DUP2 MLOAD DUP2 LT PUSH2 0x232D JUMPI PUSH2 0x232D PUSH2 0x2C9B JUMP JUMPDEST PUSH1 0x20 MUL PUSH1 0x20 ADD ADD MLOAD SWAP4 POP PUSH2 0x2710 PUSH1 0x2 SLOAD PUSH2 0x2710 PUSH2 0x234A SWAP2 SWAP1 PUSH2 0x2F0B JUMP JUMPDEST PUSH2 0x2354 SWAP1 DUP7 PUSH2 0x2C0B JUMP JUMPDEST PUSH2 0x235E SWAP2 SWAP1 PUSH2 0x2C22 JUMP JUMPDEST SWAP3 POP POP POP SWAP4 POP SWAP4 SWAP2 POP POP JUMP JUMPDEST PUSH1 0x40 DUP1 MLOAD PUSH1 0xD DUP1 DUP3 MSTORE PUSH2 0x1C0 DUP3 ADD SWAP1 SWAP3 MSTORE PUSH1 0x60 SWAP2 PUSH1 0x0 SWAP2 SWAP1 PUSH1 0x20 DUP3 ADD PUSH2 0x1A0 DUP1 CALLDATASIZE DUP4 CALLDATACOPY ADD SWAP1 POP POP SWAP1 POP PUSH20 0x5555555555555555555555555555555555555555 DUP2 PUSH1 0x0 DUP2 MLOAD DUP2 LT PUSH2 0x23BB JUMPI PUSH2 0x23BB PUSH2 0x2C9B JUMP JUMPDEST PUSH1 0x20 MUL PUSH1 0x20 ADD ADD SWAP1 PUSH1 0x1 PUSH1 0x1 PUSH1 0xA0 SHL SUB AND SWAP1 DUP2 PUSH1 0x1 PUSH1 0x1 PUSH1 0xA0 SHL SUB AND DUP2 MSTORE POP POP PUSH20 0xB8CE59FC3717ADA4C02EADF9682A9E934F625EBB DUP2 PUSH1 0x1 DUP2 MLOAD DUP2 LT PUSH2 0x2403 JUMPI PUSH2 0x2403 PUSH2 0x2C9B JUMP JUMPDEST PUSH1 0x20 MUL PUSH1 0x20 ADD ADD SWAP1 PUSH1 0x1 PUSH1 0x1 PUSH1 0xA0 SHL SUB AND SWAP1 DUP2 PUSH1 0x1 PUSH1 0x1 PUSH1 0xA0 SHL SUB AND DUP2 MSTORE POP POP PUSH20 0xB88339CB7199B77E23DB6E890353E22632BA630F DUP2 PUSH1 0x2 DUP2 MLOAD DUP2 LT PUSH2 0x244B JUMPI PUSH2 0x244B PUSH2 0x2C9B JUMP JUMPDEST PUSH1 0x20 MUL PUSH1 0x20 ADD ADD SWAP1 PUSH1 0x1 PUSH1 0x1 PUSH1 0xA0 SHL SUB AND SWAP1 DUP2 PUSH1 0x1 PUSH1 0x1 PUSH1 0xA0 SHL SUB AND DUP2 MSTORE POP POP PUSH20 0x111111A1A0667D36BD57C0A9F569B98057111111 DUP2 PUSH1 0x3 DUP2 MLOAD DUP2 LT PUSH2 0x2493 JUMPI PUSH2 0x2493 PUSH2 0x2C9B JUMP JUMPDEST PUSH1 0x20 MUL PUSH1 0x20 ADD ADD SWAP1 PUSH1 0x1 PUSH1 0x1 PUSH1 0xA0 SHL SUB AND SWAP1 DUP2 PUSH1 0x1 PUSH1 0x1 PUSH1 0xA0 SHL SUB AND DUP2 MSTORE POP POP PUSH20 0xAD339D66BF4AED5CE31C64BC37B3244B6394A77 DUP2 PUSH1 0x4 DUP2 MLOAD DUP2 LT PUSH2 0x24DB JUMPI PUSH2 0x24DB PUSH2 0x2C9B JUMP JUMPDEST PUSH1 0x20 MUL PUSH1 0x20 ADD ADD SWAP1 PUSH1 0x1 PUSH1 0x1 PUSH1 0xA0 SHL SUB AND SWAP1 DUP2 PUSH1 0x1 PUSH1 0x1 PUSH1 0xA0 SHL SUB AND DUP2 MSTORE POP POP PUSH20 0x211CC4DD073734DA055FBF44A2B4667D5E5FE5D2 DUP2 PUSH1 0x5 DUP2 MLOAD DUP2 LT PUSH2 0x2523 JUMPI PUSH2 0x2523 PUSH2 0x2C9B JUMP JUMPDEST PUSH1 0x20 MUL PUSH1 0x20 ADD ADD SWAP1 PUSH1 0x1 PUSH1 0x1 PUSH1 0xA0 SHL SUB AND SWAP1 DUP2 PUSH1 0x1 PUSH1 0x1 PUSH1 0xA0 SHL SUB AND DUP2 MSTORE POP POP PUSH20 0x5D3A1FF2B6BAB83B63CD9AD0787074081A52EF34 DUP2 PUSH1 0x6 DUP2 MLOAD DUP2 LT PUSH2 0x256B JUMPI PUSH2 0x256B PUSH2 0x2C9B JUMP JUMPDEST PUSH1 0x20 MUL PUSH1 0x20 ADD ADD SWAP1 PUSH1 0x1 PUSH1 0x1 PUSH1 0xA0 SHL SUB AND SWAP1 DUP2 PUSH1 0x1 PUSH1 0x1 PUSH1 0xA0 SHL SUB AND DUP2 MSTORE POP POP PUSH20 0x9FDBDA0A5E284C32744D2F17EE5C74B284993463 DUP2 PUSH1 0x7 DUP2 MLOAD DUP2 LT PUSH2 0x25B3 JUMPI PUSH2 0x25B3 PUSH2 0x2C9B JUMP JUMPDEST PUSH1 0x20 MUL PUSH1 0x20 ADD ADD SWAP1 PUSH1 0x1 PUSH1 0x1 PUSH1 0xA0 SHL SUB AND SWAP1 DUP2 PUSH1 0x1 PUSH1 0x1 PUSH1 0xA0 SHL SUB AND DUP2 MSTORE POP POP PUSH20 0x94E8396E0869C9F2200760AF0621AFD240E1CF38 DUP2 PUSH1 0x8 DUP2 MLOAD DUP2 LT PUSH2 0x25FB JUMPI PUSH2 0x25FB PUSH2 0x2C9B JUMP JUMPDEST PUSH1 0x20 MUL PUSH1 0x20 ADD ADD SWAP1 PUSH1 0x1 PUSH1 0x1 PUSH1 0xA0 SHL SUB AND SWAP1 DUP2 PUSH1 0x1 PUSH1 0x1 PUSH1 0xA0 SHL SUB AND DUP2 MSTORE POP POP PUSH20 0xBE6727B535545C67D5CAA73DEA54865B92CF7907 DUP2 PUSH1 0x9 DUP2 MLOAD DUP2 LT PUSH2 0x2643 JUMPI PUSH2 0x2643 PUSH2 0x2C9B JUMP JUMPDEST PUSH1 0x20 MUL PUSH1 0x20 ADD ADD SWAP1 PUSH1 0x1 PUSH1 0x1 PUSH1 0xA0 SHL SUB AND SWAP1 DUP2 PUSH1 0x1 PUSH1 0x1 PUSH1 0xA0 SHL SUB AND DUP2 MSTORE POP POP PUSH20 0xD8FC8F0B03EBA61F64D08B0BEF69D80916E5DDA9 DUP2 PUSH1 0xA DUP2 MLOAD DUP2 LT PUSH2 0x268B JUMPI PUSH2 0x268B PUSH2 0x2C9B JUMP JUMPDEST PUSH1 0x20 MUL PUSH1 0x20 ADD ADD SWAP1 PUSH1 0x1 PUSH1 0x1 PUSH1 0xA0 SHL SUB AND SWAP1 DUP2 PUSH1 0x1 PUSH1 0x1 PUSH1 0xA0 SHL SUB AND DUP2 MSTORE POP POP PUSH20 0xB50A96253ABDF803D85EFCDCE07AD8BECBC52BD5 DUP2 PUSH1 0xB DUP2 MLOAD DUP2 LT PUSH2 0x26D3 JUMPI PUSH2 0x26D3 PUSH2 0x2C9B JUMP JUMPDEST PUSH1 0x20 MUL PUSH1 0x20 ADD ADD SWAP1 PUSH1 0x1 PUSH1 0x1 PUSH1 0xA0 SHL SUB AND SWAP1 DUP2 PUSH1 0x1 PUSH1 0x1 PUSH1 0xA0 SHL SUB AND DUP2 MSTORE POP POP PUSH20 0x68F321FA8FB9F0D135F290EF6A3E2813E1C8A29 DUP2 PUSH1 0xC DUP2 MLOAD DUP2 LT PUSH2 0x271B JUMPI PUSH2 0x271B PUSH2 0x2C9B JUMP JUMPDEST PUSH1 0x1 PUSH1 0x1 PUSH1 0xA0 SHL SUB SWAP1 SWAP3 AND PUSH1 0x20 SWAP3 DUP4 MUL SWAP2 SWAP1 SWAP2 ADD SWAP1 SWAP2 ADD MSTORE SWAP2 SWAP1 POP JUMP JUMPDEST PUSH1 0x0 SLOAD PUSH1 0x1 PUSH1 0x1 PUSH1 0xA0 SHL SUB AND CALLER EQ PUSH2 0x2762 JUMPI PUSH1 0x40 MLOAD PUSH3 0x461BCD PUSH1 0xE5 SHL DUP2 MSTORE PUSH1 0x4 ADD PUSH2 0x82D SWAP1 PUSH2 0x2F37 JUMP JUMPDEST PUSH2 0x1F4 DUP2 GT ISZERO PUSH2 0x279D JUMPI PUSH1 0x40 MLOAD PUSH3 0x461BCD PUSH1 0xE5 SHL DUP2 MSTORE PUSH1 0x20 PUSH1 0x4 DUP3 ADD MSTORE PUSH1 0x6 PUSH1 0x24 DUP3 ADD MSTORE PUSH6 0x4D6178203525 PUSH1 0xD0 SHL PUSH1 0x44 DUP3 ADD MSTORE PUSH1 0x64 ADD PUSH2 0x82D JUMP JUMPDEST PUSH1 0x2 DUP1 SLOAD SWAP1 DUP3 SWAP1 SSTORE PUSH1 0x40 DUP1 MLOAD DUP3 DUP2 MSTORE PUSH1 0x20 DUP2 ADD DUP5 SWAP1 MSTORE PUSH32 0x7AF09E2B23EBAB5DD29FA2271D6CA4795031F308CAF26CA605F4A719FFEED61 SWAP2 ADD PUSH1 0x40 MLOAD DUP1 SWAP2 SUB SWAP1 LOG1 POP POP JUMP JUMPDEST PUSH1 0x0 SLOAD PUSH1 0x1 PUSH1 0x1 PUSH1 0xA0 SHL SUB AND CALLER EQ PUSH2 0x280C JUMPI PUSH1 0x40 MLOAD PUSH3 0x461BCD PUSH1 0xE5 SHL DUP2 MSTORE PUSH1 0x4 ADD PUSH2 0x82D SWAP1 PUSH2 0x2F37 JUMP JUMPDEST PUSH1 0x1 PUSH1 0x1 PUSH1 0xA0 SHL SUB DUP2 AND PUSH2 0x2854 JUMPI PUSH1 0x40 MLOAD PUSH3 0x461BCD PUSH1 0xE5 SHL DUP2 MSTORE PUSH1 0x20 PUSH1 0x4 DUP3 ADD MSTORE PUSH1 0xF PUSH1 0x24 DUP3 ADD MSTORE PUSH15 0x496E76616C69642061646472657373 PUSH1 0x88 SHL PUSH1 0x44 DUP3 ADD MSTORE PUSH1 0x64 ADD PUSH2 0x82D JUMP JUMPDEST PUSH1 0x0 DUP1 SLOAD PUSH1 0x1 PUSH1 0x1 PUSH1 0xA0 SHL SUB NOT AND PUSH1 0x1 PUSH1 0x1 PUSH1 0xA0 SHL SUB SWAP3 SWAP1 SWAP3 AND SWAP2 SWAP1 SWAP2 OR SWAP1 SSTORE JUMP JUMPDEST DUP1 CALLDATALOAD PUSH1 0x1 PUSH1 0x1 PUSH1 0xA0 SHL SUB DUP2 AND DUP2 EQ PUSH2 0x288D JUMPI PUSH1 0x0 DUP1 REVERT JUMPDEST SWAP2 SWAP1 POP JUMP JUMPDEST PUSH1 0x0 PUSH1 0x20 DUP3 DUP5 SUB SLT ISZERO PUSH2 0x28A4 JUMPI PUSH1 0x0 DUP1 REVERT JUMPDEST PUSH2 0x28AD DUP3 PUSH2 0x2876 JUMP JUMPDEST SWAP4 SWAP3 POP POP POP JUMP JUMPDEST PUSH1 0x0 DUP1 PUSH1 0x0 PUSH1 0x60 DUP5 DUP7 SUB SLT ISZERO PUSH2 0x28C9 JUMPI PUSH1 0x0 DUP1 REVERT JUMPDEST PUSH2 0x28D2 DUP5 PUSH2 0x2876 JUMP JUMPDEST SWAP3 POP PUSH2 0x28E0 PUSH1 0x20 DUP6 ADD PUSH2 0x2876 JUMP JUMPDEST SWAP2 POP PUSH1 0x40 DUP5 ADD CALLDATALOAD SWAP1 POP SWAP3 POP SWAP3 POP SWAP3 JUMP JUMPDEST PUSH1 0x0 DUP1 DUP4 PUSH1 0x1F DUP5 ADD SLT PUSH2 0x2902 JUMPI PUSH1 0x0 DUP1 REVERT JUMPDEST POP DUP2 CALLDATALOAD PUSH8 0xFFFFFFFFFFFFFFFF DUP2 GT ISZERO PUSH2 0x291A JUMPI PUSH1 0x0 DUP1 REVERT JUMPDEST PUSH1 0x20 DUP4 ADD SWAP2 POP DUP4 PUSH1 0x20 DUP3 PUSH1 0x5 SHL DUP6 ADD ADD GT ISZERO PUSH2 0x2935 JUMPI PUSH1 0x0 DUP1 REVERT JUMPDEST SWAP3 POP SWAP3 SWAP1 POP JUMP JUMPDEST PUSH1 0x0 DUP1 PUSH1 0x20 DUP4 DUP6 SUB SLT ISZERO PUSH2 0x294F JUMPI PUSH1 0x0 DUP1 REVERT JUMPDEST DUP3 CALLDATALOAD PUSH8 0xFFFFFFFFFFFFFFFF DUP2 GT ISZERO PUSH2 0x2966 JUMPI PUSH1 0x0 DUP1 REVERT JUMPDEST PUSH2 0x2972 DUP6 DUP3 DUP7 ADD PUSH2 0x28F0 JUMP JUMPDEST SWAP1 SWAP7 SWAP1 SWAP6 POP SWAP4 POP POP POP POP JUMP JUMPDEST PUSH1 0x20 DUP1 DUP3 MSTORE DUP3 MLOAD DUP3 DUP3 ADD DUP2 SWAP1 MSTORE PUSH1 0x0 SWAP2 SWAP1 DUP5 DUP3 ADD SWAP1 PUSH1 0x40 DUP6 ADD SWAP1 DUP5 JUMPDEST DUP2 DUP2 LT ISZERO PUSH2 0x29B6 JUMPI DUP4 MLOAD DUP4 MSTORE SWAP3 DUP5 ADD SWAP3 SWAP2 DUP5 ADD SWAP2 PUSH1 0x1 ADD PUSH2 0x299A JUMP JUMPDEST POP SWAP1 SWAP7 SWAP6 POP POP POP POP POP POP JUMP JUMPDEST PUSH1 0x0 DUP1 PUSH1 0x0 PUSH1 0x60 DUP5 DUP7 SUB SLT ISZERO PUSH2 0x29D7 JUMPI PUSH1 0x0 DUP1 REVERT JUMPDEST PUSH2 0x29E0 DUP5 PUSH2 0x2876 JUMP JUMPDEST SWAP6 PUSH1 0x20 DUP6 ADD CALLDATALOAD SWAP6 POP PUSH1 0x40 SWAP1 SWAP5 ADD CALLDATALOAD SWAP4 SWAP3 POP POP POP JUMP JUMPDEST PUSH1 0x0 DUP1 PUSH1 0x0 PUSH1 0x40 DUP5 DUP7 SUB SLT ISZERO PUSH2 0x2A0A JUMPI PUSH1 0x0 DUP1 REVERT JUMPDEST DUP4 CALLDATALOAD SWAP3 POP PUSH1 0x20 DUP5 ADD CALLDATALOAD PUSH8 0xFFFFFFFFFFFFFFFF DUP2 GT ISZERO PUSH2 0x2A28 JUMPI PUSH1 0x0 DUP1 REVERT JUMPDEST PUSH2 0x2A34 DUP7 DUP3 DUP8 ADD PUSH2 0x28F0 JUMP JUMPDEST SWAP5 SWAP8 SWAP1 SWAP7 POP SWAP4 SWAP5 POP POP POP POP JUMP JUMPDEST PUSH1 0x0 PUSH1 0x20 DUP3 DUP5 SUB SLT ISZERO PUSH2 0x2A53 JUMPI PUSH1 0x0 DUP1 REVERT JUMPDEST POP CALLDATALOAD SWAP2 SWAP1 POP JUMP JUMPDEST PUSH1 0x1 DUP1 PUSH1 0xA0 SHL SUB DUP4 AND DUP2 MSTORE PUSH1 0x0 PUSH1 0x20 PUSH1 0x40 DUP2 DUP5 ADD MSTORE DUP4 MLOAD DUP1 PUSH1 0x40 DUP6 ADD MSTORE PUSH1 0x0 JUMPDEST DUP2 DUP2 LT ISZERO PUSH2 0x2A96 JUMPI DUP6 DUP2 ADD DUP4 ADD MLOAD DUP6 DUP3 ADD PUSH1 0x60 ADD MSTORE DUP3 ADD PUSH2 0x2A7A JUMP JUMPDEST POP PUSH1 0x0 PUSH1 0x60 DUP3 DUP7 ADD ADD MSTORE PUSH1 0x60 PUSH1 0x1F NOT PUSH1 0x1F DUP4 ADD AND DUP6 ADD ADD SWAP3 POP POP POP SWAP4 SWAP3 POP POP POP JUMP JUMPDEST DUP1 ISZERO ISZERO DUP2 EQ PUSH2 0x2AC6 JUMPI PUSH1 0x0 DUP1 REVERT JUMPDEST POP JUMP JUMPDEST PUSH1 0x0 DUP1 PUSH1 0x0 DUP1 PUSH1 0x0 DUP1 PUSH1 0x0 PUSH1 0xC0 DUP9 DUP11 SUB SLT ISZERO PUSH2 0x2AE4 JUMPI PUSH1 0x0 DUP1 REVERT JUMPDEST PUSH2 0x2AED DUP9 PUSH2 0x2876 JUMP JUMPDEST SWAP7 POP PUSH2 0x2AFB PUSH1 0x20 DUP10 ADD PUSH2 0x2876 JUMP JUMPDEST SWAP6 POP PUSH1 0x40 DUP9 ADD CALLDATALOAD SWAP5 POP PUSH1 0x60 DUP9 ADD CALLDATALOAD SWAP4 POP PUSH1 0x80 DUP9 ADD CALLDATALOAD PUSH2 0x2B19 DUP2 PUSH2 0x2AB8 JUMP JUMPDEST SWAP3 POP PUSH1 0xA0 DUP9 ADD CALLDATALOAD PUSH8 0xFFFFFFFFFFFFFFFF DUP2 GT ISZERO PUSH2 0x2B35 JUMPI PUSH1 0x0 DUP1 REVERT JUMPDEST PUSH2 0x2B41 DUP11 DUP3 DUP12 ADD PUSH2 0x28F0 JUMP JUMPDEST SWAP9 SWAP12 SWAP8 SWAP11 POP SWAP6 SWAP9 POP SWAP4 SWAP7 SWAP3 SWAP6 SWAP3 SWAP4 POP POP POP JUMP JUMPDEST PUSH1 0x0 DUP1 PUSH1 0x40 DUP4 DUP6 SUB SLT ISZERO PUSH2 0x2B67 JUMPI PUSH1 0x0 DUP1 REVERT JUMPDEST PUSH2 0x2B70 DUP4 PUSH2 0x2876 JUMP JUMPDEST SWAP5 PUSH1 0x20 SWAP4 SWAP1 SWAP4 ADD CALLDATALOAD SWAP4 POP POP POP JUMP JUMPDEST PUSH1 0x0 DUP2 MLOAD DUP1 DUP5 MSTORE PUSH1 0x20 DUP1 DUP6 ADD SWAP5 POP DUP1 DUP5 ADD PUSH1 0x0 JUMPDEST DUP4 DUP2 LT ISZERO PUSH2 0x2BB7 JUMPI DUP2 MLOAD PUSH1 0x1 PUSH1 0x1 PUSH1 0xA0 SHL SUB AND DUP8 MSTORE SWAP6 DUP3 ADD SWAP6 SWAP1 DUP3 ADD SWAP1 PUSH1 0x1 ADD PUSH2 0x2B92 JUMP JUMPDEST POP SWAP5 SWAP6 SWAP5 POP POP POP POP POP JUMP JUMPDEST PUSH1 0x20 DUP2 MSTORE PUSH1 0x0 PUSH2 0x28AD PUSH1 0x20 DUP4 ADD DUP5 PUSH2 0x2B7E JUMP JUMPDEST PUSH1 0x20 DUP1 DUP3 MSTORE PUSH1 0x6 SWAP1 DUP3 ADD MSTORE PUSH6 0x14185D5CD959 PUSH1 0xD2 SHL PUSH1 0x40 DUP3 ADD MSTORE PUSH1 0x60 ADD SWAP1 JUMP JUMPDEST PUSH4 0x4E487B71 PUSH1 0xE0 SHL PUSH1 0x0 MSTORE PUSH1 0x11 PUSH1 0x4 MSTORE PUSH1 0x24 PUSH1 0x0 REVERT JUMPDEST DUP1 DUP3 MUL DUP2 ISZERO DUP3 DUP3 DIV DUP5 EQ OR PUSH2 0x801 JUMPI PUSH2 0x801 PUSH2 0x2BF5 JUMP JUMPDEST PUSH1 0x0 DUP3 PUSH2 0x2C3F JUMPI PUSH4 0x4E487B71 PUSH1 0xE0 SHL PUSH1 0x0 MSTORE PUSH1 0x12 PUSH1 0x4 MSTORE PUSH1 0x24 PUSH1 0x0 REVERT JUMPDEST POP DIV SWAP1 JUMP JUMPDEST PUSH1 0x1 PUSH1 0x1 PUSH1 0xA0 SHL SUB SWAP4 DUP5 AND DUP2 MSTORE SWAP2 SWAP1 SWAP3 AND PUSH1 0x20 DUP3 ADD MSTORE PUSH1 0x40 DUP2 ADD SWAP2 SWAP1 SWAP2 MSTORE PUSH1 0x60 ADD SWAP1 JUMP JUMPDEST PUSH1 0x0 PUSH1 0x20 DUP3 DUP5 SUB SLT ISZERO PUSH2 0x2C7A JUMPI PUSH1 0x0 DUP1 REVERT JUMPDEST DUP2 MLOAD PUSH2 0x28AD DUP2 PUSH2 0x2AB8 JUMP JUMPDEST PUSH4 0x4E487B71 PUSH1 0xE0 SHL PUSH1 0x0 MSTORE PUSH1 0x41 PUSH1 0x4 MSTORE PUSH1 0x24 PUSH1 0x0 REVERT JUMPDEST PUSH4 0x4E487B71 PUSH1 0xE0 SHL PUSH1 0x0 MSTORE PUSH1 0x32 PUSH1 0x4 MSTORE PUSH1 0x24 PUSH1 0x0 REVERT JUMPDEST DUP1 DUP3 ADD DUP1 DUP3 GT ISZERO PUSH2 0x801 JUMPI PUSH2 0x801 PUSH2 0x2BF5 JUMP JUMPDEST DUP6 DUP2 MSTORE DUP5 PUSH1 0x20 DUP3 ADD MSTORE PUSH1 0xA0 PUSH1 0x40 DUP3 ADD MSTORE PUSH1 0x0 PUSH2 0x2CE3 PUSH1 0xA0 DUP4 ADD DUP7 PUSH2 0x2B7E JUMP JUMPDEST PUSH1 0x1 PUSH1 0x1 PUSH1 0xA0 SHL SUB SWAP5 SWAP1 SWAP5 AND PUSH1 0x60 DUP4 ADD MSTORE POP PUSH1 0x80 ADD MSTORE SWAP4 SWAP3 POP POP POP JUMP JUMPDEST PUSH1 0x40 MLOAD PUSH1 0xA0 DUP2 ADD PUSH8 0xFFFFFFFFFFFFFFFF DUP2 GT DUP3 DUP3 LT OR ISZERO PUSH2 0x2D23 JUMPI PUSH2 0x2D23 PUSH2 0x2C85 JUMP JUMPDEST PUSH1 0x40 MSTORE SWAP1 JUMP JUMPDEST PUSH1 0x40 MLOAD PUSH1 0x1F DUP3 ADD PUSH1 0x1F NOT AND DUP2 ADD PUSH8 0xFFFFFFFFFFFFFFFF DUP2 GT DUP3 DUP3 LT OR ISZERO PUSH2 0x2D52 JUMPI PUSH2 0x2D52 PUSH2 0x2C85 JUMP JUMPDEST PUSH1 0x40 MSTORE SWAP2 SWAP1 POP JUMP JUMPDEST PUSH1 0x0 PUSH8 0xFFFFFFFFFFFFFFFF DUP3 GT ISZERO PUSH2 0x2D74 JUMPI PUSH2 0x2D74 PUSH2 0x2C85 JUMP JUMPDEST POP PUSH1 0x5 SHL PUSH1 0x20 ADD SWAP1 JUMP JUMPDEST PUSH1 0x0 PUSH1 0x20 DUP1 DUP4 DUP6 SUB SLT ISZERO PUSH2 0x2D91 JUMPI PUSH1 0x0 DUP1 REVERT JUMPDEST DUP3 MLOAD PUSH8 0xFFFFFFFFFFFFFFFF DUP2 GT ISZERO PUSH2 0x2DA8 JUMPI PUSH1 0x0 DUP1 REVERT JUMPDEST DUP4 ADD PUSH1 0x1F DUP2 ADD DUP6 SGT PUSH2 0x2DB9 JUMPI PUSH1 0x0 DUP1 REVERT JUMPDEST DUP1 MLOAD PUSH2 0x2DCC PUSH2 0x2DC7 DUP3 PUSH2 0x2D5A JUMP JUMPDEST PUSH2 0x2D29 JUMP JUMPDEST DUP2 DUP2 MSTORE PUSH1 0x5 SWAP2 SWAP1 SWAP2 SHL DUP3 ADD DUP4 ADD SWAP1 DUP4 DUP2 ADD SWAP1 DUP8 DUP4 GT ISZERO PUSH2 0x2DEB JUMPI PUSH1 0x0 DUP1 REVERT JUMPDEST SWAP3 DUP5 ADD SWAP3 JUMPDEST DUP3 DUP5 LT ISZERO PUSH2 0x2E09 JUMPI DUP4 MLOAD DUP3 MSTORE SWAP3 DUP5 ADD SWAP3 SWAP1 DUP5 ADD SWAP1 PUSH2 0x2DF0 JUMP JUMPDEST SWAP8 SWAP7 POP POP POP POP POP POP POP JUMP JUMPDEST PUSH1 0x0 DUP3 CALLDATALOAD PUSH1 0x9E NOT DUP4 CALLDATASIZE SUB ADD DUP2 SLT PUSH2 0x2E2A JUMPI PUSH1 0x0 DUP1 REVERT JUMPDEST SWAP2 SWAP1 SWAP2 ADD SWAP3 SWAP2 POP POP JUMP JUMPDEST PUSH1 0x0 PUSH1 0xA0 DUP3 CALLDATASIZE SUB SLT ISZERO PUSH2 0x2E46 JUMPI PUSH1 0x0 DUP1 REVERT JUMPDEST PUSH2 0x2E4E PUSH2 0x2D00 JUMP JUMPDEST PUSH2 0x2E57 DUP4 PUSH2 0x2876 JUMP JUMPDEST DUP2 MSTORE PUSH1 0x20 PUSH2 0x2E66 DUP2 DUP6 ADD PUSH2 0x2876 JUMP JUMPDEST DUP2 DUP4 ADD MSTORE PUSH1 0x40 DUP5 ADD CALLDATALOAD PUSH1 0x40 DUP4 ADD MSTORE PUSH1 0x60 DUP5 ADD CALLDATALOAD PUSH1 0x60 DUP4 ADD MSTORE PUSH1 0x80 DUP5 ADD CALLDATALOAD PUSH8 0xFFFFFFFFFFFFFFFF DUP2 GT ISZERO PUSH2 0x2E98 JUMPI PUSH1 0x0 DUP1 REVERT JUMPDEST DUP5 ADD CALLDATASIZE PUSH1 0x1F DUP3 ADD SLT PUSH2 0x2EA9 JUMPI PUSH1 0x0 DUP1 REVERT JUMPDEST DUP1 CALLDATALOAD PUSH2 0x2EB7 PUSH2 0x2DC7 DUP3 PUSH2 0x2D5A JUMP JUMPDEST DUP2 DUP2 MSTORE PUSH1 0x5 SWAP2 SWAP1 SWAP2 SHL DUP3 ADD DUP4 ADD SWAP1 DUP4 DUP2 ADD SWAP1 CALLDATASIZE DUP4 GT ISZERO PUSH2 0x2ED6 JUMPI PUSH1 0x0 DUP1 REVERT JUMPDEST SWAP3 DUP5 ADD SWAP3 JUMPDEST DUP3 DUP5 LT ISZERO PUSH2 0x2EFB JUMPI PUSH2 0x2EEC DUP5 PUSH2 0x2876 JUMP JUMPDEST DUP3 MSTORE SWAP3 DUP5 ADD SWAP3 SWAP1 DUP5 ADD SWAP1 PUSH2 0x2EDB JUMP JUMPDEST PUSH1 0x80 DUP7 ADD MSTORE POP SWAP3 SWAP6 SWAP5 POP POP POP POP POP JUMP JUMPDEST DUP2 DUP2 SUB DUP2 DUP2 GT ISZERO PUSH2 0x801 JUMPI PUSH2 0x801 PUSH2 0x2BF5 JUMP JUMPDEST PUSH1 0x0 PUSH1 0x1 DUP3 ADD PUSH2 0x2F30 JUMPI PUSH2 0x2F30 PUSH2 0x2BF5 JUMP JUMPDEST POP PUSH1 0x1 ADD SWAP1 JUMP JUMPDEST PUSH1 0x20 DUP1 DUP3 MSTORE PUSH1 0xA SWAP1 DUP3 ADD MSTORE PUSH10 0x27B7363C9037BBB732B9 PUSH1 0xB1 SHL PUSH1 0x40 DUP3 ADD MSTORE PUSH1 0x60 ADD SWAP1 JUMP JUMPDEST DUP4 DUP2 MSTORE PUSH1 0x40 PUSH1 0x20 DUP1 DUP4 ADD DUP3 SWAP1 MSTORE SWAP1 DUP3 ADD DUP4 SWAP1 MSTORE PUSH1 0x0 SWAP1 DUP5 SWAP1 PUSH1 0x60 DUP5 ADD DUP4 JUMPDEST DUP7 DUP2 LT ISZERO PUSH2 0x2FA5 JUMPI PUSH1 0x1 PUSH1 0x1 PUSH1 0xA0 SHL SUB PUSH2 0x2F92 DUP6 PUSH2 0x2876 JUMP JUMPDEST AND DUP3 MSTORE SWAP3 DUP3 ADD SWAP3 SWAP1 DUP3 ADD SWAP1 PUSH1 0x1 ADD PUSH2 0x2F79 JUMP JUMPDEST POP SWAP8 SWAP7 POP POP POP POP POP POP POP JUMP JUMPDEST DUP5 DUP2 MSTORE PUSH1 0x80 PUSH1 0x20 DUP3 ADD MSTORE PUSH1 0x0 PUSH2 0x2FCA PUSH1 0x80 DUP4 ADD DUP7 PUSH2 0x2B7E JUMP JUMPDEST PUSH1 0x1 PUSH1 0x1 PUSH1 0xA0 SHL SUB SWAP5 SWAP1 SWAP5 AND PUSH1 0x40 DUP4 ADD MSTORE POP PUSH1 0x60 ADD MSTORE SWAP3 SWAP2 POP POP JUMP JUMPDEST DUP3 DUP2 MSTORE PUSH1 0x40 PUSH1 0x20 DUP3 ADD MSTORE PUSH1 0x0 PUSH2 0x2FFF PUSH1 0x40 DUP4 ADD DUP5 PUSH2 0x2B7E JUMP JUMPDEST SWAP5 SWAP4 POP POP POP POP JUMP INVALID PUSH8 0x82190C91D4A7E8AD 0x2A DUP7 PUSH30 0xEED6EC0A970CAB8FF137AE2BD4ABD92B3810F4D3A2646970667358221220 0xB6 STOP 0xDB PUSH18 0x5E78A9AB0E8C4BF7F6B0E819E182DDC8221E 0x4B 0xF6 DUP6 MOD NOT SELFBALANCE DUP13 DUP10 ADDMOD PUSH9 0x64736F6C6343000814 STOP CALLER "},"methodIdentifiers":{"HYPERSWAP_ROUTER()":"95de8f31","UBTC()":"86d4c423","UETH()":"82d2dcfb","USDC()":"89a30271","USDH()":"5a2207c1","USDHL()":"8c57a5c7","USDT0()":"4d1a7dee","USDe()":"d1609502","USOL()":"4d5243af","USR()":"defc2d79","WHYPE()":"59f613a4","batchSwap((address,address,uint256,uint256,address[])[])":"28766ed9","beHYPE()":"f61c8512","defaultSlippageBps()":"96667621","emergencyWithdraw(address,uint256)":"95ccea67","getQuote(address,address,uint256)":"c515ee23","getQuoteWithPath(uint256,address[])":"4a67dad0","getSupportedTokens()":"d3c7c2c7","getTokenInfo(uint256)":"8c7a63ae","hyperswapRouter()":"34debc88","isStablecoin(address)":"1a650cc7","owner()":"8da5cb5b","pause()":"8456cb59","paused()":"5c975abb","sUSDe()":"e0d05d39","setRouter(address)":"c0d78655","setSlippage(uint256)":"f0fa55a9","swap(address,address,uint256,uint256,bool,address[])":"8d502a49","swapHYPEForToken(address,uint256)":"a35ea8c2","swapStables(address,address,uint256)":"23e72fcd","swapTokenForHYPE(address,uint256,uint256)":"33d2b91a","transferOwnership(address)":"f2fde38b","unpause()":"3f4ba83a","wstHYPE()":"71f39cd5"}}}}}