{"contracts/mocks/MockProtocolDataProvider.sol":{"MockProtocolDataProvider":{"abi":[{"inputs":[{"internalType":"address","name":"","type":"address"}],"name":"getReserveConfigurationData","outputs":[{"internalType":"uint256","name":"decimals","type":"uint256"},{"internalType":"uint256","name":"ltv","type":"uint256"},{"internalType":"uint256","name":"liquidationThreshold","type":"uint256"},{"internalType":"uint256","name":"liquidationBonus","type":"uint256"},{"internalType":"uint256","name":"reserveFactor","type":"uint256"},{"internalType":"bool","name":"usageAsCollateralEnabled","type":"bool"},{"internalType":"bool","name":"borrowingEnabled","type":"bool"},{"internalType":"bool","name":"stableBorrowRateEnabled","type":"bool"},{"internalType":"bool","name":"isActive","type":"bool"},{"internalType":"bool","name":"isFrozen","type":"bool"}],"stateMutability":"pure","type":"function"},{"inputs":[{"internalType":"address","name":"","type":"address"}],"name":"getReserveData","outputs":[{"internalType":"uint256","name":"availableLiquidity","type":"uint256"},{"internalType":"uint256","name":"totalStableDebt","type":"uint256"},{"internalType":"uint256","name":"totalVariableDebt","type":"uint256"},{"internalType":"uint256","name":"liquidityRate","type":"uint256"},{"internalType":"uint256","name":"variableBorrowRate","type":"uint256"},{"internalType":"uint256","name":"stableBorrowRate","type":"uint256"},{"internalType":"uint256","name":"averageStableBorrowRate","type":"uint256"},{"internalType":"uint256","name":"liquidityIndex","type":"uint256"},{"internalType":"uint256","name":"variableBorrowIndex","type":"uint256"},{"internalType":"uint40","name":"lastUpdateTimestamp","type":"uint40"}],"stateMutability":"view","type":"function"}],"evm":{"bytecode":{"linkReferences":{},"object":"608060405234801561001057600080fd5b506101cc806100206000396000f3fe608060405234801561001057600080fd5b50600436106100365760003560e01c806335ea6a751461003b5780633e150141146100e3575b600080fd5b61008d610049366004610166565b64e8d4a51000600064746a5288006a7c13bc4b2c133c560000006aa56fa5b99019a5c800000083806b033b2e3c9fd0803ce800000080429193959799509193959799565b604080519a8b5260208b0199909952978901969096526060880194909452608087019290925260a086015260c085015260e084015261010083015264ffffffffff16610120820152610140015b60405180910390f35b6101126100f1366004610166565b6006611f406121346129046103e86001806000818193959799509193959799565b604080519a8b5260208b01999099529789019690965260608801949094526080870192909252151560a0860152151560c0850152151560e084015215156101008301521515610120820152610140016100da565b60006020828403121561017857600080fd5b81356001600160a01b038116811461018f57600080fd5b939250505056fea2646970667358221220aa5e0eca89dc9a7e3ba62c4e62e590ef0f9f1907b9f7f9558c722e107d5db48964736f6c63430008140033","opcodes":"PUSH1 0x80 PUSH1 0x40 MSTORE CALLVALUE DUP1 ISZERO PUSH2 0x10 JUMPI PUSH1 0x0 DUP1 REVERT JUMPDEST POP PUSH2 0x1CC DUP1 PUSH2 0x20 PUSH1 0x0 CODECOPY PUSH1 0x0 RETURN INVALID PUSH1 0x80 PUSH1 0x40 MSTORE CALLVALUE DUP1 ISZERO PUSH2 0x10 JUMPI PUSH1 0x0 DUP1 REVERT JUMPDEST POP PUSH1 0x4 CALLDATASIZE LT PUSH2 0x36 JUMPI PUSH1 0x0 CALLDATALOAD PUSH1 0xE0 SHR DUP1 PUSH4 0x35EA6A75 EQ PUSH2 0x3B JUMPI DUP1 PUSH4 0x3E150141 EQ PUSH2 0xE3 JUMPI JUMPDEST PUSH1 0x0 DUP1 REVERT JUMPDEST PUSH2 0x8D PUSH2 0x49 CALLDATASIZE PUSH1 0x4 PUSH2 0x166 JUMP JUMPDEST PUSH5 0xE8D4A51000 PUSH1 0x0 PUSH5 0x746A528800 PUSH11 0x7C13BC4B2C133C56000000 PUSH11 0xA56FA5B99019A5C8000000 DUP4 DUP1 PUSH12 0x33B2E3C9FD0803CE8000000 DUP1 TIMESTAMP SWAP2 SWAP4 SWAP6 SWAP8 SWAP10 POP SWAP2 SWAP4 SWAP6 SWAP8 SWAP10 JUMP JUMPDEST PUSH1 0x40 DUP1 MLOAD SWAP11 DUP12 MSTORE PUSH1 0x20 DUP12 ADD SWAP10 SWAP1 SWAP10 MSTORE SWAP8 DUP10 ADD SWAP7 SWAP1 SWAP7 MSTORE PUSH1 0x60 DUP9 ADD SWAP5 SWAP1 SWAP5 MSTORE PUSH1 0x80 DUP8 ADD SWAP3 SWAP1 SWAP3 MSTORE PUSH1 0xA0 DUP7 ADD MSTORE PUSH1 0xC0 DUP6 ADD MSTORE PUSH1 0xE0 DUP5 ADD MSTORE PUSH2 0x100 DUP4 ADD MSTORE PUSH5 0xFFFFFFFFFF AND PUSH2 0x120 DUP3 ADD MSTORE PUSH2 0x140 ADD JUMPDEST PUSH1 0x40 MLOAD DUP1 SWAP2 SUB SWAP1 RETURN JUMPDEST PUSH2 0x112 PUSH2 0xF1 CALLDATASIZE PUSH1 0x4 PUSH2 0x166 JUMP JUMPDEST PUSH1 0x6 PUSH2 0x1F40 PUSH2 0x2134 PUSH2 0x2904 PUSH2 0x3E8 PUSH1 0x1 DUP1 PUSH1 0x0 DUP2 DUP2 SWAP4 SWAP6 SWAP8 SWAP10 POP SWAP2 SWAP4 SWAP6 SWAP8 SWAP10 JUMP JUMPDEST PUSH1 0x40 DUP1 MLOAD SWAP11 DUP12 MSTORE PUSH1 0x20 DUP12 ADD SWAP10 SWAP1 SWAP10 MSTORE SWAP8 DUP10 ADD SWAP7 SWAP1 SWAP7 MSTORE PUSH1 0x60 DUP9 ADD SWAP5 SWAP1 SWAP5 MSTORE PUSH1 0x80 DUP8 ADD SWAP3 SWAP1 SWAP3 MSTORE ISZERO ISZERO PUSH1 0xA0 DUP7 ADD MSTORE ISZERO ISZERO PUSH1 0xC0 DUP6 ADD MSTORE ISZERO ISZERO PUSH1 0xE0 DUP5 ADD MSTORE ISZERO ISZERO PUSH2 0x100 DUP4 ADD MSTORE ISZERO ISZERO PUSH2 0x120 DUP3 ADD MSTORE PUSH2 0x140 ADD PUSH2 0xDA JUMP JUMPDEST PUSH1 0x0 PUSH1 0x20 DUP3 DUP5 SUB SLT ISZERO PUSH2 0x178 JUMPI PUSH1 0x0 DUP1 REVERT JUMPDEST DUP2 CALLDATALOAD PUSH1 0x1 PUSH1 0x1 PUSH1 0xA0 SHL SUB DUP2 AND DUP2 EQ PUSH2 0x18F JUMPI PUSH1 0x0 DUP1 REVERT JUMPDEST SWAP4 SWAP3 POP POP POP JUMP INVALID LOG2 PUSH5 0x6970667358 0x22 SLT KECCAK256 0xAA 0x5E 0xE 0xCA DUP10 0xDC SWAP11 PUSH31 0x3BA62C4E62E590EF0F9F1907B9F7F9558C722E107D5DB48964736F6C634300 ADDMOD EQ STOP CALLER "},"methodIdentifiers":{"getReserveConfigurationData(address)":"3e150141","getReserveData(address)":"35ea6a75"}}}}}