{"contracts/hyperlend.sol":{"HyperlendAutoVault":{"abi":[{"inputs":[],"stateMutability":"nonpayable","type":"constructor"},{"anonymous":false,"inputs":[{"indexed":true,"internalType":"address","name":"user","type":"address"},{"indexed":true,"internalType":"address","name":"asset","type":"address"},{"indexed":false,"internalType":"uint256","name":"amount","type":"uint256"}],"name":"Borrowed","type":"event"},{"anonymous":false,"inputs":[{"indexed":true,"internalType":"address","name":"user","type":"address"},{"indexed":true,"internalType":"address","name":"asset","type":"address"},{"indexed":false,"internalType":"uint256","name":"amount","type":"uint256"}],"name":"Deposited","type":"event"},{"anonymous":false,"inputs":[{"indexed":true,"internalType":"address","name":"user","type":"address"},{"indexed":true,"internalType":"address","name":"asset","type":"address"},{"indexed":false,"internalType":"uint256","name":"amount","type":"uint256"}],"name":"Repaid","type":"event"},{"anonymous":false,"inputs":[{"indexed":true,"internalType":"address","name":"user","type":"address"},{"indexed":true,"internalType":"address","name":"asset","type":"address"},{"indexed":false,"internalType":"uint256","name":"amount","type":"uint256"}],"name":"Withdrawn","type":"event"},{"inputs":[],"name":"HYPERLEND_ORACLE","outputs":[{"internalType":"address","name":"","type":"address"}],"stateMutability":"view","type":"function"},{"inputs":[],"name":"HYPERLEND_POOL","outputs":[{"internalType":"address","name":"","type":"address"}],"stateMutability":"view","type":"function"},{"inputs":[],"name":"PROTOCOL_DATA_PROVIDER","outputs":[{"internalType":"address","name":"","type":"address"}],"stateMutability":"view","type":"function"},{"inputs":[],"name":"UBTC","outputs":[{"internalType":"address","name":"","type":"address"}],"stateMutability":"view","type":"function"},{"inputs":[],"name":"UETH","outputs":[{"internalType":"address","name":"","type":"address"}],"stateMutability":"view","type":"function"},{"inputs":[],"name":"USDHL","outputs":[{"internalType":"address","name":"","type":"address"}],"stateMutability":"view","type":"function"},{"inputs":[],"name":"USDT0","outputs":[{"internalType":"address","name":"","type":"address"}],"stateMutability":"view","type":"function"},{"inputs":[],"name":"USDe","outputs":[{"internalType":"address","name":"","type":"address"}],"stateMutability":"view","type":"function"},{"inputs":[],"name":"WHYPE","outputs":[{"internalType":"address","name":"","type":"address"}],"stateMutability":"view","type":"function"},{"inputs":[{"internalType":"address","name":"asset","type":"address"},{"internalType":"uint256","name":"amount","type":"uint256"}],"name":"borrow","outputs":[],"stateMutability":"nonpayable","type":"function"},{"inputs":[{"internalType":"address","name":"asset","type":"address"},{"internalType":"uint256","name":"amount","type":"uint256"}],"name":"deposit","outputs":[],"stateMutability":"nonpayable","type":"function"},{"inputs":[],"name":"displayMarkets","outputs":[{"internalType":"address[]","name":"assets","type":"address[]"},{"internalType":"uint256[]","name":"apys","type":"uint256[]"},{"internalType":"uint256[]","name":"ltvs","type":"uint256[]"}],"stateMutability":"view","type":"function"},{"inputs":[],"name":"findBestMarket","outputs":[{"internalType":"address","name":"bestAsset","type":"address"},{"internalType":"uint256","name":"highestAPY","type":"uint256"}],"stateMutability":"view","type":"function"},{"inputs":[{"internalType":"address","name":"asset","type":"address"}],"name":"getMarketData","outputs":[{"components":[{"internalType":"address","name":"asset","type":"address"},{"internalType":"uint256","name":"supplyAPY","type":"uint256"},{"internalType":"uint256","name":"ltv","type":"uint256"},{"internalType":"bool","name":"isActive","type":"bool"}],"internalType":"struct HyperlendAutoVault.MarketData","name":"","type":"tuple"}],"stateMutability":"view","type":"function"},{"inputs":[{"internalType":"address","name":"asset","type":"address"}],"name":"getSupplyAPY","outputs":[{"internalType":"uint256","name":"","type":"uint256"}],"stateMutability":"view","type":"function"},{"inputs":[],"name":"getSupportedAssets","outputs":[{"internalType":"address[]","name":"","type":"address[]"}],"stateMutability":"pure","type":"function"},{"inputs":[],"name":"kHYPE","outputs":[{"internalType":"address","name":"","type":"address"}],"stateMutability":"view","type":"function"},{"inputs":[],"name":"owner","outputs":[{"internalType":"address","name":"","type":"address"}],"stateMutability":"view","type":"function"},{"inputs":[{"internalType":"address","name":"asset","type":"address"},{"internalType":"uint256","name":"amount","type":"uint256"}],"name":"repay","outputs":[],"stateMutability":"nonpayable","type":"function"},{"inputs":[],"name":"sUSDe","outputs":[{"internalType":"address","name":"","type":"address"}],"stateMutability":"view","type":"function"},{"inputs":[],"name":"totalShares","outputs":[{"internalType":"uint256","name":"","type":"uint256"}],"stateMutability":"view","type":"function"},{"inputs":[{"internalType":"address","name":"","type":"address"}],"name":"userActiveMarket","outputs":[{"internalType":"address","name":"","type":"address"}],"stateMutability":"view","type":"function"},{"inputs":[{"internalType":"address","name":"","type":"address"}],"name":"userShares","outputs":[{"internalType":"uint256","name":"","type":"uint256"}],"stateMutability":"view","type":"function"},{"inputs":[{"internalType":"uint256","name":"amount","type":"uint256"}],"name":"withdraw","outputs":[],"stateMutability":"nonpayable","type":"function"},{"inputs":[],"name":"wstHYPE","outputs":[{"internalType":"address","name":"","type":"address"}],"stateMutability":"view","type":"function"}],"evm":{"bytecode":{"linkReferences":{},"object":"608060405234801561001057600080fd5b50600080546001600160a01b031916331790556115ad806100326000396000f3fe608060405234801561001057600080fd5b50600436106101735760003560e01c806362717301116100de578063a30c302d11610097578063de69b3aa11610071578063de69b3aa146103d6578063e0d05d39146103f6578063e3d7dd9914610411578063e5406dbf1461043857600080fd5b8063a30c302d14610350578063ae0fd73e146103a1578063d1609502146103bb57600080fd5b806362717301146102ba57806371f39cd5146102d157806382d2dcfb146102ec57806386d4c423146103075780638c57a5c7146103225780638da5cb5b1461033d57600080fd5b80633fc3b320116101305780633fc3b3201461022a57806347e7ef2414610245578063483378cc146102585780634b8a3529146102715780634d1a7dee1461028457806359f613a41461029f57600080fd5b80631f985adf1461017857806322867d78146101be57806322d5386c146101d35780632e1a7d4d146101ed5780633842ea42146102005780633a98ef3914610221575b600080fd5b6101a1610186366004611249565b6002602052600090815260409020546001600160a01b031681565b6040516001600160a01b0390911681526020015b60405180910390f35b6101d16101cc36600461126b565b61044d565b005b73c9fb4fbe842d57eac1df3e641a281827493a630e6101a1565b6101d16101fb366004611295565b610646565b61021361020e366004611249565b6107c9565b6040519081526020016101b5565b61021360035481565b6101a173fd739d4e423301ce9385c1fb8850539d657c296d81565b6101d161025336600461126b565b610896565b72a89d7a5a02160f20150ebea7a2b5e4879a1a8b6101a1565b6101d161027f36600461126b565b610b0b565b6101a173b8ce59fc3717ada4c02eadf9682a9e934f625ebb81565b6101a173555555555555555555555555555555555555555581565b6102c2610c20565b6040516101b593929190611322565b6101a17394e8396e0869c9f2200760af0621afd240e1cf3881565b6101a173be6727b535545c67d5caa73dea54865b92cf790781565b6101a1739fdbda0a5e284c32744d2f17ee5c74b28499346381565b6101a173b50a96253abdf803d85efcdce07ad8becbc52bd581565b6000546101a1906001600160a01b031681565b61036361035e366004611249565b610dcb565b6040516101b5919081516001600160a01b03168152602080830151908201526040808301519082015260609182015115159181019190915260800190565b735481bf8d3946e6a3168640c1d7523eb59f055a296101a1565b6101a1735d3a1ff2b6bab83b63cd9ad0787074081a52ef3481565b6102136103e4366004611249565b60016020526000908152604090205481565b6101a173211cc4dd073734da055fbf44a2b4667d5e5fe5d281565b610419610ee1565b604080516001600160a01b0390931683526020830191909152016101b5565b610440610f84565b6040516101b59190611365565b6040516323b872dd60e01b8152336004820152306024820152604481018290526001600160a01b038316906323b872dd906064016020604051808303816000875af11580156104a0573d6000803e3d6000fd5b505050506040513d601f19601f820116820180604052508101906104c49190611388565b506001600160a01b03821663095ea7b372a89d7a5a02160f20150ebea7a2b5e4879a1a8b6040516001600160e01b031960e084901b1681526001600160a01b039091166004820152602481018490526044016020604051808303816000875af1158015610535573d6000803e3d6000fd5b505050506040513d601f19601f820116820180604052508101906105599190611388565b50600072a89d7a5a02160f20150ebea7a2b5e4879a1a8b60405163573ade8160e01b81526001600160a01b0385811660048301526024820185905260026044830152306064830152919091169063573ade81906084016020604051808303816000875af11580156105ce573d6000803e3d6000fd5b505050506040513d601f19601f820116820180604052508101906105f291906113a3565b9050826001600160a01b0316336001600160a01b03167f0a3fbbea70e93f2daafa3102f5c9a1b8315e6d7a1e43e4bc020bc1162327470a8360405161063991815260200190565b60405180910390a3505050565b336000908152600260209081526040808320546001909252909120546001600160a01b03909116908211156106b95760405162461bcd60e51b8152602060048201526014602482015273496e73756666696369656e742062616c616e636560601b60448201526064015b60405180910390fd5b600072a89d7a5a02160f20150ebea7a2b5e4879a1a8b604051631a4ca37b60e21b81526001600160a01b0384811660048301526024820186905233604483015291909116906369328dec906064016020604051808303816000875af1158015610726573d6000803e3d6000fd5b505050506040513d601f19601f8201168201806040525081019061074a91906113a3565b3360009081526001602052604081208054929350859290919061076e9084906113d2565b92505081905550826003600082825461078791906113d2565b90915550506040518181526001600160a01b0383169033907fd1c19fbcd4551a5edfb66d43d2e337c04837afda3482b42bdf569a8fccdae5fb90602001610639565b6000735481bf8d3946e6a3168640c1d7523eb59f055a296040516335ea6a7560e01b81526001600160a01b03848116600483015291909116906335ea6a759060240161018060405180830381865afa925050508015610845575060408051601f3d908101601f19168201909252610842918101906113eb565b60015b61085157506000919050565b8660000361086d575060009d9c50505050505050505050505050565b6b033b2e3c9fd0803ce800000060648802049e9d5050505050505050505050505050565b919050565b600081116108d45760405162461bcd60e51b815260206004820152600b60248201526a16995c9bc8185b5bdd5b9d60aa1b60448201526064016106b0565b6040516323b872dd60e01b8152336004820152306024820152604481018290526001600160a01b038316906323b872dd906064016020604051808303816000875af1158015610927573d6000803e3d6000fd5b505050506040513d601f19601f8201168201806040525081019061094b9190611388565b506001600160a01b03821663095ea7b372a89d7a5a02160f20150ebea7a2b5e4879a1a8b6040516001600160e01b031960e084901b1681526001600160a01b039091166004820152602481018490526044016020604051808303816000875af11580156109bc573d6000803e3d6000fd5b505050506040513d601f19601f820116820180604052508101906109e09190611388565b5072a89d7a5a02160f20150ebea7a2b5e4879a1a8b60405163617ba03760e01b81526001600160a01b0384811660048301526024820184905230604483015260006064830152919091169063617ba03790608401600060405180830381600087803b158015610a4e57600080fd5b505af1158015610a62573d6000803e3d6000fd5b50503360009081526001602052604081208054859450909250610a86908490611488565b925050819055508060036000828254610a9f9190611488565b90915550503360008181526002602090815260409182902080546001600160a01b0319166001600160a01b03871690811790915591518481529192917f8752a472e571a816aea92eec8dae9baf628e840f4929fbcc2d155e6233ff68a791015b60405180910390a35050565b33600090815260016020526040902054610b575760405162461bcd60e51b815260206004820152600d60248201526c139bc818dbdb1b185d195c985b609a1b60448201526064016106b0565b72a89d7a5a02160f20150ebea7a2b5e4879a1a8b60405163a415bcad60e01b81526001600160a01b038481166004830152602482018490526002604483015260006064830152336084830152919091169063a415bcad9060a401600060405180830381600087803b158015610bcb57600080fd5b505af1158015610bdf573d6000803e3d6000fd5b50506040518381526001600160a01b03851692503391507f3fc499aeb0bb1cb58b6de8b02b3f86f4e7394e9690bef0110e32ced8a563104590602001610aff565b60608060606000610c2f610f84565b9050805167ffffffffffffffff811115610c4b57610c4b61149b565b604051908082528060200260200182016040528015610c74578160200160208202803683370190505b509350805167ffffffffffffffff811115610c9157610c9161149b565b604051908082528060200260200182016040528015610cba578160200160208202803683370190505b509250805167ffffffffffffffff811115610cd757610cd761149b565b604051908082528060200260200182016040528015610d00578160200160208202803683370190505b50915060005b8151811015610dc4576000610d33838381518110610d2657610d266114b1565b6020026020010151610dcb565b90508060000151868381518110610d4c57610d4c6114b1565b60200260200101906001600160a01b031690816001600160a01b0316815250508060200151858381518110610d8357610d836114b1565b6020026020010181815250508060400151848381518110610da657610da66114b1565b60209081029190910101525080610dbc816114c7565b915050610d06565b5050909192565b604080516080810182526000808252602082018190529181018290526060810191909152735481bf8d3946e6a3168640c1d7523eb59f055a29604051633e15014160e01b81526001600160a01b0384811660048301529190911690633e1501419060240161014060405180830381865afa925050508015610e69575060408051601f3d908101601f19168201909252610e66918101906114e0565b60015b610e9c5750604080516080810182526001600160a01b039092168252600060208301819052908201819052606082015290565b60405180608001604052808d6001600160a01b03168152602001610ebf8e6107c9565b81526020018a81526020018315158152509a5050505050505050505050919050565b6000806000610eee610f84565b90506000915080600081518110610f0757610f076114b1565b6020026020010151925060005b8151811015610f7e576000610f41838381518110610f3457610f346114b1565b60200260200101516107c9565b905083811115610f6b57809350828281518110610f6057610f606114b1565b602002602001015194505b5080610f76816114c7565b915050610f14565b50509091565b604080516009808252610140820190925260609160009190602082016101208036833701905050905073b8ce59fc3717ada4c02eadf9682a9e934f625ebb81600081518110610fd557610fd56114b1565b60200260200101906001600160a01b031690816001600160a01b0316815250507355555555555555555555555555555555555555558160018151811061101d5761101d6114b1565b60200260200101906001600160a01b031690816001600160a01b0316815250507394e8396e0869c9f2200760af0621afd240e1cf3881600281518110611065576110656114b1565b60200260200101906001600160a01b031690816001600160a01b031681525050735d3a1ff2b6bab83b63cd9ad0787074081a52ef34816003815181106110ad576110ad6114b1565b60200260200101906001600160a01b031690816001600160a01b03168152505073211cc4dd073734da055fbf44a2b4667d5e5fe5d2816004815181106110f5576110f56114b1565b60200260200101906001600160a01b031690816001600160a01b03168152505073b50a96253abdf803d85efcdce07ad8becbc52bd58160058151811061113d5761113d6114b1565b60200260200101906001600160a01b031690816001600160a01b03168152505073fd739d4e423301ce9385c1fb8850539d657c296d81600681518110611185576111856114b1565b60200260200101906001600160a01b031690816001600160a01b031681525050739fdbda0a5e284c32744d2f17ee5c74b284993463816007815181106111cd576111cd6114b1565b60200260200101906001600160a01b031690816001600160a01b03168152505073be6727b535545c67d5caa73dea54865b92cf790781600881518110611215576112156114b1565b6001600160a01b0390921660209283029190910190910152919050565b80356001600160a01b038116811461089157600080fd5b60006020828403121561125b57600080fd5b61126482611232565b9392505050565b6000806040838503121561127e57600080fd5b61128783611232565b946020939093013593505050565b6000602082840312156112a757600080fd5b5035919050565b600081518084526020808501945080840160005b838110156112e75781516001600160a01b0316875295820195908201906001016112c2565b509495945050505050565b600081518084526020808501945080840160005b838110156112e757815187529582019590820190600101611306565b60608152600061133560608301866112ae565b828103602084015261134781866112f2565b9050828103604084015261135b81856112f2565b9695505050505050565b60208152600061126460208301846112ae565b8051801515811461089157600080fd5b60006020828403121561139a57600080fd5b61126482611378565b6000602082840312156113b557600080fd5b5051919050565b634e487b7160e01b600052601160045260246000fd5b818103818111156113e5576113e56113bc565b92915050565b6000806000806000806000806000806000806101808d8f03121561140e57600080fd5b8c519b5060208d01519a5060408d0151995060608d0151985060808d0151975060a08d0151965060c08d0151955060e08d015194506101008d015193506101208d015192506101408d015191506101608d015164ffffffffff8116811461147457600080fd5b809150509295989b509295989b509295989b565b808201808211156113e5576113e56113bc565b634e487b7160e01b600052604160045260246000fd5b634e487b7160e01b600052603260045260246000fd5b6000600182016114d9576114d96113bc565b5060010190565b6000806000806000806000806000806101408b8d03121561150057600080fd5b8a51995060208b0151985060408b0151975060608b0151965060808b0151955061152c60a08c01611378565b945061153a60c08c01611378565b935061154860e08c01611378565b92506115576101008c01611378565b91506115666101208c01611378565b90509295989b9194979a509295985056fea2646970667358221220d03784421b59fd7c9a9beee4a866d779ab234c59e2ca8a8b773c9900c802c52f64736f6c63430008140033","opcodes":"PUSH1 0x80 PUSH1 0x40 MSTORE CALLVALUE DUP1 ISZERO PUSH2 0x10 JUMPI PUSH1 0x0 DUP1 REVERT JUMPDEST POP PUSH1 0x0 DUP1 SLOAD PUSH1 0x1 PUSH1 0x1 PUSH1 0xA0 SHL SUB NOT AND CALLER OR SWAP1 SSTORE PUSH2 0x15AD DUP1 PUSH2 0x32 PUSH1 0x0 CODECOPY PUSH1 0x0 RETURN INVALID PUSH1 0x80 PUSH1 0x40 MSTORE CALLVALUE DUP1 ISZERO PUSH2 0x10 JUMPI PUSH1 0x0 DUP1 REVERT JUMPDEST POP PUSH1 0x4 CALLDATASIZE LT PUSH2 0x173 JUMPI PUSH1 0x0 CALLDATALOAD PUSH1 0xE0 SHR DUP1 PUSH4 0x62717301 GT PUSH2 0xDE JUMPI DUP1 PUSH4 0xA30C302D GT PUSH2 0x97 JUMPI DUP1 PUSH4 0xDE69B3AA GT PUSH2 0x71 JUMPI DUP1 PUSH4 0xDE69B3AA EQ PUSH2 0x3D6 JUMPI DUP1 PUSH4 0xE0D05D39 EQ PUSH2 0x3F6 JUMPI DUP1 PUSH4 0xE3D7DD99 EQ PUSH2 0x411 JUMPI DUP1 PUSH4 0xE5406DBF EQ PUSH2 0x438 JUMPI PUSH1 0x0 DUP1 REVERT JUMPDEST DUP1 PUSH4 0xA30C302D EQ PUSH2 0x350 JUMPI DUP1 PUSH4 0xAE0FD73E EQ PUSH2 0x3A1 JUMPI DUP1 PUSH4 0xD1609502 EQ PUSH2 0x3BB JUMPI PUSH1 0x0 DUP1 REVERT JUMPDEST DUP1 PUSH4 0x62717301 EQ PUSH2 0x2BA JUMPI DUP1 PUSH4 0x71F39CD5 EQ PUSH2 0x2D1 JUMPI DUP1 PUSH4 0x82D2DCFB EQ PUSH2 0x2EC JUMPI DUP1 PUSH4 0x86D4C423 EQ PUSH2 0x307 JUMPI DUP1 PUSH4 0x8C57A5C7 EQ PUSH2 0x322 JUMPI DUP1 PUSH4 0x8DA5CB5B EQ PUSH2 0x33D JUMPI PUSH1 0x0 DUP1 REVERT JUMPDEST DUP1 PUSH4 0x3FC3B320 GT PUSH2 0x130 JUMPI DUP1 PUSH4 0x3FC3B320 EQ PUSH2 0x22A JUMPI DUP1 PUSH4 0x47E7EF24 EQ PUSH2 0x245 JUMPI DUP1 PUSH4 0x483378CC EQ PUSH2 0x258 JUMPI DUP1 PUSH4 0x4B8A3529 EQ PUSH2 0x271 JUMPI DUP1 PUSH4 0x4D1A7DEE EQ PUSH2 0x284 JUMPI DUP1 PUSH4 0x59F613A4 EQ PUSH2 0x29F JUMPI PUSH1 0x0 DUP1 REVERT JUMPDEST DUP1 PUSH4 0x1F985ADF EQ PUSH2 0x178 JUMPI DUP1 PUSH4 0x22867D78 EQ PUSH2 0x1BE JUMPI DUP1 PUSH4 0x22D5386C EQ PUSH2 0x1D3 JUMPI DUP1 PUSH4 0x2E1A7D4D EQ PUSH2 0x1ED JUMPI DUP1 PUSH4 0x3842EA42 EQ PUSH2 0x200 JUMPI DUP1 PUSH4 0x3A98EF39 EQ PUSH2 0x221 JUMPI JUMPDEST PUSH1 0x0 DUP1 REVERT JUMPDEST PUSH2 0x1A1 PUSH2 0x186 CALLDATASIZE PUSH1 0x4 PUSH2 0x1249 JUMP JUMPDEST PUSH1 0x2 PUSH1 0x20 MSTORE PUSH1 0x0 SWAP1 DUP2 MSTORE PUSH1 0x40 SWAP1 KECCAK256 SLOAD PUSH1 0x1 PUSH1 0x1 PUSH1 0xA0 SHL SUB AND DUP2 JUMP JUMPDEST PUSH1 0x40 MLOAD PUSH1 0x1 PUSH1 0x1 PUSH1 0xA0 SHL SUB SWAP1 SWAP2 AND DUP2 MSTORE PUSH1 0x20 ADD JUMPDEST PUSH1 0x40 MLOAD DUP1 SWAP2 SUB SWAP1 RETURN JUMPDEST PUSH2 0x1D1 PUSH2 0x1CC CALLDATASIZE PUSH1 0x4 PUSH2 0x126B JUMP JUMPDEST PUSH2 0x44D JUMP JUMPDEST STOP JUMPDEST PUSH20 0xC9FB4FBE842D57EAC1DF3E641A281827493A630E PUSH2 0x1A1 JUMP JUMPDEST PUSH2 0x1D1 PUSH2 0x1FB CALLDATASIZE PUSH1 0x4 PUSH2 0x1295 JUMP JUMPDEST PUSH2 0x646 JUMP JUMPDEST PUSH2 0x213 PUSH2 0x20E CALLDATASIZE PUSH1 0x4 PUSH2 0x1249 JUMP JUMPDEST PUSH2 0x7C9 JUMP JUMPDEST PUSH1 0x40 MLOAD SWAP1 DUP2 MSTORE PUSH1 0x20 ADD PUSH2 0x1B5 JUMP JUMPDEST PUSH2 0x213 PUSH1 0x3 SLOAD DUP2 JUMP JUMPDEST PUSH2 0x1A1 PUSH20 0xFD739D4E423301CE9385C1FB8850539D657C296D DUP2 JUMP JUMPDEST PUSH2 0x1D1 PUSH2 0x253 CALLDATASIZE PUSH1 0x4 PUSH2 0x126B JUMP JUMPDEST PUSH2 0x896 JUMP JUMPDEST PUSH19 0xA89D7A5A02160F20150EBEA7A2B5E4879A1A8B PUSH2 0x1A1 JUMP JUMPDEST PUSH2 0x1D1 PUSH2 0x27F CALLDATASIZE PUSH1 0x4 PUSH2 0x126B JUMP JUMPDEST PUSH2 0xB0B JUMP JUMPDEST PUSH2 0x1A1 PUSH20 0xB8CE59FC3717ADA4C02EADF9682A9E934F625EBB DUP2 JUMP JUMPDEST PUSH2 0x1A1 PUSH20 0x5555555555555555555555555555555555555555 DUP2 JUMP JUMPDEST PUSH2 0x2C2 PUSH2 0xC20 JUMP JUMPDEST PUSH1 0x40 MLOAD PUSH2 0x1B5 SWAP4 SWAP3 SWAP2 SWAP1 PUSH2 0x1322 JUMP JUMPDEST PUSH2 0x1A1 PUSH20 0x94E8396E0869C9F2200760AF0621AFD240E1CF38 DUP2 JUMP JUMPDEST PUSH2 0x1A1 PUSH20 0xBE6727B535545C67D5CAA73DEA54865B92CF7907 DUP2 JUMP JUMPDEST PUSH2 0x1A1 PUSH20 0x9FDBDA0A5E284C32744D2F17EE5C74B284993463 DUP2 JUMP JUMPDEST PUSH2 0x1A1 PUSH20 0xB50A96253ABDF803D85EFCDCE07AD8BECBC52BD5 DUP2 JUMP JUMPDEST PUSH1 0x0 SLOAD PUSH2 0x1A1 SWAP1 PUSH1 0x1 PUSH1 0x1 PUSH1 0xA0 SHL SUB AND DUP2 JUMP JUMPDEST PUSH2 0x363 PUSH2 0x35E CALLDATASIZE PUSH1 0x4 PUSH2 0x1249 JUMP JUMPDEST PUSH2 0xDCB JUMP JUMPDEST PUSH1 0x40 MLOAD PUSH2 0x1B5 SWAP2 SWAP1 DUP2 MLOAD PUSH1 0x1 PUSH1 0x1 PUSH1 0xA0 SHL SUB AND DUP2 MSTORE PUSH1 0x20 DUP1 DUP4 ADD MLOAD SWAP1 DUP3 ADD MSTORE PUSH1 0x40 DUP1 DUP4 ADD MLOAD SWAP1 DUP3 ADD MSTORE PUSH1 0x60 SWAP2 DUP3 ADD MLOAD ISZERO ISZERO SWAP2 DUP2 ADD SWAP2 SWAP1 SWAP2 MSTORE PUSH1 0x80 ADD SWAP1 JUMP JUMPDEST PUSH20 0x5481BF8D3946E6A3168640C1D7523EB59F055A29 PUSH2 0x1A1 JUMP JUMPDEST PUSH2 0x1A1 PUSH20 0x5D3A1FF2B6BAB83B63CD9AD0787074081A52EF34 DUP2 JUMP JUMPDEST PUSH2 0x213 PUSH2 0x3E4 CALLDATASIZE PUSH1 0x4 PUSH2 0x1249 JUMP JUMPDEST PUSH1 0x1 PUSH1 0x20 MSTORE PUSH1 0x0 SWAP1 DUP2 MSTORE PUSH1 0x40 SWAP1 KECCAK256 SLOAD DUP2 JUMP JUMPDEST PUSH2 0x1A1 PUSH20 0x211CC4DD073734DA055FBF44A2B4667D5E5FE5D2 DUP2 JUMP JUMPDEST PUSH2 0x419 PUSH2 0xEE1 JUMP JUMPDEST PUSH1 0x40 DUP1 MLOAD PUSH1 0x1 PUSH1 0x1 PUSH1 0xA0 SHL SUB SWAP1 SWAP4 AND DUP4 MSTORE PUSH1 0x20 DUP4 ADD SWAP2 SWAP1 SWAP2 MSTORE ADD PUSH2 0x1B5 JUMP JUMPDEST PUSH2 0x440 PUSH2 0xF84 JUMP JUMPDEST PUSH1 0x40 MLOAD PUSH2 0x1B5 SWAP2 SWAP1 PUSH2 0x1365 JUMP JUMPDEST PUSH1 0x40 MLOAD PUSH4 0x23B872DD PUSH1 0xE0 SHL DUP2 MSTORE CALLER PUSH1 0x4 DUP3 ADD MSTORE ADDRESS PUSH1 0x24 DUP3 ADD MSTORE PUSH1 0x44 DUP2 ADD DUP3 SWAP1 MSTORE PUSH1 0x1 PUSH1 0x1 PUSH1 0xA0 SHL SUB DUP4 AND SWAP1 PUSH4 0x23B872DD SWAP1 PUSH1 0x64 ADD PUSH1 0x20 PUSH1 0x40 MLOAD DUP1 DUP4 SUB DUP2 PUSH1 0x0 DUP8 GAS CALL ISZERO DUP1 ISZERO PUSH2 0x4A0 JUMPI RETURNDATASIZE PUSH1 0x0 DUP1 RETURNDATACOPY RETURNDATASIZE PUSH1 0x0 REVERT JUMPDEST POP POP POP POP PUSH1 0x40 MLOAD RETURNDATASIZE PUSH1 0x1F NOT PUSH1 0x1F DUP3 ADD AND DUP3 ADD DUP1 PUSH1 0x40 MSTORE POP DUP2 ADD SWAP1 PUSH2 0x4C4 SWAP2 SWAP1 PUSH2 0x1388 JUMP JUMPDEST POP PUSH1 0x1 PUSH1 0x1 PUSH1 0xA0 SHL SUB DUP3 AND PUSH4 0x95EA7B3 PUSH19 0xA89D7A5A02160F20150EBEA7A2B5E4879A1A8B PUSH1 0x40 MLOAD PUSH1 0x1 PUSH1 0x1 PUSH1 0xE0 SHL SUB NOT PUSH1 0xE0 DUP5 SWAP1 SHL AND DUP2 MSTORE PUSH1 0x1 PUSH1 0x1 PUSH1 0xA0 SHL SUB SWAP1 SWAP2 AND PUSH1 0x4 DUP3 ADD MSTORE PUSH1 0x24 DUP2 ADD DUP5 SWAP1 MSTORE PUSH1 0x44 ADD PUSH1 0x20 PUSH1 0x40 MLOAD DUP1 DUP4 SUB DUP2 PUSH1 0x0 DUP8 GAS CALL ISZERO DUP1 ISZERO PUSH2 0x535 JUMPI RETURNDATASIZE PUSH1 0x0 DUP1 RETURNDATACOPY RETURNDATASIZE PUSH1 0x0 REVERT JUMPDEST POP POP POP POP PUSH1 0x40 MLOAD RETURNDATASIZE PUSH1 0x1F NOT PUSH1 0x1F DUP3 ADD AND DUP3 ADD DUP1 PUSH1 0x40 MSTORE POP DUP2 ADD SWAP1 PUSH2 0x559 SWAP2 SWAP1 PUSH2 0x1388 JUMP JUMPDEST POP PUSH1 0x0 PUSH19 0xA89D7A5A02160F20150EBEA7A2B5E4879A1A8B PUSH1 0x40 MLOAD PUSH4 0x573ADE81 PUSH1 0xE0 SHL DUP2 MSTORE PUSH1 0x1 PUSH1 0x1 PUSH1 0xA0 SHL SUB DUP6 DUP2 AND PUSH1 0x4 DUP4 ADD MSTORE PUSH1 0x24 DUP3 ADD DUP6 SWAP1 MSTORE PUSH1 0x2 PUSH1 0x44 DUP4 ADD MSTORE ADDRESS PUSH1 0x64 DUP4 ADD MSTORE SWAP2 SWAP1 SWAP2 AND SWAP1 PUSH4 0x573ADE81 SWAP1 PUSH1 0x84 ADD PUSH1 0x20 PUSH1 0x40 MLOAD DUP1 DUP4 SUB DUP2 PUSH1 0x0 DUP8 GAS CALL ISZERO DUP1 ISZERO PUSH2 0x5CE JUMPI RETURNDATASIZE PUSH1 0x0 DUP1 RETURNDATACOPY RETURNDATASIZE PUSH1 0x0 REVERT JUMPDEST POP POP POP POP PUSH1 0x40 MLOAD RETURNDATASIZE PUSH1 0x1F NOT PUSH1 0x1F DUP3 ADD AND DUP3 ADD DUP1 PUSH1 0x40 MSTORE POP DUP2 ADD SWAP1 PUSH2 0x5F2 SWAP2 SWAP1 PUSH2 0x13A3 JUMP JUMPDEST SWAP1 POP DUP3 PUSH1 0x1 PUSH1 0x1 PUSH1 0xA0 SHL SUB AND CALLER PUSH1 0x1 PUSH1 0x1 PUSH1 0xA0 SHL SUB AND PUSH32 0xA3FBBEA70E93F2DAAFA3102F5C9A1B8315E6D7A1E43E4BC020BC1162327470A DUP4 PUSH1 0x40 MLOAD PUSH2 0x639 SWAP2 DUP2 MSTORE PUSH1 0x20 ADD SWAP1 JUMP JUMPDEST PUSH1 0x40 MLOAD DUP1 SWAP2 SUB SWAP1 LOG3 POP POP POP JUMP JUMPDEST CALLER PUSH1 0x0 SWAP1 DUP2 MSTORE PUSH1 0x2 PUSH1 0x20 SWAP1 DUP2 MSTORE PUSH1 0x40 DUP1 DUP4 KECCAK256 SLOAD PUSH1 0x1 SWAP1 SWAP3 MSTORE SWAP1 SWAP2 KECCAK256 SLOAD PUSH1 0x1 PUSH1 0x1 PUSH1 0xA0 SHL SUB SWAP1 SWAP2 AND SWAP1 DUP3 GT ISZERO PUSH2 0x6B9 JUMPI PUSH1 0x40 MLOAD PUSH3 0x461BCD PUSH1 0xE5 SHL DUP2 MSTORE PUSH1 0x20 PUSH1 0x4 DUP3 ADD MSTORE PUSH1 0x14 PUSH1 0x24 DUP3 ADD MSTORE PUSH20 0x496E73756666696369656E742062616C616E6365 PUSH1 0x60 SHL PUSH1 0x44 DUP3 ADD MSTORE PUSH1 0x64 ADD JUMPDEST PUSH1 0x40 MLOAD DUP1 SWAP2 SUB SWAP1 REVERT JUMPDEST PUSH1 0x0 PUSH19 0xA89D7A5A02160F20150EBEA7A2B5E4879A1A8B PUSH1 0x40 MLOAD PUSH4 0x1A4CA37B PUSH1 0xE2 SHL DUP2 MSTORE PUSH1 0x1 PUSH1 0x1 PUSH1 0xA0 SHL SUB DUP5 DUP2 AND PUSH1 0x4 DUP4 ADD MSTORE PUSH1 0x24 DUP3 ADD DUP7 SWAP1 MSTORE CALLER PUSH1 0x44 DUP4 ADD MSTORE SWAP2 SWAP1 SWAP2 AND SWAP1 PUSH4 0x69328DEC SWAP1 PUSH1 0x64 ADD PUSH1 0x20 PUSH1 0x40 MLOAD DUP1 DUP4 SUB DUP2 PUSH1 0x0 DUP8 GAS CALL ISZERO DUP1 ISZERO PUSH2 0x726 JUMPI RETURNDATASIZE PUSH1 0x0 DUP1 RETURNDATACOPY RETURNDATASIZE PUSH1 0x0 REVERT JUMPDEST POP POP POP POP PUSH1 0x40 MLOAD RETURNDATASIZE PUSH1 0x1F NOT PUSH1 0x1F DUP3 ADD AND DUP3 ADD DUP1 PUSH1 0x40 MSTORE POP DUP2 ADD SWAP1 PUSH2 0x74A SWAP2 SWAP1 PUSH2 0x13A3 JUMP JUMPDEST CALLER PUSH1 0x0 SWAP1 DUP2 MSTORE PUSH1 0x1 PUSH1 0x20 MSTORE PUSH1 0x40 DUP2 KECCAK256 DUP1 SLOAD SWAP3 SWAP4 POP DUP6 SWAP3 SWAP1 SWAP2 SWAP1 PUSH2 0x76E SWAP1 DUP5 SWAP1 PUSH2 0x13D2 JUMP JUMPDEST SWAP3 POP POP DUP2 SWAP1 SSTORE POP DUP3 PUSH1 0x3 PUSH1 0x0 DUP3 DUP3 SLOAD PUSH2 0x787 SWAP2 SWAP1 PUSH2 0x13D2 JUMP JUMPDEST SWAP1 SWAP2 SSTORE POP POP PUSH1 0x40 MLOAD DUP2 DUP2 MSTORE PUSH1 0x1 PUSH1 0x1 PUSH1 0xA0 SHL SUB DUP4 AND SWAP1 CALLER SWAP1 PUSH32 0xD1C19FBCD4551A5EDFB66D43D2E337C04837AFDA3482B42BDF569A8FCCDAE5FB SWAP1 PUSH1 0x20 ADD PUSH2 0x639 JUMP JUMPDEST PUSH1 0x0 PUSH20 0x5481BF8D3946E6A3168640C1D7523EB59F055A29 PUSH1 0x40 MLOAD PUSH4 0x35EA6A75 PUSH1 0xE0 SHL DUP2 MSTORE PUSH1 0x1 PUSH1 0x1 PUSH1 0xA0 SHL SUB DUP5 DUP2 AND PUSH1 0x4 DUP4 ADD MSTORE SWAP2 SWAP1 SWAP2 AND SWAP1 PUSH4 0x35EA6A75 SWAP1 PUSH1 0x24 ADD PUSH2 0x180 PUSH1 0x40 MLOAD DUP1 DUP4 SUB DUP2 DUP7 GAS STATICCALL SWAP3 POP POP POP DUP1 ISZERO PUSH2 0x845 JUMPI POP PUSH1 0x40 DUP1 MLOAD PUSH1 0x1F RETURNDATASIZE SWAP1 DUP2 ADD PUSH1 0x1F NOT AND DUP3 ADD SWAP1 SWAP3 MSTORE PUSH2 0x842 SWAP2 DUP2 ADD SWAP1 PUSH2 0x13EB JUMP JUMPDEST PUSH1 0x1 JUMPDEST PUSH2 0x851 JUMPI POP PUSH1 0x0 SWAP2 SWAP1 POP JUMP JUMPDEST DUP7 PUSH1 0x0 SUB PUSH2 0x86D JUMPI POP PUSH1 0x0 SWAP14 SWAP13 POP POP POP POP POP POP POP POP POP POP POP POP POP JUMP JUMPDEST PUSH12 0x33B2E3C9FD0803CE8000000 PUSH1 0x64 DUP9 MUL DIV SWAP15 SWAP14 POP POP POP POP POP POP POP POP POP POP POP POP POP POP JUMP JUMPDEST SWAP2 SWAP1 POP JUMP JUMPDEST PUSH1 0x0 DUP2 GT PUSH2 0x8D4 JUMPI PUSH1 0x40 MLOAD PUSH3 0x461BCD PUSH1 0xE5 SHL DUP2 MSTORE PUSH1 0x20 PUSH1 0x4 DUP3 ADD MSTORE PUSH1 0xB PUSH1 0x24 DUP3 ADD MSTORE PUSH11 0x16995C9BC8185B5BDD5B9D PUSH1 0xAA SHL PUSH1 0x44 DUP3 ADD MSTORE PUSH1 0x64 ADD PUSH2 0x6B0 JUMP JUMPDEST PUSH1 0x40 MLOAD PUSH4 0x23B872DD PUSH1 0xE0 SHL DUP2 MSTORE CALLER PUSH1 0x4 DUP3 ADD MSTORE ADDRESS PUSH1 0x24 DUP3 ADD MSTORE PUSH1 0x44 DUP2 ADD DUP3 SWAP1 MSTORE PUSH1 0x1 PUSH1 0x1 PUSH1 0xA0 SHL SUB DUP4 AND SWAP1 PUSH4 0x23B872DD SWAP1 PUSH1 0x64 ADD PUSH1 0x20 PUSH1 0x40 MLOAD DUP1 DUP4 SUB DUP2 PUSH1 0x0 DUP8 GAS CALL ISZERO DUP1 ISZERO PUSH2 0x927 JUMPI RETURNDATASIZE PUSH1 0x0 DUP1 RETURNDATACOPY RETURNDATASIZE PUSH1 0x0 REVERT JUMPDEST POP POP POP POP PUSH1 0x40 MLOAD RETURNDATASIZE PUSH1 0x1F NOT PUSH1 0x1F DUP3 ADD AND DUP3 ADD DUP1 PUSH1 0x40 MSTORE POP DUP2 ADD SWAP1 PUSH2 0x94B SWAP2 SWAP1 PUSH2 0x1388 JUMP JUMPDEST POP PUSH1 0x1 PUSH1 0x1 PUSH1 0xA0 SHL SUB DUP3 AND PUSH4 0x95EA7B3 PUSH19 0xA89D7A5A02160F20150EBEA7A2B5E4879A1A8B PUSH1 0x40 MLOAD PUSH1 0x1 PUSH1 0x1 PUSH1 0xE0 SHL SUB NOT PUSH1 0xE0 DUP5 SWAP1 SHL AND DUP2 MSTORE PUSH1 0x1 PUSH1 0x1 PUSH1 0xA0 SHL SUB SWAP1 SWAP2 AND PUSH1 0x4 DUP3 ADD MSTORE PUSH1 0x24 DUP2 ADD DUP5 SWAP1 MSTORE PUSH1 0x44 ADD PUSH1 0x20 PUSH1 0x40 MLOAD DUP1 DUP4 SUB DUP2 PUSH1 0x0 DUP8 GAS CALL ISZERO DUP1 ISZERO PUSH2 0x9BC JUMPI RETURNDATASIZE PUSH1 0x0 DUP1 RETURNDATACOPY RETURNDATASIZE PUSH1 0x0 REVERT JUMPDEST POP POP POP POP PUSH1 0x40 MLOAD RETURNDATASIZE PUSH1 0x1F NOT PUSH1 0x1F DUP3 ADD AND DUP3 ADD DUP1 PUSH1 0x40 MSTORE POP DUP2 ADD SWAP1 PUSH2 0x9E0 SWAP2 SWAP1 PUSH2 0x1388 JUMP JUMPDEST POP PUSH19 0xA89D7A5A02160F20150EBEA7A2B5E4879A1A8B PUSH1 0x40 MLOAD PUSH4 0x617BA037 PUSH1 0xE0 SHL DUP2 MSTORE PUSH1 0x1 PUSH1 0x1 PUSH1 0xA0 SHL SUB DUP5 DUP2 AND PUSH1 0x4 DUP4 ADD MSTORE PUSH1 0x24 DUP3 ADD DUP5 SWAP1 MSTORE ADDRESS PUSH1 0x44 DUP4 ADD MSTORE PUSH1 0x0 PUSH1 0x64 DUP4 ADD MSTORE SWAP2 SWAP1 SWAP2 AND SWAP1 PUSH4 0x617BA037 SWAP1 PUSH1 0x84 ADD PUSH1 0x0 PUSH1 0x40 MLOAD DUP1 DUP4 SUB DUP2 PUSH1 0x0 DUP8 DUP1 EXTCODESIZE ISZERO DUP1 ISZERO PUSH2 0xA4E JUMPI PUSH1 0x0 DUP1 REVERT JUMPDEST POP GAS CALL ISZERO DUP1 ISZERO PUSH2 0xA62 JUMPI RETURNDATASIZE PUSH1 0x0 DUP1 RETURNDATACOPY RETURNDATASIZE PUSH1 0x0 REVERT JUMPDEST POP POP CALLER PUSH1 0x0 SWAP1 DUP2 MSTORE PUSH1 0x1 PUSH1 0x20 MSTORE PUSH1 0x40 DUP2 KECCAK256 DUP1 SLOAD DUP6 SWAP5 POP SWAP1 SWAP3 POP PUSH2 0xA86 SWAP1 DUP5 SWAP1 PUSH2 0x1488 JUMP JUMPDEST SWAP3 POP POP DUP2 SWAP1 SSTORE POP DUP1 PUSH1 0x3 PUSH1 0x0 DUP3 DUP3 SLOAD PUSH2 0xA9F SWAP2 SWAP1 PUSH2 0x1488 JUMP JUMPDEST SWAP1 SWAP2 SSTORE POP POP CALLER PUSH1 0x0 DUP2 DUP2 MSTORE PUSH1 0x2 PUSH1 0x20 SWAP1 DUP2 MSTORE PUSH1 0x40 SWAP2 DUP3 SWAP1 KECCAK256 DUP1 SLOAD PUSH1 0x1 PUSH1 0x1 PUSH1 0xA0 SHL SUB NOT AND PUSH1 0x1 PUSH1 0x1 PUSH1 0xA0 SHL SUB DUP8 AND SWAP1 DUP2 OR SWAP1 SWAP2 SSTORE SWAP2 MLOAD DUP5 DUP2 MSTORE SWAP2 SWAP3 SWAP2 PUSH32 0x8752A472E571A816AEA92EEC8DAE9BAF628E840F4929FBCC2D155E6233FF68A7 SWAP2 ADD JUMPDEST PUSH1 0x40 MLOAD DUP1 SWAP2 SUB SWAP1 LOG3 POP POP JUMP JUMPDEST CALLER PUSH1 0x0 SWAP1 DUP2 MSTORE PUSH1 0x1 PUSH1 0x20 MSTORE PUSH1 0x40 SWAP1 KECCAK256 SLOAD PUSH2 0xB57 JUMPI PUSH1 0x40 MLOAD PUSH3 0x461BCD PUSH1 0xE5 SHL DUP2 MSTORE PUSH1 0x20 PUSH1 0x4 DUP3 ADD MSTORE PUSH1 0xD PUSH1 0x24 DUP3 ADD MSTORE PUSH13 0x139BC818DBDB1B185D195C985B PUSH1 0x9A SHL PUSH1 0x44 DUP3 ADD MSTORE PUSH1 0x64 ADD PUSH2 0x6B0 JUMP JUMPDEST PUSH19 0xA89D7A5A02160F20150EBEA7A2B5E4879A1A8B PUSH1 0x40 MLOAD PUSH4 0xA415BCAD PUSH1 0xE0 SHL DUP2 MSTORE PUSH1 0x1 PUSH1 0x1 PUSH1 0xA0 SHL SUB DUP5 DUP2 AND PUSH1 0x4 DUP4 ADD MSTORE PUSH1 0x24 DUP3 ADD DUP5 SWAP1 MSTORE PUSH1 0x2 PUSH1 0x44 DUP4 ADD MSTORE PUSH1 0x0 PUSH1 0x64 DUP4 ADD MSTORE CALLER PUSH1 0x84 DUP4 ADD MSTORE SWAP2 SWAP1 SWAP2 AND SWAP1 PUSH4 0xA415BCAD SWAP1 PUSH1 0xA4 ADD PUSH1 0x0 PUSH1 0x40 MLOAD DUP1 DUP4 SUB DUP2 PUSH1 0x0 DUP8 DUP1 EXTCODESIZE ISZERO DUP1 ISZERO PUSH2 0xBCB JUMPI PUSH1 0x0 DUP1 REVERT JUMPDEST POP GAS CALL ISZERO DUP1 ISZERO PUSH2 0xBDF JUMPI RETURNDATASIZE PUSH1 0x0 DUP1 RETURNDATACOPY RETURNDATASIZE PUSH1 0x0 REVERT JUMPDEST POP POP PUSH1 0x40 MLOAD DUP4 DUP2 MSTORE PUSH1 0x1 PUSH1 0x1 PUSH1 0xA0 SHL SUB DUP6 AND SWAP3 POP CALLER SWAP2 POP PUSH32 0x3FC499AEB0BB1CB58B6DE8B02B3F86F4E7394E9690BEF0110E32CED8A5631045 SWAP1 PUSH1 0x20 ADD PUSH2 0xAFF JUMP JUMPDEST PUSH1 0x60 DUP1 PUSH1 0x60 PUSH1 0x0 PUSH2 0xC2F PUSH2 0xF84 JUMP JUMPDEST SWAP1 POP DUP1 MLOAD PUSH8 0xFFFFFFFFFFFFFFFF DUP2 GT ISZERO PUSH2 0xC4B JUMPI PUSH2 0xC4B PUSH2 0x149B JUMP JUMPDEST PUSH1 0x40 MLOAD SWAP1 DUP1 DUP3 MSTORE DUP1 PUSH1 0x20 MUL PUSH1 0x20 ADD DUP3 ADD PUSH1 0x40 MSTORE DUP1 ISZERO PUSH2 0xC74 JUMPI DUP2 PUSH1 0x20 ADD PUSH1 0x20 DUP3 MUL DUP1 CALLDATASIZE DUP4 CALLDATACOPY ADD SWAP1 POP JUMPDEST POP SWAP4 POP DUP1 MLOAD PUSH8 0xFFFFFFFFFFFFFFFF DUP2 GT ISZERO PUSH2 0xC91 JUMPI PUSH2 0xC91 PUSH2 0x149B JUMP JUMPDEST PUSH1 0x40 MLOAD SWAP1 DUP1 DUP3 MSTORE DUP1 PUSH1 0x20 MUL PUSH1 0x20 ADD DUP3 ADD PUSH1 0x40 MSTORE DUP1 ISZERO PUSH2 0xCBA JUMPI DUP2 PUSH1 0x20 ADD PUSH1 0x20 DUP3 MUL DUP1 CALLDATASIZE DUP4 CALLDATACOPY ADD SWAP1 POP JUMPDEST POP SWAP3 POP DUP1 MLOAD PUSH8 0xFFFFFFFFFFFFFFFF DUP2 GT ISZERO PUSH2 0xCD7 JUMPI PUSH2 0xCD7 PUSH2 0x149B JUMP JUMPDEST PUSH1 0x40 MLOAD SWAP1 DUP1 DUP3 MSTORE DUP1 PUSH1 0x20 MUL PUSH1 0x20 ADD DUP3 ADD PUSH1 0x40 MSTORE DUP1 ISZERO PUSH2 0xD00 JUMPI DUP2 PUSH1 0x20 ADD PUSH1 0x20 DUP3 MUL DUP1 CALLDATASIZE DUP4 CALLDATACOPY ADD SWAP1 POP JUMPDEST POP SWAP2 POP PUSH1 0x0 JUMPDEST DUP2 MLOAD DUP2 LT ISZERO PUSH2 0xDC4 JUMPI PUSH1 0x0 PUSH2 0xD33 DUP4 DUP4 DUP2 MLOAD DUP2 LT PUSH2 0xD26 JUMPI PUSH2 0xD26 PUSH2 0x14B1 JUMP JUMPDEST PUSH1 0x20 MUL PUSH1 0x20 ADD ADD MLOAD PUSH2 0xDCB JUMP JUMPDEST SWAP1 POP DUP1 PUSH1 0x0 ADD MLOAD DUP7 DUP4 DUP2 MLOAD DUP2 LT PUSH2 0xD4C JUMPI PUSH2 0xD4C PUSH2 0x14B1 JUMP JUMPDEST PUSH1 0x20 MUL PUSH1 0x20 ADD ADD SWAP1 PUSH1 0x1 PUSH1 0x1 PUSH1 0xA0 SHL SUB AND SWAP1 DUP2 PUSH1 0x1 PUSH1 0x1 PUSH1 0xA0 SHL SUB AND DUP2 MSTORE POP POP DUP1 PUSH1 0x20 ADD MLOAD DUP6 DUP4 DUP2 MLOAD DUP2 LT PUSH2 0xD83 JUMPI PUSH2 0xD83 PUSH2 0x14B1 JUMP JUMPDEST PUSH1 0x20 MUL PUSH1 0x20 ADD ADD DUP2 DUP2 MSTORE POP POP DUP1 PUSH1 0x40 ADD MLOAD DUP5 DUP4 DUP2 MLOAD DUP2 LT PUSH2 0xDA6 JUMPI PUSH2 0xDA6 PUSH2 0x14B1 JUMP JUMPDEST PUSH1 0x20 SWAP1 DUP2 MUL SWAP2 SWAP1 SWAP2 ADD ADD MSTORE POP DUP1 PUSH2 0xDBC DUP2 PUSH2 0x14C7 JUMP JUMPDEST SWAP2 POP POP PUSH2 0xD06 JUMP JUMPDEST POP POP SWAP1 SWAP2 SWAP3 JUMP JUMPDEST PUSH1 0x40 DUP1 MLOAD PUSH1 0x80 DUP2 ADD DUP3 MSTORE PUSH1 0x0 DUP1 DUP3 MSTORE PUSH1 0x20 DUP3 ADD DUP2 SWAP1 MSTORE SWAP2 DUP2 ADD DUP3 SWAP1 MSTORE PUSH1 0x60 DUP2 ADD SWAP2 SWAP1 SWAP2 MSTORE PUSH20 0x5481BF8D3946E6A3168640C1D7523EB59F055A29 PUSH1 0x40 MLOAD PUSH4 0x3E150141 PUSH1 0xE0 SHL DUP2 MSTORE PUSH1 0x1 PUSH1 0x1 PUSH1 0xA0 SHL SUB DUP5 DUP2 AND PUSH1 0x4 DUP4 ADD MSTORE SWAP2 SWAP1 SWAP2 AND SWAP1 PUSH4 0x3E150141 SWAP1 PUSH1 0x24 ADD PUSH2 0x140 PUSH1 0x40 MLOAD DUP1 DUP4 SUB DUP2 DUP7 GAS STATICCALL SWAP3 POP POP POP DUP1 ISZERO PUSH2 0xE69 JUMPI POP PUSH1 0x40 DUP1 MLOAD PUSH1 0x1F RETURNDATASIZE SWAP1 DUP2 ADD PUSH1 0x1F NOT AND DUP3 ADD SWAP1 SWAP3 MSTORE PUSH2 0xE66 SWAP2 DUP2 ADD SWAP1 PUSH2 0x14E0 JUMP JUMPDEST PUSH1 0x1 JUMPDEST PUSH2 0xE9C JUMPI POP PUSH1 0x40 DUP1 MLOAD PUSH1 0x80 DUP2 ADD DUP3 MSTORE PUSH1 0x1 PUSH1 0x1 PUSH1 0xA0 SHL SUB SWAP1 SWAP3 AND DUP3 MSTORE PUSH1 0x0 PUSH1 0x20 DUP4 ADD DUP2 SWAP1 MSTORE SWAP1 DUP3 ADD DUP2 SWAP1 MSTORE PUSH1 0x60 DUP3 ADD MSTORE SWAP1 JUMP JUMPDEST PUSH1 0x40 MLOAD DUP1 PUSH1 0x80 ADD PUSH1 0x40 MSTORE DUP1 DUP14 PUSH1 0x1 PUSH1 0x1 PUSH1 0xA0 SHL SUB AND DUP2 MSTORE PUSH1 0x20 ADD PUSH2 0xEBF DUP15 PUSH2 0x7C9 JUMP JUMPDEST DUP2 MSTORE PUSH1 0x20 ADD DUP11 DUP2 MSTORE PUSH1 0x20 ADD DUP4 ISZERO ISZERO DUP2 MSTORE POP SWAP11 POP POP POP POP POP POP POP POP POP POP POP SWAP2 SWAP1 POP JUMP JUMPDEST PUSH1 0x0 DUP1 PUSH1 0x0 PUSH2 0xEEE PUSH2 0xF84 JUMP JUMPDEST SWAP1 POP PUSH1 0x0 SWAP2 POP DUP1 PUSH1 0x0 DUP2 MLOAD DUP2 LT PUSH2 0xF07 JUMPI PUSH2 0xF07 PUSH2 0x14B1 JUMP JUMPDEST PUSH1 0x20 MUL PUSH1 0x20 ADD ADD MLOAD SWAP3 POP PUSH1 0x0 JUMPDEST DUP2 MLOAD DUP2 LT ISZERO PUSH2 0xF7E JUMPI PUSH1 0x0 PUSH2 0xF41 DUP4 DUP4 DUP2 MLOAD DUP2 LT PUSH2 0xF34 JUMPI PUSH2 0xF34 PUSH2 0x14B1 JUMP JUMPDEST PUSH1 0x20 MUL PUSH1 0x20 ADD ADD MLOAD PUSH2 0x7C9 JUMP JUMPDEST SWAP1 POP DUP4 DUP2 GT ISZERO PUSH2 0xF6B JUMPI DUP1 SWAP4 POP DUP3 DUP3 DUP2 MLOAD DUP2 LT PUSH2 0xF60 JUMPI PUSH2 0xF60 PUSH2 0x14B1 JUMP JUMPDEST PUSH1 0x20 MUL PUSH1 0x20 ADD ADD MLOAD SWAP5 POP JUMPDEST POP DUP1 PUSH2 0xF76 DUP2 PUSH2 0x14C7 JUMP JUMPDEST SWAP2 POP POP PUSH2 0xF14 JUMP JUMPDEST POP POP SWAP1 SWAP2 JUMP JUMPDEST PUSH1 0x40 DUP1 MLOAD PUSH1 0x9 DUP1 DUP3 MSTORE PUSH2 0x140 DUP3 ADD SWAP1 SWAP3 MSTORE PUSH1 0x60 SWAP2 PUSH1 0x0 SWAP2 SWAP1 PUSH1 0x20 DUP3 ADD PUSH2 0x120 DUP1 CALLDATASIZE DUP4 CALLDATACOPY ADD SWAP1 POP POP SWAP1 POP PUSH20 0xB8CE59FC3717ADA4C02EADF9682A9E934F625EBB DUP2 PUSH1 0x0 DUP2 MLOAD DUP2 LT PUSH2 0xFD5 JUMPI PUSH2 0xFD5 PUSH2 0x14B1 JUMP JUMPDEST PUSH1 0x20 MUL PUSH1 0x20 ADD ADD SWAP1 PUSH1 0x1 PUSH1 0x1 PUSH1 0xA0 SHL SUB AND SWAP1 DUP2 PUSH1 0x1 PUSH1 0x1 PUSH1 0xA0 SHL SUB AND DUP2 MSTORE POP POP PUSH20 0x5555555555555555555555555555555555555555 DUP2 PUSH1 0x1 DUP2 MLOAD DUP2 LT PUSH2 0x101D JUMPI PUSH2 0x101D PUSH2 0x14B1 JUMP JUMPDEST PUSH1 0x20 MUL PUSH1 0x20 ADD ADD SWAP1 PUSH1 0x1 PUSH1 0x1 PUSH1 0xA0 SHL SUB AND SWAP1 DUP2 PUSH1 0x1 PUSH1 0x1 PUSH1 0xA0 SHL SUB AND DUP2 MSTORE POP POP PUSH20 0x94E8396E0869C9F2200760AF0621AFD240E1CF38 DUP2 PUSH1 0x2 DUP2 MLOAD DUP2 LT PUSH2 0x1065 JUMPI PUSH2 0x1065 PUSH2 0x14B1 JUMP JUMPDEST PUSH1 0x20 MUL PUSH1 0x20 ADD ADD SWAP1 PUSH1 0x1 PUSH1 0x1 PUSH1 0xA0 SHL SUB AND SWAP1 DUP2 PUSH1 0x1 PUSH1 0x1 PUSH1 0xA0 SHL SUB AND DUP2 MSTORE POP POP PUSH20 0x5D3A1FF2B6BAB83B63CD9AD0787074081A52EF34 DUP2 PUSH1 0x3 DUP2 MLOAD DUP2 LT PUSH2 0x10AD JUMPI PUSH2 0x10AD PUSH2 0x14B1 JUMP JUMPDEST PUSH1 0x20 MUL PUSH1 0x20 ADD ADD SWAP1 PUSH1 0x1 PUSH1 0x1 PUSH1 0xA0 SHL SUB AND SWAP1 DUP2 PUSH1 0x1 PUSH1 0x1 PUSH1 0xA0 SHL SUB AND DUP2 MSTORE POP POP PUSH20 0x211CC4DD073734DA055FBF44A2B4667D5E5FE5D2 DUP2 PUSH1 0x4 DUP2 MLOAD DUP2 LT PUSH2 0x10F5 JUMPI PUSH2 0x10F5 PUSH2 0x14B1 JUMP JUMPDEST PUSH1 0x20 MUL PUSH1 0x20 ADD ADD SWAP1 PUSH1 0x1 PUSH1 0x1 PUSH1 0xA0 SHL SUB AND SWAP1 DUP2 PUSH1 0x1 PUSH1 0x1 PUSH1 0xA0 SHL SUB AND DUP2 MSTORE POP POP PUSH20 0xB50A96253ABDF803D85EFCDCE07AD8BECBC52BD5 DUP2 PUSH1 0x5 DUP2 MLOAD DUP2 LT PUSH2 0x113D JUMPI PUSH2 0x113D PUSH2 0x14B1 JUMP JUMPDEST PUSH1 0x20 MUL PUSH1 0x20 ADD ADD SWAP1 PUSH1 0x1 PUSH1 0x1 PUSH1 0xA0 SHL SUB AND SWAP1 DUP2 PUSH1 0x1 PUSH1 0x1 PUSH1 0xA0 SHL SUB AND DUP2 MSTORE POP POP PUSH20 0xFD739D4E423301CE9385C1FB8850539D657C296D DUP2 PUSH1 0x6 DUP2 MLOAD DUP2 LT PUSH2 0x1185 JUMPI PUSH2 0x1185 PUSH2 0x14B1 JUMP JUMPDEST PUSH1 0x20 MUL PUSH1 0x20 ADD ADD SWAP1 PUSH1 0x1 PUSH1 0x1 PUSH1 0xA0 SHL SUB AND SWAP1 DUP2 PUSH1 0x1 PUSH1 0x1 PUSH1 0xA0 SHL SUB AND DUP2 MSTORE POP POP PUSH20 0x9FDBDA0A5E284C32744D2F17EE5C74B284993463 DUP2 PUSH1 0x7 DUP2 MLOAD DUP2 LT PUSH2 0x11CD JUMPI PUSH2 0x11CD PUSH2 0x14B1 JUMP JUMPDEST PUSH1 0x20 MUL PUSH1 0x20 ADD ADD SWAP1 PUSH1 0x1 PUSH1 0x1 PUSH1 0xA0 SHL SUB AND SWAP1 DUP2 PUSH1 0x1 PUSH1 0x1 PUSH1 0xA0 SHL SUB AND DUP2 MSTORE POP POP PUSH20 0xBE6727B535545C67D5CAA73DEA54865B92CF7907 DUP2 PUSH1 0x8 DUP2 MLOAD DUP2 LT PUSH2 0x1215 JUMPI PUSH2 0x1215 PUSH2 0x14B1 JUMP JUMPDEST PUSH1 0x1 PUSH1 0x1 PUSH1 0xA0 SHL SUB SWAP1 SWAP3 AND PUSH1 0x20 SWAP3 DUP4 MUL SWAP2 SWAP1 SWAP2 ADD SWAP1 SWAP2 ADD MSTORE SWAP2 SWAP1 POP JUMP JUMPDEST DUP1 CALLDATALOAD PUSH1 0x1 PUSH1 0x1 PUSH1 0xA0 SHL SUB DUP2 AND DUP2 EQ PUSH2 0x891 JUMPI PUSH1 0x0 DUP1 REVERT JUMPDEST PUSH1 0x0 PUSH1 0x20 DUP3 DUP5 SUB SLT ISZERO PUSH2 0x125B JUMPI PUSH1 0x0 DUP1 REVERT JUMPDEST PUSH2 0x1264 DUP3 PUSH2 0x1232 JUMP JUMPDEST SWAP4 SWAP3 POP POP POP JUMP JUMPDEST PUSH1 0x0 DUP1 PUSH1 0x40 DUP4 DUP6 SUB SLT ISZERO PUSH2 0x127E JUMPI PUSH1 0x0 DUP1 REVERT JUMPDEST PUSH2 0x1287 DUP4 PUSH2 0x1232 JUMP JUMPDEST SWAP5 PUSH1 0x20 SWAP4 SWAP1 SWAP4 ADD CALLDATALOAD SWAP4 POP POP POP JUMP JUMPDEST PUSH1 0x0 PUSH1 0x20 DUP3 DUP5 SUB SLT ISZERO PUSH2 0x12A7 JUMPI PUSH1 0x0 DUP1 REVERT JUMPDEST POP CALLDATALOAD SWAP2 SWAP1 POP JUMP JUMPDEST PUSH1 0x0 DUP2 MLOAD DUP1 DUP5 MSTORE PUSH1 0x20 DUP1 DUP6 ADD SWAP5 POP DUP1 DUP5 ADD PUSH1 0x0 JUMPDEST DUP4 DUP2 LT ISZERO PUSH2 0x12E7 JUMPI DUP2 MLOAD PUSH1 0x1 PUSH1 0x1 PUSH1 0xA0 SHL SUB AND DUP8 MSTORE SWAP6 DUP3 ADD SWAP6 SWAP1 DUP3 ADD SWAP1 PUSH1 0x1 ADD PUSH2 0x12C2 JUMP JUMPDEST POP SWAP5 SWAP6 SWAP5 POP POP POP POP POP JUMP JUMPDEST PUSH1 0x0 DUP2 MLOAD DUP1 DUP5 MSTORE PUSH1 0x20 DUP1 DUP6 ADD SWAP5 POP DUP1 DUP5 ADD PUSH1 0x0 JUMPDEST DUP4 DUP2 LT ISZERO PUSH2 0x12E7 JUMPI DUP2 MLOAD DUP8 MSTORE SWAP6 DUP3 ADD SWAP6 SWAP1 DUP3 ADD SWAP1 PUSH1 0x1 ADD PUSH2 0x1306 JUMP JUMPDEST PUSH1 0x60 DUP2 MSTORE PUSH1 0x0 PUSH2 0x1335 PUSH1 0x60 DUP4 ADD DUP7 PUSH2 0x12AE JUMP JUMPDEST DUP3 DUP2 SUB PUSH1 0x20 DUP5 ADD MSTORE PUSH2 0x1347 DUP2 DUP7 PUSH2 0x12F2 JUMP JUMPDEST SWAP1 POP DUP3 DUP2 SUB PUSH1 0x40 DUP5 ADD MSTORE PUSH2 0x135B DUP2 DUP6 PUSH2 0x12F2 JUMP JUMPDEST SWAP7 SWAP6 POP POP POP POP POP POP JUMP JUMPDEST PUSH1 0x20 DUP2 MSTORE PUSH1 0x0 PUSH2 0x1264 PUSH1 0x20 DUP4 ADD DUP5 PUSH2 0x12AE JUMP JUMPDEST DUP1 MLOAD DUP1 ISZERO ISZERO DUP2 EQ PUSH2 0x891 JUMPI PUSH1 0x0 DUP1 REVERT JUMPDEST PUSH1 0x0 PUSH1 0x20 DUP3 DUP5 SUB SLT ISZERO PUSH2 0x139A JUMPI PUSH1 0x0 DUP1 REVERT JUMPDEST PUSH2 0x1264 DUP3 PUSH2 0x1378 JUMP JUMPDEST PUSH1 0x0 PUSH1 0x20 DUP3 DUP5 SUB SLT ISZERO PUSH2 0x13B5 JUMPI PUSH1 0x0 DUP1 REVERT JUMPDEST POP MLOAD SWAP2 SWAP1 POP JUMP JUMPDEST PUSH4 0x4E487B71 PUSH1 0xE0 SHL PUSH1 0x0 MSTORE PUSH1 0x11 PUSH1 0x4 MSTORE PUSH1 0x24 PUSH1 0x0 REVERT JUMPDEST DUP2 DUP2 SUB DUP2 DUP2 GT ISZERO PUSH2 0x13E5 JUMPI PUSH2 0x13E5 PUSH2 0x13BC JUMP JUMPDEST SWAP3 SWAP2 POP POP JUMP JUMPDEST PUSH1 0x0 DUP1 PUSH1 0x0 DUP1 PUSH1 0x0 DUP1 PUSH1 0x0 DUP1 PUSH1 0x0 DUP1 PUSH1 0x0 DUP1 PUSH2 0x180 DUP14 DUP16 SUB SLT ISZERO PUSH2 0x140E JUMPI PUSH1 0x0 DUP1 REVERT JUMPDEST DUP13 MLOAD SWAP12 POP PUSH1 0x20 DUP14 ADD MLOAD SWAP11 POP PUSH1 0x40 DUP14 ADD MLOAD SWAP10 POP PUSH1 0x60 DUP14 ADD MLOAD SWAP9 POP PUSH1 0x80 DUP14 ADD MLOAD SWAP8 POP PUSH1 0xA0 DUP14 ADD MLOAD SWAP7 POP PUSH1 0xC0 DUP14 ADD MLOAD SWAP6 POP PUSH1 0xE0 DUP14 ADD MLOAD SWAP5 POP PUSH2 0x100 DUP14 ADD MLOAD SWAP4 POP PUSH2 0x120 DUP14 ADD MLOAD SWAP3 POP PUSH2 0x140 DUP14 ADD MLOAD SWAP2 POP PUSH2 0x160 DUP14 ADD MLOAD PUSH5 0xFFFFFFFFFF DUP2 AND DUP2 EQ PUSH2 0x1474 JUMPI PUSH1 0x0 DUP1 REVERT JUMPDEST DUP1 SWAP2 POP POP SWAP3 SWAP6 SWAP9 SWAP12 POP SWAP3 SWAP6 SWAP9 SWAP12 POP SWAP3 SWAP6 SWAP9 SWAP12 JUMP JUMPDEST DUP1 DUP3 ADD DUP1 DUP3 GT ISZERO PUSH2 0x13E5 JUMPI PUSH2 0x13E5 PUSH2 0x13BC JUMP JUMPDEST PUSH4 0x4E487B71 PUSH1 0xE0 SHL PUSH1 0x0 MSTORE PUSH1 0x41 PUSH1 0x4 MSTORE PUSH1 0x24 PUSH1 0x0 REVERT JUMPDEST PUSH4 0x4E487B71 PUSH1 0xE0 SHL PUSH1 0x0 MSTORE PUSH1 0x32 PUSH1 0x4 MSTORE PUSH1 0x24 PUSH1 0x0 REVERT JUMPDEST PUSH1 0x0 PUSH1 0x1 DUP3 ADD PUSH2 0x14D9 JUMPI PUSH2 0x14D9 PUSH2 0x13BC JUMP JUMPDEST POP PUSH1 0x1 ADD SWAP1 JUMP JUMPDEST PUSH1 0x0 DUP1 PUSH1 0x0 DUP1 PUSH1 0x0 DUP1 PUSH1 0x0 DUP1 PUSH1 0x0 DUP1 PUSH2 0x140 DUP12 DUP14 SUB SLT ISZERO PUSH2 0x1500 JUMPI PUSH1 0x0 DUP1 REVERT JUMPDEST DUP11 MLOAD SWAP10 POP PUSH1 0x20 DUP12 ADD MLOAD SWAP9 POP PUSH1 0x40 DUP12 ADD MLOAD SWAP8 POP PUSH1 0x60 DUP12 ADD MLOAD SWAP7 POP PUSH1 0x80 DUP12 ADD MLOAD SWAP6 POP PUSH2 0x152C PUSH1 0xA0 DUP13 ADD PUSH2 0x1378 JUMP JUMPDEST SWAP5 POP PUSH2 0x153A PUSH1 0xC0 DUP13 ADD PUSH2 0x1378 JUMP JUMPDEST SWAP4 POP PUSH2 0x1548 PUSH1 0xE0 DUP13 ADD PUSH2 0x1378 JUMP JUMPDEST SWAP3 POP PUSH2 0x1557 PUSH2 0x100 DUP13 ADD PUSH2 0x1378 JUMP JUMPDEST SWAP2 POP PUSH2 0x1566 PUSH2 0x120 DUP13 ADD PUSH2 0x1378 JUMP JUMPDEST SWAP1 POP SWAP3 SWAP6 SWAP9 SWAP12 SWAP2 SWAP5 SWAP8 SWAP11 POP SWAP3 SWAP6 SWAP9 POP JUMP INVALID LOG2 PUSH5 0x6970667358 0x22 SLT KECCAK256 0xD0 CALLDATACOPY DUP5 TIMESTAMP SHL MSIZE REVERT PUSH29 0x9A9BEEE4A866D779AB234C59E2CA8A8B773C9900C802C52F64736F6C63 NUMBER STOP ADDMOD EQ STOP CALLER "},"methodIdentifiers":{"HYPERLEND_ORACLE()":"22d5386c","HYPERLEND_POOL()":"483378cc","PROTOCOL_DATA_PROVIDER()":"ae0fd73e","UBTC()":"86d4c423","UETH()":"82d2dcfb","USDHL()":"8c57a5c7","USDT0()":"4d1a7dee","USDe()":"d1609502","WHYPE()":"59f613a4","borrow(address,uint256)":"4b8a3529","deposit(address,uint256)":"47e7ef24","displayMarkets()":"62717301","findBestMarket()":"e3d7dd99","getMarketData(address)":"a30c302d","getSupplyAPY(address)":"3842ea42","getSupportedAssets()":"e5406dbf","kHYPE()":"3fc3b320","owner()":"8da5cb5b","repay(address,uint256)":"22867d78","sUSDe()":"e0d05d39","totalShares()":"3a98ef39","userActiveMarket(address)":"1f985adf","userShares(address)":"de69b3aa","withdraw(uint256)":"2e1a7d4d","wstHYPE()":"71f39cd5"}}}}}