{"contracts/mocks/MockDeBridgeGate.sol":{"MockDeBridgeGate":{"abi":[{"inputs":[{"internalType":"uint256","name":"","type":"uint256"}],"name":"getChainFee","outputs":[{"internalType":"uint256","name":"","type":"uint256"}],"stateMutability":"pure","type":"function"},{"inputs":[],"name":"globalFixedNativeFee","outputs":[{"internalType":"uint256","name":"","type":"uint256"}],"stateMutability":"pure","type":"function"},{"inputs":[{"internalType":"address","name":"","type":"address"},{"internalType":"uint256","name":"","type":"uint256"},{"internalType":"uint256","name":"","type":"uint256"},{"internalType":"bytes","name":"","type":"bytes"},{"internalType":"bytes","name":"","type":"bytes"},{"internalType":"bool","name":"","type":"bool"},{"internalType":"uint32","name":"","type":"uint32"},{"internalType":"bytes","name":"","type":"bytes"}],"name":"send","outputs":[],"stateMutability":"payable","type":"function"}],"evm":{"bytecode":{"linkReferences":{},"object":"608060405234801561001057600080fd5b50610348806100206000396000f3fe6080604052600436106100345760003560e01c806335087f0a146100395780634b64bbfb14610061578063be29747614610088575b600080fd5b34801561004557600080fd5b5066038d7ea4c680005b60405190815260200160405180910390f35b34801561006d57600080fd5b5061004f61007c3660046100f6565b506601c6bf5263400090565b61009b61009636600461023b565b61009d565b005b66038d7ea4c680003410156100eb5760405162461bcd60e51b815260206004820152601060248201526f496e73756666696369656e742066656560801b604482015260640160405180910390fd5b505050505050505050565b60006020828403121561010857600080fd5b5035919050565b80356001600160a01b038116811461012657600080fd5b919050565b634e487b7160e01b600052604160045260246000fd5b600082601f83011261015257600080fd5b813567ffffffffffffffff8082111561016d5761016d61012b565b604051601f8301601f19908116603f011681019082821181831017156101955761019561012b565b816040528381528660208588010111156101ae57600080fd5b836020870160208301376000602085830101528094505050505092915050565b8035801515811461012657600080fd5b803563ffffffff8116811461012657600080fd5b60008083601f84011261020457600080fd5b50813567ffffffffffffffff81111561021c57600080fd5b60208301915083602082850101111561023457600080fd5b9250929050565b60008060008060008060008060006101008a8c03121561025a57600080fd5b6102638a61010f565b985060208a0135975060408a0135965060608a013567ffffffffffffffff8082111561028e57600080fd5b61029a8d838e01610141565b975060808c01359150808211156102b057600080fd5b6102bc8d838e01610141565b96506102ca60a08d016101ce565b95506102d860c08d016101de565b945060e08c01359150808211156102ee57600080fd5b506102fb8c828d016101f2565b91508093505080915050929598509295985092959856fea26469706673582212204445acc2601567762c9ea3d34dacdb8697e9fe978fd47729e1048a43f237a89564736f6c63430008140033","opcodes":"PUSH1 0x80 PUSH1 0x40 MSTORE CALLVALUE DUP1 ISZERO PUSH2 0x10 JUMPI PUSH1 0x0 DUP1 REVERT JUMPDEST POP PUSH2 0x348 DUP1 PUSH2 0x20 PUSH1 0x0 CODECOPY PUSH1 0x0 RETURN INVALID PUSH1 0x80 PUSH1 0x40 MSTORE PUSH1 0x4 CALLDATASIZE LT PUSH2 0x34 JUMPI PUSH1 0x0 CALLDATALOAD PUSH1 0xE0 SHR DUP1 PUSH4 0x35087F0A EQ PUSH2 0x39 JUMPI DUP1 PUSH4 0x4B64BBFB EQ PUSH2 0x61 JUMPI DUP1 PUSH4 0xBE297476 EQ PUSH2 0x88 JUMPI JUMPDEST PUSH1 0x0 DUP1 REVERT JUMPDEST CALLVALUE DUP1 ISZERO PUSH2 0x45 JUMPI PUSH1 0x0 DUP1 REVERT JUMPDEST POP PUSH7 0x38D7EA4C68000 JUMPDEST PUSH1 0x40 MLOAD SWAP1 DUP2 MSTORE PUSH1 0x20 ADD PUSH1 0x40 MLOAD DUP1 SWAP2 SUB SWAP1 RETURN JUMPDEST CALLVALUE DUP1 ISZERO PUSH2 0x6D JUMPI PUSH1 0x0 DUP1 REVERT JUMPDEST POP PUSH2 0x4F PUSH2 0x7C CALLDATASIZE PUSH1 0x4 PUSH2 0xF6 JUMP JUMPDEST POP PUSH7 0x1C6BF52634000 SWAP1 JUMP JUMPDEST PUSH2 0x9B PUSH2 0x96 CALLDATASIZE PUSH1 0x4 PUSH2 0x23B JUMP JUMPDEST PUSH2 0x9D JUMP JUMPDEST STOP JUMPDEST PUSH7 0x38D7EA4C68000 CALLVALUE LT ISZERO PUSH2 0xEB JUMPI PUSH1 0x40 MLOAD PUSH3 0x461BCD PUSH1 0xE5 SHL DUP2 MSTORE PUSH1 0x20 PUSH1 0x4 DUP3 ADD MSTORE PUSH1 0x10 PUSH1 0x24 DUP3 ADD MSTORE PUSH16 0x496E73756666696369656E7420666565 PUSH1 0x80 SHL PUSH1 0x44 DUP3 ADD MSTORE PUSH1 0x64 ADD PUSH1 0x40 MLOAD DUP1 SWAP2 SUB SWAP1 REVERT JUMPDEST POP POP POP POP POP POP POP POP POP JUMP JUMPDEST PUSH1 0x0 PUSH1 0x20 DUP3 DUP5 SUB SLT ISZERO PUSH2 0x108 JUMPI PUSH1 0x0 DUP1 REVERT JUMPDEST POP CALLDATALOAD SWAP2 SWAP1 POP JUMP JUMPDEST DUP1 CALLDATALOAD PUSH1 0x1 PUSH1 0x1 PUSH1 0xA0 SHL SUB DUP2 AND DUP2 EQ PUSH2 0x126 JUMPI PUSH1 0x0 DUP1 REVERT JUMPDEST SWAP2 SWAP1 POP JUMP JUMPDEST PUSH4 0x4E487B71 PUSH1 0xE0 SHL PUSH1 0x0 MSTORE PUSH1 0x41 PUSH1 0x4 MSTORE PUSH1 0x24 PUSH1 0x0 REVERT JUMPDEST PUSH1 0x0 DUP3 PUSH1 0x1F DUP4 ADD SLT PUSH2 0x152 JUMPI PUSH1 0x0 DUP1 REVERT JUMPDEST DUP2 CALLDATALOAD PUSH8 0xFFFFFFFFFFFFFFFF DUP1 DUP3 GT ISZERO PUSH2 0x16D JUMPI PUSH2 0x16D PUSH2 0x12B JUMP JUMPDEST PUSH1 0x40 MLOAD PUSH1 0x1F DUP4 ADD PUSH1 0x1F NOT SWAP1 DUP2 AND PUSH1 0x3F ADD AND DUP2 ADD SWAP1 DUP3 DUP3 GT DUP2 DUP4 LT OR ISZERO PUSH2 0x195 JUMPI PUSH2 0x195 PUSH2 0x12B JUMP JUMPDEST DUP2 PUSH1 0x40 MSTORE DUP4 DUP2 MSTORE DUP7 PUSH1 0x20 DUP6 DUP9 ADD ADD GT ISZERO PUSH2 0x1AE JUMPI PUSH1 0x0 DUP1 REVERT JUMPDEST DUP4 PUSH1 0x20 DUP8 ADD PUSH1 0x20 DUP4 ADD CALLDATACOPY PUSH1 0x0 PUSH1 0x20 DUP6 DUP4 ADD ADD MSTORE DUP1 SWAP5 POP POP POP POP POP SWAP3 SWAP2 POP POP JUMP JUMPDEST DUP1 CALLDATALOAD DUP1 ISZERO ISZERO DUP2 EQ PUSH2 0x126 JUMPI PUSH1 0x0 DUP1 REVERT JUMPDEST DUP1 CALLDATALOAD PUSH4 0xFFFFFFFF DUP2 AND DUP2 EQ PUSH2 0x126 JUMPI PUSH1 0x0 DUP1 REVERT JUMPDEST PUSH1 0x0 DUP1 DUP4 PUSH1 0x1F DUP5 ADD SLT PUSH2 0x204 JUMPI PUSH1 0x0 DUP1 REVERT JUMPDEST POP DUP2 CALLDATALOAD PUSH8 0xFFFFFFFFFFFFFFFF DUP2 GT ISZERO PUSH2 0x21C JUMPI PUSH1 0x0 DUP1 REVERT JUMPDEST PUSH1 0x20 DUP4 ADD SWAP2 POP DUP4 PUSH1 0x20 DUP3 DUP6 ADD ADD GT ISZERO PUSH2 0x234 JUMPI PUSH1 0x0 DUP1 REVERT JUMPDEST SWAP3 POP SWAP3 SWAP1 POP JUMP JUMPDEST PUSH1 0x0 DUP1 PUSH1 0x0 DUP1 PUSH1 0x0 DUP1 PUSH1 0x0 DUP1 PUSH1 0x0 PUSH2 0x100 DUP11 DUP13 SUB SLT ISZERO PUSH2 0x25A JUMPI PUSH1 0x0 DUP1 REVERT JUMPDEST PUSH2 0x263 DUP11 PUSH2 0x10F JUMP JUMPDEST SWAP9 POP PUSH1 0x20 DUP11 ADD CALLDATALOAD SWAP8 POP PUSH1 0x40 DUP11 ADD CALLDATALOAD SWAP7 POP PUSH1 0x60 DUP11 ADD CALLDATALOAD PUSH8 0xFFFFFFFFFFFFFFFF DUP1 DUP3 GT ISZERO PUSH2 0x28E JUMPI PUSH1 0x0 DUP1 REVERT JUMPDEST PUSH2 0x29A DUP14 DUP4 DUP15 ADD PUSH2 0x141 JUMP JUMPDEST SWAP8 POP PUSH1 0x80 DUP13 ADD CALLDATALOAD SWAP2 POP DUP1 DUP3 GT ISZERO PUSH2 0x2B0 JUMPI PUSH1 0x0 DUP1 REVERT JUMPDEST PUSH2 0x2BC DUP14 DUP4 DUP15 ADD PUSH2 0x141 JUMP JUMPDEST SWAP7 POP PUSH2 0x2CA PUSH1 0xA0 DUP14 ADD PUSH2 0x1CE JUMP JUMPDEST SWAP6 POP PUSH2 0x2D8 PUSH1 0xC0 DUP14 ADD PUSH2 0x1DE JUMP JUMPDEST SWAP5 POP PUSH1 0xE0 DUP13 ADD CALLDATALOAD SWAP2 POP DUP1 DUP3 GT ISZERO PUSH2 0x2EE JUMPI PUSH1 0x0 DUP1 REVERT JUMPDEST POP PUSH2 0x2FB DUP13 DUP3 DUP14 ADD PUSH2 0x1F2 JUMP JUMPDEST SWAP2 POP DUP1 SWAP4 POP POP DUP1 SWAP2 POP POP SWAP3 SWAP6 SWAP9 POP SWAP3 SWAP6 SWAP9 POP SWAP3 SWAP6 SWAP9 JUMP INVALID LOG2 PUSH5 0x6970667358 0x22 SLT KECCAK256 PREVRANDAO GASLIMIT 0xAC 0xC2 PUSH1 0x15 PUSH8 0x762C9EA3D34DACDB DUP7 SWAP8 0xE9 INVALID SWAP8 DUP16 0xD4 PUSH24 0x29E1048A43F237A89564736F6C6343000814003300000000 "},"methodIdentifiers":{"getChainFee(uint256)":"4b64bbfb","globalFixedNativeFee()":"35087f0a","send(address,uint256,uint256,bytes,bytes,bool,uint32,bytes)":"be297476"}}}}}