{"contracts/mocks/MockHyperSwapRouter.sol":{"MockHyperSwapRouter":{"abi":[{"inputs":[{"internalType":"address","name":"_usdc","type":"address"},{"internalType":"address","name":"_usdt0","type":"address"},{"internalType":"address","name":"_hype","type":"address"}],"stateMutability":"nonpayable","type":"constructor"},{"inputs":[{"internalType":"uint256","name":"amountIn","type":"uint256"},{"internalType":"address[]","name":"path","type":"address[]"}],"name":"getAmountsOut","outputs":[{"internalType":"uint256[]","name":"amounts","type":"uint256[]"}],"stateMutability":"pure","type":"function"},{"inputs":[],"name":"hype","outputs":[{"internalType":"address","name":"","type":"address"}],"stateMutability":"view","type":"function"},{"inputs":[{"internalType":"uint256","name":"","type":"uint256"},{"internalType":"address[]","name":"path","type":"address[]"},{"internalType":"address","name":"to","type":"address"},{"internalType":"uint256","name":"","type":"uint256"}],"name":"swapExactETHForTokens","outputs":[{"internalType":"uint256[]","name":"amounts","type":"uint256[]"}],"stateMutability":"payable","type":"function"},{"inputs":[{"internalType":"uint256","name":"amountIn","type":"uint256"},{"internalType":"uint256","name":"amountOutMin","type":"uint256"},{"internalType":"address[]","name":"path","type":"address[]"},{"internalType":"address","name":"to","type":"address"},{"internalType":"uint256","name":"","type":"uint256"}],"name":"swapExactTokensForETH","outputs":[{"internalType":"uint256[]","name":"amounts","type":"uint256[]"}],"stateMutability":"nonpayable","type":"function"},{"inputs":[{"internalType":"uint256","name":"amountIn","type":"uint256"},{"internalType":"uint256","name":"","type":"uint256"},{"internalType":"address[]","name":"path","type":"address[]"},{"internalType":"address","name":"to","type":"address"},{"internalType":"uint256","name":"","type":"uint256"}],"name":"swapExactTokensForTokens","outputs":[{"internalType":"uint256[]","name":"amounts","type":"uint256[]"}],"stateMutability":"nonpayable","type":"function"},{"inputs":[],"name":"usdc","outputs":[{"internalType":"address","name":"","type":"address"}],"stateMutability":"view","type":"function"},{"inputs":[],"name":"usdt0","outputs":[{"internalType":"address","name":"","type":"address"}],"stateMutability":"view","type":"function"},{"stateMutability":"payable","type":"receive"}],"evm":{"bytecode":{"linkReferences":{},"object":"608060405234801561001057600080fd5b50604051610d1b380380610d1b83398101604081905261002f9161008d565b600080546001600160a01b039485166001600160a01b0319918216179091556001805493851693821693909317909255600280549190931691161790556100d0565b80516001600160a01b038116811461008857600080fd5b919050565b6000806000606084860312156100a257600080fd5b6100ab84610071565b92506100b960208501610071565b91506100c760408501610071565b90509250925092565b610c3c806100df6000396000f3fe6080604052600436106100745760003560e01c80636ecf9f7b1161004e5780636ecf9f7b1461010e5780637ff36ab51461012e578063a9d3c87f14610141578063d06ca61f1461016157600080fd5b806318cbafe51461008057806338ed1739146100b65780633e413bee146100d657600080fd5b3661007b57005b600080fd5b34801561008c57600080fd5b506100a061009b3660046109af565b610181565b6040516100ad9190610a1f565b60405180910390f35b3480156100c257600080fd5b506100a06100d13660046109af565b61040f565b3480156100e257600080fd5b506000546100f6906001600160a01b031681565b6040516001600160a01b0390911681526020016100ad565b34801561011a57600080fd5b506002546100f6906001600160a01b031681565b6100a061013c366004610a63565b61060f565b34801561014d57600080fd5b506001546100f6906001600160a01b031681565b34801561016d57600080fd5b506100a061017c366004610ac9565b610766565b60608484600081811061019657610196610b15565b90506020020160208101906101ab9190610b2b565b6040516323b872dd60e01b8152336004820152306024820152604481018990526001600160a01b0391909116906323b872dd906064016020604051808303816000875af1158015610200573d6000803e3d6000fd5b505050506040513d601f19601f820116820180604052508101906102249190610b4d565b506000633b9aca0061023e89670de0b6b3a7640000610b85565b6102489190610ba2565b90506103e8610259826103e3610b85565b6102639190610ba2565b9050804710156102ba5760405162461bcd60e51b815260206004820152601860248201527f526f757465723a20496e73756666696369656e7420455448000000000000000060448201526064015b60405180910390fd5b8681101561030a5760405162461bcd60e51b815260206004820152601b60248201527f526f757465723a20496e73756666696369656e74206f7574707574000000000060448201526064016102b1565b6000846001600160a01b03168260405160006040518083038185875af1925050503d8060008114610357576040519150601f19603f3d011682016040523d82523d6000602084013e61035c565b606091505b50509050806103a35760405162461bcd60e51b8152602060048201526013602482015272115512081d1c985b9cd9995c8819985a5b1959606a1b60448201526064016102b1565b604080516002808252606082018352909160208301908036833701905050925088836000815181106103d7576103d7610b15565b60200260200101818152505081836001815181106103f7576103f7610b15565b60200260200101818152505050509695505050505050565b60608484600081811061042457610424610b15565b90506020020160208101906104399190610b2b565b6040516323b872dd60e01b8152336004820152306024820152604481018990526001600160a01b0391909116906323b872dd906064016020604051808303816000875af115801561048e573d6000803e3d6000fd5b505050506040513d601f19601f820116820180604052508101906104b29190610b4d565b5060006103e86104c4896103e3610b85565b6104ce9190610ba2565b905085856104dd600182610bda565b8181106104ec576104ec610b15565b90506020020160208101906105019190610b2b565b60405163a9059cbb60e01b81526001600160a01b03868116600483015260248201849052919091169063a9059cbb906044016020604051808303816000875af1158015610552573d6000803e3d6000fd5b505050506040513d601f19601f820116820180604052508101906105769190610b4d565b508467ffffffffffffffff81111561059057610590610bc4565b6040519080825280602002602001820160405280156105b9578160200160208202803683370190505b50915087826000815181106105d0576105d0610b15565b602090810291909101015280826105e8600188610bda565b815181106105f8576105f8610b15565b602002602001018181525050509695505050505050565b6060346000670de0b6b3a7640000610629836103e8610b85565b61063690620f4240610b85565b6106409190610ba2565b90506103e8610651826103e3610b85565b61065b9190610ba2565b90508686600181811061067057610670610b15565b90506020020160208101906106859190610b2b565b60405163a9059cbb60e01b81526001600160a01b03878116600483015260248201849052919091169063a9059cbb906044016020604051808303816000875af11580156106d6573d6000803e3d6000fd5b505050506040513d601f19601f820116820180604052508101906106fa9190610b4d565b506040805160028082526060820183529091602083019080368337019050509250818360008151811061072f5761072f610b15565b602002602001018181525050808360018151811061074f5761074f610b15565b602002602001018181525050505095945050505050565b60608167ffffffffffffffff81111561078157610781610bc4565b6040519080825280602002602001820160405280156107aa578160200160208202803683370190505b50905083816000815181106107c1576107c1610b15565b60209081029190910101528360015b8381101561093e57600081600114801561082b5750735555555555555555555555555555555555555555868660008161080b5761080b610b15565b90506020020160208101906108209190610b2b565b6001600160a01b0316145b9050600061083a600187610bda565b8314801561088a575073555555555555555555555555555555555555555587878581811061086a5761086a610b15565b905060200201602081019061087f9190610b2b565b6001600160a01b0316145b905081156108c557670de0b6b3a76400006108a7856103e8610b85565b6108b490620f4240610b85565b6108be9190610ba2565b93506108ef565b80156108ef57633b9aca006108e285670de0b6b3a7640000610b85565b6108ec9190610ba2565b93505b6103e86108fe856103e3610b85565b6109089190610ba2565b93508385848151811061091d5761091d610b15565b6020026020010181815250505050808061093690610bed565b9150506107d0565b50509392505050565b60008083601f84011261095957600080fd5b50813567ffffffffffffffff81111561097157600080fd5b6020830191508360208260051b850101111561098c57600080fd5b9250929050565b80356001600160a01b03811681146109aa57600080fd5b919050565b60008060008060008060a087890312156109c857600080fd5b8635955060208701359450604087013567ffffffffffffffff8111156109ed57600080fd5b6109f989828a01610947565b9095509350610a0c905060608801610993565b9150608087013590509295509295509295565b6020808252825182820181905260009190848201906040850190845b81811015610a5757835183529284019291840191600101610a3b565b50909695505050505050565b600080600080600060808688031215610a7b57600080fd5b85359450602086013567ffffffffffffffff811115610a9957600080fd5b610aa588828901610947565b9095509350610ab8905060408701610993565b949793965091946060013592915050565b600080600060408486031215610ade57600080fd5b83359250602084013567ffffffffffffffff811115610afc57600080fd5b610b0886828701610947565b9497909650939450505050565b634e487b7160e01b600052603260045260246000fd5b600060208284031215610b3d57600080fd5b610b4682610993565b9392505050565b600060208284031215610b5f57600080fd5b81518015158114610b4657600080fd5b634e487b7160e01b600052601160045260246000fd5b8082028115828204841417610b9c57610b9c610b6f565b92915050565b600082610bbf57634e487b7160e01b600052601260045260246000fd5b500490565b634e487b7160e01b600052604160045260246000fd5b81810381811115610b9c57610b9c610b6f565b600060018201610bff57610bff610b6f565b506001019056fea2646970667358221220e7393637e31651cbb91b5587654e74bbc81ed095f58176396d638bb8a6cd7ad664736f6c63430008140033","opcodes":"PUSH1 0x80 PUSH1 0x40 MSTORE CALLVALUE DUP1 ISZERO PUSH2 0x10 JUMPI PUSH1 0x0 DUP1 REVERT JUMPDEST POP PUSH1 0x40 MLOAD PUSH2 0xD1B CODESIZE SUB DUP1 PUSH2 0xD1B DUP4 CODECOPY DUP2 ADD PUSH1 0x40 DUP2 SWAP1 MSTORE PUSH2 0x2F SWAP2 PUSH2 0x8D JUMP JUMPDEST PUSH1 0x0 DUP1 SLOAD PUSH1 0x1 PUSH1 0x1 PUSH1 0xA0 SHL SUB SWAP5 DUP6 AND PUSH1 0x1 PUSH1 0x1 PUSH1 0xA0 SHL SUB NOT SWAP2 DUP3 AND OR SWAP1 SWAP2 SSTORE PUSH1 0x1 DUP1 SLOAD SWAP4 DUP6 AND SWAP4 DUP3 AND SWAP4 SWAP1 SWAP4 OR SWAP1 SWAP3 SSTORE PUSH1 0x2 DUP1 SLOAD SWAP2 SWAP1 SWAP4 AND SWAP2 AND OR SWAP1 SSTORE PUSH2 0xD0 JUMP JUMPDEST DUP1 MLOAD PUSH1 0x1 PUSH1 0x1 PUSH1 0xA0 SHL SUB DUP2 AND DUP2 EQ PUSH2 0x88 JUMPI PUSH1 0x0 DUP1 REVERT JUMPDEST SWAP2 SWAP1 POP JUMP JUMPDEST PUSH1 0x0 DUP1 PUSH1 0x0 PUSH1 0x60 DUP5 DUP7 SUB SLT ISZERO PUSH2 0xA2 JUMPI PUSH1 0x0 DUP1 REVERT JUMPDEST PUSH2 0xAB DUP5 PUSH2 0x71 JUMP JUMPDEST SWAP3 POP PUSH2 0xB9 PUSH1 0x20 DUP6 ADD PUSH2 0x71 JUMP JUMPDEST SWAP2 POP PUSH2 0xC7 PUSH1 0x40 DUP6 ADD PUSH2 0x71 JUMP JUMPDEST SWAP1 POP SWAP3 POP SWAP3 POP SWAP3 JUMP JUMPDEST PUSH2 0xC3C DUP1 PUSH2 0xDF PUSH1 0x0 CODECOPY PUSH1 0x0 RETURN INVALID PUSH1 0x80 PUSH1 0x40 MSTORE PUSH1 0x4 CALLDATASIZE LT PUSH2 0x74 JUMPI PUSH1 0x0 CALLDATALOAD PUSH1 0xE0 SHR DUP1 PUSH4 0x6ECF9F7B GT PUSH2 0x4E JUMPI DUP1 PUSH4 0x6ECF9F7B EQ PUSH2 0x10E JUMPI DUP1 PUSH4 0x7FF36AB5 EQ PUSH2 0x12E JUMPI DUP1 PUSH4 0xA9D3C87F EQ PUSH2 0x141 JUMPI DUP1 PUSH4 0xD06CA61F EQ PUSH2 0x161 JUMPI PUSH1 0x0 DUP1 REVERT JUMPDEST DUP1 PUSH4 0x18CBAFE5 EQ PUSH2 0x80 JUMPI DUP1 PUSH4 0x38ED1739 EQ PUSH2 0xB6 JUMPI DUP1 PUSH4 0x3E413BEE EQ PUSH2 0xD6 JUMPI PUSH1 0x0 DUP1 REVERT JUMPDEST CALLDATASIZE PUSH2 0x7B JUMPI STOP JUMPDEST PUSH1 0x0 DUP1 REVERT JUMPDEST CALLVALUE DUP1 ISZERO PUSH2 0x8C JUMPI PUSH1 0x0 DUP1 REVERT JUMPDEST POP PUSH2 0xA0 PUSH2 0x9B CALLDATASIZE PUSH1 0x4 PUSH2 0x9AF JUMP JUMPDEST PUSH2 0x181 JUMP JUMPDEST PUSH1 0x40 MLOAD PUSH2 0xAD SWAP2 SWAP1 PUSH2 0xA1F JUMP JUMPDEST PUSH1 0x40 MLOAD DUP1 SWAP2 SUB SWAP1 RETURN JUMPDEST CALLVALUE DUP1 ISZERO PUSH2 0xC2 JUMPI PUSH1 0x0 DUP1 REVERT JUMPDEST POP PUSH2 0xA0 PUSH2 0xD1 CALLDATASIZE PUSH1 0x4 PUSH2 0x9AF JUMP JUMPDEST PUSH2 0x40F JUMP JUMPDEST CALLVALUE DUP1 ISZERO PUSH2 0xE2 JUMPI PUSH1 0x0 DUP1 REVERT JUMPDEST POP PUSH1 0x0 SLOAD PUSH2 0xF6 SWAP1 PUSH1 0x1 PUSH1 0x1 PUSH1 0xA0 SHL SUB AND DUP2 JUMP JUMPDEST PUSH1 0x40 MLOAD PUSH1 0x1 PUSH1 0x1 PUSH1 0xA0 SHL SUB SWAP1 SWAP2 AND DUP2 MSTORE PUSH1 0x20 ADD PUSH2 0xAD JUMP JUMPDEST CALLVALUE DUP1 ISZERO PUSH2 0x11A JUMPI PUSH1 0x0 DUP1 REVERT JUMPDEST POP PUSH1 0x2 SLOAD PUSH2 0xF6 SWAP1 PUSH1 0x1 PUSH1 0x1 PUSH1 0xA0 SHL SUB AND DUP2 JUMP JUMPDEST PUSH2 0xA0 PUSH2 0x13C CALLDATASIZE PUSH1 0x4 PUSH2 0xA63 JUMP JUMPDEST PUSH2 0x60F JUMP JUMPDEST CALLVALUE DUP1 ISZERO PUSH2 0x14D JUMPI PUSH1 0x0 DUP1 REVERT JUMPDEST POP PUSH1 0x1 SLOAD PUSH2 0xF6 SWAP1 PUSH1 0x1 PUSH1 0x1 PUSH1 0xA0 SHL SUB AND DUP2 JUMP JUMPDEST CALLVALUE DUP1 ISZERO PUSH2 0x16D JUMPI PUSH1 0x0 DUP1 REVERT JUMPDEST POP PUSH2 0xA0 PUSH2 0x17C CALLDATASIZE PUSH1 0x4 PUSH2 0xAC9 JUMP JUMPDEST PUSH2 0x766 JUMP JUMPDEST PUSH1 0x60 DUP5 DUP5 PUSH1 0x0 DUP2 DUP2 LT PUSH2 0x196 JUMPI PUSH2 0x196 PUSH2 0xB15 JUMP JUMPDEST SWAP1 POP PUSH1 0x20 MUL ADD PUSH1 0x20 DUP2 ADD SWAP1 PUSH2 0x1AB SWAP2 SWAP1 PUSH2 0xB2B JUMP JUMPDEST PUSH1 0x40 MLOAD PUSH4 0x23B872DD PUSH1 0xE0 SHL DUP2 MSTORE CALLER PUSH1 0x4 DUP3 ADD MSTORE ADDRESS PUSH1 0x24 DUP3 ADD MSTORE PUSH1 0x44 DUP2 ADD DUP10 SWAP1 MSTORE PUSH1 0x1 PUSH1 0x1 PUSH1 0xA0 SHL SUB SWAP2 SWAP1 SWAP2 AND SWAP1 PUSH4 0x23B872DD SWAP1 PUSH1 0x64 ADD PUSH1 0x20 PUSH1 0x40 MLOAD DUP1 DUP4 SUB DUP2 PUSH1 0x0 DUP8 GAS CALL ISZERO DUP1 ISZERO PUSH2 0x200 JUMPI RETURNDATASIZE PUSH1 0x0 DUP1 RETURNDATACOPY RETURNDATASIZE PUSH1 0x0 REVERT JUMPDEST POP POP POP POP PUSH1 0x40 MLOAD RETURNDATASIZE PUSH1 0x1F NOT PUSH1 0x1F DUP3 ADD AND DUP3 ADD DUP1 PUSH1 0x40 MSTORE POP DUP2 ADD SWAP1 PUSH2 0x224 SWAP2 SWAP1 PUSH2 0xB4D JUMP JUMPDEST POP PUSH1 0x0 PUSH4 0x3B9ACA00 PUSH2 0x23E DUP10 PUSH8 0xDE0B6B3A7640000 PUSH2 0xB85 JUMP JUMPDEST PUSH2 0x248 SWAP2 SWAP1 PUSH2 0xBA2 JUMP JUMPDEST SWAP1 POP PUSH2 0x3E8 PUSH2 0x259 DUP3 PUSH2 0x3E3 PUSH2 0xB85 JUMP JUMPDEST PUSH2 0x263 SWAP2 SWAP1 PUSH2 0xBA2 JUMP JUMPDEST SWAP1 POP DUP1 SELFBALANCE LT ISZERO PUSH2 0x2BA JUMPI PUSH1 0x40 MLOAD PUSH3 0x461BCD PUSH1 0xE5 SHL DUP2 MSTORE PUSH1 0x20 PUSH1 0x4 DUP3 ADD MSTORE PUSH1 0x18 PUSH1 0x24 DUP3 ADD MSTORE PUSH32 0x526F757465723A20496E73756666696369656E74204554480000000000000000 PUSH1 0x44 DUP3 ADD MSTORE PUSH1 0x64 ADD JUMPDEST PUSH1 0x40 MLOAD DUP1 SWAP2 SUB SWAP1 REVERT JUMPDEST DUP7 DUP2 LT ISZERO PUSH2 0x30A JUMPI PUSH1 0x40 MLOAD PUSH3 0x461BCD PUSH1 0xE5 SHL DUP2 MSTORE PUSH1 0x20 PUSH1 0x4 DUP3 ADD MSTORE PUSH1 0x1B PUSH1 0x24 DUP3 ADD MSTORE PUSH32 0x526F757465723A20496E73756666696369656E74206F75747075740000000000 PUSH1 0x44 DUP3 ADD MSTORE PUSH1 0x64 ADD PUSH2 0x2B1 JUMP JUMPDEST PUSH1 0x0 DUP5 PUSH1 0x1 PUSH1 0x1 PUSH1 0xA0 SHL SUB AND DUP3 PUSH1 0x40 MLOAD PUSH1 0x0 PUSH1 0x40 MLOAD DUP1 DUP4 SUB DUP2 DUP6 DUP8 GAS CALL SWAP3 POP POP POP RETURNDATASIZE DUP1 PUSH1 0x0 DUP2 EQ PUSH2 0x357 JUMPI PUSH1 0x40 MLOAD SWAP2 POP PUSH1 0x1F NOT PUSH1 0x3F RETURNDATASIZE ADD AND DUP3 ADD PUSH1 0x40 MSTORE RETURNDATASIZE DUP3 MSTORE RETURNDATASIZE PUSH1 0x0 PUSH1 0x20 DUP5 ADD RETURNDATACOPY PUSH2 0x35C JUMP JUMPDEST PUSH1 0x60 SWAP2 POP JUMPDEST POP POP SWAP1 POP DUP1 PUSH2 0x3A3 JUMPI PUSH1 0x40 MLOAD PUSH3 0x461BCD PUSH1 0xE5 SHL DUP2 MSTORE PUSH1 0x20 PUSH1 0x4 DUP3 ADD MSTORE PUSH1 0x13 PUSH1 0x24 DUP3 ADD MSTORE PUSH19 0x115512081D1C985B9CD9995C8819985A5B1959 PUSH1 0x6A SHL PUSH1 0x44 DUP3 ADD MSTORE PUSH1 0x64 ADD PUSH2 0x2B1 JUMP JUMPDEST PUSH1 0x40 DUP1 MLOAD PUSH1 0x2 DUP1 DUP3 MSTORE PUSH1 0x60 DUP3 ADD DUP4 MSTORE SWAP1 SWAP2 PUSH1 0x20 DUP4 ADD SWAP1 DUP1 CALLDATASIZE DUP4 CALLDATACOPY ADD SWAP1 POP POP SWAP3 POP DUP9 DUP4 PUSH1 0x0 DUP2 MLOAD DUP2 LT PUSH2 0x3D7 JUMPI PUSH2 0x3D7 PUSH2 0xB15 JUMP JUMPDEST PUSH1 0x20 MUL PUSH1 0x20 ADD ADD DUP2 DUP2 MSTORE POP POP DUP2 DUP4 PUSH1 0x1 DUP2 MLOAD DUP2 LT PUSH2 0x3F7 JUMPI PUSH2 0x3F7 PUSH2 0xB15 JUMP JUMPDEST PUSH1 0x20 MUL PUSH1 0x20 ADD ADD DUP2 DUP2 MSTORE POP POP POP POP SWAP7 SWAP6 POP POP POP POP POP POP JUMP JUMPDEST PUSH1 0x60 DUP5 DUP5 PUSH1 0x0 DUP2 DUP2 LT PUSH2 0x424 JUMPI PUSH2 0x424 PUSH2 0xB15 JUMP JUMPDEST SWAP1 POP PUSH1 0x20 MUL ADD PUSH1 0x20 DUP2 ADD SWAP1 PUSH2 0x439 SWAP2 SWAP1 PUSH2 0xB2B JUMP JUMPDEST PUSH1 0x40 MLOAD PUSH4 0x23B872DD PUSH1 0xE0 SHL DUP2 MSTORE CALLER PUSH1 0x4 DUP3 ADD MSTORE ADDRESS PUSH1 0x24 DUP3 ADD MSTORE PUSH1 0x44 DUP2 ADD DUP10 SWAP1 MSTORE PUSH1 0x1 PUSH1 0x1 PUSH1 0xA0 SHL SUB SWAP2 SWAP1 SWAP2 AND SWAP1 PUSH4 0x23B872DD SWAP1 PUSH1 0x64 ADD PUSH1 0x20 PUSH1 0x40 MLOAD DUP1 DUP4 SUB DUP2 PUSH1 0x0 DUP8 GAS CALL ISZERO DUP1 ISZERO PUSH2 0x48E JUMPI RETURNDATASIZE PUSH1 0x0 DUP1 RETURNDATACOPY RETURNDATASIZE PUSH1 0x0 REVERT JUMPDEST POP POP POP POP PUSH1 0x40 MLOAD RETURNDATASIZE PUSH1 0x1F NOT PUSH1 0x1F DUP3 ADD AND DUP3 ADD DUP1 PUSH1 0x40 MSTORE POP DUP2 ADD SWAP1 PUSH2 0x4B2 SWAP2 SWAP1 PUSH2 0xB4D JUMP JUMPDEST POP PUSH1 0x0 PUSH2 0x3E8 PUSH2 0x4C4 DUP10 PUSH2 0x3E3 PUSH2 0xB85 JUMP JUMPDEST PUSH2 0x4CE SWAP2 SWAP1 PUSH2 0xBA2 JUMP JUMPDEST SWAP1 POP DUP6 DUP6 PUSH2 0x4DD PUSH1 0x1 DUP3 PUSH2 0xBDA JUMP JUMPDEST DUP2 DUP2 LT PUSH2 0x4EC JUMPI PUSH2 0x4EC PUSH2 0xB15 JUMP JUMPDEST SWAP1 POP PUSH1 0x20 MUL ADD PUSH1 0x20 DUP2 ADD SWAP1 PUSH2 0x501 SWAP2 SWAP1 PUSH2 0xB2B JUMP JUMPDEST PUSH1 0x40 MLOAD PUSH4 0xA9059CBB PUSH1 0xE0 SHL DUP2 MSTORE PUSH1 0x1 PUSH1 0x1 PUSH1 0xA0 SHL SUB DUP7 DUP2 AND PUSH1 0x4 DUP4 ADD MSTORE PUSH1 0x24 DUP3 ADD DUP5 SWAP1 MSTORE SWAP2 SWAP1 SWAP2 AND SWAP1 PUSH4 0xA9059CBB SWAP1 PUSH1 0x44 ADD PUSH1 0x20 PUSH1 0x40 MLOAD DUP1 DUP4 SUB DUP2 PUSH1 0x0 DUP8 GAS CALL ISZERO DUP1 ISZERO PUSH2 0x552 JUMPI RETURNDATASIZE PUSH1 0x0 DUP1 RETURNDATACOPY RETURNDATASIZE PUSH1 0x0 REVERT JUMPDEST POP POP POP POP PUSH1 0x40 MLOAD RETURNDATASIZE PUSH1 0x1F NOT PUSH1 0x1F DUP3 ADD AND DUP3 ADD DUP1 PUSH1 0x40 MSTORE POP DUP2 ADD SWAP1 PUSH2 0x576 SWAP2 SWAP1 PUSH2 0xB4D JUMP JUMPDEST POP DUP5 PUSH8 0xFFFFFFFFFFFFFFFF DUP2 GT ISZERO PUSH2 0x590 JUMPI PUSH2 0x590 PUSH2 0xBC4 JUMP JUMPDEST PUSH1 0x40 MLOAD SWAP1 DUP1 DUP3 MSTORE DUP1 PUSH1 0x20 MUL PUSH1 0x20 ADD DUP3 ADD PUSH1 0x40 MSTORE DUP1 ISZERO PUSH2 0x5B9 JUMPI DUP2 PUSH1 0x20 ADD PUSH1 0x20 DUP3 MUL DUP1 CALLDATASIZE DUP4 CALLDATACOPY ADD SWAP1 POP JUMPDEST POP SWAP2 POP DUP8 DUP3 PUSH1 0x0 DUP2 MLOAD DUP2 LT PUSH2 0x5D0 JUMPI PUSH2 0x5D0 PUSH2 0xB15 JUMP JUMPDEST PUSH1 0x20 SWAP1 DUP2 MUL SWAP2 SWAP1 SWAP2 ADD ADD MSTORE DUP1 DUP3 PUSH2 0x5E8 PUSH1 0x1 DUP9 PUSH2 0xBDA JUMP JUMPDEST DUP2 MLOAD DUP2 LT PUSH2 0x5F8 JUMPI PUSH2 0x5F8 PUSH2 0xB15 JUMP JUMPDEST PUSH1 0x20 MUL PUSH1 0x20 ADD ADD DUP2 DUP2 MSTORE POP POP POP SWAP7 SWAP6 POP POP POP POP POP POP JUMP JUMPDEST PUSH1 0x60 CALLVALUE PUSH1 0x0 PUSH8 0xDE0B6B3A7640000 PUSH2 0x629 DUP4 PUSH2 0x3E8 PUSH2 0xB85 JUMP JUMPDEST PUSH2 0x636 SWAP1 PUSH3 0xF4240 PUSH2 0xB85 JUMP JUMPDEST PUSH2 0x640 SWAP2 SWAP1 PUSH2 0xBA2 JUMP JUMPDEST SWAP1 POP PUSH2 0x3E8 PUSH2 0x651 DUP3 PUSH2 0x3E3 PUSH2 0xB85 JUMP JUMPDEST PUSH2 0x65B SWAP2 SWAP1 PUSH2 0xBA2 JUMP JUMPDEST SWAP1 POP DUP7 DUP7 PUSH1 0x1 DUP2 DUP2 LT PUSH2 0x670 JUMPI PUSH2 0x670 PUSH2 0xB15 JUMP JUMPDEST SWAP1 POP PUSH1 0x20 MUL ADD PUSH1 0x20 DUP2 ADD SWAP1 PUSH2 0x685 SWAP2 SWAP1 PUSH2 0xB2B JUMP JUMPDEST PUSH1 0x40 MLOAD PUSH4 0xA9059CBB PUSH1 0xE0 SHL DUP2 MSTORE PUSH1 0x1 PUSH1 0x1 PUSH1 0xA0 SHL SUB DUP8 DUP2 AND PUSH1 0x4 DUP4 ADD MSTORE PUSH1 0x24 DUP3 ADD DUP5 SWAP1 MSTORE SWAP2 SWAP1 SWAP2 AND SWAP1 PUSH4 0xA9059CBB SWAP1 PUSH1 0x44 ADD PUSH1 0x20 PUSH1 0x40 MLOAD DUP1 DUP4 SUB DUP2 PUSH1 0x0 DUP8 GAS CALL ISZERO DUP1 ISZERO PUSH2 0x6D6 JUMPI RETURNDATASIZE PUSH1 0x0 DUP1 RETURNDATACOPY RETURNDATASIZE PUSH1 0x0 REVERT JUMPDEST POP POP POP POP PUSH1 0x40 MLOAD RETURNDATASIZE PUSH1 0x1F NOT PUSH1 0x1F DUP3 ADD AND DUP3 ADD DUP1 PUSH1 0x40 MSTORE POP DUP2 ADD SWAP1 PUSH2 0x6FA SWAP2 SWAP1 PUSH2 0xB4D JUMP JUMPDEST POP PUSH1 0x40 DUP1 MLOAD PUSH1 0x2 DUP1 DUP3 MSTORE PUSH1 0x60 DUP3 ADD DUP4 MSTORE SWAP1 SWAP2 PUSH1 0x20 DUP4 ADD SWAP1 DUP1 CALLDATASIZE DUP4 CALLDATACOPY ADD SWAP1 POP POP SWAP3 POP DUP2 DUP4 PUSH1 0x0 DUP2 MLOAD DUP2 LT PUSH2 0x72F JUMPI PUSH2 0x72F PUSH2 0xB15 JUMP JUMPDEST PUSH1 0x20 MUL PUSH1 0x20 ADD ADD DUP2 DUP2 MSTORE POP POP DUP1 DUP4 PUSH1 0x1 DUP2 MLOAD DUP2 LT PUSH2 0x74F JUMPI PUSH2 0x74F PUSH2 0xB15 JUMP JUMPDEST PUSH1 0x20 MUL PUSH1 0x20 ADD ADD DUP2 DUP2 MSTORE POP POP POP POP SWAP6 SWAP5 POP POP POP POP POP JUMP JUMPDEST PUSH1 0x60 DUP2 PUSH8 0xFFFFFFFFFFFFFFFF DUP2 GT ISZERO PUSH2 0x781 JUMPI PUSH2 0x781 PUSH2 0xBC4 JUMP JUMPDEST PUSH1 0x40 MLOAD SWAP1 DUP1 DUP3 MSTORE DUP1 PUSH1 0x20 MUL PUSH1 0x20 ADD DUP3 ADD PUSH1 0x40 MSTORE DUP1 ISZERO PUSH2 0x7AA JUMPI DUP2 PUSH1 0x20 ADD PUSH1 0x20 DUP3 MUL DUP1 CALLDATASIZE DUP4 CALLDATACOPY ADD SWAP1 POP JUMPDEST POP SWAP1 POP DUP4 DUP2 PUSH1 0x0 DUP2 MLOAD DUP2 LT PUSH2 0x7C1 JUMPI PUSH2 0x7C1 PUSH2 0xB15 JUMP JUMPDEST PUSH1 0x20 SWAP1 DUP2 MUL SWAP2 SWAP1 SWAP2 ADD ADD MSTORE DUP4 PUSH1 0x1 JUMPDEST DUP4 DUP2 LT ISZERO PUSH2 0x93E JUMPI PUSH1 0x0 DUP2 PUSH1 0x1 EQ DUP1 ISZERO PUSH2 0x82B JUMPI POP PUSH20 0x5555555555555555555555555555555555555555 DUP7 DUP7 PUSH1 0x0 DUP2 PUSH2 0x80B JUMPI PUSH2 0x80B PUSH2 0xB15 JUMP JUMPDEST SWAP1 POP PUSH1 0x20 MUL ADD PUSH1 0x20 DUP2 ADD SWAP1 PUSH2 0x820 SWAP2 SWAP1 PUSH2 0xB2B JUMP JUMPDEST PUSH1 0x1 PUSH1 0x1 PUSH1 0xA0 SHL SUB AND EQ JUMPDEST SWAP1 POP PUSH1 0x0 PUSH2 0x83A PUSH1 0x1 DUP8 PUSH2 0xBDA JUMP JUMPDEST DUP4 EQ DUP1 ISZERO PUSH2 0x88A JUMPI POP PUSH20 0x5555555555555555555555555555555555555555 DUP8 DUP8 DUP6 DUP2 DUP2 LT PUSH2 0x86A JUMPI PUSH2 0x86A PUSH2 0xB15 JUMP JUMPDEST SWAP1 POP PUSH1 0x20 MUL ADD PUSH1 0x20 DUP2 ADD SWAP1 PUSH2 0x87F SWAP2 SWAP1 PUSH2 0xB2B JUMP JUMPDEST PUSH1 0x1 PUSH1 0x1 PUSH1 0xA0 SHL SUB AND EQ JUMPDEST SWAP1 POP DUP2 ISZERO PUSH2 0x8C5 JUMPI PUSH8 0xDE0B6B3A7640000 PUSH2 0x8A7 DUP6 PUSH2 0x3E8 PUSH2 0xB85 JUMP JUMPDEST PUSH2 0x8B4 SWAP1 PUSH3 0xF4240 PUSH2 0xB85 JUMP JUMPDEST PUSH2 0x8BE SWAP2 SWAP1 PUSH2 0xBA2 JUMP JUMPDEST SWAP4 POP PUSH2 0x8EF JUMP JUMPDEST DUP1 ISZERO PUSH2 0x8EF JUMPI PUSH4 0x3B9ACA00 PUSH2 0x8E2 DUP6 PUSH8 0xDE0B6B3A7640000 PUSH2 0xB85 JUMP JUMPDEST PUSH2 0x8EC SWAP2 SWAP1 PUSH2 0xBA2 JUMP JUMPDEST SWAP4 POP JUMPDEST PUSH2 0x3E8 PUSH2 0x8FE DUP6 PUSH2 0x3E3 PUSH2 0xB85 JUMP JUMPDEST PUSH2 0x908 SWAP2 SWAP1 PUSH2 0xBA2 JUMP JUMPDEST SWAP4 POP DUP4 DUP6 DUP5 DUP2 MLOAD DUP2 LT PUSH2 0x91D JUMPI PUSH2 0x91D PUSH2 0xB15 JUMP JUMPDEST PUSH1 0x20 MUL PUSH1 0x20 ADD ADD DUP2 DUP2 MSTORE POP POP POP POP DUP1 DUP1 PUSH2 0x936 SWAP1 PUSH2 0xBED JUMP JUMPDEST SWAP2 POP POP PUSH2 0x7D0 JUMP JUMPDEST POP POP SWAP4 SWAP3 POP POP POP JUMP JUMPDEST PUSH1 0x0 DUP1 DUP4 PUSH1 0x1F DUP5 ADD SLT PUSH2 0x959 JUMPI PUSH1 0x0 DUP1 REVERT JUMPDEST POP DUP2 CALLDATALOAD PUSH8 0xFFFFFFFFFFFFFFFF DUP2 GT ISZERO PUSH2 0x971 JUMPI PUSH1 0x0 DUP1 REVERT JUMPDEST PUSH1 0x20 DUP4 ADD SWAP2 POP DUP4 PUSH1 0x20 DUP3 PUSH1 0x5 SHL DUP6 ADD ADD GT ISZERO PUSH2 0x98C JUMPI PUSH1 0x0 DUP1 REVERT JUMPDEST SWAP3 POP SWAP3 SWAP1 POP JUMP JUMPDEST DUP1 CALLDATALOAD PUSH1 0x1 PUSH1 0x1 PUSH1 0xA0 SHL SUB DUP2 AND DUP2 EQ PUSH2 0x9AA JUMPI PUSH1 0x0 DUP1 REVERT JUMPDEST SWAP2 SWAP1 POP JUMP JUMPDEST PUSH1 0x0 DUP1 PUSH1 0x0 DUP1 PUSH1 0x0 DUP1 PUSH1 0xA0 DUP8 DUP10 SUB SLT ISZERO PUSH2 0x9C8 JUMPI PUSH1 0x0 DUP1 REVERT JUMPDEST DUP7 CALLDATALOAD SWAP6 POP PUSH1 0x20 DUP8 ADD CALLDATALOAD SWAP5 POP PUSH1 0x40 DUP8 ADD CALLDATALOAD PUSH8 0xFFFFFFFFFFFFFFFF DUP2 GT ISZERO PUSH2 0x9ED JUMPI PUSH1 0x0 DUP1 REVERT JUMPDEST PUSH2 0x9F9 DUP10 DUP3 DUP11 ADD PUSH2 0x947 JUMP JUMPDEST SWAP1 SWAP6 POP SWAP4 POP PUSH2 0xA0C SWAP1 POP PUSH1 0x60 DUP9 ADD PUSH2 0x993 JUMP JUMPDEST SWAP2 POP PUSH1 0x80 DUP8 ADD CALLDATALOAD SWAP1 POP SWAP3 SWAP6 POP SWAP3 SWAP6 POP SWAP3 SWAP6 JUMP JUMPDEST PUSH1 0x20 DUP1 DUP3 MSTORE DUP3 MLOAD DUP3 DUP3 ADD DUP2 SWAP1 MSTORE PUSH1 0x0 SWAP2 SWAP1 DUP5 DUP3 ADD SWAP1 PUSH1 0x40 DUP6 ADD SWAP1 DUP5 JUMPDEST DUP2 DUP2 LT ISZERO PUSH2 0xA57 JUMPI DUP4 MLOAD DUP4 MSTORE SWAP3 DUP5 ADD SWAP3 SWAP2 DUP5 ADD SWAP2 PUSH1 0x1 ADD PUSH2 0xA3B JUMP JUMPDEST POP SWAP1 SWAP7 SWAP6 POP POP POP POP POP POP JUMP JUMPDEST PUSH1 0x0 DUP1 PUSH1 0x0 DUP1 PUSH1 0x0 PUSH1 0x80 DUP7 DUP9 SUB SLT ISZERO PUSH2 0xA7B JUMPI PUSH1 0x0 DUP1 REVERT JUMPDEST DUP6 CALLDATALOAD SWAP5 POP PUSH1 0x20 DUP7 ADD CALLDATALOAD PUSH8 0xFFFFFFFFFFFFFFFF DUP2 GT ISZERO PUSH2 0xA99 JUMPI PUSH1 0x0 DUP1 REVERT JUMPDEST PUSH2 0xAA5 DUP9 DUP3 DUP10 ADD PUSH2 0x947 JUMP JUMPDEST SWAP1 SWAP6 POP SWAP4 POP PUSH2 0xAB8 SWAP1 POP PUSH1 0x40 DUP8 ADD PUSH2 0x993 JUMP JUMPDEST SWAP5 SWAP8 SWAP4 SWAP7 POP SWAP2 SWAP5 PUSH1 0x60 ADD CALLDATALOAD SWAP3 SWAP2 POP POP JUMP JUMPDEST PUSH1 0x0 DUP1 PUSH1 0x0 PUSH1 0x40 DUP5 DUP7 SUB SLT ISZERO PUSH2 0xADE JUMPI PUSH1 0x0 DUP1 REVERT JUMPDEST DUP4 CALLDATALOAD SWAP3 POP PUSH1 0x20 DUP5 ADD CALLDATALOAD PUSH8 0xFFFFFFFFFFFFFFFF DUP2 GT ISZERO PUSH2 0xAFC JUMPI PUSH1 0x0 DUP1 REVERT JUMPDEST PUSH2 0xB08 DUP7 DUP3 DUP8 ADD PUSH2 0x947 JUMP JUMPDEST SWAP5 SWAP8 SWAP1 SWAP7 POP SWAP4 SWAP5 POP POP POP POP JUMP JUMPDEST PUSH4 0x4E487B71 PUSH1 0xE0 SHL PUSH1 0x0 MSTORE PUSH1 0x32 PUSH1 0x4 MSTORE PUSH1 0x24 PUSH1 0x0 REVERT JUMPDEST PUSH1 0x0 PUSH1 0x20 DUP3 DUP5 SUB SLT ISZERO PUSH2 0xB3D JUMPI PUSH1 0x0 DUP1 REVERT JUMPDEST PUSH2 0xB46 DUP3 PUSH2 0x993 JUMP JUMPDEST SWAP4 SWAP3 POP POP POP JUMP JUMPDEST PUSH1 0x0 PUSH1 0x20 DUP3 DUP5 SUB SLT ISZERO PUSH2 0xB5F JUMPI PUSH1 0x0 DUP1 REVERT JUMPDEST DUP2 MLOAD DUP1 ISZERO ISZERO DUP2 EQ PUSH2 0xB46 JUMPI PUSH1 0x0 DUP1 REVERT JUMPDEST PUSH4 0x4E487B71 PUSH1 0xE0 SHL PUSH1 0x0 MSTORE PUSH1 0x11 PUSH1 0x4 MSTORE PUSH1 0x24 PUSH1 0x0 REVERT JUMPDEST DUP1 DUP3 MUL DUP2 ISZERO DUP3 DUP3 DIV DUP5 EQ OR PUSH2 0xB9C JUMPI PUSH2 0xB9C PUSH2 0xB6F JUMP JUMPDEST SWAP3 SWAP2 POP POP JUMP JUMPDEST PUSH1 0x0 DUP3 PUSH2 0xBBF JUMPI PUSH4 0x4E487B71 PUSH1 0xE0 SHL PUSH1 0x0 MSTORE PUSH1 0x12 PUSH1 0x4 MSTORE PUSH1 0x24 PUSH1 0x0 REVERT JUMPDEST POP DIV SWAP1 JUMP JUMPDEST PUSH4 0x4E487B71 PUSH1 0xE0 SHL PUSH1 0x0 MSTORE PUSH1 0x41 PUSH1 0x4 MSTORE PUSH1 0x24 PUSH1 0x0 REVERT JUMPDEST DUP2 DUP2 SUB DUP2 DUP2 GT ISZERO PUSH2 0xB9C JUMPI PUSH2 0xB9C PUSH2 0xB6F JUMP JUMPDEST PUSH1 0x0 PUSH1 0x1 DUP3 ADD PUSH2 0xBFF JUMPI PUSH2 0xBFF PUSH2 0xB6F JUMP JUMPDEST POP PUSH1 0x1 ADD SWAP1 JUMP INVALID LOG2 PUSH5 0x6970667358 0x22 SLT KECCAK256 0xE7 CODECOPY CALLDATASIZE CALLDATACOPY 0xE3 AND MLOAD 0xCB 0xB9 SHL SSTORE DUP8 PUSH6 0x4E74BBC81ED0 SWAP6 CREATE2 DUP2 PUSH23 0x396D638BB8A6CD7AD664736F6C63430008140033000000 "},"methodIdentifiers":{"getAmountsOut(uint256,address[])":"d06ca61f","hype()":"6ecf9f7b","swapExactETHForTokens(uint256,address[],address,uint256)":"7ff36ab5","swapExactTokensForETH(uint256,uint256,address[],address,uint256)":"18cbafe5","swapExactTokensForTokens(uint256,uint256,address[],address,uint256)":"38ed1739","usdc()":"3e413bee","usdt0()":"a9d3c87f"}}}}}