{
  "_format": "hh-sol-artifact-1",
  "contractName": "HyperlendAutoVault",
  "sourceName": "contracts/hyperlend.sol",
  "abi": [
    {
      "inputs": [],
      "stateMutability": "nonpayable",
      "type": "constructor"
    },
    {
      "anonymous": false,
      "inputs": [
        {
          "indexed": true,
          "internalType": "address",
          "name": "user",
          "type": "address"
        },
        {
          "indexed": true,
          "internalType": "address",
          "name": "asset",
          "type": "address"
        },
        {
          "indexed": false,
          "internalType": "uint256",
          "name": "amount",
          "type": "uint256"
        }
      ],
      "name": "Borrowed",
      "type": "event"
    },
    {
      "anonymous": false,
      "inputs": [
        {
          "indexed": true,
          "internalType": "address",
          "name": "user",
          "type": "address"
        },
        {
          "indexed": true,
          "internalType": "address",
          "name": "asset",
          "type": "address"
        },
        {
          "indexed": false,
          "internalType": "uint256",
          "name": "amount",
          "type": "uint256"
        }
      ],
      "name": "Deposited",
      "type": "event"
    },
    {
      "anonymous": false,
      "inputs": [
        {
          "indexed": true,
          "internalType": "address",
          "name": "user",
          "type": "address"
        },
        {
          "indexed": true,
          "internalType": "address",
          "name": "asset",
          "type": "address"
        },
        {
          "indexed": false,
          "internalType": "uint256",
          "name": "amount",
          "type": "uint256"
        }
      ],
      "name": "Repaid",
      "type": "event"
    },
    {
      "anonymous": false,
      "inputs": [
        {
          "indexed": true,
          "internalType": "address",
          "name": "user",
          "type": "address"
        },
        {
          "indexed": true,
          "internalType": "address",
          "name": "asset",
          "type": "address"
        },
        {
          "indexed": false,
          "internalType": "uint256",
          "name": "amount",
          "type": "uint256"
        }
      ],
      "name": "Withdrawn",
      "type": "event"
    },
    {
      "inputs": [],
      "name": "HYPERLEND_ORACLE",
      "outputs": [
        {
          "internalType": "address",
          "name": "",
          "type": "address"
        }
      ],
      "stateMutability": "view",
      "type": "function"
    },
    {
      "inputs": [],
      "name": "HYPERLEND_POOL",
      "outputs": [
        {
          "internalType": "address",
          "name": "",
          "type": "address"
        }
      ],
      "stateMutability": "view",
      "type": "function"
    },
    {
      "inputs": [],
      "name": "PROTOCOL_DATA_PROVIDER",
      "outputs": [
        {
          "internalType": "address",
          "name": "",
          "type": "address"
        }
      ],
      "stateMutability": "view",
      "type": "function"
    },
    {
      "inputs": [],
      "name": "UBTC",
      "outputs": [
        {
          "internalType": "address",
          "name": "",
          "type": "address"
        }
      ],
      "stateMutability": "view",
      "type": "function"
    },
    {
      "inputs": [],
      "name": "UETH",
      "outputs": [
        {
          "internalType": "address",
          "name": "",
          "type": "address"
        }
      ],
      "stateMutability": "view",
      "type": "function"
    },
    {
      "inputs": [],
      "name": "USDHL",
      "outputs": [
        {
          "internalType": "address",
          "name": "",
          "type": "address"
        }
      ],
      "stateMutability": "view",
      "type": "function"
    },
    {
      "inputs": [],
      "name": "USDT0",
      "outputs": [
        {
          "internalType": "address",
          "name": "",
          "type": "address"
        }
      ],
      "stateMutability": "view",
      "type": "function"
    },
    {
      "inputs": [],
      "name": "USDe",
      "outputs": [
        {
          "internalType": "address",
          "name": "",
          "type": "address"
        }
      ],
      "stateMutability": "view",
      "type": "function"
    },
    {
      "inputs": [],
      "name": "WHYPE",
      "outputs": [
        {
          "internalType": "address",
          "name": "",
          "type": "address"
        }
      ],
      "stateMutability": "view",
      "type": "function"
    },
    {
      "inputs": [
        {
          "internalType": "address",
          "name": "asset",
          "type": "address"
        },
        {
          "internalType": "uint256",
          "name": "amount",
          "type": "uint256"
        }
      ],
      "name": "borrow",
      "outputs": [],
      "stateMutability": "nonpayable",
      "type": "function"
    },
    {
      "inputs": [
        {
          "internalType": "address",
          "name": "asset",
          "type": "address"
        },
        {
          "internalType": "uint256",
          "name": "amount",
          "type": "uint256"
        }
      ],
      "name": "deposit",
      "outputs": [],
      "stateMutability": "nonpayable",
      "type": "function"
    },
    {
      "inputs": [],
      "name": "displayMarkets",
      "outputs": [
        {
          "internalType": "address[]",
          "name": "assets",
          "type": "address[]"
        },
        {
          "internalType": "uint256[]",
          "name": "apys",
          "type": "uint256[]"
        },
        {
          "internalType": "uint256[]",
          "name": "ltvs",
          "type": "uint256[]"
        }
      ],
      "stateMutability": "view",
      "type": "function"
    },
    {
      "inputs": [],
      "name": "findBestMarket",
      "outputs": [
        {
          "internalType": "address",
          "name": "bestAsset",
          "type": "address"
        },
        {
          "internalType": "uint256",
          "name": "highestAPY",
          "type": "uint256"
        }
      ],
      "stateMutability": "view",
      "type": "function"
    },
    {
      "inputs": [
        {
          "internalType": "address",
          "name": "asset",
          "type": "address"
        }
      ],
      "name": "getMarketData",
      "outputs": [
        {
          "components": [
            {
              "internalType": "address",
              "name": "asset",
              "type": "address"
            },
            {
              "internalType": "uint256",
              "name": "supplyAPY",
              "type": "uint256"
            },
            {
              "internalType": "uint256",
              "name": "ltv",
              "type": "uint256"
            },
            {
              "internalType": "bool",
              "name": "isActive",
              "type": "bool"
            }
          ],
          "internalType": "struct HyperlendAutoVault.MarketData",
          "name": "",
          "type": "tuple"
        }
      ],
      "stateMutability": "view",
      "type": "function"
    },
    {
      "inputs": [
        {
          "internalType": "address",
          "name": "asset",
          "type": "address"
        }
      ],
      "name": "getSupplyAPY",
      "outputs": [
        {
          "internalType": "uint256",
          "name": "",
          "type": "uint256"
        }
      ],
      "stateMutability": "view",
      "type": "function"
    },
    {
      "inputs": [],
      "name": "getSupportedAssets",
      "outputs": [
        {
          "internalType": "address[]",
          "name": "",
          "type": "address[]"
        }
      ],
      "stateMutability": "pure",
      "type": "function"
    },
    {
      "inputs": [],
      "name": "kHYPE",
      "outputs": [
        {
          "internalType": "address",
          "name": "",
          "type": "address"
        }
      ],
      "stateMutability": "view",
      "type": "function"
    },
    {
      "inputs": [],
      "name": "owner",
      "outputs": [
        {
          "internalType": "address",
          "name": "",
          "type": "address"
        }
      ],
      "stateMutability": "view",
      "type": "function"
    },
    {
      "inputs": [
        {
          "internalType": "address",
          "name": "asset",
          "type": "address"
        },
        {
          "internalType": "uint256",
          "name": "amount",
          "type": "uint256"
        }
      ],
      "name": "repay",
      "outputs": [],
      "stateMutability": "nonpayable",
      "type": "function"
    },
    {
      "inputs": [],
      "name": "sUSDe",
      "outputs": [
        {
          "internalType": "address",
          "name": "",
          "type": "address"
        }
      ],
      "stateMutability": "view",
      "type": "function"
    },
    {
      "inputs": [],
      "name": "totalShares",
      "outputs": [
        {
          "internalType": "uint256",
          "name": "",
          "type": "uint256"
        }
      ],
      "stateMutability": "view",
      "type": "function"
    },
    {
      "inputs": [
        {
          "internalType": "address",
          "name": "",
          "type": "address"
        }
      ],
      "name": "userActiveMarket",
      "outputs": [
        {
          "internalType": "address",
          "name": "",
          "type": "address"
        }
      ],
      "stateMutability": "view",
      "type": "function"
    },
    {
      "inputs": [
        {
          "internalType": "address",
          "name": "",
          "type": "address"
        }
      ],
      "name": "userShares",
      "outputs": [
        {
          "internalType": "uint256",
          "name": "",
          "type": "uint256"
        }
      ],
      "stateMutability": "view",
      "type": "function"
    },
    {
      "inputs": [
        {
          "internalType": "uint256",
          "name": "amount",
          "type": "uint256"
        }
      ],
      "name": "withdraw",
      "outputs": [],
      "stateMutability": "nonpayable",
      "type": "function"
    },
    {
      "inputs": [],
      "name": "wstHYPE",
      "outputs": [
        {
          "internalType": "address",
          "name": "",
          "type": "address"
        }
      ],
      "stateMutability": "view",
      "type": "function"
    }
  ],
  "bytecode": "0x608060405234801561001057600080fd5b50600080546001600160a01b031916331790556115ad806100326000396000f3fe608060405234801561001057600080fd5b50600436106101735760003560e01c806362717301116100de578063a30c302d11610097578063de69b3aa11610071578063de69b3aa146103d6578063e0d05d39146103f6578063e3d7dd9914610411578063e5406dbf1461043857600080fd5b8063a30c302d14610350578063ae0fd73e146103a1578063d1609502146103bb57600080fd5b806362717301146102ba57806371f39cd5146102d157806382d2dcfb146102ec57806386d4c423146103075780638c57a5c7146103225780638da5cb5b1461033d57600080fd5b80633fc3b320116101305780633fc3b3201461022a57806347e7ef2414610245578063483378cc146102585780634b8a3529146102715780634d1a7dee1461028457806359f613a41461029f57600080fd5b80631f985adf1461017857806322867d78146101be57806322d5386c146101d35780632e1a7d4d146101ed5780633842ea42146102005780633a98ef3914610221575b600080fd5b6101a1610186366004611249565b6002602052600090815260409020546001600160a01b031681565b6040516001600160a01b0390911681526020015b60405180910390f35b6101d16101cc36600461126b565b61044d565b005b73c9fb4fbe842d57eac1df3e641a281827493a630e6101a1565b6101d16101fb366004611295565b610646565b61021361020e366004611249565b6107c9565b6040519081526020016101b5565b61021360035481565b6101a173fd739d4e423301ce9385c1fb8850539d657c296d81565b6101d161025336600461126b565b610896565b72a89d7a5a02160f20150ebea7a2b5e4879a1a8b6101a1565b6101d161027f36600461126b565b610b0b565b6101a173b8ce59fc3717ada4c02eadf9682a9e934f625ebb81565b6101a173555555555555555555555555555555555555555581565b6102c2610c20565b6040516101b593929190611322565b6101a17394e8396e0869c9f2200760af0621afd240e1cf3881565b6101a173be6727b535545c67d5caa73dea54865b92cf790781565b6101a1739fdbda0a5e284c32744d2f17ee5c74b28499346381565b6101a173b50a96253abdf803d85efcdce07ad8becbc52bd581565b6000546101a1906001600160a01b031681565b61036361035e366004611249565b610dcb565b6040516101b5919081516001600160a01b03168152602080830151908201526040808301519082015260609182015115159181019190915260800190565b735481bf8d3946e6a3168640c1d7523eb59f055a296101a1565b6101a1735d3a1ff2b6bab83b63cd9ad0787074081a52ef3481565b6102136103e4366004611249565b60016020526000908152604090205481565b6101a173211cc4dd073734da055fbf44a2b4667d5e5fe5d281565b610419610ee1565b604080516001600160a01b0390931683526020830191909152016101b5565b610440610f84565b6040516101b59190611365565b6040516323b872dd60e01b8152336004820152306024820152604481018290526001600160a01b038316906323b872dd906064016020604051808303816000875af11580156104a0573d6000803e3d6000fd5b505050506040513d601f19601f820116820180604052508101906104c49190611388565b506001600160a01b03821663095ea7b372a89d7a5a02160f20150ebea7a2b5e4879a1a8b6040516001600160e01b031960e084901b1681526001600160a01b039091166004820152602481018490526044016020604051808303816000875af1158015610535573d6000803e3d6000fd5b505050506040513d601f19601f820116820180604052508101906105599190611388565b50600072a89d7a5a02160f20150ebea7a2b5e4879a1a8b60405163573ade8160e01b81526001600160a01b0385811660048301526024820185905260026044830152306064830152919091169063573ade81906084016020604051808303816000875af11580156105ce573d6000803e3d6000fd5b505050506040513d601f19601f820116820180604052508101906105f291906113a3565b9050826001600160a01b0316336001600160a01b03167f0a3fbbea70e93f2daafa3102f5c9a1b8315e6d7a1e43e4bc020bc1162327470a8360405161063991815260200190565b60405180910390a3505050565b336000908152600260209081526040808320546001909252909120546001600160a01b03909116908211156106b95760405162461bcd60e51b8152602060048201526014602482015273496e73756666696369656e742062616c616e636560601b60448201526064015b60405180910390fd5b600072a89d7a5a02160f20150ebea7a2b5e4879a1a8b604051631a4ca37b60e21b81526001600160a01b0384811660048301526024820186905233604483015291909116906369328dec906064016020604051808303816000875af1158015610726573d6000803e3d6000fd5b505050506040513d601f19601f8201168201806040525081019061074a91906113a3565b3360009081526001602052604081208054929350859290919061076e9084906113d2565b92505081905550826003600082825461078791906113d2565b90915550506040518181526001600160a01b0383169033907fd1c19fbcd4551a5edfb66d43d2e337c04837afda3482b42bdf569a8fccdae5fb90602001610639565b6000735481bf8d3946e6a3168640c1d7523eb59f055a296040516335ea6a7560e01b81526001600160a01b03848116600483015291909116906335ea6a759060240161018060405180830381865afa925050508015610845575060408051601f3d908101601f19168201909252610842918101906113eb565b60015b61085157506000919050565b8660000361086d575060009d9c50505050505050505050505050565b6b033b2e3c9fd0803ce800000060648802049e9d5050505050505050505050505050565b919050565b600081116108d45760405162461bcd60e51b815260206004820152600b60248201526a16995c9bc8185b5bdd5b9d60aa1b60448201526064016106b0565b6040516323b872dd60e01b8152336004820152306024820152604481018290526001600160a01b038316906323b872dd906064016020604051808303816000875af1158015610927573d6000803e3d6000fd5b505050506040513d601f19601f8201168201806040525081019061094b9190611388565b506001600160a01b03821663095ea7b372a89d7a5a02160f20150ebea7a2b5e4879a1a8b6040516001600160e01b031960e084901b1681526001600160a01b039091166004820152602481018490526044016020604051808303816000875af11580156109bc573d6000803e3d6000fd5b505050506040513d601f19601f820116820180604052508101906109e09190611388565b5072a89d7a5a02160f20150ebea7a2b5e4879a1a8b60405163617ba03760e01b81526001600160a01b0384811660048301526024820184905230604483015260006064830152919091169063617ba03790608401600060405180830381600087803b158015610a4e57600080fd5b505af1158015610a62573d6000803e3d6000fd5b50503360009081526001602052604081208054859450909250610a86908490611488565b925050819055508060036000828254610a9f9190611488565b90915550503360008181526002602090815260409182902080546001600160a01b0319166001600160a01b03871690811790915591518481529192917f8752a472e571a816aea92eec8dae9baf628e840f4929fbcc2d155e6233ff68a791015b60405180910390a35050565b33600090815260016020526040902054610b575760405162461bcd60e51b815260206004820152600d60248201526c139bc818dbdb1b185d195c985b609a1b60448201526064016106b0565b72a89d7a5a02160f20150ebea7a2b5e4879a1a8b60405163a415bcad60e01b81526001600160a01b038481166004830152602482018490526002604483015260006064830152336084830152919091169063a415bcad9060a401600060405180830381600087803b158015610bcb57600080fd5b505af1158015610bdf573d6000803e3d6000fd5b50506040518381526001600160a01b03851692503391507f3fc499aeb0bb1cb58b6de8b02b3f86f4e7394e9690bef0110e32ced8a563104590602001610aff565b60608060606000610c2f610f84565b9050805167ffffffffffffffff811115610c4b57610c4b61149b565b604051908082528060200260200182016040528015610c74578160200160208202803683370190505b509350805167ffffffffffffffff811115610c9157610c9161149b565b604051908082528060200260200182016040528015610cba578160200160208202803683370190505b509250805167ffffffffffffffff811115610cd757610cd761149b565b604051908082528060200260200182016040528015610d00578160200160208202803683370190505b50915060005b8151811015610dc4576000610d33838381518110610d2657610d266114b1565b6020026020010151610dcb565b90508060000151868381518110610d4c57610d4c6114b1565b60200260200101906001600160a01b031690816001600160a01b0316815250508060200151858381518110610d8357610d836114b1565b6020026020010181815250508060400151848381518110610da657610da66114b1565b60209081029190910101525080610dbc816114c7565b915050610d06565b5050909192565b604080516080810182526000808252602082018190529181018290526060810191909152735481bf8d3946e6a3168640c1d7523eb59f055a29604051633e15014160e01b81526001600160a01b0384811660048301529190911690633e1501419060240161014060405180830381865afa925050508015610e69575060408051601f3d908101601f19168201909252610e66918101906114e0565b60015b610e9c5750604080516080810182526001600160a01b039092168252600060208301819052908201819052606082015290565b60405180608001604052808d6001600160a01b03168152602001610ebf8e6107c9565b81526020018a81526020018315158152509a5050505050505050505050919050565b6000806000610eee610f84565b90506000915080600081518110610f0757610f076114b1565b6020026020010151925060005b8151811015610f7e576000610f41838381518110610f3457610f346114b1565b60200260200101516107c9565b905083811115610f6b57809350828281518110610f6057610f606114b1565b602002602001015194505b5080610f76816114c7565b915050610f14565b50509091565b604080516009808252610140820190925260609160009190602082016101208036833701905050905073b8ce59fc3717ada4c02eadf9682a9e934f625ebb81600081518110610fd557610fd56114b1565b60200260200101906001600160a01b031690816001600160a01b0316815250507355555555555555555555555555555555555555558160018151811061101d5761101d6114b1565b60200260200101906001600160a01b031690816001600160a01b0316815250507394e8396e0869c9f2200760af0621afd240e1cf3881600281518110611065576110656114b1565b60200260200101906001600160a01b031690816001600160a01b031681525050735d3a1ff2b6bab83b63cd9ad0787074081a52ef34816003815181106110ad576110ad6114b1565b60200260200101906001600160a01b031690816001600160a01b03168152505073211cc4dd073734da055fbf44a2b4667d5e5fe5d2816004815181106110f5576110f56114b1565b60200260200101906001600160a01b031690816001600160a01b03168152505073b50a96253abdf803d85efcdce07ad8becbc52bd58160058151811061113d5761113d6114b1565b60200260200101906001600160a01b031690816001600160a01b03168152505073fd739d4e423301ce9385c1fb8850539d657c296d81600681518110611185576111856114b1565b60200260200101906001600160a01b031690816001600160a01b031681525050739fdbda0a5e284c32744d2f17ee5c74b284993463816007815181106111cd576111cd6114b1565b60200260200101906001600160a01b031690816001600160a01b03168152505073be6727b535545c67d5caa73dea54865b92cf790781600881518110611215576112156114b1565b6001600160a01b0390921660209283029190910190910152919050565b80356001600160a01b038116811461089157600080fd5b60006020828403121561125b57600080fd5b61126482611232565b9392505050565b6000806040838503121561127e57600080fd5b61128783611232565b946020939093013593505050565b6000602082840312156112a757600080fd5b5035919050565b600081518084526020808501945080840160005b838110156112e75781516001600160a01b0316875295820195908201906001016112c2565b509495945050505050565b600081518084526020808501945080840160005b838110156112e757815187529582019590820190600101611306565b60608152600061133560608301866112ae565b828103602084015261134781866112f2565b9050828103604084015261135b81856112f2565b9695505050505050565b60208152600061126460208301846112ae565b8051801515811461089157600080fd5b60006020828403121561139a57600080fd5b61126482611378565b6000602082840312156113b557600080fd5b5051919050565b634e487b7160e01b600052601160045260246000fd5b818103818111156113e5576113e56113bc565b92915050565b6000806000806000806000806000806000806101808d8f03121561140e57600080fd5b8c519b5060208d01519a5060408d0151995060608d0151985060808d0151975060a08d0151965060c08d0151955060e08d015194506101008d015193506101208d015192506101408d015191506101608d015164ffffffffff8116811461147457600080fd5b809150509295989b509295989b509295989b565b808201808211156113e5576113e56113bc565b634e487b7160e01b600052604160045260246000fd5b634e487b7160e01b600052603260045260246000fd5b6000600182016114d9576114d96113bc565b5060010190565b6000806000806000806000806000806101408b8d03121561150057600080fd5b8a51995060208b0151985060408b0151975060608b0151965060808b0151955061152c60a08c01611378565b945061153a60c08c01611378565b935061154860e08c01611378565b92506115576101008c01611378565b91506115666101208c01611378565b90509295989b9194979a509295985056fea2646970667358221220d03784421b59fd7c9a9beee4a866d779ab234c59e2ca8a8b773c9900c802c52f64736f6c63430008140033",
  "linkReferences": {},
  "deployedLinkReferences": {}
}