{
  "_format": "hh-sol-artifact-1",
  "contractName": "MockDeBridgeGate",
  "sourceName": "contracts/mocks/MockDeBridgeGate.sol",
  "abi": [
    {
      "inputs": [
        {
          "internalType": "uint256",
          "name": "",
          "type": "uint256"
        }
      ],
      "name": "getChainFee",
      "outputs": [
        {
          "internalType": "uint256",
          "name": "",
          "type": "uint256"
        }
      ],
      "stateMutability": "pure",
      "type": "function"
    },
    {
      "inputs": [],
      "name": "globalFixedNativeFee",
      "outputs": [
        {
          "internalType": "uint256",
          "name": "",
          "type": "uint256"
        }
      ],
      "stateMutability": "pure",
      "type": "function"
    },
    {
      "inputs": [
        {
          "internalType": "address",
          "name": "",
          "type": "address"
        },
        {
          "internalType": "uint256",
          "name": "",
          "type": "uint256"
        },
        {
          "internalType": "uint256",
          "name": "",
          "type": "uint256"
        },
        {
          "internalType": "bytes",
          "name": "",
          "type": "bytes"
        },
        {
          "internalType": "bytes",
          "name": "",
          "type": "bytes"
        },
        {
          "internalType": "bool",
          "name": "",
          "type": "bool"
        },
        {
          "internalType": "uint32",
          "name": "",
          "type": "uint32"
        },
        {
          "internalType": "bytes",
          "name": "",
          "type": "bytes"
        }
      ],
      "name": "send",
      "outputs": [],
      "stateMutability": "payable",
      "type": "function"
    }
  ],
  "bytecode": "0x608060405234801561001057600080fd5b50610348806100206000396000f3fe6080604052600436106100345760003560e01c806335087f0a146100395780634b64bbfb14610061578063be29747614610088575b600080fd5b34801561004557600080fd5b5066038d7ea4c680005b60405190815260200160405180910390f35b34801561006d57600080fd5b5061004f61007c3660046100f6565b506601c6bf5263400090565b61009b61009636600461023b565b61009d565b005b66038d7ea4c680003410156100eb5760405162461bcd60e51b815260206004820152601060248201526f496e73756666696369656e742066656560801b604482015260640160405180910390fd5b505050505050505050565b60006020828403121561010857600080fd5b5035919050565b80356001600160a01b038116811461012657600080fd5b919050565b634e487b7160e01b600052604160045260246000fd5b600082601f83011261015257600080fd5b813567ffffffffffffffff8082111561016d5761016d61012b565b604051601f8301601f19908116603f011681019082821181831017156101955761019561012b565b816040528381528660208588010111156101ae57600080fd5b836020870160208301376000602085830101528094505050505092915050565b8035801515811461012657600080fd5b803563ffffffff8116811461012657600080fd5b60008083601f84011261020457600080fd5b50813567ffffffffffffffff81111561021c57600080fd5b60208301915083602082850101111561023457600080fd5b9250929050565b60008060008060008060008060006101008a8c03121561025a57600080fd5b6102638a61010f565b985060208a0135975060408a0135965060608a013567ffffffffffffffff8082111561028e57600080fd5b61029a8d838e01610141565b975060808c01359150808211156102b057600080fd5b6102bc8d838e01610141565b96506102ca60a08d016101ce565b95506102d860c08d016101de565b945060e08c01359150808211156102ee57600080fd5b506102fb8c828d016101f2565b91508093505080915050929598509295985092959856fea26469706673582212204445acc2601567762c9ea3d34dacdb8697e9fe978fd47729e1048a43f237a89564736f6c63430008140033",
  "linkReferences": {},
  "deployedLinkReferences": {}
}