{
  "_format": "hh-sol-artifact-1",
  "contractName": "HyperCoreEVMBridge",
  "sourceName": "contracts/HyperCoreEVMBridge.sol",
  "abi": [
    {
      "inputs": [
        {
          "internalType": "address",
          "name": "_vaultContract",
          "type": "address"
        }
      ],
      "stateMutability": "nonpayable",
      "type": "constructor"
    },
    {
      "anonymous": false,
      "inputs": [
        {
          "indexed": true,
          "internalType": "address",
          "name": "sender",
          "type": "address"
        },
        {
          "indexed": false,
          "internalType": "uint256",
          "name": "amount",
          "type": "uint256"
        },
        {
          "indexed": false,
          "internalType": "bytes32",
          "name": "transferId",
          "type": "bytes32"
        }
      ],
      "name": "HYPETransferred",
      "type": "event"
    },
    {
      "anonymous": false,
      "inputs": [
        {
          "indexed": true,
          "internalType": "address",
          "name": "sender",
          "type": "address"
        },
        {
          "indexed": false,
          "internalType": "uint256",
          "name": "amount",
          "type": "uint256"
        }
      ],
      "name": "Received",
      "type": "event"
    },
    {
      "anonymous": false,
      "inputs": [
        {
          "indexed": true,
          "internalType": "bytes32",
          "name": "transferId",
          "type": "bytes32"
        }
      ],
      "name": "TransferCompleted",
      "type": "event"
    },
    {
      "anonymous": false,
      "inputs": [
        {
          "indexed": true,
          "internalType": "bytes32",
          "name": "transferId",
          "type": "bytes32"
        },
        {
          "indexed": true,
          "internalType": "uint256",
          "name": "tokenIndex",
          "type": "uint256"
        },
        {
          "indexed": false,
          "internalType": "uint256",
          "name": "amount",
          "type": "uint256"
        },
        {
          "indexed": false,
          "internalType": "address",
          "name": "recipient",
          "type": "address"
        }
      ],
      "name": "TransferFromCore",
      "type": "event"
    },
    {
      "anonymous": false,
      "inputs": [
        {
          "indexed": true,
          "internalType": "bytes32",
          "name": "transferId",
          "type": "bytes32"
        },
        {
          "indexed": true,
          "internalType": "address",
          "name": "token",
          "type": "address"
        },
        {
          "indexed": true,
          "internalType": "uint256",
          "name": "tokenIndex",
          "type": "uint256"
        },
        {
          "indexed": false,
          "internalType": "uint256",
          "name": "amount",
          "type": "uint256"
        },
        {
          "indexed": false,
          "internalType": "address",
          "name": "sender",
          "type": "address"
        }
      ],
      "name": "TransferToCore",
      "type": "event"
    },
    {
      "anonymous": false,
      "inputs": [
        {
          "indexed": true,
          "internalType": "address",
          "name": "oldVault",
          "type": "address"
        },
        {
          "indexed": true,
          "internalType": "address",
          "name": "newVault",
          "type": "address"
        }
      ],
      "name": "VaultContractUpdated",
      "type": "event"
    },
    {
      "inputs": [],
      "name": "HYPE_SYSTEM_ADDRESS",
      "outputs": [
        {
          "internalType": "address",
          "name": "",
          "type": "address"
        }
      ],
      "stateMutability": "view",
      "type": "function"
    },
    {
      "inputs": [
        {
          "internalType": "bytes32",
          "name": "transferId",
          "type": "bytes32"
        }
      ],
      "name": "completeTransfer",
      "outputs": [],
      "stateMutability": "nonpayable",
      "type": "function"
    },
    {
      "inputs": [
        {
          "internalType": "bytes32",
          "name": "",
          "type": "bytes32"
        }
      ],
      "name": "completedTransfers",
      "outputs": [
        {
          "internalType": "bool",
          "name": "",
          "type": "bool"
        }
      ],
      "stateMutability": "view",
      "type": "function"
    },
    {
      "inputs": [
        {
          "internalType": "uint256",
          "name": "tokenIndex",
          "type": "uint256"
        }
      ],
      "name": "getSystemAddress",
      "outputs": [
        {
          "internalType": "address",
          "name": "systemAddress",
          "type": "address"
        }
      ],
      "stateMutability": "pure",
      "type": "function"
    },
    {
      "inputs": [
        {
          "internalType": "bool",
          "name": "isFromCore",
          "type": "bool"
        }
      ],
      "name": "getTransferGasCost",
      "outputs": [
        {
          "internalType": "uint256",
          "name": "gasCost",
          "type": "uint256"
        }
      ],
      "stateMutability": "pure",
      "type": "function"
    },
    {
      "inputs": [
        {
          "internalType": "bytes32",
          "name": "transferId",
          "type": "bytes32"
        }
      ],
      "name": "isTransferComplete",
      "outputs": [
        {
          "internalType": "bool",
          "name": "completed",
          "type": "bool"
        }
      ],
      "stateMutability": "view",
      "type": "function"
    },
    {
      "inputs": [],
      "name": "owner",
      "outputs": [
        {
          "internalType": "address",
          "name": "",
          "type": "address"
        }
      ],
      "stateMutability": "view",
      "type": "function"
    },
    {
      "inputs": [],
      "name": "pause",
      "outputs": [],
      "stateMutability": "nonpayable",
      "type": "function"
    },
    {
      "inputs": [],
      "name": "paused",
      "outputs": [
        {
          "internalType": "bool",
          "name": "",
          "type": "bool"
        }
      ],
      "stateMutability": "view",
      "type": "function"
    },
    {
      "inputs": [
        {
          "internalType": "bytes32",
          "name": "",
          "type": "bytes32"
        }
      ],
      "name": "pendingTransfers",
      "outputs": [
        {
          "internalType": "address",
          "name": "token",
          "type": "address"
        },
        {
          "internalType": "uint256",
          "name": "amount",
          "type": "uint256"
        },
        {
          "internalType": "uint256",
          "name": "timestamp",
          "type": "uint256"
        },
        {
          "internalType": "address",
          "name": "sender",
          "type": "address"
        },
        {
          "internalType": "bool",
          "name": "completed",
          "type": "bool"
        }
      ],
      "stateMutability": "view",
      "type": "function"
    },
    {
      "inputs": [
        {
          "internalType": "address",
          "name": "newVault",
          "type": "address"
        }
      ],
      "name": "setVaultContract",
      "outputs": [],
      "stateMutability": "nonpayable",
      "type": "function"
    },
    {
      "inputs": [
        {
          "internalType": "uint256",
          "name": "tokenIndex",
          "type": "uint256"
        },
        {
          "internalType": "uint256",
          "name": "amount",
          "type": "uint256"
        },
        {
          "internalType": "address",
          "name": "recipient",
          "type": "address"
        }
      ],
      "name": "transferFromCore",
      "outputs": [
        {
          "internalType": "bytes32",
          "name": "transferId",
          "type": "bytes32"
        }
      ],
      "stateMutability": "nonpayable",
      "type": "function"
    },
    {
      "inputs": [],
      "name": "transferHYPEToCore",
      "outputs": [
        {
          "internalType": "bytes32",
          "name": "transferId",
          "type": "bytes32"
        }
      ],
      "stateMutability": "payable",
      "type": "function"
    },
    {
      "inputs": [
        {
          "internalType": "address",
          "name": "newOwner",
          "type": "address"
        }
      ],
      "name": "transferOwnership",
      "outputs": [],
      "stateMutability": "nonpayable",
      "type": "function"
    },
    {
      "inputs": [
        {
          "internalType": "address",
          "name": "token",
          "type": "address"
        },
        {
          "internalType": "uint256",
          "name": "amount",
          "type": "uint256"
        }
      ],
      "name": "transferToCore",
      "outputs": [
        {
          "internalType": "bytes32",
          "name": "transferId",
          "type": "bytes32"
        }
      ],
      "stateMutability": "nonpayable",
      "type": "function"
    },
    {
      "inputs": [],
      "name": "unpause",
      "outputs": [],
      "stateMutability": "nonpayable",
      "type": "function"
    },
    {
      "inputs": [],
      "name": "vaultContract",
      "outputs": [
        {
          "internalType": "address",
          "name": "",
          "type": "address"
        }
      ],
      "stateMutability": "view",
      "type": "function"
    },
    {
      "stateMutability": "payable",
      "type": "receive"
    }
  ],
  "bytecode": "0x608060405234801561001057600080fd5b506040516111ed3803806111ed83398101604081905261002f91610070565b60018054600080546001600160a01b0319166001600160a01b0394909416939093179092556001600160a81b03199091163360ff60a01b19161790556100a0565b60006020828403121561008257600080fd5b81516001600160a01b038116811461009957600080fd5b9392505050565b61113e806100af6000396000f3fe6080604052600436106101025760003560e01c80638da5cb5b11610095578063b242ec0811610064578063b242ec081461036d578063c72b4eba1461038d578063f2fde38b146103b5578063faf56558146103d5578063fb3ec48b146103dd57600080fd5b80638da5cb5b146102dd578063927dd240146102fd57806396f4ada61461032d578063a1febf811461034d57600080fd5b80633f4ba83a116100d15780633f4ba83a146101ee5780635c975abb146102055780638456cb59146102365780638d4ab2c01461024b57600080fd5b80632274346b1461014357806339e11c3a146101805780633a055b64146101ae5780633c450602146101ce57600080fd5b3661013e5760405134815233907f88a5966d370b9919b20f3e2c13ff65706f196a4e32cc2c12bf57088f885258749060200160405180910390a2005b600080fd5b34801561014f57600080fd5b50600054610163906001600160a01b031681565b6040516001600160a01b0390911681526020015b60405180910390f35b34801561018c57600080fd5b506101a061019b366004610eea565b6103fd565b604051908152602001610177565b3480156101ba57600080fd5b506101a06101c9366004610f25565b6106e3565b3480156101da57600080fd5b506101a06101e9366004610f49565b610703565b3480156101fa57600080fd5b50610203610892565b005b34801561021157600080fd5b5060015461022690600160a01b900460ff1681565b6040519015158152602001610177565b34801561024257600080fd5b506102036108cb565b34801561025757600080fd5b506102a6610266366004610f7e565b600260208190526000918252604090912080546001820154928201546003909201546001600160a01b03918216939291811690600160a01b900460ff1685565b604080516001600160a01b03968716815260208101959095528401929092529092166060820152901515608082015260a001610177565b3480156102e957600080fd5b50600154610163906001600160a01b031681565b34801561030957600080fd5b50610226610318366004610f7e565b60036020526000908152604090205460ff1681565b34801561033957600080fd5b50610203610348366004610f97565b61090a565b34801561035957600080fd5b50610203610368366004610f7e565b6109ca565b34801561037957600080fd5b50610226610388366004610f7e565b610a93565b34801561039957600080fd5b5061016373222222222222222222222222222222222222222281565b3480156103c157600080fd5b506102036103d0366004610f97565b610b29565b6101a0610bbb565b3480156103e957600080fd5b506101636103f8366004610f7e565b610da5565b600080546001600160a01b031633146104315760405162461bcd60e51b815260040161042890610fb2565b60405180910390fd5b600154600160a01b900460ff161561045b5760405162461bcd60e51b815260040161042890610fd6565b6001600160a01b0383166104a15760405162461bcd60e51b815260206004820152600d60248201526c24b73b30b634b2103a37b5b2b760991b6044820152606401610428565b600082116104e65760405162461bcd60e51b81526020600482015260126024820152710416d6f756e74206d757374206265203e20360741b6044820152606401610428565b60006104f184610ebc565b905060006104fe82610da5565b6040516001600160601b0319606088811b821660208401526034830188905242605484015233901b16607482015290915060880160408051601f198184030181529082905280516020909101206323b872dd60e01b82523360048301526001600160a01b03838116602484015260448301879052909450600091908716906323b872dd906064016020604051808303816000875af11580156105a4573d6000803e3d6000fd5b505050506040513d601f19601f820116820180604052508101906105c89190610fff565b9050806106095760405162461bcd60e51b815260206004820152600f60248201526e151c985b9cd9995c8819985a5b1959608a1b6044820152606401610428565b6040805160a0810182526001600160a01b0388811680835260208084018a81524285870190815233606087018181526000608089018181528e82526002808852918b902099518a54908a166001600160a01b0319909116178a55945160018a015592519288019290925590516003909601805492511515600160a01b026001600160a81b0319909316969095169590951717909255835189815291820192909252859287917f5ba18b0c76312331d5dac06d08dc838e1f910f64bc0ecef90573d555ea5a3306910160405180910390a45050505b92915050565b600081156106f5575062030d40919050565b5061c350919050565b919050565b600080546001600160a01b0316331461072e5760405162461bcd60e51b815260040161042890610fb2565b600154600160a01b900460ff16156107585760405162461bcd60e51b815260040161042890610fd6565b6001600160a01b0382166107a25760405162461bcd60e51b8152602060048201526011602482015270125b9d985b1a59081c9958da5c1a595b9d607a1b6044820152606401610428565b600083116107e75760405162461bcd60e51b81526020600482015260126024820152710416d6f756e74206d757374206265203e20360741b6044820152606401610428565b60408051602081018690529081018490524260608083019190915283901b6001600160601b031916608082015260940160408051601f198184030181528282528051602091820120600081815260038352839020805460ff191660011790558684526001600160a01b038616918401919091529250859183917fd123cacf5b1a453789cf5991916f10361225ce0f57e774f897e622f0ae73f73d910160405180910390a39392505050565b6001546001600160a01b031633146108bc5760405162461bcd60e51b81526004016104289061101c565b6001805460ff60a01b19169055565b6001546001600160a01b031633146108f55760405162461bcd60e51b81526004016104289061101c565b6001805460ff60a01b1916600160a01b179055565b6001546001600160a01b031633146109345760405162461bcd60e51b81526004016104289061101c565b6001600160a01b03811661097a5760405162461bcd60e51b815260206004820152600d60248201526c125b9d985b1a59081d985d5b1d609a1b6044820152606401610428565b600080546001600160a01b038381166001600160a01b0319831681178455604051919092169283917f0c4c4d2975a8d023c64e416a846ffebffa623acf6ef9e580a421649345d906ab9190a35050565b6000546001600160a01b031633146109f45760405162461bcd60e51b815260040161042890610fb2565b600081815260026020526040902060010154610a475760405162461bcd60e51b8152602060048201526012602482015271151c985b9cd9995c881b9bdd08199bdd5b9960721b6044820152606401610428565b600081815260026020526040808220600301805460ff60a01b1916600160a01b1790555182917fba4bce30c5ed2285a6e0a9a31a093123e7ab3a64b71d9e641d33c08e91f58b9a91a250565b60008181526003602052604081205460ff1615610ab257506001919050565b600082815260026020818152604092839020835160a08101855281546001600160a01b03908116825260018301549382019390935292810154938301939093526003909201549182166060820152600160a01b90910460ff161580156080830152610b205750600192915050565b50600092915050565b6001546001600160a01b03163314610b535760405162461bcd60e51b81526004016104289061101c565b6001600160a01b038116610b995760405162461bcd60e51b815260206004820152600d60248201526c24b73b30b634b21037bbb732b960991b6044820152606401610428565b600180546001600160a01b0319166001600160a01b0392909216919091179055565b600080546001600160a01b03163314610be65760405162461bcd60e51b815260040161042890610fb2565b600154600160a01b900460ff1615610c105760405162461bcd60e51b815260040161042890610fd6565b60003411610c515760405162461bcd60e51b815260206004820152600e60248201526d4d7573742073656e64204859504560901b6044820152606401610428565b6040516001600160601b03193360601b16602082015234603482015242605482015260740160408051601f1981840301815290829052805160209091012091506000907322222222222222222222222222222222222222229034908381818185875af1925050503d8060008114610ce4576040519150601f19603f3d011682016040523d82523d6000602084013e610ce9565b606091505b5050905080610d315760405162461bcd60e51b815260206004820152601460248201527312165411481d1c985b9cd9995c8819985a5b195960621b6044820152606401610428565b604080513481526020810184905233917f70c04a0b909d4dd4bb318fbaeed1835f6eb1bcb090afb28abf39a0a7de75a900910160405180910390a260405134815233907f88a5966d370b9919b20f3e2c13ff65706f196a4e32cc2c12bf57088f885258749060200160405180910390a25090565b600067ffffffffffffffff8210610df65760405162461bcd60e51b8152602060048201526015602482015274546f6b656e20696e64657820746f6f206c6172676560581b6044820152606401610428565b604080516014808252818301909252600091602082018180368337019050509050602060f81b81600081518110610e2f57610e2f611040565b60200101906001600160f81b031916908160001a90535060005b6008811015610ea857610e5d81600861106c565b84901c60f81b82610e6f836013611083565b81518110610e7f57610e7f611040565b60200101906001600160f81b031916908160001a90535080610ea081611096565b915050610e49565b50610eb2816110af565b60601c9392505050565b60006106dd6103e86001600160a01b0384166110e6565b80356001600160a01b03811681146106fe57600080fd5b60008060408385031215610efd57600080fd5b610f0683610ed3565b946020939093013593505050565b8015158114610f2257600080fd5b50565b600060208284031215610f3757600080fd5b8135610f4281610f14565b9392505050565b600080600060608486031215610f5e57600080fd5b8335925060208401359150610f7560408501610ed3565b90509250925092565b600060208284031215610f9057600080fd5b5035919050565b600060208284031215610fa957600080fd5b610f4282610ed3565b6020808252600a908201526913db9b1e481d985d5b1d60b21b604082015260600190565b6020808252600f908201526e10dbdb9d1c9858dd081c185d5cd959608a1b604082015260600190565b60006020828403121561101157600080fd5b8151610f4281610f14565b6020808252600a908201526927b7363c9037bbb732b960b11b604082015260600190565b634e487b7160e01b600052603260045260246000fd5b634e487b7160e01b600052601160045260246000fd5b80820281158282048414176106dd576106dd611056565b818103818111156106dd576106dd611056565b6000600182016110a8576110a8611056565b5060010190565b805160208201516001600160601b031980821692919060148310156110de5780818460140360031b1b83161693505b505050919050565b60008261110357634e487b7160e01b600052601260045260246000fd5b50069056fea264697066735822122048240a9d13ac878b4d2aa0ed5d8d574789a27461dec0bc491804747545cb4cc364736f6c63430008140033",
  "linkReferences": {},
  "deployedLinkReferences": {}
}