{
  "_format": "hh-sol-artifact-1",
  "contractName": "AarnaBridge",
  "sourceName": "contracts/AarnaVaultBridge.sol",
  "abi": [
    {
      "inputs": [
        {
          "internalType": "address",
          "name": "_deBridgeGate",
          "type": "address"
        },
        {
          "internalType": "address",
          "name": "_usdcAddress",
          "type": "address"
        }
      ],
      "stateMutability": "nonpayable",
      "type": "constructor"
    },
    {
      "anonymous": false,
      "inputs": [
        {
          "indexed": true,
          "internalType": "address",
          "name": "user",
          "type": "address"
        },
        {
          "indexed": false,
          "internalType": "uint256",
          "name": "amount",
          "type": "uint256"
        },
        {
          "indexed": false,
          "internalType": "uint256",
          "name": "fee",
          "type": "uint256"
        }
      ],
      "name": "Deposit",
      "type": "event"
    },
    {
      "anonymous": false,
      "inputs": [
        {
          "indexed": true,
          "internalType": "address",
          "name": "user",
          "type": "address"
        },
        {
          "indexed": false,
          "internalType": "uint256",
          "name": "amount",
          "type": "uint256"
        },
        {
          "indexed": false,
          "internalType": "uint256",
          "name": "fee",
          "type": "uint256"
        }
      ],
      "name": "Withdraw",
      "type": "event"
    },
    {
      "inputs": [
        {
          "internalType": "uint256",
          "name": "",
          "type": "uint256"
        }
      ],
      "name": "bridgeHistory",
      "outputs": [
        {
          "internalType": "address",
          "name": "user",
          "type": "address"
        },
        {
          "internalType": "uint256",
          "name": "amount",
          "type": "uint256"
        },
        {
          "internalType": "uint256",
          "name": "timestamp",
          "type": "uint256"
        },
        {
          "internalType": "uint256",
          "name": "chainFrom",
          "type": "uint256"
        },
        {
          "internalType": "uint256",
          "name": "chainTo",
          "type": "uint256"
        },
        {
          "internalType": "bool",
          "name": "isDeposit",
          "type": "bool"
        }
      ],
      "stateMutability": "view",
      "type": "function"
    },
    {
      "inputs": [],
      "name": "deBridgeGate",
      "outputs": [
        {
          "internalType": "address",
          "name": "",
          "type": "address"
        }
      ],
      "stateMutability": "view",
      "type": "function"
    },
    {
      "inputs": [
        {
          "internalType": "uint256",
          "name": "amount",
          "type": "uint256"
        }
      ],
      "name": "deposit",
      "outputs": [],
      "stateMutability": "payable",
      "type": "function"
    },
    {
      "inputs": [
        {
          "internalType": "address",
          "name": "token",
          "type": "address"
        },
        {
          "internalType": "uint256",
          "name": "amount",
          "type": "uint256"
        }
      ],
      "name": "emergencyWithdraw",
      "outputs": [],
      "stateMutability": "nonpayable",
      "type": "function"
    },
    {
      "inputs": [],
      "name": "feeRecipient",
      "outputs": [
        {
          "internalType": "address",
          "name": "",
          "type": "address"
        }
      ],
      "stateMutability": "view",
      "type": "function"
    },
    {
      "inputs": [],
      "name": "getBridgeFee",
      "outputs": [
        {
          "internalType": "uint256",
          "name": "",
          "type": "uint256"
        }
      ],
      "stateMutability": "view",
      "type": "function"
    },
    {
      "inputs": [
        {
          "internalType": "uint256",
          "name": "amount",
          "type": "uint256"
        }
      ],
      "name": "getQuote",
      "outputs": [
        {
          "internalType": "uint256",
          "name": "outputAmount",
          "type": "uint256"
        },
        {
          "internalType": "uint256",
          "name": "bridgeFee",
          "type": "uint256"
        },
        {
          "internalType": "uint256",
          "name": "gasEstimate",
          "type": "uint256"
        }
      ],
      "stateMutability": "view",
      "type": "function"
    },
    {
      "inputs": [],
      "name": "getStats",
      "outputs": [
        {
          "internalType": "uint256",
          "name": "deposits",
          "type": "uint256"
        },
        {
          "internalType": "uint256",
          "name": "withdrawals",
          "type": "uint256"
        },
        {
          "internalType": "uint256",
          "name": "fees",
          "type": "uint256"
        }
      ],
      "stateMutability": "view",
      "type": "function"
    },
    {
      "inputs": [
        {
          "internalType": "address",
          "name": "user",
          "type": "address"
        }
      ],
      "name": "getUserHistory",
      "outputs": [
        {
          "components": [
            {
              "internalType": "address",
              "name": "user",
              "type": "address"
            },
            {
              "internalType": "uint256",
              "name": "amount",
              "type": "uint256"
            },
            {
              "internalType": "uint256",
              "name": "timestamp",
              "type": "uint256"
            },
            {
              "internalType": "uint256",
              "name": "chainFrom",
              "type": "uint256"
            },
            {
              "internalType": "uint256",
              "name": "chainTo",
              "type": "uint256"
            },
            {
              "internalType": "bool",
              "name": "isDeposit",
              "type": "bool"
            }
          ],
          "internalType": "struct AarnaBridge.BridgeTx[]",
          "name": "",
          "type": "tuple[]"
        }
      ],
      "stateMutability": "view",
      "type": "function"
    },
    {
      "inputs": [
        {
          "internalType": "address",
          "name": "user",
          "type": "address"
        }
      ],
      "name": "getUserStats",
      "outputs": [
        {
          "internalType": "uint256",
          "name": "totalDeposited",
          "type": "uint256"
        },
        {
          "internalType": "uint256",
          "name": "totalWithdrawn",
          "type": "uint256"
        },
        {
          "internalType": "uint256",
          "name": "depositCount",
          "type": "uint256"
        }
      ],
      "stateMutability": "view",
      "type": "function"
    },
    {
      "inputs": [],
      "name": "maxBridgeAmount",
      "outputs": [
        {
          "internalType": "uint256",
          "name": "",
          "type": "uint256"
        }
      ],
      "stateMutability": "view",
      "type": "function"
    },
    {
      "inputs": [],
      "name": "minBridgeAmount",
      "outputs": [
        {
          "internalType": "uint256",
          "name": "",
          "type": "uint256"
        }
      ],
      "stateMutability": "view",
      "type": "function"
    },
    {
      "inputs": [],
      "name": "owner",
      "outputs": [
        {
          "internalType": "address",
          "name": "",
          "type": "address"
        }
      ],
      "stateMutability": "view",
      "type": "function"
    },
    {
      "inputs": [],
      "name": "pause",
      "outputs": [],
      "stateMutability": "nonpayable",
      "type": "function"
    },
    {
      "inputs": [],
      "name": "paused",
      "outputs": [
        {
          "internalType": "bool",
          "name": "",
          "type": "bool"
        }
      ],
      "stateMutability": "view",
      "type": "function"
    },
    {
      "inputs": [
        {
          "internalType": "address",
          "name": "newRecipient",
          "type": "address"
        }
      ],
      "name": "setFeeRecipient",
      "outputs": [],
      "stateMutability": "nonpayable",
      "type": "function"
    },
    {
      "inputs": [
        {
          "internalType": "uint256",
          "name": "min",
          "type": "uint256"
        },
        {
          "internalType": "uint256",
          "name": "max",
          "type": "uint256"
        }
      ],
      "name": "setLimits",
      "outputs": [],
      "stateMutability": "nonpayable",
      "type": "function"
    },
    {
      "inputs": [
        {
          "internalType": "uint256",
          "name": "newSlippage",
          "type": "uint256"
        }
      ],
      "name": "setSlippage",
      "outputs": [],
      "stateMutability": "nonpayable",
      "type": "function"
    },
    {
      "inputs": [],
      "name": "slippageBps",
      "outputs": [
        {
          "internalType": "uint256",
          "name": "",
          "type": "uint256"
        }
      ],
      "stateMutability": "view",
      "type": "function"
    },
    {
      "inputs": [],
      "name": "totalFeeCollected",
      "outputs": [
        {
          "internalType": "uint256",
          "name": "",
          "type": "uint256"
        }
      ],
      "stateMutability": "view",
      "type": "function"
    },
    {
      "inputs": [],
      "name": "totalVolumeDeposited",
      "outputs": [
        {
          "internalType": "uint256",
          "name": "",
          "type": "uint256"
        }
      ],
      "stateMutability": "view",
      "type": "function"
    },
    {
      "inputs": [],
      "name": "totalVolumeWithdrawn",
      "outputs": [
        {
          "internalType": "uint256",
          "name": "",
          "type": "uint256"
        }
      ],
      "stateMutability": "view",
      "type": "function"
    },
    {
      "inputs": [],
      "name": "unpause",
      "outputs": [],
      "stateMutability": "nonpayable",
      "type": "function"
    },
    {
      "inputs": [],
      "name": "usdcAddress",
      "outputs": [
        {
          "internalType": "address",
          "name": "",
          "type": "address"
        }
      ],
      "stateMutability": "view",
      "type": "function"
    },
    {
      "inputs": [
        {
          "internalType": "address",
          "name": "",
          "type": "address"
        }
      ],
      "name": "userDepositCount",
      "outputs": [
        {
          "internalType": "uint256",
          "name": "",
          "type": "uint256"
        }
      ],
      "stateMutability": "view",
      "type": "function"
    },
    {
      "inputs": [
        {
          "internalType": "address",
          "name": "",
          "type": "address"
        }
      ],
      "name": "userTotalDeposits",
      "outputs": [
        {
          "internalType": "uint256",
          "name": "",
          "type": "uint256"
        }
      ],
      "stateMutability": "view",
      "type": "function"
    },
    {
      "inputs": [
        {
          "internalType": "address",
          "name": "",
          "type": "address"
        }
      ],
      "name": "userTotalWithdrawals",
      "outputs": [
        {
          "internalType": "uint256",
          "name": "",
          "type": "uint256"
        }
      ],
      "stateMutability": "view",
      "type": "function"
    },
    {
      "inputs": [
        {
          "internalType": "address",
          "name": "",
          "type": "address"
        },
        {
          "internalType": "uint256",
          "name": "",
          "type": "uint256"
        }
      ],
      "name": "userTxIds",
      "outputs": [
        {
          "internalType": "uint256",
          "name": "",
          "type": "uint256"
        }
      ],
      "stateMutability": "view",
      "type": "function"
    },
    {
      "inputs": [
        {
          "internalType": "uint256",
          "name": "amount",
          "type": "uint256"
        }
      ],
      "name": "withdraw",
      "outputs": [],
      "stateMutability": "payable",
      "type": "function"
    },
    {
      "inputs": [],
      "name": "withdrawFees",
      "outputs": [],
      "stateMutability": "nonpayable",
      "type": "function"
    },
    {
      "stateMutability": "payable",
      "type": "receive"
    }
  ],
  "bytecode": "0x608060405260326004556298968060055564e8d4a510006006553480156200002657600080fd5b5060405162001af538038062001af58339810160408190526200004991620000b0565b60008054336001600160a01b031991821681179092556003805482169092179091556001805482166001600160a01b039485161790556002805490911691909216179055620000e8565b80516001600160a01b0381168114620000ab57600080fd5b919050565b60008060408385031215620000c457600080fd5b620000cf8362000093565b9150620000df6020840162000093565b90509250929050565b6119fd80620000f86000396000f3fe6080604052600436106101d15760003560e01c80638da5cb5b116100f7578063c3c2247511610095578063ce4a989e11610064578063ce4a989e14610575578063cf39918e146105a2578063e74b981b146105c2578063f0fa55a9146105e257600080fd5b8063c3c2247514610504578063c4590d3f1461051a578063c59d48471461053a578063ca777fbf1461055557600080fd5b806395ccea67116100d157806395ccea671461049b578063b6b55f25146104bb578063b9b2b5cd146104ce578063c2688a4f146104e457600080fd5b80638da5cb5b146103f55780638e9c234a146104155780639295953f1461046e57600080fd5b80634e43603a1161016f57806360132c9c1161013e57806360132c9c14610388578063729c3e0e1461039e5780638456cb59146103cb57806385659de1146103e057600080fd5b80634e43603a146102b35780634fb3d3b11461031b578063578c71d9146103485780635c975abb1461035e57600080fd5b80633f4ba83a116101ab5780633f4ba83a146102535780634690484014610268578063476343ee146102885780634cb015681461029d57600080fd5b806302d45457146101dd5780632e1a7d4d1461021a57806339295edd1461022f57600080fd5b366101d857005b600080fd5b3480156101e957600080fd5b506002546101fd906001600160a01b031681565b6040516001600160a01b0390911681526020015b60405180910390f35b61022d6102283660046116c8565b610602565b005b34801561023b57600080fd5b5061024560095481565b604051908152602001610211565b34801561025f57600080fd5b5061022d610b0d565b34801561027457600080fd5b506003546101fd906001600160a01b031681565b34801561029457600080fd5b5061022d610b43565b3480156102a957600080fd5b5061024560085481565b3480156102bf57600080fd5b506103006102ce3660046116fd565b6001600160a01b03166000908152600b6020908152604080832054600c835281842054600d9093529220549192909190565b60408051938452602084019290925290820152606001610211565b34801561032757600080fd5b5061033b6103363660046116fd565b610bab565b604051610211919061171f565b34801561035457600080fd5b5061024560045481565b34801561036a57600080fd5b506007546103789060ff1681565b6040519015158152602001610211565b34801561039457600080fd5b5061024560065481565b3480156103aa57600080fd5b506102456103b93660046116fd565b600d6020526000908152604090205481565b3480156103d757600080fd5b5061022d610d7a565b3480156103ec57600080fd5b50610245610db3565b34801561040157600080fd5b506000546101fd906001600160a01b031681565b34801561042157600080fd5b506104356104303660046116c8565b610ec5565b604080516001600160a01b03909716875260208701959095529385019290925260608401526080830152151560a082015260c001610211565b34801561047a57600080fd5b506102456104893660046116fd565b600b6020526000908152604090205481565b3480156104a757600080fd5b5061022d6104b63660046117a2565b610f18565b61022d6104c93660046116c8565b610fbe565b3480156104da57600080fd5b50610245600a5481565b3480156104f057600080fd5b506102456104ff3660046117a2565b6114dd565b34801561051057600080fd5b5061024560055481565b34801561052657600080fd5b5061022d6105353660046117cc565b61150e565b34801561054657600080fd5b50600854600954600a54610300565b34801561056157600080fd5b506001546101fd906001600160a01b031681565b34801561058157600080fd5b506102456105903660046116fd565b600c6020526000908152604090205481565b3480156105ae57600080fd5b506103006105bd3660046116c8565b611583565b3480156105ce57600080fd5b5061022d6105dd3660046116fd565b6115ca565b3480156105ee57600080fd5b5061022d6105fd3660046116c8565b61165e565b60075460ff16156106435760405162461bcd60e51b815260206004820152600660248201526514185d5cd95960d21b60448201526064015b60405180910390fd5b600081116106815760405162461bcd60e51b815260206004820152600b60248201526a16995c9bc8185b5bdd5b9d60aa1b604482015260640161063a565b6005548110156106c65760405162461bcd60e51b815260206004820152601060248201526f105b5bdd5b9d081d1bdbc81cdb585b1b60821b604482015260640161063a565b60065481111561070b5760405162461bcd60e51b815260206004820152601060248201526f416d6f756e7420746f6f206c6172676560801b604482015260640161063a565b6000610715610db3565b90508034101561075a5760405162461bcd60e51b815260206004820152601060248201526f496e73756666696369656e742066656560801b604482015260640161063a565b6002546040516323b872dd60e01b8152336004820152306024820152604481018490526001600160a01b03909116906323b872dd906064016020604051808303816000875af11580156107b1573d6000803e3d6000fd5b505050506040513d601f19601f820116820180604052508101906107d591906117ee565b5060025460015460405163095ea7b360e01b81526001600160a01b0391821660048201526024810185905291169063095ea7b3906044016020604051808303816000875af115801561082b573d6000803e3d6000fd5b505050506040513d601f19601f8201168201806040525081019061084f91906117ee565b5060018054600254604080513360601b6bffffffffffffffffffffffff19166020820152815160148183030181526034820192839052635f14ba3b60e11b9092526001600160a01b039384169463be2974769487946108bc94911692899291906000908190603801611856565b6000604051808303818588803b1580156108d557600080fd5b505af11580156108e9573d6000803e3d6000fd5b5050336000908152600c6020526040812080548795509093509091506109109084906118e0565b92505081905550816009600082825461092991906118e0565b9250508190555034600a600082825461094291906118e0565b90915550506040805160c081018252338082526020808301868152428486019081526103e760608601908152600160808701818152600060a08901818152600e805480860182558184529a517fbb7b4a454dc3493923482f07822329ed19e8244eff582cc204f8554c3620c3fd6006909c029b8c0180546001600160a01b0319166001600160a01b0390921691909117905596517fbb7b4a454dc3493923482f07822329ed19e8244eff582cc204f8554c3620c3fe8b015594517fbb7b4a454dc3493923482f07822329ed19e8244eff582cc204f8554c3620c3ff8a015592517fbb7b4a454dc3493923482f07822329ed19e8244eff582cc204f8554c3620c400890155517fbb7b4a454dc3493923482f07822329ed19e8244eff582cc204f8554c3620c40188015591517fbb7b4a454dc3493923482f07822329ed19e8244eff582cc204f8554c3620c402909601805460ff191696151596909617909555928452600f909152929091209154610ab991906118f9565b8154600181018355600092835260209283902001556040805184815291820183905233917ff279e6a1f5e320cca91135676d9cb6e44ca8a08c0b88342bcdb1144f6511b56891015b60405180910390a25050565b6000546001600160a01b03163314610b375760405162461bcd60e51b815260040161063a9061190c565b6007805460ff19169055565b6000546001600160a01b03163314610b6d5760405162461bcd60e51b815260040161063a9061190c565b60035460405147916001600160a01b03169082156108fc029083906000818181858888f19350505050158015610ba7573d6000803e3d6000fd5b5050565b6001600160a01b0381166000908152600f60209081526040808320805482518185028101850190935280835260609493830182828015610c0a57602002820191906000526020600020905b815481526020019060010190808311610bf6575b505050505090506000815167ffffffffffffffff811115610c2d57610c2d611930565b604051908082528060200260200182016040528015610ca257816020015b610c8f6040518060c0016040528060006001600160a01b03168152602001600081526020016000815260200160008152602001600081526020016000151581525090565b815260200190600190039081610c4b5790505b50905060005b8251811015610d7257600e838281518110610cc557610cc5611946565b602002602001015181548110610cdd57610cdd611946565b60009182526020918290206040805160c081018252600690930290910180546001600160a01b03168352600181015493830193909352600283015490820152600382015460608201526004820154608082015260059091015460ff16151560a08201528251839083908110610d5457610d54611946565b60200260200101819052508080610d6a9061195c565b915050610ca8565b509392505050565b6000546001600160a01b03163314610da45760405162461bcd60e51b815260040161063a9061190c565b6007805460ff19166001179055565b600080600160009054906101000a90046001600160a01b03166001600160a01b03166335087f0a6040518163ffffffff1660e01b8152600401602060405180830381865afa158015610e09573d6000803e3d6000fd5b505050506040513d601f19601f82011682018060405250810190610e2d9190611975565b600154604051634b64bbfb60e01b81526103e760048201529192506000916001600160a01b0390911690634b64bbfb90602401602060405180830381865afa158015610e7d573d6000803e3d6000fd5b505050506040513d601f19601f82011682018060405250810190610ea19190611975565b9050610ead81836118e0565b610ebe906601c6bf526340006118e0565b9250505090565b600e8181548110610ed557600080fd5b60009182526020909120600690910201805460018201546002830154600384015460048501546005909501546001600160a01b0390941695509193909260ff1686565b6000546001600160a01b03163314610f425760405162461bcd60e51b815260040161063a9061190c565b60005460405163a9059cbb60e01b81526001600160a01b039182166004820152602481018390529083169063a9059cbb906044016020604051808303816000875af1158015610f95573d6000803e3d6000fd5b505050506040513d601f19601f82011682018060405250810190610fb991906117ee565b505050565b60075460ff1615610ffa5760405162461bcd60e51b815260206004820152600660248201526514185d5cd95960d21b604482015260640161063a565b600081116110385760405162461bcd60e51b815260206004820152600b60248201526a16995c9bc8185b5bdd5b9d60aa1b604482015260640161063a565b60055481101561107d5760405162461bcd60e51b815260206004820152601060248201526f105b5bdd5b9d081d1bdbc81cdb585b1b60821b604482015260640161063a565b6006548111156110c25760405162461bcd60e51b815260206004820152601060248201526f416d6f756e7420746f6f206c6172676560801b604482015260640161063a565b60006110cc610db3565b9050803410156111115760405162461bcd60e51b815260206004820152601060248201526f496e73756666696369656e742066656560801b604482015260640161063a565b6002546040516323b872dd60e01b8152336004820152306024820152604481018490526001600160a01b03909116906323b872dd906064016020604051808303816000875af1158015611168573d6000803e3d6000fd5b505050506040513d601f19601f8201168201806040525081019061118c91906117ee565b5060025460015460405163095ea7b360e01b81526001600160a01b0391821660048201526024810185905291169063095ea7b3906044016020604051808303816000875af11580156111e2573d6000803e3d6000fd5b505050506040513d601f19601f8201168201806040525081019061120691906117ee565b50600154600254604080513360601b6bffffffffffffffffffffffff19166020820152815160148183030181526034820192839052635f14ba3b60e11b9092526001600160a01b039384169363be29747693869361127693929091169188916103e7916000908190603801611856565b6000604051808303818588803b15801561128f57600080fd5b505af11580156112a3573d6000803e3d6000fd5b5050336000908152600b6020526040812080548795509093509091506112ca9084906118e0565b9091555050336000908152600d602052604081208054916112ea8361195c565b9190505550816008600082825461130191906118e0565b9250508190555034600a600082825461131a91906118e0565b90915550506040805160c081018252338082526020808301868152428486019081526001606086018181526103e76080880190815260a08801838152600e8054808601825560008281529a517fbb7b4a454dc3493923482f07822329ed19e8244eff582cc204f8554c3620c3fd600690920291820180546001600160a01b0319166001600160a01b0390921691909117905596517fbb7b4a454dc3493923482f07822329ed19e8244eff582cc204f8554c3620c3fe88015594517fbb7b4a454dc3493923482f07822329ed19e8244eff582cc204f8554c3620c3ff87015591517fbb7b4a454dc3493923482f07822329ed19e8244eff582cc204f8554c3620c400860155517fbb7b4a454dc3493923482f07822329ed19e8244eff582cc204f8554c3620c401850155517fbb7b4a454dc3493923482f07822329ed19e8244eff582cc204f8554c3620c402909301805460ff191693151593909317909255928452600f9091529290912090549091611491916118f9565b8154600181018355600092835260209283902001556040805184815291820183905233917f90890809c654f11d6e72a28fa60149770a0d11ec6c92319d6ceb2bb0a4ea1a159101610b01565b600f60205281600052604060002081815481106114f957600080fd5b90600052602060002001600091509150505481565b6000546001600160a01b031633146115385760405162461bcd60e51b815260040161063a9061190c565b8082106115785760405162461bcd60e51b815260206004820152600e60248201526d496e76616c6964206c696d69747360901b604482015260640161063a565b600591909155600655565b6000806000806127106004548661159a919061198e565b6115a491906119a5565b90506115b081866118f9565b93506115ba610db3565b925062030d409150509193909250565b6000546001600160a01b031633146115f45760405162461bcd60e51b815260040161063a9061190c565b6001600160a01b03811661163c5760405162461bcd60e51b815260206004820152600f60248201526e496e76616c6964206164647265737360881b604482015260640161063a565b600380546001600160a01b0319166001600160a01b0392909216919091179055565b6000546001600160a01b031633146116885760405162461bcd60e51b815260040161063a9061190c565b6101f48111156116c35760405162461bcd60e51b81526020600482015260066024820152654d617820352560d01b604482015260640161063a565b600455565b6000602082840312156116da57600080fd5b5035919050565b80356001600160a01b03811681146116f857600080fd5b919050565b60006020828403121561170f57600080fd5b611718826116e1565b9392505050565b602080825282518282018190526000919060409081850190868401855b8281101561179557815180516001600160a01b0316855286810151878601528581015186860152606080820151908601526080808201519086015260a09081015115159085015260c0909301929085019060010161173c565b5091979650505050505050565b600080604083850312156117b557600080fd5b6117be836116e1565b946020939093013593505050565b600080604083850312156117df57600080fd5b50508035926020909101359150565b60006020828403121561180057600080fd5b8151801515811461171857600080fd5b6000815180845260005b818110156118365760208185018101518683018201520161181a565b506000602082860101526020601f19601f83011685010191505092915050565b600061010060018060a01b038916835287602084015286604084015280606084015261188481840187611810565b90508281038060808501526000825285151560a085015263ffffffff851660c08501526020810160e0850152506000602082015260408101915050979650505050505050565b634e487b7160e01b600052601160045260246000fd5b808201808211156118f3576118f36118ca565b92915050565b818103818111156118f3576118f36118ca565b6020808252600a908201526927b7363c9037bbb732b960b11b604082015260600190565b634e487b7160e01b600052604160045260246000fd5b634e487b7160e01b600052603260045260246000fd5b60006001820161196e5761196e6118ca565b5060010190565b60006020828403121561198757600080fd5b5051919050565b80820281158282048414176118f3576118f36118ca565b6000826119c257634e487b7160e01b600052601260045260246000fd5b50049056fea26469706673582212208f8f7d7c579ebd8a3588ac60c345bb3448e8b78e8621a66e12197db778e0203164736f6c63430008140033",
  "linkReferences": {},
  "deployedLinkReferences": {}
}