{
  "_format": "hh-sol-artifact-1",
  "contractName": "MockHyperSwapRouter",
  "sourceName": "contracts/mocks/MockHyperSwapRouter.sol",
  "abi": [
    {
      "inputs": [
        {
          "internalType": "address",
          "name": "_usdc",
          "type": "address"
        },
        {
          "internalType": "address",
          "name": "_usdt0",
          "type": "address"
        },
        {
          "internalType": "address",
          "name": "_hype",
          "type": "address"
        }
      ],
      "stateMutability": "nonpayable",
      "type": "constructor"
    },
    {
      "inputs": [
        {
          "internalType": "uint256",
          "name": "amountIn",
          "type": "uint256"
        },
        {
          "internalType": "address[]",
          "name": "path",
          "type": "address[]"
        }
      ],
      "name": "getAmountsOut",
      "outputs": [
        {
          "internalType": "uint256[]",
          "name": "amounts",
          "type": "uint256[]"
        }
      ],
      "stateMutability": "pure",
      "type": "function"
    },
    {
      "inputs": [],
      "name": "hype",
      "outputs": [
        {
          "internalType": "address",
          "name": "",
          "type": "address"
        }
      ],
      "stateMutability": "view",
      "type": "function"
    },
    {
      "inputs": [
        {
          "internalType": "uint256",
          "name": "",
          "type": "uint256"
        },
        {
          "internalType": "address[]",
          "name": "path",
          "type": "address[]"
        },
        {
          "internalType": "address",
          "name": "to",
          "type": "address"
        },
        {
          "internalType": "uint256",
          "name": "",
          "type": "uint256"
        }
      ],
      "name": "swapExactETHForTokens",
      "outputs": [
        {
          "internalType": "uint256[]",
          "name": "amounts",
          "type": "uint256[]"
        }
      ],
      "stateMutability": "payable",
      "type": "function"
    },
    {
      "inputs": [
        {
          "internalType": "uint256",
          "name": "amountIn",
          "type": "uint256"
        },
        {
          "internalType": "uint256",
          "name": "amountOutMin",
          "type": "uint256"
        },
        {
          "internalType": "address[]",
          "name": "path",
          "type": "address[]"
        },
        {
          "internalType": "address",
          "name": "to",
          "type": "address"
        },
        {
          "internalType": "uint256",
          "name": "",
          "type": "uint256"
        }
      ],
      "name": "swapExactTokensForETH",
      "outputs": [
        {
          "internalType": "uint256[]",
          "name": "amounts",
          "type": "uint256[]"
        }
      ],
      "stateMutability": "nonpayable",
      "type": "function"
    },
    {
      "inputs": [
        {
          "internalType": "uint256",
          "name": "amountIn",
          "type": "uint256"
        },
        {
          "internalType": "uint256",
          "name": "",
          "type": "uint256"
        },
        {
          "internalType": "address[]",
          "name": "path",
          "type": "address[]"
        },
        {
          "internalType": "address",
          "name": "to",
          "type": "address"
        },
        {
          "internalType": "uint256",
          "name": "",
          "type": "uint256"
        }
      ],
      "name": "swapExactTokensForTokens",
      "outputs": [
        {
          "internalType": "uint256[]",
          "name": "amounts",
          "type": "uint256[]"
        }
      ],
      "stateMutability": "nonpayable",
      "type": "function"
    },
    {
      "inputs": [],
      "name": "usdc",
      "outputs": [
        {
          "internalType": "address",
          "name": "",
          "type": "address"
        }
      ],
      "stateMutability": "view",
      "type": "function"
    },
    {
      "inputs": [],
      "name": "usdt0",
      "outputs": [
        {
          "internalType": "address",
          "name": "",
          "type": "address"
        }
      ],
      "stateMutability": "view",
      "type": "function"
    },
    {
      "stateMutability": "payable",
      "type": "receive"
    }
  ],
  "bytecode": "0x608060405234801561001057600080fd5b50604051610d1b380380610d1b83398101604081905261002f9161008d565b600080546001600160a01b039485166001600160a01b0319918216179091556001805493851693821693909317909255600280549190931691161790556100d0565b80516001600160a01b038116811461008857600080fd5b919050565b6000806000606084860312156100a257600080fd5b6100ab84610071565b92506100b960208501610071565b91506100c760408501610071565b90509250925092565b610c3c806100df6000396000f3fe6080604052600436106100745760003560e01c80636ecf9f7b1161004e5780636ecf9f7b1461010e5780637ff36ab51461012e578063a9d3c87f14610141578063d06ca61f1461016157600080fd5b806318cbafe51461008057806338ed1739146100b65780633e413bee146100d657600080fd5b3661007b57005b600080fd5b34801561008c57600080fd5b506100a061009b3660046109af565b610181565b6040516100ad9190610a1f565b60405180910390f35b3480156100c257600080fd5b506100a06100d13660046109af565b61040f565b3480156100e257600080fd5b506000546100f6906001600160a01b031681565b6040516001600160a01b0390911681526020016100ad565b34801561011a57600080fd5b506002546100f6906001600160a01b031681565b6100a061013c366004610a63565b61060f565b34801561014d57600080fd5b506001546100f6906001600160a01b031681565b34801561016d57600080fd5b506100a061017c366004610ac9565b610766565b60608484600081811061019657610196610b15565b90506020020160208101906101ab9190610b2b565b6040516323b872dd60e01b8152336004820152306024820152604481018990526001600160a01b0391909116906323b872dd906064016020604051808303816000875af1158015610200573d6000803e3d6000fd5b505050506040513d601f19601f820116820180604052508101906102249190610b4d565b506000633b9aca0061023e89670de0b6b3a7640000610b85565b6102489190610ba2565b90506103e8610259826103e3610b85565b6102639190610ba2565b9050804710156102ba5760405162461bcd60e51b815260206004820152601860248201527f526f757465723a20496e73756666696369656e7420455448000000000000000060448201526064015b60405180910390fd5b8681101561030a5760405162461bcd60e51b815260206004820152601b60248201527f526f757465723a20496e73756666696369656e74206f7574707574000000000060448201526064016102b1565b6000846001600160a01b03168260405160006040518083038185875af1925050503d8060008114610357576040519150601f19603f3d011682016040523d82523d6000602084013e61035c565b606091505b50509050806103a35760405162461bcd60e51b8152602060048201526013602482015272115512081d1c985b9cd9995c8819985a5b1959606a1b60448201526064016102b1565b604080516002808252606082018352909160208301908036833701905050925088836000815181106103d7576103d7610b15565b60200260200101818152505081836001815181106103f7576103f7610b15565b60200260200101818152505050509695505050505050565b60608484600081811061042457610424610b15565b90506020020160208101906104399190610b2b565b6040516323b872dd60e01b8152336004820152306024820152604481018990526001600160a01b0391909116906323b872dd906064016020604051808303816000875af115801561048e573d6000803e3d6000fd5b505050506040513d601f19601f820116820180604052508101906104b29190610b4d565b5060006103e86104c4896103e3610b85565b6104ce9190610ba2565b905085856104dd600182610bda565b8181106104ec576104ec610b15565b90506020020160208101906105019190610b2b565b60405163a9059cbb60e01b81526001600160a01b03868116600483015260248201849052919091169063a9059cbb906044016020604051808303816000875af1158015610552573d6000803e3d6000fd5b505050506040513d601f19601f820116820180604052508101906105769190610b4d565b508467ffffffffffffffff81111561059057610590610bc4565b6040519080825280602002602001820160405280156105b9578160200160208202803683370190505b50915087826000815181106105d0576105d0610b15565b602090810291909101015280826105e8600188610bda565b815181106105f8576105f8610b15565b602002602001018181525050509695505050505050565b6060346000670de0b6b3a7640000610629836103e8610b85565b61063690620f4240610b85565b6106409190610ba2565b90506103e8610651826103e3610b85565b61065b9190610ba2565b90508686600181811061067057610670610b15565b90506020020160208101906106859190610b2b565b60405163a9059cbb60e01b81526001600160a01b03878116600483015260248201849052919091169063a9059cbb906044016020604051808303816000875af11580156106d6573d6000803e3d6000fd5b505050506040513d601f19601f820116820180604052508101906106fa9190610b4d565b506040805160028082526060820183529091602083019080368337019050509250818360008151811061072f5761072f610b15565b602002602001018181525050808360018151811061074f5761074f610b15565b602002602001018181525050505095945050505050565b60608167ffffffffffffffff81111561078157610781610bc4565b6040519080825280602002602001820160405280156107aa578160200160208202803683370190505b50905083816000815181106107c1576107c1610b15565b60209081029190910101528360015b8381101561093e57600081600114801561082b5750735555555555555555555555555555555555555555868660008161080b5761080b610b15565b90506020020160208101906108209190610b2b565b6001600160a01b0316145b9050600061083a600187610bda565b8314801561088a575073555555555555555555555555555555555555555587878581811061086a5761086a610b15565b905060200201602081019061087f9190610b2b565b6001600160a01b0316145b905081156108c557670de0b6b3a76400006108a7856103e8610b85565b6108b490620f4240610b85565b6108be9190610ba2565b93506108ef565b80156108ef57633b9aca006108e285670de0b6b3a7640000610b85565b6108ec9190610ba2565b93505b6103e86108fe856103e3610b85565b6109089190610ba2565b93508385848151811061091d5761091d610b15565b6020026020010181815250505050808061093690610bed565b9150506107d0565b50509392505050565b60008083601f84011261095957600080fd5b50813567ffffffffffffffff81111561097157600080fd5b6020830191508360208260051b850101111561098c57600080fd5b9250929050565b80356001600160a01b03811681146109aa57600080fd5b919050565b60008060008060008060a087890312156109c857600080fd5b8635955060208701359450604087013567ffffffffffffffff8111156109ed57600080fd5b6109f989828a01610947565b9095509350610a0c905060608801610993565b9150608087013590509295509295509295565b6020808252825182820181905260009190848201906040850190845b81811015610a5757835183529284019291840191600101610a3b565b50909695505050505050565b600080600080600060808688031215610a7b57600080fd5b85359450602086013567ffffffffffffffff811115610a9957600080fd5b610aa588828901610947565b9095509350610ab8905060408701610993565b949793965091946060013592915050565b600080600060408486031215610ade57600080fd5b83359250602084013567ffffffffffffffff811115610afc57600080fd5b610b0886828701610947565b9497909650939450505050565b634e487b7160e01b600052603260045260246000fd5b600060208284031215610b3d57600080fd5b610b4682610993565b9392505050565b600060208284031215610b5f57600080fd5b81518015158114610b4657600080fd5b634e487b7160e01b600052601160045260246000fd5b8082028115828204841417610b9c57610b9c610b6f565b92915050565b600082610bbf57634e487b7160e01b600052601260045260246000fd5b500490565b634e487b7160e01b600052604160045260246000fd5b81810381811115610b9c57610b9c610b6f565b600060018201610bff57610bff610b6f565b506001019056fea2646970667358221220e7393637e31651cbb91b5587654e74bbc81ed095f58176396d638bb8a6cd7ad664736f6c63430008140033",
  "linkReferences": {},
  "deployedLinkReferences": {}
}