{
  "_format": "hh-sol-artifact-1",
  "contractName": "MockVault",
  "sourceName": "contracts/mocks/MockVault.sol",
  "abi": [
    {
      "inputs": [
        {
          "internalType": "address",
          "name": "_asset",
          "type": "address"
        }
      ],
      "stateMutability": "nonpayable",
      "type": "constructor"
    },
    {
      "inputs": [
        {
          "internalType": "address",
          "name": "",
          "type": "address"
        },
        {
          "internalType": "address",
          "name": "",
          "type": "address"
        }
      ],
      "name": "allowances",
      "outputs": [
        {
          "internalType": "uint256",
          "name": "",
          "type": "uint256"
        }
      ],
      "stateMutability": "view",
      "type": "function"
    },
    {
      "inputs": [
        {
          "internalType": "address",
          "name": "spender",
          "type": "address"
        },
        {
          "internalType": "uint256",
          "name": "amount",
          "type": "uint256"
        }
      ],
      "name": "approve",
      "outputs": [
        {
          "internalType": "bool",
          "name": "",
          "type": "bool"
        }
      ],
      "stateMutability": "nonpayable",
      "type": "function"
    },
    {
      "inputs": [],
      "name": "asset",
      "outputs": [
        {
          "internalType": "address",
          "name": "",
          "type": "address"
        }
      ],
      "stateMutability": "view",
      "type": "function"
    },
    {
      "inputs": [
        {
          "internalType": "uint256",
          "name": "shareAmount",
          "type": "uint256"
        }
      ],
      "name": "convertToAssets",
      "outputs": [
        {
          "internalType": "uint256",
          "name": "",
          "type": "uint256"
        }
      ],
      "stateMutability": "pure",
      "type": "function"
    },
    {
      "inputs": [
        {
          "internalType": "uint256",
          "name": "amount",
          "type": "uint256"
        },
        {
          "internalType": "address",
          "name": "depositor",
          "type": "address"
        }
      ],
      "name": "deposit",
      "outputs": [],
      "stateMutability": "nonpayable",
      "type": "function"
    },
    {
      "inputs": [
        {
          "internalType": "address",
          "name": "to",
          "type": "address"
        },
        {
          "internalType": "uint256",
          "name": "amount",
          "type": "uint256"
        }
      ],
      "name": "mintShares",
      "outputs": [],
      "stateMutability": "nonpayable",
      "type": "function"
    },
    {
      "inputs": [
        {
          "internalType": "address",
          "name": "",
          "type": "address"
        }
      ],
      "name": "shares",
      "outputs": [
        {
          "internalType": "uint256",
          "name": "",
          "type": "uint256"
        }
      ],
      "stateMutability": "view",
      "type": "function"
    },
    {
      "inputs": [
        {
          "internalType": "uint256",
          "name": "shareAmount",
          "type": "uint256"
        },
        {
          "internalType": "address",
          "name": "recipient",
          "type": "address"
        }
      ],
      "name": "withdraw",
      "outputs": [
        {
          "internalType": "uint256",
          "name": "",
          "type": "uint256"
        }
      ],
      "stateMutability": "nonpayable",
      "type": "function"
    }
  ],
  "bytecode": "0x608060405234801561001057600080fd5b5060405161064d38038061064d83398101604081905261002f91610054565b600080546001600160a01b0319166001600160a01b0392909216919091179055610084565b60006020828403121561006657600080fd5b81516001600160a01b038116811461007d57600080fd5b9392505050565b6105ba806100936000396000f3fe608060405234801561001057600080fd5b50600436106100875760003560e01c8063528c198a1161005b578063528c198a1461013957806355b6ed5c1461014e5780636e553f6514610179578063ce7c2ac21461018c57600080fd5b8062f714ce1461008c57806307a2d13a146100b2578063095ea7b3146100c357806338d52e0f1461010e575b600080fd5b61009f61009a36600461046b565b6101ac565b6040519081526020015b60405180910390f35b61009f6100c0366004610497565b90565b6100fe6100d13660046104b0565b3360009081526002602090815260408083206001600160a01b039590951683529390529190912055600190565b60405190151581526020016100a9565b600054610121906001600160a01b031681565b6040516001600160a01b0390911681526020016100a9565b61014c6101473660046104b0565b61037a565b005b61009f61015c3660046104da565b600260209081526000928352604080842090915290825290205481565b61014c61018736600461046b565b6103ab565b61009f61019a366004610504565b60016020526000908152604090205481565b6001600160a01b0381166000908152600260209081526040808320338452909152812054831115806101e65750336001600160a01b038316145b6102265760405162461bcd60e51b815260206004820152600c60248201526b139bdd08185c1c1c9bdd995960a21b60448201526064015b60405180910390fd5b6001600160a01b0382166000908152600160205260409020548311156102845760405162461bcd60e51b8152602060048201526013602482015272496e73756666696369656e742073686172657360681b604482015260640161021d565b6001600160a01b038216600090815260016020526040812080548592906102ac90849061053c565b9091555050336001600160a01b038316146102fa576001600160a01b0382166000908152600260209081526040808320338452909152812080548592906102f490849061053c565b90915550505b60005460405163a9059cbb60e01b8152336004820152602481018590526001600160a01b039091169063a9059cbb906044016020604051808303816000875af115801561034b573d6000803e3d6000fd5b505050506040513d601f19601f8201168201806040525081019061036f919061054f565b508290505b92915050565b6001600160a01b038216600090815260016020526040812080548392906103a2908490610571565b90915550505050565b6000546040516323b872dd60e01b8152336004820152306024820152604481018490526001600160a01b03909116906323b872dd906064016020604051808303816000875af1158015610402573d6000803e3d6000fd5b505050506040513d601f19601f82011682018060405250810190610426919061054f565b506001600160a01b038116600090815260016020526040812080548492906103a2908490610571565b80356001600160a01b038116811461046657600080fd5b919050565b6000806040838503121561047e57600080fd5b8235915061048e6020840161044f565b90509250929050565b6000602082840312156104a957600080fd5b5035919050565b600080604083850312156104c357600080fd5b6104cc8361044f565b946020939093013593505050565b600080604083850312156104ed57600080fd5b6104f68361044f565b915061048e6020840161044f565b60006020828403121561051657600080fd5b61051f8261044f565b9392505050565b634e487b7160e01b600052601160045260246000fd5b8181038181111561037457610374610526565b60006020828403121561056157600080fd5b8151801515811461051f57600080fd5b808201808211156103745761037461052656fea26469706673582212204dddbe9ff4a1797dc064eb2ffa177ea0ce0006d8f940f9f212b5e2f449a44dbd64736f6c63430008140033",
  "linkReferences": {},
  "deployedLinkReferences": {}
}