{
  "_format": "hh-sol-artifact-1",
  "contractName": "HyperSwap",
  "sourceName": "contracts/HyperSwap.sol",
  "abi": [
    {
      "inputs": [
        {
          "internalType": "address",
          "name": "_hyperswapRouter",
          "type": "address"
        }
      ],
      "stateMutability": "nonpayable",
      "type": "constructor"
    },
    {
      "anonymous": false,
      "inputs": [],
      "name": "Paused",
      "type": "event"
    },
    {
      "anonymous": false,
      "inputs": [
        {
          "indexed": true,
          "internalType": "address",
          "name": "oldRouter",
          "type": "address"
        },
        {
          "indexed": true,
          "internalType": "address",
          "name": "newRouter",
          "type": "address"
        }
      ],
      "name": "RouterUpdated",
      "type": "event"
    },
    {
      "anonymous": false,
      "inputs": [
        {
          "indexed": false,
          "internalType": "uint256",
          "name": "oldSlippage",
          "type": "uint256"
        },
        {
          "indexed": false,
          "internalType": "uint256",
          "name": "newSlippage",
          "type": "uint256"
        }
      ],
      "name": "SlippageUpdated",
      "type": "event"
    },
    {
      "anonymous": false,
      "inputs": [
        {
          "indexed": true,
          "internalType": "address",
          "name": "user",
          "type": "address"
        },
        {
          "indexed": true,
          "internalType": "address",
          "name": "tokenIn",
          "type": "address"
        },
        {
          "indexed": true,
          "internalType": "address",
          "name": "tokenOut",
          "type": "address"
        },
        {
          "indexed": false,
          "internalType": "uint256",
          "name": "amountIn",
          "type": "uint256"
        },
        {
          "indexed": false,
          "internalType": "uint256",
          "name": "amountOut",
          "type": "uint256"
        }
      ],
      "name": "Swapped",
      "type": "event"
    },
    {
      "anonymous": false,
      "inputs": [],
      "name": "Unpaused",
      "type": "event"
    },
    {
      "inputs": [],
      "name": "HYPERSWAP_ROUTER",
      "outputs": [
        {
          "internalType": "address",
          "name": "",
          "type": "address"
        }
      ],
      "stateMutability": "view",
      "type": "function"
    },
    {
      "inputs": [],
      "name": "UBTC",
      "outputs": [
        {
          "internalType": "address",
          "name": "",
          "type": "address"
        }
      ],
      "stateMutability": "view",
      "type": "function"
    },
    {
      "inputs": [],
      "name": "UETH",
      "outputs": [
        {
          "internalType": "address",
          "name": "",
          "type": "address"
        }
      ],
      "stateMutability": "view",
      "type": "function"
    },
    {
      "inputs": [],
      "name": "USDC",
      "outputs": [
        {
          "internalType": "address",
          "name": "",
          "type": "address"
        }
      ],
      "stateMutability": "view",
      "type": "function"
    },
    {
      "inputs": [],
      "name": "USDH",
      "outputs": [
        {
          "internalType": "address",
          "name": "",
          "type": "address"
        }
      ],
      "stateMutability": "view",
      "type": "function"
    },
    {
      "inputs": [],
      "name": "USDHL",
      "outputs": [
        {
          "internalType": "address",
          "name": "",
          "type": "address"
        }
      ],
      "stateMutability": "view",
      "type": "function"
    },
    {
      "inputs": [],
      "name": "USDT0",
      "outputs": [
        {
          "internalType": "address",
          "name": "",
          "type": "address"
        }
      ],
      "stateMutability": "view",
      "type": "function"
    },
    {
      "inputs": [],
      "name": "USDe",
      "outputs": [
        {
          "internalType": "address",
          "name": "",
          "type": "address"
        }
      ],
      "stateMutability": "view",
      "type": "function"
    },
    {
      "inputs": [],
      "name": "USOL",
      "outputs": [
        {
          "internalType": "address",
          "name": "",
          "type": "address"
        }
      ],
      "stateMutability": "view",
      "type": "function"
    },
    {
      "inputs": [],
      "name": "USR",
      "outputs": [
        {
          "internalType": "address",
          "name": "",
          "type": "address"
        }
      ],
      "stateMutability": "view",
      "type": "function"
    },
    {
      "inputs": [],
      "name": "WHYPE",
      "outputs": [
        {
          "internalType": "address",
          "name": "",
          "type": "address"
        }
      ],
      "stateMutability": "view",
      "type": "function"
    },
    {
      "inputs": [
        {
          "components": [
            {
              "internalType": "address",
              "name": "tokenIn",
              "type": "address"
            },
            {
              "internalType": "address",
              "name": "tokenOut",
              "type": "address"
            },
            {
              "internalType": "uint256",
              "name": "amountIn",
              "type": "uint256"
            },
            {
              "internalType": "uint256",
              "name": "minAmountOut",
              "type": "uint256"
            },
            {
              "internalType": "address[]",
              "name": "customPath",
              "type": "address[]"
            }
          ],
          "internalType": "struct HyperSwap.SwapConfig[]",
          "name": "swaps",
          "type": "tuple[]"
        }
      ],
      "name": "batchSwap",
      "outputs": [
        {
          "internalType": "uint256[]",
          "name": "amountsOut",
          "type": "uint256[]"
        }
      ],
      "stateMutability": "nonpayable",
      "type": "function"
    },
    {
      "inputs": [],
      "name": "beHYPE",
      "outputs": [
        {
          "internalType": "address",
          "name": "",
          "type": "address"
        }
      ],
      "stateMutability": "view",
      "type": "function"
    },
    {
      "inputs": [],
      "name": "defaultSlippageBps",
      "outputs": [
        {
          "internalType": "uint256",
          "name": "",
          "type": "uint256"
        }
      ],
      "stateMutability": "view",
      "type": "function"
    },
    {
      "inputs": [
        {
          "internalType": "address",
          "name": "token",
          "type": "address"
        },
        {
          "internalType": "uint256",
          "name": "amount",
          "type": "uint256"
        }
      ],
      "name": "emergencyWithdraw",
      "outputs": [],
      "stateMutability": "nonpayable",
      "type": "function"
    },
    {
      "inputs": [
        {
          "internalType": "address",
          "name": "tokenIn",
          "type": "address"
        },
        {
          "internalType": "address",
          "name": "tokenOut",
          "type": "address"
        },
        {
          "internalType": "uint256",
          "name": "amountIn",
          "type": "uint256"
        }
      ],
      "name": "getQuote",
      "outputs": [
        {
          "internalType": "uint256",
          "name": "amountOut",
          "type": "uint256"
        },
        {
          "internalType": "uint256",
          "name": "minAmountOut",
          "type": "uint256"
        }
      ],
      "stateMutability": "view",
      "type": "function"
    },
    {
      "inputs": [
        {
          "internalType": "uint256",
          "name": "amountIn",
          "type": "uint256"
        },
        {
          "internalType": "address[]",
          "name": "path",
          "type": "address[]"
        }
      ],
      "name": "getQuoteWithPath",
      "outputs": [
        {
          "internalType": "uint256",
          "name": "amountOut",
          "type": "uint256"
        },
        {
          "internalType": "uint256",
          "name": "minAmountOut",
          "type": "uint256"
        }
      ],
      "stateMutability": "view",
      "type": "function"
    },
    {
      "inputs": [],
      "name": "getSupportedTokens",
      "outputs": [
        {
          "internalType": "address[]",
          "name": "",
          "type": "address[]"
        }
      ],
      "stateMutability": "pure",
      "type": "function"
    },
    {
      "inputs": [
        {
          "internalType": "uint256",
          "name": "index",
          "type": "uint256"
        }
      ],
      "name": "getTokenInfo",
      "outputs": [
        {
          "internalType": "address",
          "name": "tokenAddress",
          "type": "address"
        },
        {
          "internalType": "string",
          "name": "name",
          "type": "string"
        }
      ],
      "stateMutability": "pure",
      "type": "function"
    },
    {
      "inputs": [],
      "name": "hyperswapRouter",
      "outputs": [
        {
          "internalType": "address",
          "name": "",
          "type": "address"
        }
      ],
      "stateMutability": "view",
      "type": "function"
    },
    {
      "inputs": [
        {
          "internalType": "address",
          "name": "token",
          "type": "address"
        }
      ],
      "name": "isStablecoin",
      "outputs": [
        {
          "internalType": "bool",
          "name": "",
          "type": "bool"
        }
      ],
      "stateMutability": "pure",
      "type": "function"
    },
    {
      "inputs": [],
      "name": "owner",
      "outputs": [
        {
          "internalType": "address",
          "name": "",
          "type": "address"
        }
      ],
      "stateMutability": "view",
      "type": "function"
    },
    {
      "inputs": [],
      "name": "pause",
      "outputs": [],
      "stateMutability": "nonpayable",
      "type": "function"
    },
    {
      "inputs": [],
      "name": "paused",
      "outputs": [
        {
          "internalType": "bool",
          "name": "",
          "type": "bool"
        }
      ],
      "stateMutability": "view",
      "type": "function"
    },
    {
      "inputs": [],
      "name": "sUSDe",
      "outputs": [
        {
          "internalType": "address",
          "name": "",
          "type": "address"
        }
      ],
      "stateMutability": "view",
      "type": "function"
    },
    {
      "inputs": [
        {
          "internalType": "address",
          "name": "newRouter",
          "type": "address"
        }
      ],
      "name": "setRouter",
      "outputs": [],
      "stateMutability": "nonpayable",
      "type": "function"
    },
    {
      "inputs": [
        {
          "internalType": "uint256",
          "name": "newSlippage",
          "type": "uint256"
        }
      ],
      "name": "setSlippage",
      "outputs": [],
      "stateMutability": "nonpayable",
      "type": "function"
    },
    {
      "inputs": [
        {
          "internalType": "address",
          "name": "tokenIn",
          "type": "address"
        },
        {
          "internalType": "address",
          "name": "tokenOut",
          "type": "address"
        },
        {
          "internalType": "uint256",
          "name": "amountIn",
          "type": "uint256"
        },
        {
          "internalType": "uint256",
          "name": "minAmountOut",
          "type": "uint256"
        },
        {
          "internalType": "bool",
          "name": "useCustomPath",
          "type": "bool"
        },
        {
          "internalType": "address[]",
          "name": "customPath",
          "type": "address[]"
        }
      ],
      "name": "swap",
      "outputs": [
        {
          "internalType": "uint256",
          "name": "amountOut",
          "type": "uint256"
        }
      ],
      "stateMutability": "nonpayable",
      "type": "function"
    },
    {
      "inputs": [
        {
          "internalType": "address",
          "name": "tokenOut",
          "type": "address"
        },
        {
          "internalType": "uint256",
          "name": "minAmountOut",
          "type": "uint256"
        }
      ],
      "name": "swapHYPEForToken",
      "outputs": [
        {
          "internalType": "uint256",
          "name": "amountOut",
          "type": "uint256"
        }
      ],
      "stateMutability": "payable",
      "type": "function"
    },
    {
      "inputs": [
        {
          "internalType": "address",
          "name": "stableIn",
          "type": "address"
        },
        {
          "internalType": "address",
          "name": "stableOut",
          "type": "address"
        },
        {
          "internalType": "uint256",
          "name": "amountIn",
          "type": "uint256"
        }
      ],
      "name": "swapStables",
      "outputs": [
        {
          "internalType": "uint256",
          "name": "amountOut",
          "type": "uint256"
        }
      ],
      "stateMutability": "nonpayable",
      "type": "function"
    },
    {
      "inputs": [
        {
          "internalType": "address",
          "name": "tokenIn",
          "type": "address"
        },
        {
          "internalType": "uint256",
          "name": "amountIn",
          "type": "uint256"
        },
        {
          "internalType": "uint256",
          "name": "minAmountOut",
          "type": "uint256"
        }
      ],
      "name": "swapTokenForHYPE",
      "outputs": [
        {
          "internalType": "uint256",
          "name": "amountOut",
          "type": "uint256"
        }
      ],
      "stateMutability": "nonpayable",
      "type": "function"
    },
    {
      "inputs": [
        {
          "internalType": "address",
          "name": "newOwner",
          "type": "address"
        }
      ],
      "name": "transferOwnership",
      "outputs": [],
      "stateMutability": "nonpayable",
      "type": "function"
    },
    {
      "inputs": [],
      "name": "unpause",
      "outputs": [],
      "stateMutability": "nonpayable",
      "type": "function"
    },
    {
      "inputs": [],
      "name": "wstHYPE",
      "outputs": [
        {
          "internalType": "address",
          "name": "",
          "type": "address"
        }
      ],
      "stateMutability": "view",
      "type": "function"
    },
    {
      "stateMutability": "payable",
      "type": "receive"
    }
  ],
  "bytecode": "0x608060405260326002553480156200001657600080fd5b5060405162003148380380620031488339810160408190526200003991620000a9565b600080546001600160a01b031916331790556001600160a01b0381166200008657600180546001600160a01b03191673b4a9c4e6ea8e2191d2fa5b380452a634fb21240a179055620000a2565b600180546001600160a01b0319166001600160a01b0383161790555b50620000db565b600060208284031215620000bc57600080fd5b81516001600160a01b0381168114620000d457600080fd5b9392505050565b61305d80620000eb6000396000f3fe6080604052600436106101fd5760003560e01c80638c57a5c71161010d578063c0d78655116100a0578063defc2d791161006f578063defc2d791461063d578063e0d05d3914610665578063f0fa55a91461068d578063f2fde38b146106ad578063f61c8512146106cd57600080fd5b8063c0d78655146105b3578063c515ee23146105d3578063d1609502146105f3578063d3c7c2c71461061b57600080fd5b806395ccea67116100dc57806395ccea671461054257806395de8f3114610562578063966676211461058a578063a35ea8c2146105a057600080fd5b80638c57a5c7146104ac5780638c7a63ae146104d45780638d502a49146105025780638da5cb5b1461052257600080fd5b80634d5243af1161019057806371f39cd51161015f57806371f39cd5146103f757806382d2dcfb1461041f5780638456cb591461044757806386d4c4231461045c57806389a302711461048457600080fd5b80634d5243af1461036557806359f613a41461038d5780635a2207c1146103b55780635c975abb146103dd57600080fd5b806334debc88116101cc57806334debc88146102b95780633f4ba83a146102f15780634a67dad0146103085780634d1a7dee1461033d57600080fd5b80631a650cc71461020957806323e72fcd1461023e57806328766ed91461026c57806333d2b91a1461029957600080fd5b3661020457005b600080fd5b34801561021557600080fd5b50610229610224366004612892565b6106f5565b60405190151581526020015b60405180910390f35b34801561024a57600080fd5b5061025e6102593660046128b4565b610807565b604051908152602001610235565b34801561027857600080fd5b5061028c61028736600461293c565b610b10565b604051610235919061297e565b3480156102a557600080fd5b5061025e6102b43660046129c2565b610ec8565b3480156102c557600080fd5b506001546102d9906001600160a01b031681565b6040516001600160a01b039091168152602001610235565b3480156102fd57600080fd5b506103066111b8565b005b34801561031457600080fd5b506103286103233660046129f5565b611217565b60408051928352602083019190915201610235565b34801561034957600080fd5b506102d973b8ce59fc3717ada4c02eadf9682a9e934f625ebb81565b34801561037157600080fd5b506102d973068f321fa8fb9f0d135f290ef6a3e2813e1c8a2981565b34801561039957600080fd5b506102d973555555555555555555555555555555555555555581565b3480156103c157600080fd5b506102d973111111a1a0667d36bd57c0a9f569b9805711111181565b3480156103e957600080fd5b506003546102299060ff1681565b34801561040357600080fd5b506102d97394e8396e0869c9f2200760af0621afd240e1cf3881565b34801561042b57600080fd5b506102d973be6727b535545c67d5caa73dea54865b92cf790781565b34801561045357600080fd5b506103066112f2565b34801561046857600080fd5b506102d9739fdbda0a5e284c32744d2f17ee5c74b28499346381565b34801561049057600080fd5b506102d973b88339cb7199b77e23db6e890353e22632ba630f81565b3480156104b857600080fd5b506102d973b50a96253abdf803d85efcdce07ad8becbc52bd581565b3480156104e057600080fd5b506104f46104ef366004612a41565b611354565b604051610235929190612a5a565b34801561050e57600080fd5b5061025e61051d366004612ac9565b611ae4565b34801561052e57600080fd5b506000546102d9906001600160a01b031681565b34801561054e57600080fd5b5061030661055d366004612b54565b611e6d565b34801561056e57600080fd5b506102d973b4a9c4e6ea8e2191d2fa5b380452a634fb21240a81565b34801561059657600080fd5b5061025e60025481565b61025e6105ae366004612b54565b611f5a565b3480156105bf57600080fd5b506103066105ce366004612892565b61215d565b3480156105df57600080fd5b506103286105ee3660046128b4565b612220565b3480156105ff57600080fd5b506102d9735d3a1ff2b6bab83b63cd9ad0787074081a52ef3481565b34801561062757600080fd5b5061063061236a565b6040516102359190612bc2565b34801561064957600080fd5b506102d9730ad339d66bf4aed5ce31c64bc37b3244b6394a7781565b34801561067157600080fd5b506102d973211cc4dd073734da055fbf44a2b4667d5e5fe5d281565b34801561069957600080fd5b506103066106a8366004612a41565b612738565b3480156106b957600080fd5b506103066106c8366004612892565b6127e2565b3480156106d957600080fd5b506102d973d8fc8f0b03eba61f64d08b0bef69d80916e5dda981565b60006001600160a01b03821673b8ce59fc3717ada4c02eadf9682a9e934f625ebb148061073e57506001600160a01b03821673b88339cb7199b77e23db6e890353e22632ba630f145b8061076557506001600160a01b03821673111111a1a0667d36bd57c0a9f569b98057111111145b8061078c57506001600160a01b038216730ad339d66bf4aed5ce31c64bc37b3244b6394a77145b806107b357506001600160a01b03821673211cc4dd073734da055fbf44a2b4667d5e5fe5d2145b806107da57506001600160a01b038216735d3a1ff2b6bab83b63cd9ad0787074081a52ef34145b8061080157506001600160a01b03821673b50a96253abdf803d85efcdce07ad8becbc52bd5145b92915050565b60035460009060ff16156108365760405162461bcd60e51b815260040161082d90612bd5565b60405180910390fd5b61083f846106f5565b801561084f575061084f836106f5565b61088d5760405162461bcd60e51b815260206004820152600f60248201526e4e6f7420737461626c65636f696e7360881b604482015260640161082d565b600061271061089e84612706612c0b565b6108a89190612c22565b6040516323b872dd60e01b81529091506001600160a01b038616906323b872dd906108db90339030908890600401612c44565b6020604051808303816000875af11580156108fa573d6000803e3d6000fd5b505050506040513d601f19601f8201168201806040525081019061091e9190612c68565b5060015460405163095ea7b360e01b81526001600160a01b039182166004820152602481018590529086169063095ea7b3906044016020604051808303816000875af1158015610972573d6000803e3d6000fd5b505050506040513d601f19601f820116820180604052508101906109969190612c68565b5060408051600280825260608201835260009260208301908036833701905050905085816000815181106109cc576109cc612c9b565b60200260200101906001600160a01b031690816001600160a01b0316815250508481600181518110610a0057610a00612c9b565b6001600160a01b039283166020918202929092010152600154600091166338ed173986858533610a324261012c612cb1565b6040518663ffffffff1660e01b8152600401610a52959493929190612cc4565b6000604051808303816000875af1158015610a71573d6000803e3d6000fd5b505050506040513d6000823e601f3d908101601f19168201604052610a999190810190612d7e565b905080600181518110610aae57610aae612c9b565b60200260200101519350856001600160a01b0316876001600160a01b0316336001600160a01b03166000805160206130088339815191528888604051610afe929190918252602082015260400190565b60405180910390a45050509392505050565b60035460609060ff1615610b365760405162461bcd60e51b815260040161082d90612bd5565b8167ffffffffffffffff811115610b4f57610b4f612c85565b604051908082528060200260200182016040528015610b78578160200160208202803683370190505b50905060005b82811015610ec1576000848483818110610b9a57610b9a612c9b565b9050602002810190610bac9190612e14565b610bb590612e34565b805160408083015190516323b872dd60e01b81529293506001600160a01b03909116916323b872dd91610bee9133913091600401612c44565b6020604051808303816000875af1158015610c0d573d6000803e3d6000fd5b505050506040513d601f19601f82011682018060405250810190610c319190612c68565b508051600154604080840151905163095ea7b360e01b81526001600160a01b039283166004820152602481019190915291169063095ea7b3906044016020604051808303816000875af1158015610c8c573d6000803e3d6000fd5b505050506040513d601f19601f82011682018060405250810190610cb09190612c68565b506060600282608001515110610ccb57506080810151610d5c565b6040805160028082526060820183529091602083019080368337019050509050816000015181600081518110610d0357610d03612c9b565b60200260200101906001600160a01b031690816001600160a01b031681525050816020015181600181518110610d3b57610d3b612c9b565b60200260200101906001600160a01b031690816001600160a01b0316815250505b600154604083015160608401516000926001600160a01b0316916338ed1739918533610d8a4261012c612cb1565b6040518663ffffffff1660e01b8152600401610daa959493929190612cc4565b6000604051808303816000875af1158015610dc9573d6000803e3d6000fd5b505050506040513d6000823e601f3d908101601f19168201604052610df19190810190612d7e565b90508060018251610e029190612f0b565b81518110610e1257610e12612c9b565b6020026020010151858581518110610e2c57610e2c612c9b565b60200260200101818152505082602001516001600160a01b031683600001516001600160a01b0316336001600160a01b03166000805160206130088339815191528660400151898981518110610e8457610e84612c9b565b6020026020010151604051610ea3929190918252602082015260400190565b60405180910390a45050508080610eb990612f1e565b915050610b7e565b5092915050565b60035460009060ff1615610eee5760405162461bcd60e51b815260040161082d90612bd5565b60008311610f2c5760405162461bcd60e51b815260206004820152600b60248201526a16995c9bc8185b5bdd5b9d60aa1b604482015260640161082d565b6040516323b872dd60e01b81526001600160a01b038516906323b872dd90610f5c90339030908890600401612c44565b6020604051808303816000875af1158015610f7b573d6000803e3d6000fd5b505050506040513d601f19601f82011682018060405250810190610f9f9190612c68565b5060015460405163095ea7b360e01b81526001600160a01b039182166004820152602481018590529085169063095ea7b3906044016020604051808303816000875af1158015610ff3573d6000803e3d6000fd5b505050506040513d601f19601f820116820180604052508101906110179190612c68565b50604080516002808252606082018352600092602083019080368337019050509050848160008151811061104d5761104d612c9b565b60200260200101906001600160a01b031690816001600160a01b0316815250507355555555555555555555555555555555555555558160018151811061109557611095612c9b565b6001600160a01b039283166020918202929092010152600154600091166318cbafe5868685336110c74261012c612cb1565b6040518663ffffffff1660e01b81526004016110e7959493929190612cc4565b6000604051808303816000875af1158015611106573d6000803e3d6000fd5b505050506040513d6000823e601f3d908101601f1916820160405261112e9190810190612d7e565b90508060018151811061114357611143612c9b565b602002602001015192507355555555555555555555555555555555555555556001600160a01b0316866001600160a01b0316336001600160a01b031660008051602061300883398151915288876040516111a7929190918252602082015260400190565b60405180910390a450509392505050565b6000546001600160a01b031633146111e25760405162461bcd60e51b815260040161082d90612f37565b6003805460ff191690556040517fa45f47fdea8a1efdd9029a5691c7f759c32b7c698632b563573e155625d1693390600090a1565b60015460405163d06ca61f60e01b8152600091829182916001600160a01b03169063d06ca61f9061125090899089908990600401612f5b565b600060405180830381865afa15801561126d573d6000803e3d6000fd5b505050506040513d6000823e601f3d908101601f191682016040526112959190810190612d7e565b905080600182516112a69190612f0b565b815181106112b6576112b6612c9b565b602002602001015192506127106002546127106112d39190612f0b565b6112dd9085612c0b565b6112e79190612c22565b915050935093915050565b6000546001600160a01b0316331461131c5760405162461bcd60e51b815260040161082d90612f37565b6003805460ff191660011790556040517f9e87fac88ff661f02d44f95383c817fece4bce600a3dab7a54406878b965e75290600090a1565b60408051600d8082526101c082019092526000916060918391602082016101a080368337505060408051600d8082526101c082019092529293506000929150602082015b6060815260200190600190039081611398579050509050735555555555555555555555555555555555555555826000815181106113d7576113d7612c9b565b60200260200101906001600160a01b031690816001600160a01b0316815250506040518060400160405280600c81526020016b57726170706564204859504560a01b8152508160008151811061142f5761142f612c9b565b602002602001018190525073b8ce59fc3717ada4c02eadf9682a9e934f625ebb8260018151811061146257611462612c9b565b60200260200101906001600160a01b031690816001600160a01b03168152505060405180604001604052806005815260200164055534454360dc1b815250816001815181106114b3576114b3612c9b565b602002602001018190525073b88339cb7199b77e23db6e890353e22632ba630f826002815181106114e6576114e6612c9b565b60200260200101906001600160a01b031690816001600160a01b031681525050604051806040016040528060048152602001635553444360e01b8152508160028151811061153657611536612c9b565b602002602001018190525073111111a1a0667d36bd57c0a9f569b980571111118260038151811061156957611569612c9b565b60200260200101906001600160a01b031690816001600160a01b031681525050604051806040016040528060048152602001630aaa688960e31b815250816003815181106115b9576115b9612c9b565b6020026020010181905250730ad339d66bf4aed5ce31c64bc37b3244b6394a77826004815181106115ec576115ec612c9b565b60200260200101906001600160a01b031690816001600160a01b031681525050604051806040016040528060038152602001622aa9a960e91b8152508160048151811061163b5761163b612c9b565b602002602001018190525073211cc4dd073734da055fbf44a2b4667d5e5fe5d28260058151811061166e5761166e612c9b565b60200260200101906001600160a01b031690816001600160a01b03168152505060405180604001604052806005815260200164735553446560d81b815250816005815181106116bf576116bf612c9b565b6020026020010181905250735d3a1ff2b6bab83b63cd9ad0787074081a52ef34826006815181106116f2576116f2612c9b565b60200260200101906001600160a01b031690816001600160a01b031681525050604051806040016040528060048152602001635553446560e01b8152508160068151811061174257611742612c9b565b6020026020010181905250739fdbda0a5e284c32744d2f17ee5c74b2849934638260078151811061177557611775612c9b565b60200260200101906001600160a01b031690816001600160a01b031681525050604051806040016040528060048152602001635542544360e01b815250816007815181106117c5576117c5612c9b565b60200260200101819052507394e8396e0869c9f2200760af0621afd240e1cf38826008815181106117f8576117f8612c9b565b60200260200101906001600160a01b031690816001600160a01b031681525050604051806040016040528060078152602001667773744859504560c81b8152508160088151811061184b5761184b612c9b565b602002602001018190525073be6727b535545c67d5caa73dea54865b92cf79078260098151811061187e5761187e612c9b565b60200260200101906001600160a01b031690816001600160a01b031681525050604051806040016040528060048152602001630aa8aa8960e31b815250816009815181106118ce576118ce612c9b565b602002602001018190525073d8fc8f0b03eba61f64d08b0bef69d80916e5dda982600a8151811061190157611901612c9b565b60200260200101906001600160a01b031690816001600160a01b0316815250506040518060400160405280600681526020016562654859504560d01b81525081600a8151811061195357611953612c9b565b602002602001018190525073b50a96253abdf803d85efcdce07ad8becbc52bd582600b8151811061198657611986612c9b565b60200260200101906001600160a01b031690816001600160a01b031681525050604051806040016040528060058152602001641554d1121360da1b81525081600b815181106119d7576119d7612c9b565b602002602001018190525073068f321fa8fb9f0d135f290ef6a3e2813e1c8a2982600c81518110611a0a57611a0a612c9b565b60200260200101906001600160a01b031690816001600160a01b031681525050604051806040016040528060048152602001631554d3d360e21b81525081600c81518110611a5a57611a5a612c9b565b6020026020010181905250600d8510611aa55760405162461bcd60e51b815260206004820152600d60248201526c092dcecc2d8d2c840d2dcc8caf609b1b604482015260640161082d565b818581518110611ab757611ab7612c9b565b6020026020010151818681518110611ad157611ad1612c9b565b6020026020010151935093505050915091565b60035460009060ff1615611b0a5760405162461bcd60e51b815260040161082d90612bd5565b60008611611b485760405162461bcd60e51b815260206004820152600b60248201526a16995c9bc8185b5bdd5b9d60aa1b604482015260640161082d565b866001600160a01b0316886001600160a01b031603611b965760405162461bcd60e51b815260206004820152600a60248201526929b0b6b2903a37b5b2b760b11b604482015260640161082d565b6040516323b872dd60e01b81526001600160a01b038916906323b872dd90611bc690339030908b90600401612c44565b6020604051808303816000875af1158015611be5573d6000803e3d6000fd5b505050506040513d601f19601f82011682018060405250810190611c099190612c68565b5060015460405163095ea7b360e01b81526001600160a01b039182166004820152602481018890529089169063095ea7b3906044016020604051808303816000875af1158015611c5d573d6000803e3d6000fd5b505050506040513d601f19601f82011682018060405250810190611c819190612c68565b506060848015611c92575060028310155b15611cd357838380806020026020016040519081016040528093929190818152602001838360200280828437600092019190915250929350611d5c92505050565b60408051600280825260608201835290916020830190803683370190505090508881600081518110611d0757611d07612c9b565b60200260200101906001600160a01b031690816001600160a01b0316815250508781600181518110611d3b57611d3b612c9b565b60200260200101906001600160a01b031690816001600160a01b0316815250505b6001546000906001600160a01b03166338ed173989898533611d804261012c612cb1565b6040518663ffffffff1660e01b8152600401611da0959493929190612cc4565b6000604051808303816000875af1158015611dbf573d6000803e3d6000fd5b505050506040513d6000823e601f3d908101601f19168201604052611de79190810190612d7e565b90508060018251611df89190612f0b565b81518110611e0857611e08612c9b565b60200260200101519250886001600160a01b03168a6001600160a01b0316336001600160a01b03166000805160206130088339815191528b87604051611e58929190918252602082015260400190565b60405180910390a45050979650505050505050565b6000546001600160a01b03163314611e975760405162461bcd60e51b815260040161082d90612f37565b6001600160a01b038216611ee357600080546040516001600160a01b039091169183156108fc02918491818181858888f19350505050158015611ede573d6000803e3d6000fd5b505050565b60005460405163a9059cbb60e01b81526001600160a01b039182166004820152602481018390529083169063a9059cbb906044016020604051808303816000875af1158015611f36573d6000803e3d6000fd5b505050506040513d601f19601f82011682018060405250810190611ede9190612c68565b60035460009060ff1615611f805760405162461bcd60e51b815260040161082d90612bd5565b60003411611fbf5760405162461bcd60e51b815260206004820152600c60248201526b139bc812165411481cd95b9d60a21b604482015260640161082d565b6040805160028082526060820183526000926020830190803683370190505090507355555555555555555555555555555555555555558160008151811061200857612008612c9b565b60200260200101906001600160a01b031690816001600160a01b031681525050838160018151811061203c5761203c612c9b565b6001600160a01b03928316602091820292909201015260015460009116637ff36ab53486853361206e4261012c612cb1565b6040518663ffffffff1660e01b815260040161208d9493929190612fb1565b60006040518083038185885af11580156120ab573d6000803e3d6000fd5b50505050506040513d6000823e601f3d908101601f191682016040526120d49190810190612d7e565b9050806001815181106120e9576120e9612c9b565b60200260200101519250846001600160a01b03167355555555555555555555555555555555555555556001600160a01b0316336001600160a01b0316600080516020613008833981519152348760405161214d929190918252602082015260400190565b60405180910390a4505092915050565b6000546001600160a01b031633146121875760405162461bcd60e51b815260040161082d90612f37565b6001600160a01b0381166121ce5760405162461bcd60e51b815260206004820152600e60248201526d24b73b30b634b2103937baba32b960911b604482015260640161082d565b600180546001600160a01b038381166001600160a01b0319831681179093556040519116919082907f02dc5c233404867c793b749c6d644beb2277536d18a7e7974d3f238e4c6f168490600090a35050565b604080516002808252606082018352600092839283929091602083019080368337019050509050858160008151811061225b5761225b612c9b565b60200260200101906001600160a01b031690816001600160a01b031681525050848160018151811061228f5761228f612c9b565b6001600160a01b03928316602091820292909201015260015460405163d06ca61f60e01b8152600092919091169063d06ca61f906122d39088908690600401612fe6565b600060405180830381865afa1580156122f0573d6000803e3d6000fd5b505050506040513d6000823e601f3d908101601f191682016040526123189190810190612d7e565b90508060018151811061232d5761232d612c9b565b6020026020010151935061271060025461271061234a9190612f0b565b6123549086612c0b565b61235e9190612c22565b92505050935093915050565b60408051600d8082526101c0820190925260609160009190602082016101a080368337019050509050735555555555555555555555555555555555555555816000815181106123bb576123bb612c9b565b60200260200101906001600160a01b031690816001600160a01b03168152505073b8ce59fc3717ada4c02eadf9682a9e934f625ebb8160018151811061240357612403612c9b565b60200260200101906001600160a01b031690816001600160a01b03168152505073b88339cb7199b77e23db6e890353e22632ba630f8160028151811061244b5761244b612c9b565b60200260200101906001600160a01b031690816001600160a01b03168152505073111111a1a0667d36bd57c0a9f569b980571111118160038151811061249357612493612c9b565b60200260200101906001600160a01b031690816001600160a01b031681525050730ad339d66bf4aed5ce31c64bc37b3244b6394a77816004815181106124db576124db612c9b565b60200260200101906001600160a01b031690816001600160a01b03168152505073211cc4dd073734da055fbf44a2b4667d5e5fe5d28160058151811061252357612523612c9b565b60200260200101906001600160a01b031690816001600160a01b031681525050735d3a1ff2b6bab83b63cd9ad0787074081a52ef348160068151811061256b5761256b612c9b565b60200260200101906001600160a01b031690816001600160a01b031681525050739fdbda0a5e284c32744d2f17ee5c74b284993463816007815181106125b3576125b3612c9b565b60200260200101906001600160a01b031690816001600160a01b0316815250507394e8396e0869c9f2200760af0621afd240e1cf38816008815181106125fb576125fb612c9b565b60200260200101906001600160a01b031690816001600160a01b03168152505073be6727b535545c67d5caa73dea54865b92cf79078160098151811061264357612643612c9b565b60200260200101906001600160a01b031690816001600160a01b03168152505073d8fc8f0b03eba61f64d08b0bef69d80916e5dda981600a8151811061268b5761268b612c9b565b60200260200101906001600160a01b031690816001600160a01b03168152505073b50a96253abdf803d85efcdce07ad8becbc52bd581600b815181106126d3576126d3612c9b565b60200260200101906001600160a01b031690816001600160a01b03168152505073068f321fa8fb9f0d135f290ef6a3e2813e1c8a2981600c8151811061271b5761271b612c9b565b6001600160a01b0390921660209283029190910190910152919050565b6000546001600160a01b031633146127625760405162461bcd60e51b815260040161082d90612f37565b6101f481111561279d5760405162461bcd60e51b81526020600482015260066024820152654d617820352560d01b604482015260640161082d565b600280549082905560408051828152602081018490527f07af09e2b23ebab5dd29fa2271d6ca4795031f308caf26ca605f4a719ffeed61910160405180910390a15050565b6000546001600160a01b0316331461280c5760405162461bcd60e51b815260040161082d90612f37565b6001600160a01b0381166128545760405162461bcd60e51b815260206004820152600f60248201526e496e76616c6964206164647265737360881b604482015260640161082d565b600080546001600160a01b0319166001600160a01b0392909216919091179055565b80356001600160a01b038116811461288d57600080fd5b919050565b6000602082840312156128a457600080fd5b6128ad82612876565b9392505050565b6000806000606084860312156128c957600080fd5b6128d284612876565b92506128e060208501612876565b9150604084013590509250925092565b60008083601f84011261290257600080fd5b50813567ffffffffffffffff81111561291a57600080fd5b6020830191508360208260051b850101111561293557600080fd5b9250929050565b6000806020838503121561294f57600080fd5b823567ffffffffffffffff81111561296657600080fd5b612972858286016128f0565b90969095509350505050565b6020808252825182820181905260009190848201906040850190845b818110156129b65783518352928401929184019160010161299a565b50909695505050505050565b6000806000606084860312156129d757600080fd5b6129e084612876565b95602085013595506040909401359392505050565b600080600060408486031215612a0a57600080fd5b83359250602084013567ffffffffffffffff811115612a2857600080fd5b612a34868287016128f0565b9497909650939450505050565b600060208284031215612a5357600080fd5b5035919050565b60018060a01b038316815260006020604081840152835180604085015260005b81811015612a9657858101830151858201606001528201612a7a565b506000606082860101526060601f19601f830116850101925050509392505050565b8015158114612ac657600080fd5b50565b600080600080600080600060c0888a031215612ae457600080fd5b612aed88612876565b9650612afb60208901612876565b955060408801359450606088013593506080880135612b1981612ab8565b925060a088013567ffffffffffffffff811115612b3557600080fd5b612b418a828b016128f0565b989b979a50959850939692959293505050565b60008060408385031215612b6757600080fd5b612b7083612876565b946020939093013593505050565b600081518084526020808501945080840160005b83811015612bb75781516001600160a01b031687529582019590820190600101612b92565b509495945050505050565b6020815260006128ad6020830184612b7e565b60208082526006908201526514185d5cd95960d21b604082015260600190565b634e487b7160e01b600052601160045260246000fd5b808202811582820484141761080157610801612bf5565b600082612c3f57634e487b7160e01b600052601260045260246000fd5b500490565b6001600160a01b039384168152919092166020820152604081019190915260600190565b600060208284031215612c7a57600080fd5b81516128ad81612ab8565b634e487b7160e01b600052604160045260246000fd5b634e487b7160e01b600052603260045260246000fd5b8082018082111561080157610801612bf5565b85815284602082015260a060408201526000612ce360a0830186612b7e565b6001600160a01b0394909416606083015250608001529392505050565b60405160a0810167ffffffffffffffff81118282101715612d2357612d23612c85565b60405290565b604051601f8201601f1916810167ffffffffffffffff81118282101715612d5257612d52612c85565b604052919050565b600067ffffffffffffffff821115612d7457612d74612c85565b5060051b60200190565b60006020808385031215612d9157600080fd5b825167ffffffffffffffff811115612da857600080fd5b8301601f81018513612db957600080fd5b8051612dcc612dc782612d5a565b612d29565b81815260059190911b82018301908381019087831115612deb57600080fd5b928401925b82841015612e0957835182529284019290840190612df0565b979650505050505050565b60008235609e19833603018112612e2a57600080fd5b9190910192915050565b600060a08236031215612e4657600080fd5b612e4e612d00565b612e5783612876565b81526020612e66818501612876565b818301526040840135604083015260608401356060830152608084013567ffffffffffffffff811115612e9857600080fd5b840136601f820112612ea957600080fd5b8035612eb7612dc782612d5a565b81815260059190911b82018301908381019036831115612ed657600080fd5b928401925b82841015612efb57612eec84612876565b82529284019290840190612edb565b6080860152509295945050505050565b8181038181111561080157610801612bf5565b600060018201612f3057612f30612bf5565b5060010190565b6020808252600a908201526927b7363c9037bbb732b960b11b604082015260600190565b83815260406020808301829052908201839052600090849060608401835b86811015612fa5576001600160a01b03612f9285612876565b1682529282019290820190600101612f79565b50979650505050505050565b848152608060208201526000612fca6080830186612b7e565b6001600160a01b03949094166040830152506060015292915050565b828152604060208201526000612fff6040830184612b7e565b94935050505056fe6782190c91d4a7e8ad2a867deed6ec0a970cab8ff137ae2bd4abd92b3810f4d3a2646970667358221220b600db715e78a9ab0e8c4bf7f6b0e819e182ddc8221e4bf6850619478c89086864736f6c63430008140033",
  "linkReferences": {},
  "deployedLinkReferences": {}
}